{
	"contracts/Poketmon.sol": {
		"Pokenmon": {
			"abi": [
				{
					"inputs": [],
					"stateMutability": "nonpayable",
					"type": "constructor"
				},
				{
					"inputs": [
						{
							"internalType": "address",
							"name": "",
							"type": "address"
						},
						{
							"internalType": "address",
							"name": "",
							"type": "address"
						}
					],
					"name": "allowance",
					"outputs": [
						{
							"internalType": "uint256",
							"name": "",
							"type": "uint256"
						}
					],
					"stateMutability": "view",
					"type": "function"
				},
				{
					"inputs": [
						{
							"internalType": "address",
							"name": "spender",
							"type": "address"
						},
						{
							"internalType": "uint256",
							"name": "amount",
							"type": "uint256"
						}
					],
					"name": "approve",
					"outputs": [
						{
							"internalType": "bool",
							"name": "",
							"type": "bool"
						}
					],
					"stateMutability": "nonpayable",
					"type": "function"
				},
				{
					"inputs": [
						{
							"internalType": "address",
							"name": "account",
							"type": "address"
						}
					],
					"name": "balanceOf",
					"outputs": [
						{
							"internalType": "uint256",
							"name": "",
							"type": "uint256"
						}
					],
					"stateMutability": "view",
					"type": "function"
				},
				{
					"inputs": [
						{
							"internalType": "address",
							"name": "",
							"type": "address"
						}
					],
					"name": "balances",
					"outputs": [
						{
							"internalType": "uint256",
							"name": "",
							"type": "uint256"
						}
					],
					"stateMutability": "view",
					"type": "function"
				},
				{
					"inputs": [
						{
							"internalType": "uint256",
							"name": "amount",
							"type": "uint256"
						}
					],
					"name": "burn",
					"outputs": [],
					"stateMutability": "nonpayable",
					"type": "function"
				},
				{
					"inputs": [],
					"name": "buyPokenmon",
					"outputs": [],
					"stateMutability": "nonpayable",
					"type": "function"
				},
				{
					"inputs": [],
					"name": "decimals",
					"outputs": [
						{
							"internalType": "uint8",
							"name": "",
							"type": "uint8"
						}
					],
					"stateMutability": "view",
					"type": "function"
				},
				{
					"inputs": [],
					"name": "getPokenmon",
					"outputs": [
						{
							"components": [
								{
									"internalType": "string",
									"name": "url",
									"type": "string"
								},
								{
									"internalType": "string",
									"name": "name",
									"type": "string"
								}
							],
							"internalType": "struct Pokenmon.Pokens[]",
							"name": "",
							"type": "tuple[]"
						}
					],
					"stateMutability": "view",
					"type": "function"
				},
				{
					"inputs": [],
					"name": "getPokenmonUsers",
					"outputs": [
						{
							"components": [
								{
									"internalType": "address",
									"name": "account",
									"type": "address"
								}
							],
							"internalType": "struct Pokenmon.Users[]",
							"name": "",
							"type": "tuple[]"
						}
					],
					"stateMutability": "view",
					"type": "function"
				},
				{
					"inputs": [],
					"name": "name",
					"outputs": [
						{
							"internalType": "string",
							"name": "",
							"type": "string"
						}
					],
					"stateMutability": "view",
					"type": "function"
				},
				{
					"inputs": [
						{
							"internalType": "address",
							"name": "",
							"type": "address"
						},
						{
							"internalType": "uint256",
							"name": "",
							"type": "uint256"
						}
					],
					"name": "pokenmons",
					"outputs": [
						{
							"internalType": "string",
							"name": "url",
							"type": "string"
						},
						{
							"internalType": "string",
							"name": "name",
							"type": "string"
						}
					],
					"stateMutability": "view",
					"type": "function"
				},
				{
					"inputs": [],
					"name": "symbol",
					"outputs": [
						{
							"internalType": "string",
							"name": "",
							"type": "string"
						}
					],
					"stateMutability": "view",
					"type": "function"
				},
				{
					"inputs": [],
					"name": "totalSupply",
					"outputs": [
						{
							"internalType": "uint256",
							"name": "",
							"type": "uint256"
						}
					],
					"stateMutability": "view",
					"type": "function"
				},
				{
					"inputs": [
						{
							"internalType": "address",
							"name": "to",
							"type": "address"
						},
						{
							"internalType": "uint256",
							"name": "amount",
							"type": "uint256"
						}
					],
					"name": "transfer",
					"outputs": [
						{
							"internalType": "bool",
							"name": "",
							"type": "bool"
						}
					],
					"stateMutability": "nonpayable",
					"type": "function"
				},
				{
					"inputs": [
						{
							"internalType": "address",
							"name": "sender",
							"type": "address"
						},
						{
							"internalType": "address",
							"name": "to",
							"type": "address"
						},
						{
							"internalType": "uint256",
							"name": "amount",
							"type": "uint256"
						}
					],
					"name": "transferFrom",
					"outputs": [
						{
							"internalType": "bool",
							"name": "",
							"type": "bool"
						}
					],
					"stateMutability": "nonpayable",
					"type": "function"
				},
				{
					"inputs": [
						{
							"internalType": "address",
							"name": "to",
							"type": "address"
						}
					],
					"name": "transferPoke",
					"outputs": [],
					"stateMutability": "nonpayable",
					"type": "function"
				},
				{
					"inputs": [
						{
							"internalType": "uint256",
							"name": "",
							"type": "uint256"
						}
					],
					"name": "users",
					"outputs": [
						{
							"internalType": "address",
							"name": "account",
							"type": "address"
						}
					],
					"stateMutability": "view",
					"type": "function"
				},
				{
					"stateMutability": "payable",
					"type": "receive"
				}
			],
			"devdoc": {
				"kind": "dev",
				"methods": {},
				"version": 1
			},
			"evm": {
				"assembly": "    /* \"contracts/Poketmon.sol\":86:5144  contract Pokenmon is ERC20 {... */\n  mstore(0x40, 0x80)\n    /* \"contracts/ERC20.sol\":291:293  18 */\n  0x12\n    /* \"contracts/ERC20.sol\":267:293  uint8 public decimals = 18 */\n  0x02\n  exp(0x0100, 0x00)\n  dup2\n  sload\n  dup2\n  0xff\n  mul\n  not\n  and\n  swap1\n  dup4\n  0xff\n  and\n  mul\n  or\n  swap1\n  sstore\n  pop\n    /* \"contracts/Poketmon.sol\":686:696  1000 ether */\n  0x3635c9adc5dea00000\n    /* \"contracts/Poketmon.sol\":657:696  uint256 private tokenPrice = 1000 ether */\n  0x07\n  sstore\n    /* \"contracts/Poketmon.sol\":956:1014  string[] pokenmonName = [\"Pikachu\", \"Kobuk\", \"Charmander\"] */\n  mload(0x40)\n  dup1\n  0x60\n  add\n  0x40\n  mstore\n  dup1\n  mload(0x40)\n  dup1\n  0x40\n  add\n  0x40\n  mstore\n  dup1\n  0x07\n  dup2\n  mstore\n  0x20\n  add\n  0x50696b6163687500000000000000000000000000000000000000000000000000\n  dup2\n  mstore\n  pop\n  dup2\n  mstore\n  0x20\n  add\n  mload(0x40)\n  dup1\n  0x40\n  add\n  0x40\n  mstore\n  dup1\n  0x05\n  dup2\n  mstore\n  0x20\n  add\n  0x4b6f62756b000000000000000000000000000000000000000000000000000000\n  dup2\n  mstore\n  pop\n  dup2\n  mstore\n  0x20\n  add\n  mload(0x40)\n  dup1\n  0x40\n  add\n  0x40\n  mstore\n  dup1\n  0x0a\n  dup2\n  mstore\n  0x20\n  add\n  0x436861726d616e64657200000000000000000000000000000000000000000000\n  dup2\n  mstore\n  pop\n  dup2\n  mstore\n  pop\n  0x08\n  swap1\n  0x03\n  tag_1\n  swap3\n  swap2\n  swap1\n  tag_2\n  jump\t// in\ntag_1:\n  pop\n    /* \"contracts/Poketmon.sol\":1081:1495  string[] pokenmonUrl = [... */\n  mload(0x40)\n  dup1\n  0x60\n  add\n  0x40\n  mstore\n  dup1\n  mload(0x40)\n  dup1\n  0xa0\n  add\n  0x40\n  mstore\n  dup1\n  0x78\n  dup2\n  mstore\n  0x20\n  add\n  data_8ad5c1408a0f47706110519be1662dcba9ec3b349c538638564a2394f3904a25\n  0x78\n  swap2\n  codecopy\n  dup2\n  mstore\n  0x20\n  add\n  mload(0x40)\n  dup1\n  0xa0\n  add\n  0x40\n  mstore\n  dup1\n  0x70\n  dup2\n  mstore\n  0x20\n  add\n  data_c1196ea258e314a0e8f031ccd6fb5bf1736c86f99161f64eb6964d60e93a8b8e\n  0x70\n  swap2\n  codecopy\n  dup2\n  mstore\n  0x20\n  add\n  mload(0x40)\n  dup1\n  0xa0\n  add\n  0x40\n  mstore\n  dup1\n  0x71\n  dup2\n  mstore\n  0x20\n  add\n  data_6c58f914793591484bd99eb2cb7aceafc84f7cf0e80c95f3c9c65fa4b831c9e3\n  0x71\n  swap2\n  codecopy\n  dup2\n  mstore\n  pop\n  0x09\n  swap1\n  0x03\n  tag_3\n  swap3\n  swap2\n  swap1\n  tag_2\n  jump\t// in\ntag_3:\n  pop\n    /* \"contracts/Poketmon.sol\":120:168  constructor() ERC20(\"Pokenmon\", \"PTK\", 10000) {} */\n  callvalue\n  dup1\n  iszero\n  tag_4\n  jumpi\n  0x00\n  dup1\n  revert\ntag_4:\n  pop\n    /* \"contracts/ERC20.sol\":1763:1976  constructor(string memory _name, string memory _symbol, uint256 _amount){... */\n  mload(0x40)\n  dup1\n  0x40\n  add\n  0x40\n  mstore\n  dup1\n  0x08\n  dup2\n  mstore\n  0x20\n  add\n  0x506f6b656e6d6f6e000000000000000000000000000000000000000000000000\n  dup2\n  mstore\n  pop\n  mload(0x40)\n  dup1\n  0x40\n  add\n  0x40\n  mstore\n  dup1\n  0x03\n  dup2\n  mstore\n  0x20\n  add\n  0x50544b0000000000000000000000000000000000000000000000000000000000\n  dup2\n  mstore\n  pop\n    /* \"contracts/Poketmon.sol\":159:164  10000 */\n  0x2710\n    /* \"contracts/ERC20.sol\":1854:1864  msg.sender */\n  caller\n    /* \"contracts/ERC20.sol\":1846:1851  owner */\n  0x04\n  0x00\n    /* \"contracts/ERC20.sol\":1846:1864  owner = msg.sender */\n  0x0100\n  exp\n  dup2\n  sload\n  dup2\n  0xffffffffffffffffffffffffffffffffffffffff\n  mul\n  not\n  and\n  swap1\n  dup4\n  0xffffffffffffffffffffffffffffffffffffffff\n  and\n  mul\n  or\n  swap1\n  sstore\n  pop\n    /* \"contracts/ERC20.sol\":1882:1887  _name */\n  dup3\n    /* \"contracts/ERC20.sol\":1875:1879  name */\n  0x00\n    /* \"contracts/ERC20.sol\":1875:1887  name = _name */\n  swap1\n  dup2\n  tag_8\n  swap2\n  swap1\n  tag_9\n  jump\t// in\ntag_8:\n  pop\n    /* \"contracts/ERC20.sol\":1907:1914  _symbol */\n  dup2\n    /* \"contracts/ERC20.sol\":1898:1904  symbol */\n  0x01\n    /* \"contracts/ERC20.sol\":1898:1914  symbol = _symbol */\n  swap1\n  dup2\n  tag_10\n  swap2\n  swap1\n  tag_9\n  jump\t// in\ntag_10:\n  pop\n    /* \"contracts/ERC20.sol\":1925:1966  mint(_amount * (10 ** uint256(decimals))) */\n  tag_11\n    /* \"contracts/ERC20.sol\":1955:1963  decimals */\n  0x02\n  0x00\n  swap1\n  sload\n  swap1\n  0x0100\n  exp\n  swap1\n  div\n  0xff\n  and\n    /* \"contracts/ERC20.sol\":1947:1964  uint256(decimals) */\n  0xff\n  and\n    /* \"contracts/ERC20.sol\":1941:1943  10 */\n  0x0a\n    /* \"contracts/ERC20.sol\":1941:1964  10 ** uint256(decimals) */\n  tag_12\n  swap2\n  swap1\n  tag_13\n  jump\t// in\ntag_12:\n    /* \"contracts/ERC20.sol\":1930:1937  _amount */\n  dup3\n    /* \"contracts/ERC20.sol\":1930:1965  _amount * (10 ** uint256(decimals)) */\n  tag_14\n  swap2\n  swap1\n  tag_15\n  jump\t// in\ntag_14:\n    /* \"contracts/ERC20.sol\":1925:1929  mint */\n  shl(0x20, tag_16)\n    /* \"contracts/ERC20.sol\":1925:1966  mint(_amount * (10 ** uint256(decimals))) */\n  0x20\n  shr\n  jump\t// in\ntag_11:\n    /* \"contracts/ERC20.sol\":1763:1976  constructor(string memory _name, string memory _symbol, uint256 _amount){... */\n  pop\n  pop\n  pop\n    /* \"contracts/Poketmon.sol\":86:5144  contract Pokenmon is ERC20 {... */\n  jump(tag_18)\n    /* \"contracts/ERC20.sol\":1984:2097  function mint(uint amount) internal{... */\ntag_16:\n    /* \"contracts/ERC20.sol\":2052:2058  amount */\n  dup1\n    /* \"contracts/ERC20.sol\":2030:2038  balances */\n  0x05\n    /* \"contracts/ERC20.sol\":2030:2050  balances[msg.sender] */\n  0x00\n    /* \"contracts/ERC20.sol\":2039:2049  msg.sender */\n  caller\n    /* \"contracts/ERC20.sol\":2030:2050  balances[msg.sender] */\n  0xffffffffffffffffffffffffffffffffffffffff\n  and\n  0xffffffffffffffffffffffffffffffffffffffff\n  and\n  dup2\n  mstore\n  0x20\n  add\n  swap1\n  dup2\n  mstore\n  0x20\n  add\n  0x00\n  keccak256\n  0x00\n    /* \"contracts/ERC20.sol\":2030:2058  balances[msg.sender]+=amount */\n  dup3\n  dup3\n  sload\n  tag_20\n  swap2\n  swap1\n  tag_21\n  jump\t// in\ntag_20:\n  swap3\n  pop\n  pop\n  dup2\n  swap1\n  sstore\n  pop\n    /* \"contracts/ERC20.sol\":2083:2089  amount */\n  dup1\n    /* \"contracts/ERC20.sol\":2069:2080  totalSupply */\n  0x03\n  0x00\n    /* \"contracts/ERC20.sol\":2069:2089  totalSupply +=amount */\n  dup3\n  dup3\n  sload\n  tag_22\n  swap2\n  swap1\n  tag_21\n  jump\t// in\ntag_22:\n  swap3\n  pop\n  pop\n  dup2\n  swap1\n  sstore\n  pop\n    /* \"contracts/ERC20.sol\":1984:2097  function mint(uint amount) internal{... */\n  pop\n  jump\t// out\n    /* \"contracts/Poketmon.sol\":86:5144  contract Pokenmon is ERC20 {... */\ntag_2:\n  dup3\n  dup1\n  sload\n  dup3\n  dup3\n  sstore\n  swap1\n  0x00\n  mstore\n  keccak256(0x00, 0x20)\n  swap1\n  dup2\n  add\n  swap3\n  dup3\n  iszero\n  tag_23\n  jumpi\n  swap2\n  0x20\n  mul\n  dup3\n  add\ntag_24:\n  dup3\n  dup2\n  gt\n  iszero\n  tag_25\n  jumpi\n  dup3\n  mload\n  dup3\n  swap1\n  dup2\n  tag_26\n  swap2\n  swap1\n  tag_9\n  jump\t// in\ntag_26:\n  pop\n  swap2\n  0x20\n  add\n  swap2\n  swap1\n  0x01\n  add\n  swap1\n  jump(tag_24)\ntag_25:\ntag_23:\n  pop\n  swap1\n  pop\n  tag_27\n  swap2\n  swap1\n  tag_28\n  jump\t// in\ntag_27:\n  pop\n  swap1\n  jump\t// out\ntag_28:\ntag_29:\n  dup1\n  dup3\n  gt\n  iszero\n  tag_30\n  jumpi\n  0x00\n  dup2\n  dup2\n  tag_31\n  swap2\n  swap1\n  tag_32\n  jump\t// in\ntag_31:\n  pop\n  0x01\n  add\n  jump(tag_29)\ntag_30:\n  pop\n  swap1\n  jump\t// out\ntag_32:\n  pop\n  dup1\n  sload\n  tag_33\n  swap1\n  tag_34\n  jump\t// in\ntag_33:\n  0x00\n  dup3\n  sstore\n  dup1\n  0x1f\n  lt\n  tag_36\n  jumpi\n  pop\n  jump(tag_35)\ntag_36:\n  0x1f\n  add\n  0x20\n  swap1\n  div\n  swap1\n  0x00\n  mstore\n  keccak256(0x00, 0x20)\n  swap1\n  dup2\n  add\n  swap1\n  tag_37\n  swap2\n  swap1\n  tag_38\n  jump\t// in\ntag_37:\ntag_35:\n  pop\n  jump\t// out\ntag_38:\ntag_39:\n  dup1\n  dup3\n  gt\n  iszero\n  tag_40\n  jumpi\n  0x00\n  dup2\n  0x00\n  swap1\n  sstore\n  pop\n  0x01\n  add\n  jump(tag_39)\ntag_40:\n  pop\n  swap1\n  jump\t// out\n    /* \"#utility.yul\":7:106   */\ntag_41:\n    /* \"#utility.yul\":59:65   */\n  0x00\n    /* \"#utility.yul\":93:98   */\n  dup2\n    /* \"#utility.yul\":87:99   */\n  mload\n    /* \"#utility.yul\":77:99   */\n  swap1\n  pop\n    /* \"#utility.yul\":7:106   */\n  swap2\n  swap1\n  pop\n  jump\t// out\n    /* \"#utility.yul\":112:292   */\ntag_42:\n    /* \"#utility.yul\":160:237   */\n  0x4e487b7100000000000000000000000000000000000000000000000000000000\n    /* \"#utility.yul\":157:158   */\n  0x00\n    /* \"#utility.yul\":150:238   */\n  mstore\n    /* \"#utility.yul\":257:261   */\n  0x41\n    /* \"#utility.yul\":254:255   */\n  0x04\n    /* \"#utility.yul\":247:262   */\n  mstore\n    /* \"#utility.yul\":281:285   */\n  0x24\n    /* \"#utility.yul\":278:279   */\n  0x00\n    /* \"#utility.yul\":271:286   */\n  revert\n    /* \"#utility.yul\":298:478   */\ntag_43:\n    /* \"#utility.yul\":346:423   */\n  0x4e487b7100000000000000000000000000000000000000000000000000000000\n    /* \"#utility.yul\":343:344   */\n  0x00\n    /* \"#utility.yul\":336:424   */\n  mstore\n    /* \"#utility.yul\":443:447   */\n  0x22\n    /* \"#utility.yul\":440:441   */\n  0x04\n    /* \"#utility.yul\":433:448   */\n  mstore\n    /* \"#utility.yul\":467:471   */\n  0x24\n    /* \"#utility.yul\":464:465   */\n  0x00\n    /* \"#utility.yul\":457:472   */\n  revert\n    /* \"#utility.yul\":484:804   */\ntag_34:\n    /* \"#utility.yul\":528:534   */\n  0x00\n    /* \"#utility.yul\":565:566   */\n  0x02\n    /* \"#utility.yul\":559:563   */\n  dup3\n    /* \"#utility.yul\":555:567   */\n  div\n    /* \"#utility.yul\":545:567   */\n  swap1\n  pop\n    /* \"#utility.yul\":612:613   */\n  0x01\n    /* \"#utility.yul\":606:610   */\n  dup3\n    /* \"#utility.yul\":602:614   */\n  and\n    /* \"#utility.yul\":633:651   */\n  dup1\n    /* \"#utility.yul\":623:704   */\n  tag_69\n  jumpi\n    /* \"#utility.yul\":689:693   */\n  0x7f\n    /* \"#utility.yul\":681:687   */\n  dup3\n    /* \"#utility.yul\":677:694   */\n  and\n    /* \"#utility.yul\":667:694   */\n  swap2\n  pop\n    /* \"#utility.yul\":623:704   */\ntag_69:\n    /* \"#utility.yul\":751:753   */\n  0x20\n    /* \"#utility.yul\":743:749   */\n  dup3\n    /* \"#utility.yul\":740:754   */\n  lt\n    /* \"#utility.yul\":720:738   */\n  dup2\n    /* \"#utility.yul\":717:755   */\n  sub\n    /* \"#utility.yul\":714:798   */\n  tag_70\n  jumpi\n    /* \"#utility.yul\":770:788   */\n  tag_71\n  tag_43\n  jump\t// in\ntag_71:\n    /* \"#utility.yul\":714:798   */\ntag_70:\n    /* \"#utility.yul\":535:804   */\n  pop\n    /* \"#utility.yul\":484:804   */\n  swap2\n  swap1\n  pop\n  jump\t// out\n    /* \"#utility.yul\":810:951   */\ntag_44:\n    /* \"#utility.yul\":859:863   */\n  0x00\n    /* \"#utility.yul\":882:885   */\n  dup2\n    /* \"#utility.yul\":874:885   */\n  swap1\n  pop\n    /* \"#utility.yul\":905:908   */\n  dup2\n    /* \"#utility.yul\":902:903   */\n  0x00\n    /* \"#utility.yul\":895:909   */\n  mstore\n    /* \"#utility.yul\":939:943   */\n  0x20\n    /* \"#utility.yul\":936:937   */\n  0x00\n    /* \"#utility.yul\":926:944   */\n  keccak256\n    /* \"#utility.yul\":918:944   */\n  swap1\n  pop\n    /* \"#utility.yul\":810:951   */\n  swap2\n  swap1\n  pop\n  jump\t// out\n    /* \"#utility.yul\":957:1050   */\ntag_45:\n    /* \"#utility.yul\":994:1000   */\n  0x00\n    /* \"#utility.yul\":1041:1043   */\n  0x20\n    /* \"#utility.yul\":1036:1038   */\n  0x1f\n    /* \"#utility.yul\":1029:1034   */\n  dup4\n    /* \"#utility.yul\":1025:1039   */\n  add\n    /* \"#utility.yul\":1021:1044   */\n  div\n    /* \"#utility.yul\":1011:1044   */\n  swap1\n  pop\n    /* \"#utility.yul\":957:1050   */\n  swap2\n  swap1\n  pop\n  jump\t// out\n    /* \"#utility.yul\":1056:1163   */\ntag_46:\n    /* \"#utility.yul\":1100:1108   */\n  0x00\n    /* \"#utility.yul\":1150:1155   */\n  dup3\n    /* \"#utility.yul\":1144:1148   */\n  dup3\n    /* \"#utility.yul\":1140:1156   */\n  shl\n    /* \"#utility.yul\":1119:1156   */\n  swap1\n  pop\n    /* \"#utility.yul\":1056:1163   */\n  swap3\n  swap2\n  pop\n  pop\n  jump\t// out\n    /* \"#utility.yul\":1169:1562   */\ntag_47:\n    /* \"#utility.yul\":1238:1244   */\n  0x00\n    /* \"#utility.yul\":1288:1289   */\n  0x08\n    /* \"#utility.yul\":1276:1286   */\n  dup4\n    /* \"#utility.yul\":1272:1290   */\n  mul\n    /* \"#utility.yul\":1311:1408   */\n  tag_76\n    /* \"#utility.yul\":1341:1407   */\n  0xffffffffffffffffffffffffffffffffffffffffffffffffffffffffffffffff\n    /* \"#utility.yul\":1330:1339   */\n  dup3\n    /* \"#utility.yul\":1311:1408   */\n  tag_46\n  jump\t// in\ntag_76:\n    /* \"#utility.yul\":1429:1468   */\n  tag_77\n    /* \"#utility.yul\":1459:1467   */\n  dup7\n    /* \"#utility.yul\":1448:1457   */\n  dup4\n    /* \"#utility.yul\":1429:1468   */\n  tag_46\n  jump\t// in\ntag_77:\n    /* \"#utility.yul\":1417:1468   */\n  swap6\n  pop\n    /* \"#utility.yul\":1501:1505   */\n  dup1\n    /* \"#utility.yul\":1497:1506   */\n  not\n    /* \"#utility.yul\":1490:1495   */\n  dup5\n    /* \"#utility.yul\":1486:1507   */\n  and\n    /* \"#utility.yul\":1477:1507   */\n  swap4\n  pop\n    /* \"#utility.yul\":1550:1554   */\n  dup1\n    /* \"#utility.yul\":1540:1548   */\n  dup7\n    /* \"#utility.yul\":1536:1555   */\n  and\n    /* \"#utility.yul\":1529:1534   */\n  dup5\n    /* \"#utility.yul\":1526:1556   */\n  or\n    /* \"#utility.yul\":1516:1556   */\n  swap3\n  pop\n    /* \"#utility.yul\":1245:1562   */\n  pop\n  pop\n    /* \"#utility.yul\":1169:1562   */\n  swap4\n  swap3\n  pop\n  pop\n  pop\n  jump\t// out\n    /* \"#utility.yul\":1568:1645   */\ntag_48:\n    /* \"#utility.yul\":1605:1612   */\n  0x00\n    /* \"#utility.yul\":1634:1639   */\n  dup2\n    /* \"#utility.yul\":1623:1639   */\n  swap1\n  pop\n    /* \"#utility.yul\":1568:1645   */\n  swap2\n  swap1\n  pop\n  jump\t// out\n    /* \"#utility.yul\":1651:1711   */\ntag_49:\n    /* \"#utility.yul\":1679:1682   */\n  0x00\n    /* \"#utility.yul\":1700:1705   */\n  dup2\n    /* \"#utility.yul\":1693:1705   */\n  swap1\n  pop\n    /* \"#utility.yul\":1651:1711   */\n  swap2\n  swap1\n  pop\n  jump\t// out\n    /* \"#utility.yul\":1717:1859   */\ntag_50:\n    /* \"#utility.yul\":1767:1776   */\n  0x00\n    /* \"#utility.yul\":1800:1853   */\n  tag_81\n    /* \"#utility.yul\":1818:1852   */\n  tag_82\n    /* \"#utility.yul\":1827:1851   */\n  tag_83\n    /* \"#utility.yul\":1845:1850   */\n  dup5\n    /* \"#utility.yul\":1827:1851   */\n  tag_48\n  jump\t// in\ntag_83:\n    /* \"#utility.yul\":1818:1852   */\n  tag_49\n  jump\t// in\ntag_82:\n    /* \"#utility.yul\":1800:1853   */\n  tag_48\n  jump\t// in\ntag_81:\n    /* \"#utility.yul\":1787:1853   */\n  swap1\n  pop\n    /* \"#utility.yul\":1717:1859   */\n  swap2\n  swap1\n  pop\n  jump\t// out\n    /* \"#utility.yul\":1865:1940   */\ntag_51:\n    /* \"#utility.yul\":1908:1911   */\n  0x00\n    /* \"#utility.yul\":1929:1934   */\n  dup2\n    /* \"#utility.yul\":1922:1934   */\n  swap1\n  pop\n    /* \"#utility.yul\":1865:1940   */\n  swap2\n  swap1\n  pop\n  jump\t// out\n    /* \"#utility.yul\":1946:2215   */\ntag_52:\n    /* \"#utility.yul\":2056:2095   */\n  tag_86\n    /* \"#utility.yul\":2087:2094   */\n  dup4\n    /* \"#utility.yul\":2056:2095   */\n  tag_50\n  jump\t// in\ntag_86:\n    /* \"#utility.yul\":2117:2208   */\n  tag_87\n    /* \"#utility.yul\":2166:2207   */\n  tag_88\n    /* \"#utility.yul\":2190:2206   */\n  dup3\n    /* \"#utility.yul\":2166:2207   */\n  tag_51\n  jump\t// in\ntag_88:\n    /* \"#utility.yul\":2158:2164   */\n  dup5\n    /* \"#utility.yul\":2151:2155   */\n  dup5\n    /* \"#utility.yul\":2145:2156   */\n  sload\n    /* \"#utility.yul\":2117:2208   */\n  tag_47\n  jump\t// in\ntag_87:\n    /* \"#utility.yul\":2111:2115   */\n  dup3\n    /* \"#utility.yul\":2104:2209   */\n  sstore\n    /* \"#utility.yul\":2022:2215   */\n  pop\n    /* \"#utility.yul\":1946:2215   */\n  pop\n  pop\n  pop\n  jump\t// out\n    /* \"#utility.yul\":2221:2294   */\ntag_53:\n    /* \"#utility.yul\":2266:2269   */\n  0x00\n    /* \"#utility.yul\":2221:2294   */\n  swap1\n  jump\t// out\n    /* \"#utility.yul\":2300:2489   */\ntag_54:\n    /* \"#utility.yul\":2377:2409   */\n  tag_91\n  tag_53\n  jump\t// in\ntag_91:\n    /* \"#utility.yul\":2418:2483   */\n  tag_92\n    /* \"#utility.yul\":2476:2482   */\n  dup2\n    /* \"#utility.yul\":2468:2474   */\n  dup5\n    /* \"#utility.yul\":2462:2466   */\n  dup5\n    /* \"#utility.yul\":2418:2483   */\n  tag_52\n  jump\t// in\ntag_92:\n    /* \"#utility.yul\":2353:2489   */\n  pop\n    /* \"#utility.yul\":2300:2489   */\n  pop\n  pop\n  jump\t// out\n    /* \"#utility.yul\":2495:2681   */\ntag_55:\n    /* \"#utility.yul\":2555:2675   */\ntag_94:\n    /* \"#utility.yul\":2572:2575   */\n  dup2\n    /* \"#utility.yul\":2565:2570   */\n  dup2\n    /* \"#utility.yul\":2562:2576   */\n  lt\n    /* \"#utility.yul\":2555:2675   */\n  iszero\n  tag_96\n  jumpi\n    /* \"#utility.yul\":2626:2665   */\n  tag_97\n    /* \"#utility.yul\":2663:2664   */\n  0x00\n    /* \"#utility.yul\":2656:2661   */\n  dup3\n    /* \"#utility.yul\":2626:2665   */\n  tag_54\n  jump\t// in\ntag_97:\n    /* \"#utility.yul\":2599:2600   */\n  0x01\n    /* \"#utility.yul\":2592:2597   */\n  dup2\n    /* \"#utility.yul\":2588:2601   */\n  add\n    /* \"#utility.yul\":2579:2601   */\n  swap1\n  pop\n    /* \"#utility.yul\":2555:2675   */\n  jump(tag_94)\ntag_96:\n    /* \"#utility.yul\":2495:2681   */\n  pop\n  pop\n  jump\t// out\n    /* \"#utility.yul\":2687:3230   */\ntag_56:\n    /* \"#utility.yul\":2788:2790   */\n  0x1f\n    /* \"#utility.yul\":2783:2786   */\n  dup3\n    /* \"#utility.yul\":2780:2791   */\n  gt\n    /* \"#utility.yul\":2777:3223   */\n  iszero\n  tag_99\n  jumpi\n    /* \"#utility.yul\":2822:2860   */\n  tag_100\n    /* \"#utility.yul\":2854:2859   */\n  dup2\n    /* \"#utility.yul\":2822:2860   */\n  tag_44\n  jump\t// in\ntag_100:\n    /* \"#utility.yul\":2906:2935   */\n  tag_101\n    /* \"#utility.yul\":2924:2934   */\n  dup5\n    /* \"#utility.yul\":2906:2935   */\n  tag_45\n  jump\t// in\ntag_101:\n    /* \"#utility.yul\":2896:2904   */\n  dup2\n    /* \"#utility.yul\":2892:2936   */\n  add\n    /* \"#utility.yul\":3089:3091   */\n  0x20\n    /* \"#utility.yul\":3077:3087   */\n  dup6\n    /* \"#utility.yul\":3074:3092   */\n  lt\n    /* \"#utility.yul\":3071:3120   */\n  iszero\n  tag_102\n  jumpi\n    /* \"#utility.yul\":3110:3118   */\n  dup2\n    /* \"#utility.yul\":3095:3118   */\n  swap1\n  pop\n    /* \"#utility.yul\":3071:3120   */\ntag_102:\n    /* \"#utility.yul\":3133:3213   */\n  tag_103\n    /* \"#utility.yul\":3189:3211   */\n  tag_104\n    /* \"#utility.yul\":3207:3210   */\n  dup6\n    /* \"#utility.yul\":3189:3211   */\n  tag_45\n  jump\t// in\ntag_104:\n    /* \"#utility.yul\":3179:3187   */\n  dup4\n    /* \"#utility.yul\":3175:3212   */\n  add\n    /* \"#utility.yul\":3162:3173   */\n  dup3\n    /* \"#utility.yul\":3133:3213   */\n  tag_55\n  jump\t// in\ntag_103:\n    /* \"#utility.yul\":2792:3223   */\n  pop\n  pop\n    /* \"#utility.yul\":2777:3223   */\ntag_99:\n    /* \"#utility.yul\":2687:3230   */\n  pop\n  pop\n  pop\n  jump\t// out\n    /* \"#utility.yul\":3236:3353   */\ntag_57:\n    /* \"#utility.yul\":3290:3298   */\n  0x00\n    /* \"#utility.yul\":3340:3345   */\n  dup3\n    /* \"#utility.yul\":3334:3338   */\n  dup3\n    /* \"#utility.yul\":3330:3346   */\n  shr\n    /* \"#utility.yul\":3309:3346   */\n  swap1\n  pop\n    /* \"#utility.yul\":3236:3353   */\n  swap3\n  swap2\n  pop\n  pop\n  jump\t// out\n    /* \"#utility.yul\":3359:3528   */\ntag_58:\n    /* \"#utility.yul\":3403:3409   */\n  0x00\n    /* \"#utility.yul\":3436:3487   */\n  tag_107\n    /* \"#utility.yul\":3484:3485   */\n  0x00\n    /* \"#utility.yul\":3480:3486   */\n  not\n    /* \"#utility.yul\":3472:3477   */\n  dup5\n    /* \"#utility.yul\":3469:3470   */\n  0x08\n    /* \"#utility.yul\":3465:3478   */\n  mul\n    /* \"#utility.yul\":3436:3487   */\n  tag_57\n  jump\t// in\ntag_107:\n    /* \"#utility.yul\":3432:3488   */\n  not\n    /* \"#utility.yul\":3517:3521   */\n  dup1\n    /* \"#utility.yul\":3511:3515   */\n  dup4\n    /* \"#utility.yul\":3507:3522   */\n  and\n    /* \"#utility.yul\":3497:3522   */\n  swap2\n  pop\n    /* \"#utility.yul\":3410:3528   */\n  pop\n    /* \"#utility.yul\":3359:3528   */\n  swap3\n  swap2\n  pop\n  pop\n  jump\t// out\n    /* \"#utility.yul\":3533:3828   */\ntag_59:\n    /* \"#utility.yul\":3609:3613   */\n  0x00\n    /* \"#utility.yul\":3755:3784   */\n  tag_109\n    /* \"#utility.yul\":3780:3783   */\n  dup4\n    /* \"#utility.yul\":3774:3778   */\n  dup4\n    /* \"#utility.yul\":3755:3784   */\n  tag_58\n  jump\t// in\ntag_109:\n    /* \"#utility.yul\":3747:3784   */\n  swap2\n  pop\n    /* \"#utility.yul\":3817:3820   */\n  dup3\n    /* \"#utility.yul\":3814:3815   */\n  0x02\n    /* \"#utility.yul\":3810:3821   */\n  mul\n    /* \"#utility.yul\":3804:3808   */\n  dup3\n    /* \"#utility.yul\":3801:3822   */\n  or\n    /* \"#utility.yul\":3793:3822   */\n  swap1\n  pop\n    /* \"#utility.yul\":3533:3828   */\n  swap3\n  swap2\n  pop\n  pop\n  jump\t// out\n    /* \"#utility.yul\":3833:5228   */\ntag_9:\n    /* \"#utility.yul\":3950:3987   */\n  tag_111\n    /* \"#utility.yul\":3983:3986   */\n  dup3\n    /* \"#utility.yul\":3950:3987   */\n  tag_41\n  jump\t// in\ntag_111:\n    /* \"#utility.yul\":4052:4070   */\n  0xffffffffffffffff\n    /* \"#utility.yul\":4044:4050   */\n  dup2\n    /* \"#utility.yul\":4041:4071   */\n  gt\n    /* \"#utility.yul\":4038:4094   */\n  iszero\n  tag_112\n  jumpi\n    /* \"#utility.yul\":4074:4092   */\n  tag_113\n  tag_42\n  jump\t// in\ntag_113:\n    /* \"#utility.yul\":4038:4094   */\ntag_112:\n    /* \"#utility.yul\":4118:4156   */\n  tag_114\n    /* \"#utility.yul\":4150:4154   */\n  dup3\n    /* \"#utility.yul\":4144:4155   */\n  sload\n    /* \"#utility.yul\":4118:4156   */\n  tag_34\n  jump\t// in\ntag_114:\n    /* \"#utility.yul\":4203:4270   */\n  tag_115\n    /* \"#utility.yul\":4263:4269   */\n  dup3\n    /* \"#utility.yul\":4255:4261   */\n  dup3\n    /* \"#utility.yul\":4249:4253   */\n  dup6\n    /* \"#utility.yul\":4203:4270   */\n  tag_56\n  jump\t// in\ntag_115:\n    /* \"#utility.yul\":4297:4298   */\n  0x00\n    /* \"#utility.yul\":4321:4325   */\n  0x20\n    /* \"#utility.yul\":4308:4325   */\n  swap1\n  pop\n    /* \"#utility.yul\":4353:4355   */\n  0x1f\n    /* \"#utility.yul\":4345:4351   */\n  dup4\n    /* \"#utility.yul\":4342:4356   */\n  gt\n    /* \"#utility.yul\":4370:4371   */\n  0x01\n    /* \"#utility.yul\":4365:4983   */\n  dup2\n  eq\n  tag_117\n  jumpi\n    /* \"#utility.yul\":5027:5028   */\n  0x00\n    /* \"#utility.yul\":5044:5050   */\n  dup5\n    /* \"#utility.yul\":5041:5118   */\n  iszero\n  tag_118\n  jumpi\n    /* \"#utility.yul\":5093:5102   */\n  dup3\n    /* \"#utility.yul\":5088:5091   */\n  dup8\n    /* \"#utility.yul\":5084:5103   */\n  add\n    /* \"#utility.yul\":5078:5104   */\n  mload\n    /* \"#utility.yul\":5069:5104   */\n  swap1\n  pop\n    /* \"#utility.yul\":5041:5118   */\ntag_118:\n    /* \"#utility.yul\":5144:5211   */\n  tag_119\n    /* \"#utility.yul\":5204:5210   */\n  dup6\n    /* \"#utility.yul\":5197:5202   */\n  dup3\n    /* \"#utility.yul\":5144:5211   */\n  tag_59\n  jump\t// in\ntag_119:\n    /* \"#utility.yul\":5138:5142   */\n  dup7\n    /* \"#utility.yul\":5131:5212   */\n  sstore\n    /* \"#utility.yul\":5000:5222   */\n  pop\n    /* \"#utility.yul\":4335:5222   */\n  jump(tag_116)\n    /* \"#utility.yul\":4365:4983   */\ntag_117:\n    /* \"#utility.yul\":4417:4421   */\n  0x1f\n    /* \"#utility.yul\":4413:4422   */\n  not\n    /* \"#utility.yul\":4405:4411   */\n  dup5\n    /* \"#utility.yul\":4401:4423   */\n  and\n    /* \"#utility.yul\":4451:4488   */\n  tag_120\n    /* \"#utility.yul\":4483:4487   */\n  dup7\n    /* \"#utility.yul\":4451:4488   */\n  tag_44\n  jump\t// in\ntag_120:\n    /* \"#utility.yul\":4510:4511   */\n  0x00\n    /* \"#utility.yul\":4524:4732   */\ntag_121:\n    /* \"#utility.yul\":4538:4545   */\n  dup3\n    /* \"#utility.yul\":4535:4536   */\n  dup2\n    /* \"#utility.yul\":4532:4546   */\n  lt\n    /* \"#utility.yul\":4524:4732   */\n  iszero\n  tag_123\n  jumpi\n    /* \"#utility.yul\":4617:4626   */\n  dup5\n    /* \"#utility.yul\":4612:4615   */\n  dup10\n    /* \"#utility.yul\":4608:4627   */\n  add\n    /* \"#utility.yul\":4602:4628   */\n  mload\n    /* \"#utility.yul\":4594:4600   */\n  dup3\n    /* \"#utility.yul\":4587:4629   */\n  sstore\n    /* \"#utility.yul\":4668:4669   */\n  0x01\n    /* \"#utility.yul\":4660:4666   */\n  dup3\n    /* \"#utility.yul\":4656:4670   */\n  add\n    /* \"#utility.yul\":4646:4670   */\n  swap2\n  pop\n    /* \"#utility.yul\":4715:4717   */\n  0x20\n    /* \"#utility.yul\":4704:4713   */\n  dup6\n    /* \"#utility.yul\":4700:4718   */\n  add\n    /* \"#utility.yul\":4687:4718   */\n  swap5\n  pop\n    /* \"#utility.yul\":4561:4565   */\n  0x20\n    /* \"#utility.yul\":4558:4559   */\n  dup2\n    /* \"#utility.yul\":4554:4566   */\n  add\n    /* \"#utility.yul\":4549:4566   */\n  swap1\n  pop\n    /* \"#utility.yul\":4524:4732   */\n  jump(tag_121)\ntag_123:\n    /* \"#utility.yul\":4760:4766   */\n  dup7\n    /* \"#utility.yul\":4751:4758   */\n  dup4\n    /* \"#utility.yul\":4748:4767   */\n  lt\n    /* \"#utility.yul\":4745:4924   */\n  iszero\n  tag_124\n  jumpi\n    /* \"#utility.yul\":4818:4827   */\n  dup5\n    /* \"#utility.yul\":4813:4816   */\n  dup10\n    /* \"#utility.yul\":4809:4828   */\n  add\n    /* \"#utility.yul\":4803:4829   */\n  mload\n    /* \"#utility.yul\":4861:4909   */\n  tag_125\n    /* \"#utility.yul\":4903:4907   */\n  0x1f\n    /* \"#utility.yul\":4895:4901   */\n  dup10\n    /* \"#utility.yul\":4891:4908   */\n  and\n    /* \"#utility.yul\":4880:4889   */\n  dup3\n    /* \"#utility.yul\":4861:4909   */\n  tag_58\n  jump\t// in\ntag_125:\n    /* \"#utility.yul\":4853:4859   */\n  dup4\n    /* \"#utility.yul\":4846:4910   */\n  sstore\n    /* \"#utility.yul\":4768:4924   */\n  pop\n    /* \"#utility.yul\":4745:4924   */\ntag_124:\n    /* \"#utility.yul\":4970:4971   */\n  0x01\n    /* \"#utility.yul\":4966:4967   */\n  0x02\n    /* \"#utility.yul\":4958:4964   */\n  dup9\n    /* \"#utility.yul\":4954:4968   */\n  mul\n    /* \"#utility.yul\":4950:4972   */\n  add\n    /* \"#utility.yul\":4944:4948   */\n  dup9\n    /* \"#utility.yul\":4937:4973   */\n  sstore\n    /* \"#utility.yul\":4372:4983   */\n  pop\n  pop\n  pop\n    /* \"#utility.yul\":4335:5222   */\ntag_116:\n  pop\n    /* \"#utility.yul\":3925:5228   */\n  pop\n  pop\n  pop\n    /* \"#utility.yul\":3833:5228   */\n  pop\n  pop\n  jump\t// out\n    /* \"#utility.yul\":5234:5414   */\ntag_60:\n    /* \"#utility.yul\":5282:5359   */\n  0x4e487b7100000000000000000000000000000000000000000000000000000000\n    /* \"#utility.yul\":5279:5280   */\n  0x00\n    /* \"#utility.yul\":5272:5360   */\n  mstore\n    /* \"#utility.yul\":5379:5383   */\n  0x11\n    /* \"#utility.yul\":5376:5377   */\n  0x04\n    /* \"#utility.yul\":5369:5384   */\n  mstore\n    /* \"#utility.yul\":5403:5407   */\n  0x24\n    /* \"#utility.yul\":5400:5401   */\n  0x00\n    /* \"#utility.yul\":5393:5408   */\n  revert\n    /* \"#utility.yul\":5420:5522   */\ntag_61:\n    /* \"#utility.yul\":5462:5470   */\n  0x00\n    /* \"#utility.yul\":5509:5514   */\n  dup2\n    /* \"#utility.yul\":5506:5507   */\n  0x01\n    /* \"#utility.yul\":5502:5515   */\n  shr\n    /* \"#utility.yul\":5481:5515   */\n  swap1\n  pop\n    /* \"#utility.yul\":5420:5522   */\n  swap2\n  swap1\n  pop\n  jump\t// out\n    /* \"#utility.yul\":5528:6376   */\ntag_62:\n    /* \"#utility.yul\":5589:5594   */\n  0x00\n    /* \"#utility.yul\":5596:5600   */\n  dup1\n    /* \"#utility.yul\":5620:5626   */\n  dup3\n    /* \"#utility.yul\":5611:5626   */\n  swap2\n  pop\n    /* \"#utility.yul\":5644:5649   */\n  dup4\n    /* \"#utility.yul\":5635:5649   */\n  swap1\n  pop\n    /* \"#utility.yul\":5658:6370   */\ntag_129:\n    /* \"#utility.yul\":5679:5680   */\n  0x01\n    /* \"#utility.yul\":5669:5677   */\n  dup6\n    /* \"#utility.yul\":5666:5681   */\n  gt\n    /* \"#utility.yul\":5658:6370   */\n  iszero\n  tag_131\n  jumpi\n    /* \"#utility.yul\":5774:5778   */\n  dup1\n    /* \"#utility.yul\":5769:5772   */\n  dup7\n    /* \"#utility.yul\":5765:5779   */\n  div\n    /* \"#utility.yul\":5759:5763   */\n  dup2\n    /* \"#utility.yul\":5756:5780   */\n  gt\n    /* \"#utility.yul\":5753:5803   */\n  iszero\n  tag_132\n  jumpi\n    /* \"#utility.yul\":5783:5801   */\n  tag_133\n  tag_60\n  jump\t// in\ntag_133:\n    /* \"#utility.yul\":5753:5803   */\ntag_132:\n    /* \"#utility.yul\":5833:5834   */\n  0x01\n    /* \"#utility.yul\":5823:5831   */\n  dup6\n    /* \"#utility.yul\":5819:5835   */\n  and\n    /* \"#utility.yul\":5816:6267   */\n  iszero\n  tag_134\n  jumpi\n    /* \"#utility.yul\":6248:6252   */\n  dup1\n    /* \"#utility.yul\":6241:6246   */\n  dup3\n    /* \"#utility.yul\":6237:6253   */\n  mul\n    /* \"#utility.yul\":6228:6253   */\n  swap2\n  pop\n    /* \"#utility.yul\":5816:6267   */\ntag_134:\n    /* \"#utility.yul\":6298:6302   */\n  dup1\n    /* \"#utility.yul\":6292:6296   */\n  dup2\n    /* \"#utility.yul\":6288:6303   */\n  mul\n    /* \"#utility.yul\":6280:6303   */\n  swap1\n  pop\n    /* \"#utility.yul\":6328:6360   */\n  tag_135\n    /* \"#utility.yul\":6351:6359   */\n  dup6\n    /* \"#utility.yul\":6328:6360   */\n  tag_61\n  jump\t// in\ntag_135:\n    /* \"#utility.yul\":6316:6360   */\n  swap5\n  pop\n    /* \"#utility.yul\":5658:6370   */\n  jump(tag_129)\ntag_131:\n    /* \"#utility.yul\":5528:6376   */\n  swap5\n  pop\n  swap5\n  swap3\n  pop\n  pop\n  pop\n  jump\t// out\n    /* \"#utility.yul\":6382:7455   */\ntag_63:\n    /* \"#utility.yul\":6436:6441   */\n  0x00\n    /* \"#utility.yul\":6627:6635   */\n  dup3\n    /* \"#utility.yul\":6617:6657   */\n  tag_137\n  jumpi\n    /* \"#utility.yul\":6648:6649   */\n  0x01\n    /* \"#utility.yul\":6639:6649   */\n  swap1\n  pop\n    /* \"#utility.yul\":6650:6655   */\n  jump(tag_136)\n    /* \"#utility.yul\":6617:6657   */\ntag_137:\n    /* \"#utility.yul\":6676:6680   */\n  dup2\n    /* \"#utility.yul\":6666:6702   */\n  tag_138\n  jumpi\n    /* \"#utility.yul\":6693:6694   */\n  0x00\n    /* \"#utility.yul\":6684:6694   */\n  swap1\n  pop\n    /* \"#utility.yul\":6695:6700   */\n  jump(tag_136)\n    /* \"#utility.yul\":6666:6702   */\ntag_138:\n    /* \"#utility.yul\":6762:6766   */\n  dup2\n    /* \"#utility.yul\":6810:6811   */\n  0x01\n    /* \"#utility.yul\":6805:6832   */\n  dup2\n  eq\n  tag_140\n  jumpi\n    /* \"#utility.yul\":6846:6847   */\n  0x02\n    /* \"#utility.yul\":6841:7032   */\n  dup2\n  eq\n  tag_141\n  jumpi\n    /* \"#utility.yul\":6755:7032   */\n  jump(tag_139)\n    /* \"#utility.yul\":6805:6832   */\ntag_140:\n    /* \"#utility.yul\":6823:6824   */\n  0x01\n    /* \"#utility.yul\":6814:6824   */\n  swap2\n  pop\n    /* \"#utility.yul\":6825:6830   */\n  pop\n  jump(tag_136)\n    /* \"#utility.yul\":6841:7032   */\ntag_141:\n    /* \"#utility.yul\":6886:6889   */\n  0xff\n    /* \"#utility.yul\":6876:6884   */\n  dup5\n    /* \"#utility.yul\":6873:6890   */\n  gt\n    /* \"#utility.yul\":6870:6913   */\n  iszero\n  tag_142\n  jumpi\n    /* \"#utility.yul\":6893:6911   */\n  tag_143\n  tag_60\n  jump\t// in\ntag_143:\n    /* \"#utility.yul\":6870:6913   */\ntag_142:\n    /* \"#utility.yul\":6942:6950   */\n  dup4\n    /* \"#utility.yul\":6939:6940   */\n  0x02\n    /* \"#utility.yul\":6935:6951   */\n  exp\n    /* \"#utility.yul\":6926:6951   */\n  swap2\n  pop\n    /* \"#utility.yul\":6977:6980   */\n  dup5\n    /* \"#utility.yul\":6970:6975   */\n  dup3\n    /* \"#utility.yul\":6967:6981   */\n  gt\n    /* \"#utility.yul\":6964:7004   */\n  iszero\n  tag_144\n  jumpi\n    /* \"#utility.yul\":6984:7002   */\n  tag_145\n  tag_60\n  jump\t// in\ntag_145:\n    /* \"#utility.yul\":6964:7004   */\ntag_144:\n    /* \"#utility.yul\":7017:7022   */\n  pop\n  jump(tag_136)\n    /* \"#utility.yul\":6755:7032   */\ntag_139:\n  pop\n    /* \"#utility.yul\":7141:7143   */\n  0x20\n    /* \"#utility.yul\":7131:7139   */\n  dup4\n    /* \"#utility.yul\":7128:7144   */\n  lt\n    /* \"#utility.yul\":7122:7125   */\n  0x0133\n    /* \"#utility.yul\":7116:7120   */\n  dup4\n    /* \"#utility.yul\":7113:7126   */\n  lt\n    /* \"#utility.yul\":7109:7145   */\n  and\n    /* \"#utility.yul\":7091:7093   */\n  0x4e\n    /* \"#utility.yul\":7081:7089   */\n  dup5\n    /* \"#utility.yul\":7078:7094   */\n  lt\n    /* \"#utility.yul\":7073:7075   */\n  0x0b\n    /* \"#utility.yul\":7067:7071   */\n  dup5\n    /* \"#utility.yul\":7064:7076   */\n  lt\n    /* \"#utility.yul\":7060:7095   */\n  and\n    /* \"#utility.yul\":7044:7155   */\n  or\n    /* \"#utility.yul\":7041:7287   */\n  iszero\n  tag_146\n  jumpi\n    /* \"#utility.yul\":7197:7205   */\n  dup3\n    /* \"#utility.yul\":7191:7195   */\n  dup3\n    /* \"#utility.yul\":7187:7206   */\n  exp\n    /* \"#utility.yul\":7178:7206   */\n  swap1\n  pop\n    /* \"#utility.yul\":7232:7235   */\n  dup4\n    /* \"#utility.yul\":7225:7230   */\n  dup2\n    /* \"#utility.yul\":7222:7236   */\n  gt\n    /* \"#utility.yul\":7219:7259   */\n  iszero\n  tag_147\n  jumpi\n    /* \"#utility.yul\":7239:7257   */\n  tag_148\n  tag_60\n  jump\t// in\ntag_148:\n    /* \"#utility.yul\":7219:7259   */\ntag_147:\n    /* \"#utility.yul\":7272:7277   */\n  jump(tag_136)\n    /* \"#utility.yul\":7041:7287   */\ntag_146:\n    /* \"#utility.yul\":7312:7354   */\n  tag_149\n    /* \"#utility.yul\":7350:7353   */\n  dup5\n    /* \"#utility.yul\":7340:7348   */\n  dup5\n    /* \"#utility.yul\":7334:7338   */\n  dup5\n    /* \"#utility.yul\":7331:7332   */\n  0x01\n    /* \"#utility.yul\":7312:7354   */\n  tag_62\n  jump\t// in\ntag_149:\n    /* \"#utility.yul\":7297:7354   */\n  swap3\n  pop\n  swap1\n  pop\n    /* \"#utility.yul\":7386:7390   */\n  dup2\n    /* \"#utility.yul\":7381:7384   */\n  dup5\n    /* \"#utility.yul\":7377:7391   */\n  div\n    /* \"#utility.yul\":7370:7375   */\n  dup2\n    /* \"#utility.yul\":7367:7392   */\n  gt\n    /* \"#utility.yul\":7364:7415   */\n  iszero\n  tag_150\n  jumpi\n    /* \"#utility.yul\":7395:7413   */\n  tag_151\n  tag_60\n  jump\t// in\ntag_151:\n    /* \"#utility.yul\":7364:7415   */\ntag_150:\n    /* \"#utility.yul\":7444:7448   */\n  dup2\n    /* \"#utility.yul\":7437:7442   */\n  dup2\n    /* \"#utility.yul\":7433:7449   */\n  mul\n    /* \"#utility.yul\":7424:7449   */\n  swap1\n  pop\n    /* \"#utility.yul\":6382:7455   */\ntag_136:\n  swap4\n  swap3\n  pop\n  pop\n  pop\n  jump\t// out\n    /* \"#utility.yul\":7461:7746   */\ntag_13:\n    /* \"#utility.yul\":7521:7526   */\n  0x00\n    /* \"#utility.yul\":7545:7568   */\n  tag_153\n    /* \"#utility.yul\":7563:7567   */\n  dup3\n    /* \"#utility.yul\":7545:7568   */\n  tag_48\n  jump\t// in\ntag_153:\n    /* \"#utility.yul\":7537:7568   */\n  swap2\n  pop\n    /* \"#utility.yul\":7589:7616   */\n  tag_154\n    /* \"#utility.yul\":7607:7615   */\n  dup4\n    /* \"#utility.yul\":7589:7616   */\n  tag_48\n  jump\t// in\ntag_154:\n    /* \"#utility.yul\":7577:7616   */\n  swap3\n  pop\n    /* \"#utility.yul\":7635:7739   */\n  tag_155\n    /* \"#utility.yul\":7672:7738   */\n  0xffffffffffffffffffffffffffffffffffffffffffffffffffffffffffffffff\n    /* \"#utility.yul\":7662:7670   */\n  dup5\n    /* \"#utility.yul\":7656:7660   */\n  dup5\n    /* \"#utility.yul\":7635:7739   */\n  tag_63\n  jump\t// in\ntag_155:\n    /* \"#utility.yul\":7626:7739   */\n  swap1\n  pop\n    /* \"#utility.yul\":7461:7746   */\n  swap3\n  swap2\n  pop\n  pop\n  jump\t// out\n    /* \"#utility.yul\":7752:8162   */\ntag_15:\n    /* \"#utility.yul\":7792:7799   */\n  0x00\n    /* \"#utility.yul\":7815:7835   */\n  tag_157\n    /* \"#utility.yul\":7833:7834   */\n  dup3\n    /* \"#utility.yul\":7815:7835   */\n  tag_48\n  jump\t// in\ntag_157:\n    /* \"#utility.yul\":7810:7835   */\n  swap2\n  pop\n    /* \"#utility.yul\":7849:7869   */\n  tag_158\n    /* \"#utility.yul\":7867:7868   */\n  dup4\n    /* \"#utility.yul\":7849:7869   */\n  tag_48\n  jump\t// in\ntag_158:\n    /* \"#utility.yul\":7844:7869   */\n  swap3\n  pop\n    /* \"#utility.yul\":7904:7905   */\n  dup3\n    /* \"#utility.yul\":7901:7902   */\n  dup3\n    /* \"#utility.yul\":7897:7906   */\n  mul\n    /* \"#utility.yul\":7926:7956   */\n  tag_159\n    /* \"#utility.yul\":7944:7955   */\n  dup2\n    /* \"#utility.yul\":7926:7956   */\n  tag_48\n  jump\t// in\ntag_159:\n    /* \"#utility.yul\":7915:7956   */\n  swap2\n  pop\n    /* \"#utility.yul\":8105:8106   */\n  dup3\n    /* \"#utility.yul\":8096:8103   */\n  dup3\n    /* \"#utility.yul\":8092:8107   */\n  div\n    /* \"#utility.yul\":8089:8090   */\n  dup5\n    /* \"#utility.yul\":8086:8108   */\n  eq\n    /* \"#utility.yul\":8066:8067   */\n  dup4\n    /* \"#utility.yul\":8059:8068   */\n  iszero\n    /* \"#utility.yul\":8039:8122   */\n  or\n    /* \"#utility.yul\":8016:8155   */\n  tag_160\n  jumpi\n    /* \"#utility.yul\":8135:8153   */\n  tag_161\n  tag_60\n  jump\t// in\ntag_161:\n    /* \"#utility.yul\":8016:8155   */\ntag_160:\n    /* \"#utility.yul\":7800:8162   */\n  pop\n    /* \"#utility.yul\":7752:8162   */\n  swap3\n  swap2\n  pop\n  pop\n  jump\t// out\n    /* \"#utility.yul\":8168:8359   */\ntag_21:\n    /* \"#utility.yul\":8208:8211   */\n  0x00\n    /* \"#utility.yul\":8227:8247   */\n  tag_163\n    /* \"#utility.yul\":8245:8246   */\n  dup3\n    /* \"#utility.yul\":8227:8247   */\n  tag_48\n  jump\t// in\ntag_163:\n    /* \"#utility.yul\":8222:8247   */\n  swap2\n  pop\n    /* \"#utility.yul\":8261:8281   */\n  tag_164\n    /* \"#utility.yul\":8279:8280   */\n  dup4\n    /* \"#utility.yul\":8261:8281   */\n  tag_48\n  jump\t// in\ntag_164:\n    /* \"#utility.yul\":8256:8281   */\n  swap3\n  pop\n    /* \"#utility.yul\":8304:8305   */\n  dup3\n    /* \"#utility.yul\":8301:8302   */\n  dup3\n    /* \"#utility.yul\":8297:8306   */\n  add\n    /* \"#utility.yul\":8290:8306   */\n  swap1\n  pop\n    /* \"#utility.yul\":8325:8328   */\n  dup1\n    /* \"#utility.yul\":8322:8323   */\n  dup3\n    /* \"#utility.yul\":8319:8329   */\n  gt\n    /* \"#utility.yul\":8316:8352   */\n  iszero\n  tag_165\n  jumpi\n    /* \"#utility.yul\":8332:8350   */\n  tag_166\n  tag_60\n  jump\t// in\ntag_166:\n    /* \"#utility.yul\":8316:8352   */\ntag_165:\n    /* \"#utility.yul\":8168:8359   */\n  swap3\n  swap2\n  pop\n  pop\n  jump\t// out\n    /* \"contracts/Poketmon.sol\":86:5144  contract Pokenmon is ERC20 {... */\ntag_18:\n  dataSize(sub_0)\n  dup1\n  dataOffset(sub_0)\n  0x00\n  codecopy\n  0x00\n  return\nstop\ndata_6c58f914793591484bd99eb2cb7aceafc84f7cf0e80c95f3c9c65fa4b831c9e3 68747470733a2f2f692e6e616d752e77696b692f692f776b7748626c3331397343466c5452367074395034416e686175576559743961323851744766353044625232684155725a3768636162647749334b765053484a64364a6f4c4a39505a4d4f4e4e5863644530734f71672e77656270\ndata_8ad5c1408a0f47706110519be1662dcba9ec3b349c538638564a2394f3904a25 68747470733a2f2f6d626c6f677468756d622d7068696e662e707374617469632e6e65742f32303136303831375f3235392f7265747370655f31343731343131383839303132357343326a5f504e472f2543372543372543342541422543332546325f253238312532392e706e673f747970653d77383030\ndata_c1196ea258e314a0e8f031ccd6fb5bf1736c86f99161f64eb6964d60e93a8b8e 68747470733a2f2f692e6e616d752e77696b692f692f717857336e4f7833634475365547536147544b6d37436b4a6762704935434d4a4849716c6c33594d4148374468434e4a49326536304435764d4f726570526163733453735a48455f6678334a304a664b79344e4e4e512e676966\n\nsub_0: assembly {\n        /* \"contracts/Poketmon.sol\":86:5144  contract Pokenmon is ERC20 {... */\n      mstore(0x40, 0x80)\n      jumpi(tag_1, lt(calldatasize, 0x04))\n      shr(0xe0, calldataload(0x00))\n      dup1\n      0x42966c68\n      gt\n      tag_20\n      jumpi\n      dup1\n      0xa9059cbb\n      gt\n      tag_21\n      jumpi\n      dup1\n      0xa9059cbb\n      eq\n      tag_15\n      jumpi\n      dup1\n      0xdd62ed3e\n      eq\n      tag_16\n      jumpi\n      dup1\n      0xe3e2940f\n      eq\n      tag_17\n      jumpi\n      dup1\n      0xefa9fbc5\n      eq\n      tag_18\n      jumpi\n      dup1\n      0xf5bf26fc\n      eq\n      tag_19\n      jumpi\n      jump(tag_2)\n    tag_21:\n      dup1\n      0x42966c68\n      eq\n      tag_11\n      jumpi\n      dup1\n      0x70a08231\n      eq\n      tag_12\n      jumpi\n      dup1\n      0x78196cbc\n      eq\n      tag_13\n      jumpi\n      dup1\n      0x95d89b41\n      eq\n      tag_14\n      jumpi\n      jump(tag_2)\n    tag_20:\n      dup1\n      0x27e235e3\n      gt\n      tag_22\n      jumpi\n      dup1\n      0x27e235e3\n      eq\n      tag_7\n      jumpi\n      dup1\n      0x2e7099a7\n      eq\n      tag_8\n      jumpi\n      dup1\n      0x313ce567\n      eq\n      tag_9\n      jumpi\n      dup1\n      0x365b98b2\n      eq\n      tag_10\n      jumpi\n      jump(tag_2)\n    tag_22:\n      dup1\n      0x06fdde03\n      eq\n      tag_3\n      jumpi\n      dup1\n      0x095ea7b3\n      eq\n      tag_4\n      jumpi\n      dup1\n      0x18160ddd\n      eq\n      tag_5\n      jumpi\n      dup1\n      0x23b872dd\n      eq\n      tag_6\n      jumpi\n      jump(tag_2)\n    tag_1:\n      jumpi(tag_2, calldatasize)\n        /* \"contracts/ERC20.sol\":1300:1311  uint amount */\n      0x00\n        /* \"contracts/ERC20.sol\":1325:1328  200 */\n      0xc8\n        /* \"contracts/ERC20.sol\":1314:1323  msg.value */\n      callvalue\n        /* \"contracts/ERC20.sol\":1314:1328  msg.value *200 */\n      tag_25\n      swap2\n      swap1\n      tag_26\n      jump\t// in\n    tag_25:\n        /* \"contracts/ERC20.sol\":1300:1328  uint amount = msg.value *200 */\n      swap1\n      pop\n        /* \"contracts/ERC20.sol\":1366:1372  amount */\n      dup1\n        /* \"contracts/ERC20.sol\":1349:1357  balances */\n      0x05\n        /* \"contracts/ERC20.sol\":1349:1364  balances[owner] */\n      0x00\n        /* \"contracts/ERC20.sol\":1358:1363  owner */\n      0x04\n      0x00\n      swap1\n      sload\n      swap1\n      0x0100\n      exp\n      swap1\n      div\n      0xffffffffffffffffffffffffffffffffffffffff\n      and\n        /* \"contracts/ERC20.sol\":1349:1364  balances[owner] */\n      0xffffffffffffffffffffffffffffffffffffffff\n      and\n      0xffffffffffffffffffffffffffffffffffffffff\n      and\n      dup2\n      mstore\n      0x20\n      add\n      swap1\n      dup2\n      mstore\n      0x20\n      add\n      0x00\n      keccak256\n      sload\n        /* \"contracts/ERC20.sol\":1349:1372  balances[owner]>=amount */\n      lt\n      iszero\n        /* \"contracts/ERC20.sol\":1341:1373  require(balances[owner]>=amount) */\n      tag_27\n      jumpi\n      0x00\n      dup1\n      revert\n    tag_27:\n        /* \"contracts/ERC20.sol\":1401:1407  amount */\n      dup1\n        /* \"contracts/ERC20.sol\":1384:1392  balances */\n      0x05\n        /* \"contracts/ERC20.sol\":1384:1399  balances[owner] */\n      0x00\n        /* \"contracts/ERC20.sol\":1393:1398  owner */\n      0x04\n      0x00\n      swap1\n      sload\n      swap1\n      0x0100\n      exp\n      swap1\n      div\n      0xffffffffffffffffffffffffffffffffffffffff\n      and\n        /* \"contracts/ERC20.sol\":1384:1399  balances[owner] */\n      0xffffffffffffffffffffffffffffffffffffffff\n      and\n      0xffffffffffffffffffffffffffffffffffffffff\n      and\n      dup2\n      mstore\n      0x20\n      add\n      swap1\n      dup2\n      mstore\n      0x20\n      add\n      0x00\n      keccak256\n      0x00\n        /* \"contracts/ERC20.sol\":1384:1407  balances[owner]-=amount */\n      dup3\n      dup3\n      sload\n      tag_28\n      swap2\n      swap1\n      tag_29\n      jump\t// in\n    tag_28:\n      swap3\n      pop\n      pop\n      dup2\n      swap1\n      sstore\n      pop\n        /* \"contracts/ERC20.sol\":1441:1447  amount */\n      dup1\n        /* \"contracts/ERC20.sol\":1418:1426  balances */\n      0x05\n        /* \"contracts/ERC20.sol\":1418:1438  balances[msg.sender] */\n      0x00\n        /* \"contracts/ERC20.sol\":1427:1437  msg.sender */\n      caller\n        /* \"contracts/ERC20.sol\":1418:1438  balances[msg.sender] */\n      0xffffffffffffffffffffffffffffffffffffffff\n      and\n      0xffffffffffffffffffffffffffffffffffffffff\n      and\n      dup2\n      mstore\n      0x20\n      add\n      swap1\n      dup2\n      mstore\n      0x20\n      add\n      0x00\n      keccak256\n      0x00\n        /* \"contracts/ERC20.sol\":1418:1447  balances[msg.sender] +=amount */\n      dup3\n      dup3\n      sload\n      tag_30\n      swap2\n      swap1\n      tag_31\n      jump\t// in\n    tag_30:\n      swap3\n      pop\n      pop\n      dup2\n      swap1\n      sstore\n      pop\n        /* \"contracts/ERC20.sol\":1670:1675  owner */\n      0x04\n      0x00\n      swap1\n      sload\n      swap1\n      0x0100\n      exp\n      swap1\n      div\n      0xffffffffffffffffffffffffffffffffffffffff\n      and\n        /* \"contracts/ERC20.sol\":1657:1675  msg.sender ==owner */\n      0xffffffffffffffffffffffffffffffffffffffff\n      and\n        /* \"contracts/ERC20.sol\":1657:1667  msg.sender */\n      caller\n        /* \"contracts/ERC20.sol\":1657:1675  msg.sender ==owner */\n      0xffffffffffffffffffffffffffffffffffffffff\n      and\n      sub\n        /* \"contracts/ERC20.sol\":1654:1715  if(msg.sender ==owner){... */\n      tag_32\n      jumpi\n        /* \"contracts/ERC20.sol\":1691:1703  mint(amount) */\n      tag_33\n        /* \"contracts/ERC20.sol\":1696:1702  amount */\n      dup2\n        /* \"contracts/ERC20.sol\":1691:1695  mint */\n      tag_34\n        /* \"contracts/ERC20.sol\":1691:1703  mint(amount) */\n      jump\t// in\n    tag_33:\n        /* \"contracts/ERC20.sol\":1654:1715  if(msg.sender ==owner){... */\n    tag_32:\n        /* \"contracts/ERC20.sol\":916:1724  {... */\n      stop\n        /* \"contracts/Poketmon.sol\":86:5144  contract Pokenmon is ERC20 {... */\n    tag_2:\n      0x00\n      dup1\n      revert\n        /* \"contracts/ERC20.sol\":144:162  string public name */\n    tag_3:\n      callvalue\n      dup1\n      iszero\n      tag_35\n      jumpi\n      0x00\n      dup1\n      revert\n    tag_35:\n      pop\n      tag_36\n      tag_37\n      jump\t// in\n    tag_36:\n      mload(0x40)\n      tag_38\n      swap2\n      swap1\n      tag_39\n      jump\t// in\n    tag_38:\n      mload(0x40)\n      dup1\n      swap2\n      sub\n      swap1\n      return\n        /* \"contracts/ERC20.sol\":2411:2731  function approve(address spender, uint amount) external override returns(bool){... */\n    tag_4:\n      callvalue\n      dup1\n      iszero\n      tag_40\n      jumpi\n      0x00\n      dup1\n      revert\n    tag_40:\n      pop\n      tag_41\n      0x04\n      dup1\n      calldatasize\n      sub\n      dup2\n      add\n      swap1\n      tag_42\n      swap2\n      swap1\n      tag_43\n      jump\t// in\n    tag_42:\n      tag_44\n      jump\t// in\n    tag_41:\n      mload(0x40)\n      tag_45\n      swap2\n      swap1\n      tag_46\n      jump\t// in\n    tag_45:\n      mload(0x40)\n      dup1\n      swap2\n      sub\n      swap1\n      return\n        /* \"contracts/ERC20.sol\":341:373  uint public override totalSupply */\n    tag_5:\n      callvalue\n      dup1\n      iszero\n      tag_47\n      jumpi\n      0x00\n      dup1\n      revert\n    tag_47:\n      pop\n      tag_48\n      tag_49\n      jump\t// in\n    tag_48:\n      mload(0x40)\n      tag_50\n      swap2\n      swap1\n      tag_51\n      jump\t// in\n    tag_50:\n      mload(0x40)\n      dup1\n      swap2\n      sub\n      swap1\n      return\n        /* \"contracts/ERC20.sol\":2739:3107  function transferFrom(address sender, address to, uint amount) external override returns(bool){... */\n    tag_6:\n      callvalue\n      dup1\n      iszero\n      tag_52\n      jumpi\n      0x00\n      dup1\n      revert\n    tag_52:\n      pop\n      tag_53\n      0x04\n      dup1\n      calldatasize\n      sub\n      dup2\n      add\n      swap1\n      tag_54\n      swap2\n      swap1\n      tag_55\n      jump\t// in\n    tag_54:\n      tag_56\n      jump\t// in\n    tag_53:\n      mload(0x40)\n      tag_57\n      swap2\n      swap1\n      tag_46\n      jump\t// in\n    tag_57:\n      mload(0x40)\n      dup1\n      swap2\n      sub\n      swap1\n      return\n        /* \"contracts/ERC20.sol\":412:451  mapping(address => uint)public balances */\n    tag_7:\n      callvalue\n      dup1\n      iszero\n      tag_58\n      jumpi\n      0x00\n      dup1\n      revert\n    tag_58:\n      pop\n      tag_59\n      0x04\n      dup1\n      calldatasize\n      sub\n      dup2\n      add\n      swap1\n      tag_60\n      swap2\n      swap1\n      tag_61\n      jump\t// in\n    tag_60:\n      tag_62\n      jump\t// in\n    tag_59:\n      mload(0x40)\n      tag_63\n      swap2\n      swap1\n      tag_51\n      jump\t// in\n    tag_63:\n      mload(0x40)\n      dup1\n      swap2\n      sub\n      swap1\n      return\n        /* \"contracts/Poketmon.sol\":2066:2162  function getPokenmonUsers() public view returns (Users[] memory) {... */\n    tag_8:\n      callvalue\n      dup1\n      iszero\n      tag_64\n      jumpi\n      0x00\n      dup1\n      revert\n    tag_64:\n      pop\n      tag_65\n      tag_66\n      jump\t// in\n    tag_65:\n      mload(0x40)\n      tag_67\n      swap2\n      swap1\n      tag_68\n      jump\t// in\n    tag_67:\n      mload(0x40)\n      dup1\n      swap2\n      sub\n      swap1\n      return\n        /* \"contracts/ERC20.sol\":267:293  uint8 public decimals = 18 */\n    tag_9:\n      callvalue\n      dup1\n      iszero\n      tag_69\n      jumpi\n      0x00\n      dup1\n      revert\n    tag_69:\n      pop\n      tag_70\n      tag_71\n      jump\t// in\n    tag_70:\n      mload(0x40)\n      tag_72\n      swap2\n      swap1\n      tag_73\n      jump\t// in\n    tag_72:\n      mload(0x40)\n      dup1\n      swap2\n      sub\n      swap1\n      return\n        /* \"contracts/Poketmon.sol\":1864:1884  Users[] public users */\n    tag_10:\n      callvalue\n      dup1\n      iszero\n      tag_74\n      jumpi\n      0x00\n      dup1\n      revert\n    tag_74:\n      pop\n      tag_75\n      0x04\n      dup1\n      calldatasize\n      sub\n      dup2\n      add\n      swap1\n      tag_76\n      swap2\n      swap1\n      tag_77\n      jump\t// in\n    tag_76:\n      tag_78\n      jump\t// in\n    tag_75:\n      mload(0x40)\n      tag_79\n      swap2\n      swap1\n      tag_80\n      jump\t// in\n    tag_79:\n      mload(0x40)\n      dup1\n      swap2\n      sub\n      swap1\n      return\n        /* \"contracts/ERC20.sol\":3113:3227  function burn(uint amount) external{... */\n    tag_11:\n      callvalue\n      dup1\n      iszero\n      tag_81\n      jumpi\n      0x00\n      dup1\n      revert\n    tag_81:\n      pop\n      tag_82\n      0x04\n      dup1\n      calldatasize\n      sub\n      dup2\n      add\n      swap1\n      tag_83\n      swap2\n      swap1\n      tag_77\n      jump\t// in\n    tag_83:\n      tag_84\n      jump\t// in\n    tag_82:\n      stop\n        /* \"contracts/ERC20.sol\":2105:2220  function balanceOf(address account) external view override returns(uint){... */\n    tag_12:\n      callvalue\n      dup1\n      iszero\n      tag_85\n      jumpi\n      0x00\n      dup1\n      revert\n    tag_85:\n      pop\n      tag_86\n      0x04\n      dup1\n      calldatasize\n      sub\n      dup2\n      add\n      swap1\n      tag_87\n      swap2\n      swap1\n      tag_61\n      jump\t// in\n    tag_87:\n      tag_88\n      jump\t// in\n    tag_86:\n      mload(0x40)\n      tag_89\n      swap2\n      swap1\n      tag_51\n      jump\t// in\n    tag_89:\n      mload(0x40)\n      dup1\n      swap2\n      sub\n      swap1\n      return\n        /* \"contracts/Poketmon.sol\":1950:2058  function getPokenmon() public view returns (Pokens[] memory) {... */\n    tag_13:\n      callvalue\n      dup1\n      iszero\n      tag_90\n      jumpi\n      0x00\n      dup1\n      revert\n    tag_90:\n      pop\n      tag_91\n      tag_92\n      jump\t// in\n    tag_91:\n      mload(0x40)\n      tag_93\n      swap2\n      swap1\n      tag_94\n      jump\t// in\n    tag_93:\n      mload(0x40)\n      dup1\n      swap2\n      sub\n      swap1\n      return\n        /* \"contracts/ERC20.sol\":203:223  string public symbol */\n    tag_14:\n      callvalue\n      dup1\n      iszero\n      tag_95\n      jumpi\n      0x00\n      dup1\n      revert\n    tag_95:\n      pop\n      tag_96\n      tag_97\n      jump\t// in\n    tag_96:\n      mload(0x40)\n      tag_98\n      swap2\n      swap1\n      tag_39\n      jump\t// in\n    tag_98:\n      mload(0x40)\n      dup1\n      swap2\n      sub\n      swap1\n      return\n        /* \"contracts/ERC20.sol\":2228:2403  function transfer(address to, uint amount) external override returns(bool){... */\n    tag_15:\n      callvalue\n      dup1\n      iszero\n      tag_99\n      jumpi\n      0x00\n      dup1\n      revert\n    tag_99:\n      pop\n      tag_100\n      0x04\n      dup1\n      calldatasize\n      sub\n      dup2\n      add\n      swap1\n      tag_101\n      swap2\n      swap1\n      tag_43\n      jump\t// in\n    tag_101:\n      tag_102\n      jump\t// in\n    tag_100:\n      mload(0x40)\n      tag_103\n      swap2\n      swap1\n      tag_46\n      jump\t// in\n    tag_103:\n      mload(0x40)\n      dup1\n      swap2\n      sub\n      swap1\n      return\n        /* \"contracts/ERC20.sol\":505:572  mapping(address=> mapping(address =>uint))public override allowance */\n    tag_16:\n      callvalue\n      dup1\n      iszero\n      tag_104\n      jumpi\n      0x00\n      dup1\n      revert\n    tag_104:\n      pop\n      tag_105\n      0x04\n      dup1\n      calldatasize\n      sub\n      dup2\n      add\n      swap1\n      tag_106\n      swap2\n      swap1\n      tag_107\n      jump\t// in\n    tag_106:\n      tag_108\n      jump\t// in\n    tag_105:\n      mload(0x40)\n      tag_109\n      swap2\n      swap1\n      tag_51\n      jump\t// in\n    tag_109:\n      mload(0x40)\n      dup1\n      swap2\n      sub\n      swap1\n      return\n        /* \"contracts/Poketmon.sol\":3138:4036  function transferPoke(address to) public {... */\n    tag_17:\n      callvalue\n      dup1\n      iszero\n      tag_110\n      jumpi\n      0x00\n      dup1\n      revert\n    tag_110:\n      pop\n      tag_111\n      0x04\n      dup1\n      calldatasize\n      sub\n      dup2\n      add\n      swap1\n      tag_112\n      swap2\n      swap1\n      tag_61\n      jump\t// in\n    tag_112:\n      tag_113\n      jump\t// in\n    tag_111:\n      stop\n        /* \"contracts/Poketmon.sol\":1569:1614  mapping(address => Pokens[]) public pokenmons */\n    tag_18:\n      callvalue\n      dup1\n      iszero\n      tag_114\n      jumpi\n      0x00\n      dup1\n      revert\n    tag_114:\n      pop\n      tag_115\n      0x04\n      dup1\n      calldatasize\n      sub\n      dup2\n      add\n      swap1\n      tag_116\n      swap2\n      swap1\n      tag_43\n      jump\t// in\n    tag_116:\n      tag_117\n      jump\t// in\n    tag_115:\n      mload(0x40)\n      tag_118\n      swap3\n      swap2\n      swap1\n      tag_119\n      jump\t// in\n    tag_118:\n      mload(0x40)\n      dup1\n      swap2\n      sub\n      swap1\n      return\n        /* \"contracts/Poketmon.sol\":2170:3134  function buyPokenmon() public {... */\n    tag_19:\n      callvalue\n      dup1\n      iszero\n      tag_120\n      jumpi\n      0x00\n      dup1\n      revert\n    tag_120:\n      pop\n      tag_121\n      tag_122\n      jump\t// in\n    tag_121:\n      stop\n        /* \"contracts/ERC20.sol\":1984:2097  function mint(uint amount) internal{... */\n    tag_34:\n        /* \"contracts/ERC20.sol\":2052:2058  amount */\n      dup1\n        /* \"contracts/ERC20.sol\":2030:2038  balances */\n      0x05\n        /* \"contracts/ERC20.sol\":2030:2050  balances[msg.sender] */\n      0x00\n        /* \"contracts/ERC20.sol\":2039:2049  msg.sender */\n      caller\n        /* \"contracts/ERC20.sol\":2030:2050  balances[msg.sender] */\n      0xffffffffffffffffffffffffffffffffffffffff\n      and\n      0xffffffffffffffffffffffffffffffffffffffff\n      and\n      dup2\n      mstore\n      0x20\n      add\n      swap1\n      dup2\n      mstore\n      0x20\n      add\n      0x00\n      keccak256\n      0x00\n        /* \"contracts/ERC20.sol\":2030:2058  balances[msg.sender]+=amount */\n      dup3\n      dup3\n      sload\n      tag_124\n      swap2\n      swap1\n      tag_31\n      jump\t// in\n    tag_124:\n      swap3\n      pop\n      pop\n      dup2\n      swap1\n      sstore\n      pop\n        /* \"contracts/ERC20.sol\":2083:2089  amount */\n      dup1\n        /* \"contracts/ERC20.sol\":2069:2080  totalSupply */\n      0x03\n      0x00\n        /* \"contracts/ERC20.sol\":2069:2089  totalSupply +=amount */\n      dup3\n      dup3\n      sload\n      tag_125\n      swap2\n      swap1\n      tag_31\n      jump\t// in\n    tag_125:\n      swap3\n      pop\n      pop\n      dup2\n      swap1\n      sstore\n      pop\n        /* \"contracts/ERC20.sol\":1984:2097  function mint(uint amount) internal{... */\n      pop\n      jump\t// out\n        /* \"contracts/ERC20.sol\":144:162  string public name */\n    tag_37:\n      0x00\n      dup1\n      sload\n      tag_126\n      swap1\n      tag_127\n      jump\t// in\n    tag_126:\n      dup1\n      0x1f\n      add\n      0x20\n      dup1\n      swap2\n      div\n      mul\n      0x20\n      add\n      mload(0x40)\n      swap1\n      dup2\n      add\n      0x40\n      mstore\n      dup1\n      swap3\n      swap2\n      swap1\n      dup2\n      dup2\n      mstore\n      0x20\n      add\n      dup3\n      dup1\n      sload\n      tag_128\n      swap1\n      tag_127\n      jump\t// in\n    tag_128:\n      dup1\n      iszero\n      tag_129\n      jumpi\n      dup1\n      0x1f\n      lt\n      tag_130\n      jumpi\n      0x0100\n      dup1\n      dup4\n      sload\n      div\n      mul\n      dup4\n      mstore\n      swap2\n      0x20\n      add\n      swap2\n      jump(tag_129)\n    tag_130:\n      dup3\n      add\n      swap2\n      swap1\n      0x00\n      mstore\n      keccak256(0x00, 0x20)\n      swap1\n    tag_131:\n      dup2\n      sload\n      dup2\n      mstore\n      swap1\n      0x01\n      add\n      swap1\n      0x20\n      add\n      dup1\n      dup4\n      gt\n      tag_131\n      jumpi\n      dup3\n      swap1\n      sub\n      0x1f\n      and\n      dup3\n      add\n      swap2\n    tag_129:\n      pop\n      pop\n      pop\n      pop\n      pop\n      dup2\n      jump\t// out\n        /* \"contracts/ERC20.sol\":2411:2731  function approve(address spender, uint amount) external override returns(bool){... */\n    tag_44:\n        /* \"contracts/ERC20.sol\":2484:2488  bool */\n      0x00\n        /* \"contracts/ERC20.sol\":2533:2539  amount */\n      dup2\n        /* \"contracts/ERC20.sol\":2500:2509  allowance */\n      0x06\n        /* \"contracts/ERC20.sol\":2500:2521  allowance[msg.sender] */\n      0x00\n        /* \"contracts/ERC20.sol\":2510:2520  msg.sender */\n      caller\n        /* \"contracts/ERC20.sol\":2500:2521  allowance[msg.sender] */\n      0xffffffffffffffffffffffffffffffffffffffff\n      and\n      0xffffffffffffffffffffffffffffffffffffffff\n      and\n      dup2\n      mstore\n      0x20\n      add\n      swap1\n      dup2\n      mstore\n      0x20\n      add\n      0x00\n      keccak256\n        /* \"contracts/ERC20.sol\":2500:2530  allowance[msg.sender][spender] */\n      0x00\n        /* \"contracts/ERC20.sol\":2522:2529  spender */\n      dup6\n        /* \"contracts/ERC20.sol\":2500:2530  allowance[msg.sender][spender] */\n      0xffffffffffffffffffffffffffffffffffffffff\n      and\n      0xffffffffffffffffffffffffffffffffffffffff\n      and\n      dup2\n      mstore\n      0x20\n      add\n      swap1\n      dup2\n      mstore\n      0x20\n      add\n      0x00\n      keccak256\n        /* \"contracts/ERC20.sol\":2500:2539  allowance[msg.sender][spender] = amount */\n      dup2\n      swap1\n      sstore\n      pop\n        /* \"contracts/ERC20.sol\":2557:2561  true */\n      0x01\n        /* \"contracts/ERC20.sol\":2550:2561  return true */\n      swap1\n      pop\n        /* \"contracts/ERC20.sol\":2411:2731  function approve(address spender, uint amount) external override returns(bool){... */\n      swap3\n      swap2\n      pop\n      pop\n      jump\t// out\n        /* \"contracts/ERC20.sol\":341:373  uint public override totalSupply */\n    tag_49:\n      sload(0x03)\n      dup2\n      jump\t// out\n        /* \"contracts/ERC20.sol\":2739:3107  function transferFrom(address sender, address to, uint amount) external override returns(bool){... */\n    tag_56:\n        /* \"contracts/ERC20.sol\":2828:2832  bool */\n      0x00\n        /* \"contracts/ERC20.sol\":2884:2890  amount */\n      dup2\n        /* \"contracts/ERC20.sol\":2852:2861  allowance */\n      0x06\n        /* \"contracts/ERC20.sol\":2852:2869  allowance[sender] */\n      0x00\n        /* \"contracts/ERC20.sol\":2862:2868  sender */\n      dup7\n        /* \"contracts/ERC20.sol\":2852:2869  allowance[sender] */\n      0xffffffffffffffffffffffffffffffffffffffff\n      and\n      0xffffffffffffffffffffffffffffffffffffffff\n      and\n      dup2\n      mstore\n      0x20\n      add\n      swap1\n      dup2\n      mstore\n      0x20\n      add\n      0x00\n      keccak256\n        /* \"contracts/ERC20.sol\":2852:2881  allowance[sender][msg.sender] */\n      0x00\n        /* \"contracts/ERC20.sol\":2870:2880  msg.sender */\n      caller\n        /* \"contracts/ERC20.sol\":2852:2881  allowance[sender][msg.sender] */\n      0xffffffffffffffffffffffffffffffffffffffff\n      and\n      0xffffffffffffffffffffffffffffffffffffffff\n      and\n      dup2\n      mstore\n      0x20\n      add\n      swap1\n      dup2\n      mstore\n      0x20\n      add\n      0x00\n      keccak256\n      sload\n        /* \"contracts/ERC20.sol\":2852:2890  allowance[sender][msg.sender] >=amount */\n      lt\n      iszero\n        /* \"contracts/ERC20.sol\":2844:2891  require(allowance[sender][msg.sender] >=amount) */\n      tag_134\n      jumpi\n      0x00\n      dup1\n      revert\n    tag_134:\n        /* \"contracts/ERC20.sol\":2935:2941  amount */\n      dup2\n        /* \"contracts/ERC20.sol\":2902:2911  allowance */\n      0x06\n        /* \"contracts/ERC20.sol\":2902:2919  allowance[sender] */\n      0x00\n        /* \"contracts/ERC20.sol\":2912:2918  sender */\n      dup7\n        /* \"contracts/ERC20.sol\":2902:2919  allowance[sender] */\n      0xffffffffffffffffffffffffffffffffffffffff\n      and\n      0xffffffffffffffffffffffffffffffffffffffff\n      and\n      dup2\n      mstore\n      0x20\n      add\n      swap1\n      dup2\n      mstore\n      0x20\n      add\n      0x00\n      keccak256\n        /* \"contracts/ERC20.sol\":2902:2931  allowance[sender][msg.sender] */\n      0x00\n        /* \"contracts/ERC20.sol\":2920:2930  msg.sender */\n      caller\n        /* \"contracts/ERC20.sol\":2902:2931  allowance[sender][msg.sender] */\n      0xffffffffffffffffffffffffffffffffffffffff\n      and\n      0xffffffffffffffffffffffffffffffffffffffff\n      and\n      dup2\n      mstore\n      0x20\n      add\n      swap1\n      dup2\n      mstore\n      0x20\n      add\n      0x00\n      keccak256\n      0x00\n        /* \"contracts/ERC20.sol\":2902:2941  allowance[sender][msg.sender] -= amount */\n      dup3\n      dup3\n      sload\n      tag_135\n      swap2\n      swap1\n      tag_29\n      jump\t// in\n    tag_135:\n      swap3\n      pop\n      pop\n      dup2\n      swap1\n      sstore\n      pop\n        /* \"contracts/ERC20.sol\":2970:2976  amount */\n      dup2\n        /* \"contracts/ERC20.sol\":2952:2960  balances */\n      0x05\n        /* \"contracts/ERC20.sol\":2952:2968  balances[sender] */\n      0x00\n        /* \"contracts/ERC20.sol\":2961:2967  sender */\n      dup7\n        /* \"contracts/ERC20.sol\":2952:2968  balances[sender] */\n      0xffffffffffffffffffffffffffffffffffffffff\n      and\n      0xffffffffffffffffffffffffffffffffffffffff\n      and\n      dup2\n      mstore\n      0x20\n      add\n      swap1\n      dup2\n      mstore\n      0x20\n      add\n      0x00\n      keccak256\n      0x00\n        /* \"contracts/ERC20.sol\":2952:2976  balances[sender]-=amount */\n      dup3\n      dup3\n      sload\n      tag_136\n      swap2\n      swap1\n      tag_29\n      jump\t// in\n    tag_136:\n      swap3\n      pop\n      pop\n      dup2\n      swap1\n      sstore\n      pop\n        /* \"contracts/ERC20.sol\":3002:3008  amount */\n      dup2\n        /* \"contracts/ERC20.sol\":2987:2995  balances */\n      0x05\n        /* \"contracts/ERC20.sol\":2987:2999  balances[to] */\n      0x00\n        /* \"contracts/ERC20.sol\":2996:2998  to */\n      dup6\n        /* \"contracts/ERC20.sol\":2987:2999  balances[to] */\n      0xffffffffffffffffffffffffffffffffffffffff\n      and\n      0xffffffffffffffffffffffffffffffffffffffff\n      and\n      dup2\n      mstore\n      0x20\n      add\n      swap1\n      dup2\n      mstore\n      0x20\n      add\n      0x00\n      keccak256\n      0x00\n        /* \"contracts/ERC20.sol\":2987:3008  balances[to] +=amount */\n      dup3\n      dup3\n      sload\n      tag_137\n      swap2\n      swap1\n      tag_31\n      jump\t// in\n    tag_137:\n      swap3\n      pop\n      pop\n      dup2\n      swap1\n      sstore\n      pop\n        /* \"contracts/ERC20.sol\":2739:3107  function transferFrom(address sender, address to, uint amount) external override returns(bool){... */\n      swap4\n      swap3\n      pop\n      pop\n      pop\n      jump\t// out\n        /* \"contracts/ERC20.sol\":412:451  mapping(address => uint)public balances */\n    tag_62:\n      mstore(0x20, 0x05)\n      dup1\n      0x00\n      mstore\n      keccak256(0x00, 0x40)\n      0x00\n      swap2\n      pop\n      swap1\n      pop\n      sload\n      dup2\n      jump\t// out\n        /* \"contracts/Poketmon.sol\":2066:2162  function getPokenmonUsers() public view returns (Users[] memory) {... */\n    tag_66:\n        /* \"contracts/Poketmon.sol\":2115:2129  Users[] memory */\n      0x60\n        /* \"contracts/Poketmon.sol\":2149:2154  users */\n      0x0b\n        /* \"contracts/Poketmon.sol\":2142:2154  return users */\n      dup1\n      sload\n      dup1\n      0x20\n      mul\n      0x20\n      add\n      mload(0x40)\n      swap1\n      dup2\n      add\n      0x40\n      mstore\n      dup1\n      swap3\n      swap2\n      swap1\n      dup2\n      dup2\n      mstore\n      0x20\n      add\n      0x00\n      swap1\n    tag_139:\n      dup3\n      dup3\n      lt\n      iszero\n      tag_140\n      jumpi\n      dup4\n      dup3\n      swap1\n      0x00\n      mstore\n      keccak256(0x00, 0x20)\n      add\n      mload(0x40)\n      dup1\n      0x20\n      add\n      0x40\n      mstore\n      swap1\n      dup2\n      0x00\n      dup3\n      add\n      0x00\n      swap1\n      sload\n      swap1\n      0x0100\n      exp\n      swap1\n      div\n      0xffffffffffffffffffffffffffffffffffffffff\n      and\n      0xffffffffffffffffffffffffffffffffffffffff\n      and\n      0xffffffffffffffffffffffffffffffffffffffff\n      and\n      dup2\n      mstore\n      pop\n      pop\n      dup2\n      mstore\n      0x20\n      add\n      swap1\n      0x01\n      add\n      swap1\n      jump(tag_139)\n    tag_140:\n      pop\n      pop\n      pop\n      pop\n      swap1\n      pop\n        /* \"contracts/Poketmon.sol\":2066:2162  function getPokenmonUsers() public view returns (Users[] memory) {... */\n      swap1\n      jump\t// out\n        /* \"contracts/ERC20.sol\":267:293  uint8 public decimals = 18 */\n    tag_71:\n      0x02\n      0x00\n      swap1\n      sload\n      swap1\n      0x0100\n      exp\n      swap1\n      div\n      0xff\n      and\n      dup2\n      jump\t// out\n        /* \"contracts/Poketmon.sol\":1864:1884  Users[] public users */\n    tag_78:\n      0x0b\n      dup2\n      dup2\n      sload\n      dup2\n      lt\n      tag_142\n      jumpi\n      0x00\n      dup1\n      revert\n    tag_142:\n      swap1\n      0x00\n      mstore\n      keccak256(0x00, 0x20)\n      add\n      0x00\n      swap2\n      pop\n      swap1\n      pop\n      dup1\n      0x00\n      add\n      0x00\n      swap1\n      sload\n      swap1\n      0x0100\n      exp\n      swap1\n      div\n      0xffffffffffffffffffffffffffffffffffffffff\n      and\n      swap1\n      pop\n      dup2\n      jump\t// out\n        /* \"contracts/ERC20.sol\":3113:3227  function burn(uint amount) external{... */\n    tag_84:\n        /* \"contracts/ERC20.sol\":3182:3188  amount */\n      dup1\n        /* \"contracts/ERC20.sol\":3159:3167  balances */\n      0x05\n        /* \"contracts/ERC20.sol\":3159:3179  balances[msg.sender] */\n      0x00\n        /* \"contracts/ERC20.sol\":3168:3178  msg.sender */\n      caller\n        /* \"contracts/ERC20.sol\":3159:3179  balances[msg.sender] */\n      0xffffffffffffffffffffffffffffffffffffffff\n      and\n      0xffffffffffffffffffffffffffffffffffffffff\n      and\n      dup2\n      mstore\n      0x20\n      add\n      swap1\n      dup2\n      mstore\n      0x20\n      add\n      0x00\n      keccak256\n      0x00\n        /* \"contracts/ERC20.sol\":3159:3188  balances[msg.sender] -=amount */\n      dup3\n      dup3\n      sload\n      tag_145\n      swap2\n      swap1\n      tag_29\n      jump\t// in\n    tag_145:\n      swap3\n      pop\n      pop\n      dup2\n      swap1\n      sstore\n      pop\n        /* \"contracts/ERC20.sol\":3213:3219  amount */\n      dup1\n        /* \"contracts/ERC20.sol\":3199:3210  totalSupply */\n      0x03\n      0x00\n        /* \"contracts/ERC20.sol\":3199:3219  totalSupply -=amount */\n      dup3\n      dup3\n      sload\n      tag_146\n      swap2\n      swap1\n      tag_29\n      jump\t// in\n    tag_146:\n      swap3\n      pop\n      pop\n      dup2\n      swap1\n      sstore\n      pop\n        /* \"contracts/ERC20.sol\":3113:3227  function burn(uint amount) external{... */\n      pop\n      jump\t// out\n        /* \"contracts/ERC20.sol\":2105:2220  function balanceOf(address account) external view override returns(uint){... */\n    tag_88:\n        /* \"contracts/ERC20.sol\":2172:2176  uint */\n      0x00\n        /* \"contracts/ERC20.sol\":2195:2203  balances */\n      0x05\n        /* \"contracts/ERC20.sol\":2195:2212  balances[account] */\n      0x00\n        /* \"contracts/ERC20.sol\":2204:2211  account */\n      dup4\n        /* \"contracts/ERC20.sol\":2195:2212  balances[account] */\n      0xffffffffffffffffffffffffffffffffffffffff\n      and\n      0xffffffffffffffffffffffffffffffffffffffff\n      and\n      dup2\n      mstore\n      0x20\n      add\n      swap1\n      dup2\n      mstore\n      0x20\n      add\n      0x00\n      keccak256\n      sload\n        /* \"contracts/ERC20.sol\":2188:2212  return balances[account] */\n      swap1\n      pop\n        /* \"contracts/ERC20.sol\":2105:2220  function balanceOf(address account) external view override returns(uint){... */\n      swap2\n      swap1\n      pop\n      jump\t// out\n        /* \"contracts/Poketmon.sol\":1950:2058  function getPokenmon() public view returns (Pokens[] memory) {... */\n    tag_92:\n        /* \"contracts/Poketmon.sol\":1994:2009  Pokens[] memory */\n      0x60\n        /* \"contracts/Poketmon.sol\":2029:2038  pokenmons */\n      0x0a\n        /* \"contracts/Poketmon.sol\":2029:2050  pokenmons[msg.sender] */\n      0x00\n        /* \"contracts/Poketmon.sol\":2039:2049  msg.sender */\n      caller\n        /* \"contracts/Poketmon.sol\":2029:2050  pokenmons[msg.sender] */\n      0xffffffffffffffffffffffffffffffffffffffff\n      and\n      0xffffffffffffffffffffffffffffffffffffffff\n      and\n      dup2\n      mstore\n      0x20\n      add\n      swap1\n      dup2\n      mstore\n      0x20\n      add\n      0x00\n      keccak256\n        /* \"contracts/Poketmon.sol\":2022:2050  return pokenmons[msg.sender] */\n      dup1\n      sload\n      dup1\n      0x20\n      mul\n      0x20\n      add\n      mload(0x40)\n      swap1\n      dup2\n      add\n      0x40\n      mstore\n      dup1\n      swap3\n      swap2\n      swap1\n      dup2\n      dup2\n      mstore\n      0x20\n      add\n      0x00\n      swap1\n    tag_149:\n      dup3\n      dup3\n      lt\n      iszero\n      tag_150\n      jumpi\n      dup4\n      dup3\n      swap1\n      0x00\n      mstore\n      keccak256(0x00, 0x20)\n      swap1\n      0x02\n      mul\n      add\n      mload(0x40)\n      dup1\n      0x40\n      add\n      0x40\n      mstore\n      swap1\n      dup2\n      0x00\n      dup3\n      add\n      dup1\n      sload\n      tag_152\n      swap1\n      tag_127\n      jump\t// in\n    tag_152:\n      dup1\n      0x1f\n      add\n      0x20\n      dup1\n      swap2\n      div\n      mul\n      0x20\n      add\n      mload(0x40)\n      swap1\n      dup2\n      add\n      0x40\n      mstore\n      dup1\n      swap3\n      swap2\n      swap1\n      dup2\n      dup2\n      mstore\n      0x20\n      add\n      dup3\n      dup1\n      sload\n      tag_153\n      swap1\n      tag_127\n      jump\t// in\n    tag_153:\n      dup1\n      iszero\n      tag_154\n      jumpi\n      dup1\n      0x1f\n      lt\n      tag_155\n      jumpi\n      0x0100\n      dup1\n      dup4\n      sload\n      div\n      mul\n      dup4\n      mstore\n      swap2\n      0x20\n      add\n      swap2\n      jump(tag_154)\n    tag_155:\n      dup3\n      add\n      swap2\n      swap1\n      0x00\n      mstore\n      keccak256(0x00, 0x20)\n      swap1\n    tag_156:\n      dup2\n      sload\n      dup2\n      mstore\n      swap1\n      0x01\n      add\n      swap1\n      0x20\n      add\n      dup1\n      dup4\n      gt\n      tag_156\n      jumpi\n      dup3\n      swap1\n      sub\n      0x1f\n      and\n      dup3\n      add\n      swap2\n    tag_154:\n      pop\n      pop\n      pop\n      pop\n      pop\n      dup2\n      mstore\n      0x20\n      add\n      0x01\n      dup3\n      add\n      dup1\n      sload\n      tag_157\n      swap1\n      tag_127\n      jump\t// in\n    tag_157:\n      dup1\n      0x1f\n      add\n      0x20\n      dup1\n      swap2\n      div\n      mul\n      0x20\n      add\n      mload(0x40)\n      swap1\n      dup2\n      add\n      0x40\n      mstore\n      dup1\n      swap3\n      swap2\n      swap1\n      dup2\n      dup2\n      mstore\n      0x20\n      add\n      dup3\n      dup1\n      sload\n      tag_158\n      swap1\n      tag_127\n      jump\t// in\n    tag_158:\n      dup1\n      iszero\n      tag_159\n      jumpi\n      dup1\n      0x1f\n      lt\n      tag_160\n      jumpi\n      0x0100\n      dup1\n      dup4\n      sload\n      div\n      mul\n      dup4\n      mstore\n      swap2\n      0x20\n      add\n      swap2\n      jump(tag_159)\n    tag_160:\n      dup3\n      add\n      swap2\n      swap1\n      0x00\n      mstore\n      keccak256(0x00, 0x20)\n      swap1\n    tag_161:\n      dup2\n      sload\n      dup2\n      mstore\n      swap1\n      0x01\n      add\n      swap1\n      0x20\n      add\n      dup1\n      dup4\n      gt\n      tag_161\n      jumpi\n      dup3\n      swap1\n      sub\n      0x1f\n      and\n      dup3\n      add\n      swap2\n    tag_159:\n      pop\n      pop\n      pop\n      pop\n      pop\n      dup2\n      mstore\n      pop\n      pop\n      dup2\n      mstore\n      0x20\n      add\n      swap1\n      0x01\n      add\n      swap1\n      jump(tag_149)\n    tag_150:\n      pop\n      pop\n      pop\n      pop\n      swap1\n      pop\n        /* \"contracts/Poketmon.sol\":1950:2058  function getPokenmon() public view returns (Pokens[] memory) {... */\n      swap1\n      jump\t// out\n        /* \"contracts/ERC20.sol\":203:223  string public symbol */\n    tag_97:\n      0x01\n      dup1\n      sload\n      tag_162\n      swap1\n      tag_127\n      jump\t// in\n    tag_162:\n      dup1\n      0x1f\n      add\n      0x20\n      dup1\n      swap2\n      div\n      mul\n      0x20\n      add\n      mload(0x40)\n      swap1\n      dup2\n      add\n      0x40\n      mstore\n      dup1\n      swap3\n      swap2\n      swap1\n      dup2\n      dup2\n      mstore\n      0x20\n      add\n      dup3\n      dup1\n      sload\n      tag_163\n      swap1\n      tag_127\n      jump\t// in\n    tag_163:\n      dup1\n      iszero\n      tag_164\n      jumpi\n      dup1\n      0x1f\n      lt\n      tag_165\n      jumpi\n      0x0100\n      dup1\n      dup4\n      sload\n      div\n      mul\n      dup4\n      mstore\n      swap2\n      0x20\n      add\n      swap2\n      jump(tag_164)\n    tag_165:\n      dup3\n      add\n      swap2\n      swap1\n      0x00\n      mstore\n      keccak256(0x00, 0x20)\n      swap1\n    tag_166:\n      dup2\n      sload\n      dup2\n      mstore\n      swap1\n      0x01\n      add\n      swap1\n      0x20\n      add\n      dup1\n      dup4\n      gt\n      tag_166\n      jumpi\n      dup3\n      swap1\n      sub\n      0x1f\n      and\n      dup3\n      add\n      swap2\n    tag_164:\n      pop\n      pop\n      pop\n      pop\n      pop\n      dup2\n      jump\t// out\n        /* \"contracts/ERC20.sol\":2228:2403  function transfer(address to, uint amount) external override returns(bool){... */\n    tag_102:\n        /* \"contracts/ERC20.sol\":2297:2301  bool */\n      0x00\n        /* \"contracts/ERC20.sol\":2335:2341  amount */\n      dup2\n        /* \"contracts/ERC20.sol\":2313:2321  balances */\n      0x05\n        /* \"contracts/ERC20.sol\":2313:2333  balances[msg.sender] */\n      0x00\n        /* \"contracts/ERC20.sol\":2322:2332  msg.sender */\n      caller\n        /* \"contracts/ERC20.sol\":2313:2333  balances[msg.sender] */\n      0xffffffffffffffffffffffffffffffffffffffff\n      and\n      0xffffffffffffffffffffffffffffffffffffffff\n      and\n      dup2\n      mstore\n      0x20\n      add\n      swap1\n      dup2\n      mstore\n      0x20\n      add\n      0x00\n      keccak256\n      pop\n        /* \"contracts/ERC20.sol\":2313:2341  balances[msg.sender]==amount */\n      pop\n        /* \"contracts/ERC20.sol\":2367:2373  amount */\n      dup2\n        /* \"contracts/ERC20.sol\":2352:2360  balances */\n      0x05\n        /* \"contracts/ERC20.sol\":2352:2364  balances[to] */\n      0x00\n        /* \"contracts/ERC20.sol\":2361:2363  to */\n      dup6\n        /* \"contracts/ERC20.sol\":2352:2364  balances[to] */\n      0xffffffffffffffffffffffffffffffffffffffff\n      and\n      0xffffffffffffffffffffffffffffffffffffffff\n      and\n      dup2\n      mstore\n      0x20\n      add\n      swap1\n      dup2\n      mstore\n      0x20\n      add\n      0x00\n      keccak256\n      0x00\n        /* \"contracts/ERC20.sol\":2352:2373  balances[to] +=amount */\n      dup3\n      dup3\n      sload\n      tag_168\n      swap2\n      swap1\n      tag_31\n      jump\t// in\n    tag_168:\n      swap3\n      pop\n      pop\n      dup2\n      swap1\n      sstore\n      pop\n        /* \"contracts/ERC20.sol\":2391:2395  true */\n      0x01\n        /* \"contracts/ERC20.sol\":2384:2395  return true */\n      swap1\n      pop\n        /* \"contracts/ERC20.sol\":2228:2403  function transfer(address to, uint amount) external override returns(bool){... */\n      swap3\n      swap2\n      pop\n      pop\n      jump\t// out\n        /* \"contracts/ERC20.sol\":505:572  mapping(address=> mapping(address =>uint))public override allowance */\n    tag_108:\n      mstore(0x20, 0x06)\n      dup2\n      0x00\n      mstore\n      mstore(0x20, keccak256(0x00, 0x40))\n      dup1\n      0x00\n      mstore\n      keccak256(0x00, 0x40)\n      0x00\n      swap2\n      pop\n      swap2\n      pop\n      pop\n      sload\n      dup2\n      jump\t// out\n        /* \"contracts/Poketmon.sol\":3138:4036  function transferPoke(address to) public {... */\n    tag_113:\n        /* \"contracts/Poketmon.sol\":3412:3413  0 */\n      0x00\n        /* \"contracts/Poketmon.sol\":3381:3390  pokenmons */\n      0x0a\n        /* \"contracts/Poketmon.sol\":3381:3402  pokenmons[msg.sender] */\n      0x00\n        /* \"contracts/Poketmon.sol\":3391:3401  msg.sender */\n      caller\n        /* \"contracts/Poketmon.sol\":3381:3402  pokenmons[msg.sender] */\n      0xffffffffffffffffffffffffffffffffffffffff\n      and\n      0xffffffffffffffffffffffffffffffffffffffff\n      and\n      dup2\n      mstore\n      0x20\n      add\n      swap1\n      dup2\n      mstore\n      0x20\n      add\n      0x00\n      keccak256\n        /* \"contracts/Poketmon.sol\":3381:3409  pokenmons[msg.sender].length */\n      dup1\n      sload\n      swap1\n      pop\n        /* \"contracts/Poketmon.sol\":3381:3413  pokenmons[msg.sender].length > 0 */\n      gt\n        /* \"contracts/Poketmon.sol\":3373:3436  require(pokenmons[msg.sender].length > 0, \"no pokenmons here.\") */\n      tag_170\n      jumpi\n      mload(0x40)\n      0x08c379a000000000000000000000000000000000000000000000000000000000\n      dup2\n      mstore\n      0x04\n      add\n      tag_171\n      swap1\n      tag_172\n      jump\t// in\n    tag_171:\n      mload(0x40)\n      dup1\n      swap2\n      sub\n      swap1\n      revert\n    tag_170:\n        /* \"contracts/Poketmon.sol\":3449:3463  uint256 random */\n      0x00\n        /* \"contracts/Poketmon.sol\":3552:3561  pokenmons */\n      0x0a\n        /* \"contracts/Poketmon.sol\":3552:3573  pokenmons[msg.sender] */\n      0x00\n        /* \"contracts/Poketmon.sol\":3562:3572  msg.sender */\n      caller\n        /* \"contracts/Poketmon.sol\":3552:3573  pokenmons[msg.sender] */\n      0xffffffffffffffffffffffffffffffffffffffff\n      and\n      0xffffffffffffffffffffffffffffffffffffffff\n      and\n      dup2\n      mstore\n      0x20\n      add\n      swap1\n      dup2\n      mstore\n      0x20\n      add\n      0x00\n      keccak256\n        /* \"contracts/Poketmon.sol\":3552:3580  pokenmons[msg.sender].length */\n      dup1\n      sload\n      swap1\n      pop\n        /* \"contracts/Poketmon.sol\":3501:3516  block.timestamp */\n      timestamp\n        /* \"contracts/Poketmon.sol\":3518:3534  block.difficulty */\n      prevrandao\n        /* \"contracts/Poketmon.sol\":3536:3546  msg.sender */\n      caller\n        /* \"contracts/Poketmon.sol\":3484:3547  abi.encodePacked(block.timestamp, block.difficulty, msg.sender) */\n      add(0x20, mload(0x40))\n      tag_173\n      swap4\n      swap3\n      swap2\n      swap1\n      tag_174\n      jump\t// in\n    tag_173:\n      mload(0x40)\n      0x20\n      dup2\n      dup4\n      sub\n      sub\n      dup2\n      mstore\n      swap1\n      0x40\n      mstore\n        /* \"contracts/Poketmon.sol\":3474:3548  keccak256(abi.encodePacked(block.timestamp, block.difficulty, msg.sender)) */\n      dup1\n      mload\n      swap1\n      0x20\n      add\n      keccak256\n        /* \"contracts/Poketmon.sol\":3466:3549  uint256(keccak256(abi.encodePacked(block.timestamp, block.difficulty, msg.sender))) */\n      0x00\n      shr\n        /* \"contracts/Poketmon.sol\":3466:3580  uint256(keccak256(abi.encodePacked(block.timestamp, block.difficulty, msg.sender))) % pokenmons[msg.sender].length */\n      tag_175\n      swap2\n      swap1\n      tag_176\n      jump\t// in\n    tag_175:\n        /* \"contracts/Poketmon.sol\":3449:3580  uint256 random = uint256(keccak256(abi.encodePacked(block.timestamp, block.difficulty, msg.sender))) % pokenmons[msg.sender].length */\n      swap1\n      pop\n        /* \"contracts/Poketmon.sol\":3587:3616  Pokens memory selectedPokemon */\n      0x00\n        /* \"contracts/Poketmon.sol\":3619:3628  pokenmons */\n      0x0a\n        /* \"contracts/Poketmon.sol\":3619:3640  pokenmons[msg.sender] */\n      0x00\n        /* \"contracts/Poketmon.sol\":3629:3639  msg.sender */\n      caller\n        /* \"contracts/Poketmon.sol\":3619:3640  pokenmons[msg.sender] */\n      0xffffffffffffffffffffffffffffffffffffffff\n      and\n      0xffffffffffffffffffffffffffffffffffffffff\n      and\n      dup2\n      mstore\n      0x20\n      add\n      swap1\n      dup2\n      mstore\n      0x20\n      add\n      0x00\n      keccak256\n        /* \"contracts/Poketmon.sol\":3641:3647  random */\n      dup3\n        /* \"contracts/Poketmon.sol\":3619:3648  pokenmons[msg.sender][random] */\n      dup2\n      sload\n      dup2\n      lt\n      tag_177\n      jumpi\n      tag_178\n      tag_179\n      jump\t// in\n    tag_178:\n    tag_177:\n      swap1\n      0x00\n      mstore\n      keccak256(0x00, 0x20)\n      swap1\n      0x02\n      mul\n      add\n        /* \"contracts/Poketmon.sol\":3587:3648  Pokens memory selectedPokemon = pokenmons[msg.sender][random] */\n      mload(0x40)\n      dup1\n      0x40\n      add\n      0x40\n      mstore\n      swap1\n      dup2\n      0x00\n      dup3\n      add\n      dup1\n      sload\n      tag_181\n      swap1\n      tag_127\n      jump\t// in\n    tag_181:\n      dup1\n      0x1f\n      add\n      0x20\n      dup1\n      swap2\n      div\n      mul\n      0x20\n      add\n      mload(0x40)\n      swap1\n      dup2\n      add\n      0x40\n      mstore\n      dup1\n      swap3\n      swap2\n      swap1\n      dup2\n      dup2\n      mstore\n      0x20\n      add\n      dup3\n      dup1\n      sload\n      tag_182\n      swap1\n      tag_127\n      jump\t// in\n    tag_182:\n      dup1\n      iszero\n      tag_183\n      jumpi\n      dup1\n      0x1f\n      lt\n      tag_184\n      jumpi\n      0x0100\n      dup1\n      dup4\n      sload\n      div\n      mul\n      dup4\n      mstore\n      swap2\n      0x20\n      add\n      swap2\n      jump(tag_183)\n    tag_184:\n      dup3\n      add\n      swap2\n      swap1\n      0x00\n      mstore\n      keccak256(0x00, 0x20)\n      swap1\n    tag_185:\n      dup2\n      sload\n      dup2\n      mstore\n      swap1\n      0x01\n      add\n      swap1\n      0x20\n      add\n      dup1\n      dup4\n      gt\n      tag_185\n      jumpi\n      dup3\n      swap1\n      sub\n      0x1f\n      and\n      dup3\n      add\n      swap2\n    tag_183:\n      pop\n      pop\n      pop\n      pop\n      pop\n      dup2\n      mstore\n      0x20\n      add\n      0x01\n      dup3\n      add\n      dup1\n      sload\n      tag_186\n      swap1\n      tag_127\n      jump\t// in\n    tag_186:\n      dup1\n      0x1f\n      add\n      0x20\n      dup1\n      swap2\n      div\n      mul\n      0x20\n      add\n      mload(0x40)\n      swap1\n      dup2\n      add\n      0x40\n      mstore\n      dup1\n      swap3\n      swap2\n      swap1\n      dup2\n      dup2\n      mstore\n      0x20\n      add\n      dup3\n      dup1\n      sload\n      tag_187\n      swap1\n      tag_127\n      jump\t// in\n    tag_187:\n      dup1\n      iszero\n      tag_188\n      jumpi\n      dup1\n      0x1f\n      lt\n      tag_189\n      jumpi\n      0x0100\n      dup1\n      dup4\n      sload\n      div\n      mul\n      dup4\n      mstore\n      swap2\n      0x20\n      add\n      swap2\n      jump(tag_188)\n    tag_189:\n      dup3\n      add\n      swap2\n      swap1\n      0x00\n      mstore\n      keccak256(0x00, 0x20)\n      swap1\n    tag_190:\n      dup2\n      sload\n      dup2\n      mstore\n      swap1\n      0x01\n      add\n      swap1\n      0x20\n      add\n      dup1\n      dup4\n      gt\n      tag_190\n      jumpi\n      dup3\n      swap1\n      sub\n      0x1f\n      and\n      dup3\n      add\n      swap2\n    tag_188:\n      pop\n      pop\n      pop\n      pop\n      pop\n      dup2\n      mstore\n      pop\n      pop\n      swap1\n      pop\n        /* \"contracts/Poketmon.sol\":3777:3778  1 */\n      0x01\n        /* \"contracts/Poketmon.sol\":3746:3755  pokenmons */\n      0x0a\n        /* \"contracts/Poketmon.sol\":3746:3767  pokenmons[msg.sender] */\n      0x00\n        /* \"contracts/Poketmon.sol\":3756:3766  msg.sender */\n      caller\n        /* \"contracts/Poketmon.sol\":3746:3767  pokenmons[msg.sender] */\n      0xffffffffffffffffffffffffffffffffffffffff\n      and\n      0xffffffffffffffffffffffffffffffffffffffff\n      and\n      dup2\n      mstore\n      0x20\n      add\n      swap1\n      dup2\n      mstore\n      0x20\n      add\n      0x00\n      keccak256\n        /* \"contracts/Poketmon.sol\":3746:3774  pokenmons[msg.sender].length */\n      dup1\n      sload\n      swap1\n      pop\n        /* \"contracts/Poketmon.sol\":3746:3778  pokenmons[msg.sender].length - 1 */\n      tag_191\n      swap2\n      swap1\n      tag_29\n      jump\t// in\n    tag_191:\n        /* \"contracts/Poketmon.sol\":3737:3743  random */\n      dup3\n        /* \"contracts/Poketmon.sol\":3737:3778  random < pokenmons[msg.sender].length - 1 */\n      lt\n        /* \"contracts/Poketmon.sol\":3733:3886  if (random < pokenmons[msg.sender].length - 1) {... */\n      iszero\n      tag_192\n      jumpi\n        /* \"contracts/Poketmon.sol\":3823:3832  pokenmons */\n      0x0a\n        /* \"contracts/Poketmon.sol\":3823:3844  pokenmons[msg.sender] */\n      0x00\n        /* \"contracts/Poketmon.sol\":3833:3843  msg.sender */\n      caller\n        /* \"contracts/Poketmon.sol\":3823:3844  pokenmons[msg.sender] */\n      0xffffffffffffffffffffffffffffffffffffffff\n      and\n      0xffffffffffffffffffffffffffffffffffffffff\n      and\n      dup2\n      mstore\n      0x20\n      add\n      swap1\n      dup2\n      mstore\n      0x20\n      add\n      0x00\n      keccak256\n        /* \"contracts/Poketmon.sol\":3876:3877  1 */\n      0x01\n        /* \"contracts/Poketmon.sol\":3845:3854  pokenmons */\n      0x0a\n        /* \"contracts/Poketmon.sol\":3845:3866  pokenmons[msg.sender] */\n      0x00\n        /* \"contracts/Poketmon.sol\":3855:3865  msg.sender */\n      caller\n        /* \"contracts/Poketmon.sol\":3845:3866  pokenmons[msg.sender] */\n      0xffffffffffffffffffffffffffffffffffffffff\n      and\n      0xffffffffffffffffffffffffffffffffffffffff\n      and\n      dup2\n      mstore\n      0x20\n      add\n      swap1\n      dup2\n      mstore\n      0x20\n      add\n      0x00\n      keccak256\n        /* \"contracts/Poketmon.sol\":3845:3873  pokenmons[msg.sender].length */\n      dup1\n      sload\n      swap1\n      pop\n        /* \"contracts/Poketmon.sol\":3845:3877  pokenmons[msg.sender].length - 1 */\n      tag_193\n      swap2\n      swap1\n      tag_29\n      jump\t// in\n    tag_193:\n        /* \"contracts/Poketmon.sol\":3823:3878  pokenmons[msg.sender][pokenmons[msg.sender].length - 1] */\n      dup2\n      sload\n      dup2\n      lt\n      tag_194\n      jumpi\n      tag_195\n      tag_179\n      jump\t// in\n    tag_195:\n    tag_194:\n      swap1\n      0x00\n      mstore\n      keccak256(0x00, 0x20)\n      swap1\n      0x02\n      mul\n      add\n        /* \"contracts/Poketmon.sol\":3791:3800  pokenmons */\n      0x0a\n        /* \"contracts/Poketmon.sol\":3791:3812  pokenmons[msg.sender] */\n      0x00\n        /* \"contracts/Poketmon.sol\":3801:3811  msg.sender */\n      caller\n        /* \"contracts/Poketmon.sol\":3791:3812  pokenmons[msg.sender] */\n      0xffffffffffffffffffffffffffffffffffffffff\n      and\n      0xffffffffffffffffffffffffffffffffffffffff\n      and\n      dup2\n      mstore\n      0x20\n      add\n      swap1\n      dup2\n      mstore\n      0x20\n      add\n      0x00\n      keccak256\n        /* \"contracts/Poketmon.sol\":3813:3819  random */\n      dup4\n        /* \"contracts/Poketmon.sol\":3791:3820  pokenmons[msg.sender][random] */\n      dup2\n      sload\n      dup2\n      lt\n      tag_197\n      jumpi\n      tag_198\n      tag_179\n      jump\t// in\n    tag_198:\n    tag_197:\n      swap1\n      0x00\n      mstore\n      keccak256(0x00, 0x20)\n      swap1\n      0x02\n      mul\n      add\n        /* \"contracts/Poketmon.sol\":3791:3878  pokenmons[msg.sender][random] = pokenmons[msg.sender][pokenmons[msg.sender].length - 1] */\n      0x00\n      dup3\n      add\n      dup2\n      0x00\n      add\n      swap1\n      dup2\n      tag_200\n      swap2\n      swap1\n      tag_201\n      jump\t// in\n    tag_200:\n      pop\n      0x01\n      dup3\n      add\n      dup2\n      0x01\n      add\n      swap1\n      dup2\n      tag_202\n      swap2\n      swap1\n      tag_201\n      jump\t// in\n    tag_202:\n      pop\n      swap1\n      pop\n      pop\n        /* \"contracts/Poketmon.sol\":3733:3886  if (random < pokenmons[msg.sender].length - 1) {... */\n    tag_192:\n        /* \"contracts/Poketmon.sol\":3892:3901  pokenmons */\n      0x0a\n        /* \"contracts/Poketmon.sol\":3892:3913  pokenmons[msg.sender] */\n      0x00\n        /* \"contracts/Poketmon.sol\":3902:3912  msg.sender */\n      caller\n        /* \"contracts/Poketmon.sol\":3892:3913  pokenmons[msg.sender] */\n      0xffffffffffffffffffffffffffffffffffffffff\n      and\n      0xffffffffffffffffffffffffffffffffffffffff\n      and\n      dup2\n      mstore\n      0x20\n      add\n      swap1\n      dup2\n      mstore\n      0x20\n      add\n      0x00\n      keccak256\n        /* \"contracts/Poketmon.sol\":3892:3919  pokenmons[msg.sender].pop() */\n      dup1\n      sload\n      dup1\n      tag_203\n      jumpi\n      tag_204\n      tag_205\n      jump\t// in\n    tag_204:\n    tag_203:\n      0x01\n      swap1\n      sub\n      dup2\n      dup2\n      swap1\n      0x00\n      mstore\n      keccak256(0x00, 0x20)\n      swap1\n      0x02\n      mul\n      add\n      0x00\n      dup1\n      dup3\n      add\n      0x00\n      tag_207\n      swap2\n      swap1\n      tag_208\n      jump\t// in\n    tag_207:\n      0x01\n      dup3\n      add\n      0x00\n      tag_209\n      swap2\n      swap1\n      tag_208\n      jump\t// in\n    tag_209:\n      pop\n      pop\n      swap1\n      sstore\n        /* \"contracts/Poketmon.sol\":3997:4006  pokenmons */\n      0x0a\n        /* \"contracts/Poketmon.sol\":3997:4010  pokenmons[to] */\n      0x00\n        /* \"contracts/Poketmon.sol\":4007:4009  to */\n      dup5\n        /* \"contracts/Poketmon.sol\":3997:4010  pokenmons[to] */\n      0xffffffffffffffffffffffffffffffffffffffff\n      and\n      0xffffffffffffffffffffffffffffffffffffffff\n      and\n      dup2\n      mstore\n      0x20\n      add\n      swap1\n      dup2\n      mstore\n      0x20\n      add\n      0x00\n      keccak256\n        /* \"contracts/Poketmon.sol\":4016:4031  selectedPokemon */\n      dup2\n        /* \"contracts/Poketmon.sol\":3997:4032  pokenmons[to].push(selectedPokemon) */\n      swap1\n      dup1\n      0x01\n      dup2\n      sload\n      add\n      dup1\n      dup3\n      sstore\n      dup1\n      swap2\n      pop\n      pop\n      0x01\n      swap1\n      sub\n      swap1\n      0x00\n      mstore\n      keccak256(0x00, 0x20)\n      swap1\n      0x02\n      mul\n      add\n      0x00\n      swap1\n      swap2\n      swap1\n      swap2\n      swap1\n      swap2\n      pop\n      0x00\n      dup3\n      add\n      mload\n      dup2\n      0x00\n      add\n      swap1\n      dup2\n      tag_211\n      swap2\n      swap1\n      tag_212\n      jump\t// in\n    tag_211:\n      pop\n      0x20\n      dup3\n      add\n      mload\n      dup2\n      0x01\n      add\n      swap1\n      dup2\n      tag_213\n      swap2\n      swap1\n      tag_212\n      jump\t// in\n    tag_213:\n      pop\n      pop\n      pop\n        /* \"contracts/Poketmon.sol\":3179:4036  {... */\n      pop\n      pop\n        /* \"contracts/Poketmon.sol\":3138:4036  function transferPoke(address to) public {... */\n      pop\n      jump\t// out\n        /* \"contracts/Poketmon.sol\":1569:1614  mapping(address => Pokens[]) public pokenmons */\n    tag_117:\n      mstore(0x20, 0x0a)\n      dup2\n      0x00\n      mstore\n      keccak256(0x00, 0x40)\n      dup2\n      dup2\n      sload\n      dup2\n      lt\n      tag_214\n      jumpi\n      0x00\n      dup1\n      revert\n    tag_214:\n      swap1\n      0x00\n      mstore\n      keccak256(0x00, 0x20)\n      swap1\n      0x02\n      mul\n      add\n      0x00\n      swap2\n      pop\n      swap2\n      pop\n      pop\n      dup1\n      0x00\n      add\n      dup1\n      sload\n      tag_216\n      swap1\n      tag_127\n      jump\t// in\n    tag_216:\n      dup1\n      0x1f\n      add\n      0x20\n      dup1\n      swap2\n      div\n      mul\n      0x20\n      add\n      mload(0x40)\n      swap1\n      dup2\n      add\n      0x40\n      mstore\n      dup1\n      swap3\n      swap2\n      swap1\n      dup2\n      dup2\n      mstore\n      0x20\n      add\n      dup3\n      dup1\n      sload\n      tag_217\n      swap1\n      tag_127\n      jump\t// in\n    tag_217:\n      dup1\n      iszero\n      tag_218\n      jumpi\n      dup1\n      0x1f\n      lt\n      tag_219\n      jumpi\n      0x0100\n      dup1\n      dup4\n      sload\n      div\n      mul\n      dup4\n      mstore\n      swap2\n      0x20\n      add\n      swap2\n      jump(tag_218)\n    tag_219:\n      dup3\n      add\n      swap2\n      swap1\n      0x00\n      mstore\n      keccak256(0x00, 0x20)\n      swap1\n    tag_220:\n      dup2\n      sload\n      dup2\n      mstore\n      swap1\n      0x01\n      add\n      swap1\n      0x20\n      add\n      dup1\n      dup4\n      gt\n      tag_220\n      jumpi\n      dup3\n      swap1\n      sub\n      0x1f\n      and\n      dup3\n      add\n      swap2\n    tag_218:\n      pop\n      pop\n      pop\n      pop\n      pop\n      swap1\n      dup1\n      0x01\n      add\n      dup1\n      sload\n      tag_221\n      swap1\n      tag_127\n      jump\t// in\n    tag_221:\n      dup1\n      0x1f\n      add\n      0x20\n      dup1\n      swap2\n      div\n      mul\n      0x20\n      add\n      mload(0x40)\n      swap1\n      dup2\n      add\n      0x40\n      mstore\n      dup1\n      swap3\n      swap2\n      swap1\n      dup2\n      dup2\n      mstore\n      0x20\n      add\n      dup3\n      dup1\n      sload\n      tag_222\n      swap1\n      tag_127\n      jump\t// in\n    tag_222:\n      dup1\n      iszero\n      tag_223\n      jumpi\n      dup1\n      0x1f\n      lt\n      tag_224\n      jumpi\n      0x0100\n      dup1\n      dup4\n      sload\n      div\n      mul\n      dup4\n      mstore\n      swap2\n      0x20\n      add\n      swap2\n      jump(tag_223)\n    tag_224:\n      dup3\n      add\n      swap2\n      swap1\n      0x00\n      mstore\n      keccak256(0x00, 0x20)\n      swap1\n    tag_225:\n      dup2\n      sload\n      dup2\n      mstore\n      swap1\n      0x01\n      add\n      swap1\n      0x20\n      add\n      dup1\n      dup4\n      gt\n      tag_225\n      jumpi\n      dup3\n      swap1\n      sub\n      0x1f\n      and\n      dup3\n      add\n      swap2\n    tag_223:\n      pop\n      pop\n      pop\n      pop\n      pop\n      swap1\n      pop\n      dup3\n      jump\t// out\n        /* \"contracts/Poketmon.sol\":2170:3134  function buyPokenmon() public {... */\n    tag_122:\n        /* \"contracts/Poketmon.sol\":2243:2253  tokenPrice */\n      sload(0x07)\n        /* \"contracts/Poketmon.sol\":2219:2227  balances */\n      0x05\n        /* \"contracts/Poketmon.sol\":2219:2239  balances[msg.sender] */\n      0x00\n        /* \"contracts/Poketmon.sol\":2228:2238  msg.sender */\n      caller\n        /* \"contracts/Poketmon.sol\":2219:2239  balances[msg.sender] */\n      0xffffffffffffffffffffffffffffffffffffffff\n      and\n      0xffffffffffffffffffffffffffffffffffffffff\n      and\n      dup2\n      mstore\n      0x20\n      add\n      swap1\n      dup2\n      mstore\n      0x20\n      add\n      0x00\n      keccak256\n      sload\n        /* \"contracts/Poketmon.sol\":2219:2253  balances[msg.sender] >= tokenPrice */\n      lt\n      iszero\n        /* \"contracts/Poketmon.sol\":2211:2254  require(balances[msg.sender] >= tokenPrice) */\n      tag_227\n      jumpi\n      0x00\n      dup1\n      revert\n    tag_227:\n        /* \"contracts/Poketmon.sol\":2289:2299  tokenPrice */\n      sload(0x07)\n        /* \"contracts/Poketmon.sol\":2265:2273  balances */\n      0x05\n        /* \"contracts/Poketmon.sol\":2265:2285  balances[msg.sender] */\n      0x00\n        /* \"contracts/Poketmon.sol\":2274:2284  msg.sender */\n      caller\n        /* \"contracts/Poketmon.sol\":2265:2285  balances[msg.sender] */\n      0xffffffffffffffffffffffffffffffffffffffff\n      and\n      0xffffffffffffffffffffffffffffffffffffffff\n      and\n      dup2\n      mstore\n      0x20\n      add\n      swap1\n      dup2\n      mstore\n      0x20\n      add\n      0x00\n      keccak256\n      0x00\n        /* \"contracts/Poketmon.sol\":2265:2299  balances[msg.sender] -= tokenPrice */\n      dup3\n      dup3\n      sload\n      tag_228\n      swap2\n      swap1\n      tag_29\n      jump\t// in\n    tag_228:\n      swap3\n      pop\n      pop\n      dup2\n      swap1\n      sstore\n      pop\n        /* \"contracts/Poketmon.sol\":2325:2335  tokenPrice */\n      sload(0x07)\n        /* \"contracts/Poketmon.sol\":2310:2321  totalSupply */\n      0x03\n      0x00\n        /* \"contracts/Poketmon.sol\":2310:2335  totalSupply -= tokenPrice */\n      dup3\n      dup3\n      sload\n      tag_229\n      swap2\n      swap1\n      tag_29\n      jump\t// in\n    tag_229:\n      swap3\n      pop\n      pop\n      dup2\n      swap1\n      sstore\n      pop\n        /* \"contracts/Poketmon.sol\":2348:2359  uint random */\n      0x00\n        /* \"contracts/Poketmon.sol\":2426:2441  block.timestamp */\n      timestamp\n        /* \"contracts/Poketmon.sol\":2443:2457  block.coinbase */\n      coinbase\n        /* \"contracts/Poketmon.sol\":2459:2471  block.number */\n      number\n        /* \"contracts/Poketmon.sol\":2409:2472  abi.encodePacked(block.timestamp, block.coinbase, block.number) */\n      add(0x20, mload(0x40))\n      tag_230\n      swap4\n      swap3\n      swap2\n      swap1\n      tag_231\n      jump\t// in\n    tag_230:\n      mload(0x40)\n      0x20\n      dup2\n      dup4\n      sub\n      sub\n      dup2\n      mstore\n      swap1\n      0x40\n      mstore\n        /* \"contracts/Poketmon.sol\":2381:2487  keccak256(... */\n      dup1\n      mload\n      swap1\n      0x20\n      add\n      keccak256\n        /* \"contracts/Poketmon.sol\":2362:2498  uint(... */\n      0x00\n      shr\n        /* \"contracts/Poketmon.sol\":2348:2498  uint random = uint(... */\n      swap1\n      pop\n        /* \"contracts/Poketmon.sol\":2532:2533  3 */\n      0x03\n        /* \"contracts/Poketmon.sol\":2523:2529  random */\n      dup2\n        /* \"contracts/Poketmon.sol\":2523:2533  random % 3 */\n      tag_232\n      swap2\n      swap1\n      tag_176\n      jump\t// in\n    tag_232:\n        /* \"contracts/Poketmon.sol\":2509:2534  random = uint(random % 3) */\n      swap1\n      pop\n        /* \"contracts/Poketmon.sol\":2660:2669  pokenmons */\n      0x0a\n        /* \"contracts/Poketmon.sol\":2660:2681  pokenmons[msg.sender] */\n      0x00\n        /* \"contracts/Poketmon.sol\":2670:2680  msg.sender */\n      caller\n        /* \"contracts/Poketmon.sol\":2660:2681  pokenmons[msg.sender] */\n      0xffffffffffffffffffffffffffffffffffffffff\n      and\n      0xffffffffffffffffffffffffffffffffffffffff\n      and\n      dup2\n      mstore\n      0x20\n      add\n      swap1\n      dup2\n      mstore\n      0x20\n      add\n      0x00\n      keccak256\n        /* \"contracts/Poketmon.sol\":2701:2750  Pokens(pokenmonUrl[random], pokenmonName[random]) */\n      mload(0x40)\n      dup1\n      0x40\n      add\n      0x40\n      mstore\n      dup1\n        /* \"contracts/Poketmon.sol\":2708:2719  pokenmonUrl */\n      0x09\n        /* \"contracts/Poketmon.sol\":2720:2726  random */\n      dup5\n        /* \"contracts/Poketmon.sol\":2708:2727  pokenmonUrl[random] */\n      dup2\n      sload\n      dup2\n      lt\n      tag_233\n      jumpi\n      tag_234\n      tag_179\n      jump\t// in\n    tag_234:\n    tag_233:\n      swap1\n      0x00\n      mstore\n      keccak256(0x00, 0x20)\n      add\n        /* \"contracts/Poketmon.sol\":2701:2750  Pokens(pokenmonUrl[random], pokenmonName[random]) */\n      dup1\n      sload\n      tag_236\n      swap1\n      tag_127\n      jump\t// in\n    tag_236:\n      dup1\n      0x1f\n      add\n      0x20\n      dup1\n      swap2\n      div\n      mul\n      0x20\n      add\n      mload(0x40)\n      swap1\n      dup2\n      add\n      0x40\n      mstore\n      dup1\n      swap3\n      swap2\n      swap1\n      dup2\n      dup2\n      mstore\n      0x20\n      add\n      dup3\n      dup1\n      sload\n      tag_237\n      swap1\n      tag_127\n      jump\t// in\n    tag_237:\n      dup1\n      iszero\n      tag_238\n      jumpi\n      dup1\n      0x1f\n      lt\n      tag_239\n      jumpi\n      0x0100\n      dup1\n      dup4\n      sload\n      div\n      mul\n      dup4\n      mstore\n      swap2\n      0x20\n      add\n      swap2\n      jump(tag_238)\n    tag_239:\n      dup3\n      add\n      swap2\n      swap1\n      0x00\n      mstore\n      keccak256(0x00, 0x20)\n      swap1\n    tag_240:\n      dup2\n      sload\n      dup2\n      mstore\n      swap1\n      0x01\n      add\n      swap1\n      0x20\n      add\n      dup1\n      dup4\n      gt\n      tag_240\n      jumpi\n      dup3\n      swap1\n      sub\n      0x1f\n      and\n      dup3\n      add\n      swap2\n    tag_238:\n      pop\n      pop\n      pop\n      pop\n      pop\n      dup2\n      mstore\n      0x20\n      add\n        /* \"contracts/Poketmon.sol\":2729:2741  pokenmonName */\n      0x08\n        /* \"contracts/Poketmon.sol\":2742:2748  random */\n      dup5\n        /* \"contracts/Poketmon.sol\":2729:2749  pokenmonName[random] */\n      dup2\n      sload\n      dup2\n      lt\n      tag_241\n      jumpi\n      tag_242\n      tag_179\n      jump\t// in\n    tag_242:\n    tag_241:\n      swap1\n      0x00\n      mstore\n      keccak256(0x00, 0x20)\n      add\n        /* \"contracts/Poketmon.sol\":2701:2750  Pokens(pokenmonUrl[random], pokenmonName[random]) */\n      dup1\n      sload\n      tag_244\n      swap1\n      tag_127\n      jump\t// in\n    tag_244:\n      dup1\n      0x1f\n      add\n      0x20\n      dup1\n      swap2\n      div\n      mul\n      0x20\n      add\n      mload(0x40)\n      swap1\n      dup2\n      add\n      0x40\n      mstore\n      dup1\n      swap3\n      swap2\n      swap1\n      dup2\n      dup2\n      mstore\n      0x20\n      add\n      dup3\n      dup1\n      sload\n      tag_245\n      swap1\n      tag_127\n      jump\t// in\n    tag_245:\n      dup1\n      iszero\n      tag_246\n      jumpi\n      dup1\n      0x1f\n      lt\n      tag_247\n      jumpi\n      0x0100\n      dup1\n      dup4\n      sload\n      div\n      mul\n      dup4\n      mstore\n      swap2\n      0x20\n      add\n      swap2\n      jump(tag_246)\n    tag_247:\n      dup3\n      add\n      swap2\n      swap1\n      0x00\n      mstore\n      keccak256(0x00, 0x20)\n      swap1\n    tag_248:\n      dup2\n      sload\n      dup2\n      mstore\n      swap1\n      0x01\n      add\n      swap1\n      0x20\n      add\n      dup1\n      dup4\n      gt\n      tag_248\n      jumpi\n      dup3\n      swap1\n      sub\n      0x1f\n      and\n      dup3\n      add\n      swap2\n    tag_246:\n      pop\n      pop\n      pop\n      pop\n      pop\n      dup2\n      mstore\n      pop\n        /* \"contracts/Poketmon.sol\":2660:2761  pokenmons[msg.sender].push(... */\n      swap1\n      dup1\n      0x01\n      dup2\n      sload\n      add\n      dup1\n      dup3\n      sstore\n      dup1\n      swap2\n      pop\n      pop\n      0x01\n      swap1\n      sub\n      swap1\n      0x00\n      mstore\n      keccak256(0x00, 0x20)\n      swap1\n      0x02\n      mul\n      add\n      0x00\n      swap1\n      swap2\n      swap1\n      swap2\n      swap1\n      swap2\n      pop\n      0x00\n      dup3\n      add\n      mload\n      dup2\n      0x00\n      add\n      swap1\n      dup2\n      tag_250\n      swap2\n      swap1\n      tag_212\n      jump\t// in\n    tag_250:\n      pop\n      0x20\n      dup3\n      add\n      mload\n      dup2\n      0x01\n      add\n      swap1\n      dup2\n      tag_251\n      swap2\n      swap1\n      tag_212\n      jump\t// in\n    tag_251:\n      pop\n      pop\n      pop\n        /* \"contracts/Poketmon.sol\":2839:2850  bool isUser */\n      0x00\n        /* \"contracts/Poketmon.sol\":2874:2883  uint256 i */\n      dup1\n        /* \"contracts/Poketmon.sol\":2869:3046  for (uint256 i = 0; i < users.length; i++) {... */\n    tag_252:\n        /* \"contracts/Poketmon.sol\":2893:2898  users */\n      0x0b\n        /* \"contracts/Poketmon.sol\":2893:2905  users.length */\n      dup1\n      sload\n      swap1\n      pop\n        /* \"contracts/Poketmon.sol\":2889:2890  i */\n      dup2\n        /* \"contracts/Poketmon.sol\":2889:2905  i < users.length */\n      lt\n        /* \"contracts/Poketmon.sol\":2869:3046  for (uint256 i = 0; i < users.length; i++) {... */\n      iszero\n      tag_253\n      jumpi\n        /* \"contracts/Poketmon.sol\":2951:2961  msg.sender */\n      caller\n        /* \"contracts/Poketmon.sol\":2931:2961  users[i].account == msg.sender */\n      0xffffffffffffffffffffffffffffffffffffffff\n      and\n        /* \"contracts/Poketmon.sol\":2931:2936  users */\n      0x0b\n        /* \"contracts/Poketmon.sol\":2937:2938  i */\n      dup3\n        /* \"contracts/Poketmon.sol\":2931:2939  users[i] */\n      dup2\n      sload\n      dup2\n      lt\n      tag_255\n      jumpi\n      tag_256\n      tag_179\n      jump\t// in\n    tag_256:\n    tag_255:\n      swap1\n      0x00\n      mstore\n      keccak256(0x00, 0x20)\n      add\n        /* \"contracts/Poketmon.sol\":2931:2947  users[i].account */\n      0x00\n      add\n      0x00\n      swap1\n      sload\n      swap1\n      0x0100\n      exp\n      swap1\n      div\n      0xffffffffffffffffffffffffffffffffffffffff\n      and\n        /* \"contracts/Poketmon.sol\":2931:2961  users[i].account == msg.sender */\n      0xffffffffffffffffffffffffffffffffffffffff\n      and\n      sub\n        /* \"contracts/Poketmon.sol\":2927:3035  if (users[i].account == msg.sender) {... */\n      tag_258\n      jumpi\n        /* \"contracts/Poketmon.sol\":2991:2995  true */\n      0x01\n        /* \"contracts/Poketmon.sol\":2982:2995  isUser = true */\n      swap2\n      pop\n        /* \"contracts/Poketmon.sol\":3014:3019  break */\n      jump(tag_253)\n        /* \"contracts/Poketmon.sol\":2927:3035  if (users[i].account == msg.sender) {... */\n    tag_258:\n        /* \"contracts/Poketmon.sol\":2907:2910  i++ */\n      dup1\n      dup1\n      tag_259\n      swap1\n      tag_260\n      jump\t// in\n    tag_259:\n      swap2\n      pop\n      pop\n        /* \"contracts/Poketmon.sol\":2869:3046  for (uint256 i = 0; i < users.length; i++) {... */\n      jump(tag_252)\n    tag_253:\n      pop\n        /* \"contracts/Poketmon.sol\":3063:3069  isUser */\n      dup1\n        /* \"contracts/Poketmon.sol\":3058:3127  if (!isUser) {... */\n      tag_261\n      jumpi\n        /* \"contracts/Poketmon.sol\":3086:3091  users */\n      0x0b\n        /* \"contracts/Poketmon.sol\":3097:3114  Users(msg.sender) */\n      mload(0x40)\n      dup1\n      0x20\n      add\n      0x40\n      mstore\n      dup1\n        /* \"contracts/Poketmon.sol\":3103:3113  msg.sender */\n      caller\n        /* \"contracts/Poketmon.sol\":3097:3114  Users(msg.sender) */\n      0xffffffffffffffffffffffffffffffffffffffff\n      and\n      dup2\n      mstore\n      pop\n        /* \"contracts/Poketmon.sol\":3086:3115  users.push(Users(msg.sender)) */\n      swap1\n      dup1\n      0x01\n      dup2\n      sload\n      add\n      dup1\n      dup3\n      sstore\n      dup1\n      swap2\n      pop\n      pop\n      0x01\n      swap1\n      sub\n      swap1\n      0x00\n      mstore\n      keccak256(0x00, 0x20)\n      add\n      0x00\n      swap1\n      swap2\n      swap1\n      swap2\n      swap1\n      swap2\n      pop\n      0x00\n      dup3\n      add\n      mload\n      dup2\n      0x00\n      add\n      exp(0x0100, 0x00)\n      dup2\n      sload\n      dup2\n      0xffffffffffffffffffffffffffffffffffffffff\n      mul\n      not\n      and\n      swap1\n      dup4\n      0xffffffffffffffffffffffffffffffffffffffff\n      and\n      mul\n      or\n      swap1\n      sstore\n      pop\n      pop\n      pop\n        /* \"contracts/Poketmon.sol\":3058:3127  if (!isUser) {... */\n    tag_261:\n        /* \"contracts/Poketmon.sol\":2200:3134  {... */\n      pop\n      pop\n        /* \"contracts/Poketmon.sol\":2170:3134  function buyPokenmon() public {... */\n      jump\t// out\n    tag_208:\n      pop\n      dup1\n      sload\n      tag_263\n      swap1\n      tag_127\n      jump\t// in\n    tag_263:\n      0x00\n      dup3\n      sstore\n      dup1\n      0x1f\n      lt\n      tag_265\n      jumpi\n      pop\n      jump(tag_264)\n    tag_265:\n      0x1f\n      add\n      0x20\n      swap1\n      div\n      swap1\n      0x00\n      mstore\n      keccak256(0x00, 0x20)\n      swap1\n      dup2\n      add\n      swap1\n      tag_266\n      swap2\n      swap1\n      tag_267\n      jump\t// in\n    tag_266:\n    tag_264:\n      pop\n      jump\t// out\n    tag_267:\n    tag_268:\n      dup1\n      dup3\n      gt\n      iszero\n      tag_269\n      jumpi\n      0x00\n      dup2\n      0x00\n      swap1\n      sstore\n      pop\n      0x01\n      add\n      jump(tag_268)\n    tag_269:\n      pop\n      swap1\n      jump\t// out\n        /* \"#utility.yul\":7:84   */\n    tag_270:\n        /* \"#utility.yul\":44:51   */\n      0x00\n        /* \"#utility.yul\":73:78   */\n      dup2\n        /* \"#utility.yul\":62:78   */\n      swap1\n      pop\n        /* \"#utility.yul\":7:84   */\n      swap2\n      swap1\n      pop\n      jump\t// out\n        /* \"#utility.yul\":90:270   */\n    tag_271:\n        /* \"#utility.yul\":138:215   */\n      0x4e487b7100000000000000000000000000000000000000000000000000000000\n        /* \"#utility.yul\":135:136   */\n      0x00\n        /* \"#utility.yul\":128:216   */\n      mstore\n        /* \"#utility.yul\":235:239   */\n      0x11\n        /* \"#utility.yul\":232:233   */\n      0x04\n        /* \"#utility.yul\":225:240   */\n      mstore\n        /* \"#utility.yul\":259:263   */\n      0x24\n        /* \"#utility.yul\":256:257   */\n      0x00\n        /* \"#utility.yul\":249:264   */\n      revert\n        /* \"#utility.yul\":276:686   */\n    tag_26:\n        /* \"#utility.yul\":316:323   */\n      0x00\n        /* \"#utility.yul\":339:359   */\n      tag_343\n        /* \"#utility.yul\":357:358   */\n      dup3\n        /* \"#utility.yul\":339:359   */\n      tag_270\n      jump\t// in\n    tag_343:\n        /* \"#utility.yul\":334:359   */\n      swap2\n      pop\n        /* \"#utility.yul\":373:393   */\n      tag_344\n        /* \"#utility.yul\":391:392   */\n      dup4\n        /* \"#utility.yul\":373:393   */\n      tag_270\n      jump\t// in\n    tag_344:\n        /* \"#utility.yul\":368:393   */\n      swap3\n      pop\n        /* \"#utility.yul\":428:429   */\n      dup3\n        /* \"#utility.yul\":425:426   */\n      dup3\n        /* \"#utility.yul\":421:430   */\n      mul\n        /* \"#utility.yul\":450:480   */\n      tag_345\n        /* \"#utility.yul\":468:479   */\n      dup2\n        /* \"#utility.yul\":450:480   */\n      tag_270\n      jump\t// in\n    tag_345:\n        /* \"#utility.yul\":439:480   */\n      swap2\n      pop\n        /* \"#utility.yul\":629:630   */\n      dup3\n        /* \"#utility.yul\":620:627   */\n      dup3\n        /* \"#utility.yul\":616:631   */\n      div\n        /* \"#utility.yul\":613:614   */\n      dup5\n        /* \"#utility.yul\":610:632   */\n      eq\n        /* \"#utility.yul\":590:591   */\n      dup4\n        /* \"#utility.yul\":583:592   */\n      iszero\n        /* \"#utility.yul\":563:646   */\n      or\n        /* \"#utility.yul\":540:679   */\n      tag_346\n      jumpi\n        /* \"#utility.yul\":659:677   */\n      tag_347\n      tag_271\n      jump\t// in\n    tag_347:\n        /* \"#utility.yul\":540:679   */\n    tag_346:\n        /* \"#utility.yul\":324:686   */\n      pop\n        /* \"#utility.yul\":276:686   */\n      swap3\n      swap2\n      pop\n      pop\n      jump\t// out\n        /* \"#utility.yul\":692:886   */\n    tag_29:\n        /* \"#utility.yul\":732:736   */\n      0x00\n        /* \"#utility.yul\":752:772   */\n      tag_349\n        /* \"#utility.yul\":770:771   */\n      dup3\n        /* \"#utility.yul\":752:772   */\n      tag_270\n      jump\t// in\n    tag_349:\n        /* \"#utility.yul\":747:772   */\n      swap2\n      pop\n        /* \"#utility.yul\":786:806   */\n      tag_350\n        /* \"#utility.yul\":804:805   */\n      dup4\n        /* \"#utility.yul\":786:806   */\n      tag_270\n      jump\t// in\n    tag_350:\n        /* \"#utility.yul\":781:806   */\n      swap3\n      pop\n        /* \"#utility.yul\":830:831   */\n      dup3\n        /* \"#utility.yul\":827:828   */\n      dup3\n        /* \"#utility.yul\":823:832   */\n      sub\n        /* \"#utility.yul\":815:832   */\n      swap1\n      pop\n        /* \"#utility.yul\":854:855   */\n      dup2\n        /* \"#utility.yul\":848:852   */\n      dup2\n        /* \"#utility.yul\":845:856   */\n      gt\n        /* \"#utility.yul\":842:879   */\n      iszero\n      tag_351\n      jumpi\n        /* \"#utility.yul\":859:877   */\n      tag_352\n      tag_271\n      jump\t// in\n    tag_352:\n        /* \"#utility.yul\":842:879   */\n    tag_351:\n        /* \"#utility.yul\":692:886   */\n      swap3\n      swap2\n      pop\n      pop\n      jump\t// out\n        /* \"#utility.yul\":892:1083   */\n    tag_31:\n        /* \"#utility.yul\":932:935   */\n      0x00\n        /* \"#utility.yul\":951:971   */\n      tag_354\n        /* \"#utility.yul\":969:970   */\n      dup3\n        /* \"#utility.yul\":951:971   */\n      tag_270\n      jump\t// in\n    tag_354:\n        /* \"#utility.yul\":946:971   */\n      swap2\n      pop\n        /* \"#utility.yul\":985:1005   */\n      tag_355\n        /* \"#utility.yul\":1003:1004   */\n      dup4\n        /* \"#utility.yul\":985:1005   */\n      tag_270\n      jump\t// in\n    tag_355:\n        /* \"#utility.yul\":980:1005   */\n      swap3\n      pop\n        /* \"#utility.yul\":1028:1029   */\n      dup3\n        /* \"#utility.yul\":1025:1026   */\n      dup3\n        /* \"#utility.yul\":1021:1030   */\n      add\n        /* \"#utility.yul\":1014:1030   */\n      swap1\n      pop\n        /* \"#utility.yul\":1049:1052   */\n      dup1\n        /* \"#utility.yul\":1046:1047   */\n      dup3\n        /* \"#utility.yul\":1043:1053   */\n      gt\n        /* \"#utility.yul\":1040:1076   */\n      iszero\n      tag_356\n      jumpi\n        /* \"#utility.yul\":1056:1074   */\n      tag_357\n      tag_271\n      jump\t// in\n    tag_357:\n        /* \"#utility.yul\":1040:1076   */\n    tag_356:\n        /* \"#utility.yul\":892:1083   */\n      swap3\n      swap2\n      pop\n      pop\n      jump\t// out\n        /* \"#utility.yul\":1089:1188   */\n    tag_272:\n        /* \"#utility.yul\":1141:1147   */\n      0x00\n        /* \"#utility.yul\":1175:1180   */\n      dup2\n        /* \"#utility.yul\":1169:1181   */\n      mload\n        /* \"#utility.yul\":1159:1181   */\n      swap1\n      pop\n        /* \"#utility.yul\":1089:1188   */\n      swap2\n      swap1\n      pop\n      jump\t// out\n        /* \"#utility.yul\":1194:1363   */\n    tag_273:\n        /* \"#utility.yul\":1278:1289   */\n      0x00\n        /* \"#utility.yul\":1312:1318   */\n      dup3\n        /* \"#utility.yul\":1307:1310   */\n      dup3\n        /* \"#utility.yul\":1300:1319   */\n      mstore\n        /* \"#utility.yul\":1352:1356   */\n      0x20\n        /* \"#utility.yul\":1347:1350   */\n      dup3\n        /* \"#utility.yul\":1343:1357   */\n      add\n        /* \"#utility.yul\":1328:1357   */\n      swap1\n      pop\n        /* \"#utility.yul\":1194:1363   */\n      swap3\n      swap2\n      pop\n      pop\n      jump\t// out\n        /* \"#utility.yul\":1369:1615   */\n    tag_274:\n        /* \"#utility.yul\":1450:1451   */\n      0x00\n        /* \"#utility.yul\":1460:1573   */\n    tag_361:\n        /* \"#utility.yul\":1474:1480   */\n      dup4\n        /* \"#utility.yul\":1471:1472   */\n      dup2\n        /* \"#utility.yul\":1468:1481   */\n      lt\n        /* \"#utility.yul\":1460:1573   */\n      iszero\n      tag_363\n      jumpi\n        /* \"#utility.yul\":1559:1560   */\n      dup1\n        /* \"#utility.yul\":1554:1557   */\n      dup3\n        /* \"#utility.yul\":1550:1561   */\n      add\n        /* \"#utility.yul\":1544:1562   */\n      mload\n        /* \"#utility.yul\":1540:1541   */\n      dup2\n        /* \"#utility.yul\":1535:1538   */\n      dup5\n        /* \"#utility.yul\":1531:1542   */\n      add\n        /* \"#utility.yul\":1524:1563   */\n      mstore\n        /* \"#utility.yul\":1496:1498   */\n      0x20\n        /* \"#utility.yul\":1493:1494   */\n      dup2\n        /* \"#utility.yul\":1489:1499   */\n      add\n        /* \"#utility.yul\":1484:1499   */\n      swap1\n      pop\n        /* \"#utility.yul\":1460:1573   */\n      jump(tag_361)\n    tag_363:\n        /* \"#utility.yul\":1607:1608   */\n      0x00\n        /* \"#utility.yul\":1598:1604   */\n      dup5\n        /* \"#utility.yul\":1593:1596   */\n      dup5\n        /* \"#utility.yul\":1589:1605   */\n      add\n        /* \"#utility.yul\":1582:1609   */\n      mstore\n        /* \"#utility.yul\":1431:1615   */\n      pop\n        /* \"#utility.yul\":1369:1615   */\n      pop\n      pop\n      pop\n      jump\t// out\n        /* \"#utility.yul\":1621:1723   */\n    tag_275:\n        /* \"#utility.yul\":1662:1668   */\n      0x00\n        /* \"#utility.yul\":1713:1715   */\n      0x1f\n        /* \"#utility.yul\":1709:1716   */\n      not\n        /* \"#utility.yul\":1704:1706   */\n      0x1f\n        /* \"#utility.yul\":1697:1702   */\n      dup4\n        /* \"#utility.yul\":1693:1707   */\n      add\n        /* \"#utility.yul\":1689:1717   */\n      and\n        /* \"#utility.yul\":1679:1717   */\n      swap1\n      pop\n        /* \"#utility.yul\":1621:1723   */\n      swap2\n      swap1\n      pop\n      jump\t// out\n        /* \"#utility.yul\":1729:2106   */\n    tag_276:\n        /* \"#utility.yul\":1817:1820   */\n      0x00\n        /* \"#utility.yul\":1845:1884   */\n      tag_366\n        /* \"#utility.yul\":1878:1883   */\n      dup3\n        /* \"#utility.yul\":1845:1884   */\n      tag_272\n      jump\t// in\n    tag_366:\n        /* \"#utility.yul\":1900:1971   */\n      tag_367\n        /* \"#utility.yul\":1964:1970   */\n      dup2\n        /* \"#utility.yul\":1959:1962   */\n      dup6\n        /* \"#utility.yul\":1900:1971   */\n      tag_273\n      jump\t// in\n    tag_367:\n        /* \"#utility.yul\":1893:1971   */\n      swap4\n      pop\n        /* \"#utility.yul\":1980:2045   */\n      tag_368\n        /* \"#utility.yul\":2038:2044   */\n      dup2\n        /* \"#utility.yul\":2033:2036   */\n      dup6\n        /* \"#utility.yul\":2026:2030   */\n      0x20\n        /* \"#utility.yul\":2019:2024   */\n      dup7\n        /* \"#utility.yul\":2015:2031   */\n      add\n        /* \"#utility.yul\":1980:2045   */\n      tag_274\n      jump\t// in\n    tag_368:\n        /* \"#utility.yul\":2070:2099   */\n      tag_369\n        /* \"#utility.yul\":2092:2098   */\n      dup2\n        /* \"#utility.yul\":2070:2099   */\n      tag_275\n      jump\t// in\n    tag_369:\n        /* \"#utility.yul\":2065:2068   */\n      dup5\n        /* \"#utility.yul\":2061:2100   */\n      add\n        /* \"#utility.yul\":2054:2100   */\n      swap2\n      pop\n        /* \"#utility.yul\":1821:2106   */\n      pop\n        /* \"#utility.yul\":1729:2106   */\n      swap3\n      swap2\n      pop\n      pop\n      jump\t// out\n        /* \"#utility.yul\":2112:2425   */\n    tag_39:\n        /* \"#utility.yul\":2225:2229   */\n      0x00\n        /* \"#utility.yul\":2263:2265   */\n      0x20\n        /* \"#utility.yul\":2252:2261   */\n      dup3\n        /* \"#utility.yul\":2248:2266   */\n      add\n        /* \"#utility.yul\":2240:2266   */\n      swap1\n      pop\n        /* \"#utility.yul\":2312:2321   */\n      dup2\n        /* \"#utility.yul\":2306:2310   */\n      dup2\n        /* \"#utility.yul\":2302:2322   */\n      sub\n        /* \"#utility.yul\":2298:2299   */\n      0x00\n        /* \"#utility.yul\":2287:2296   */\n      dup4\n        /* \"#utility.yul\":2283:2300   */\n      add\n        /* \"#utility.yul\":2276:2323   */\n      mstore\n        /* \"#utility.yul\":2340:2418   */\n      tag_371\n        /* \"#utility.yul\":2413:2417   */\n      dup2\n        /* \"#utility.yul\":2404:2410   */\n      dup5\n        /* \"#utility.yul\":2340:2418   */\n      tag_276\n      jump\t// in\n    tag_371:\n        /* \"#utility.yul\":2332:2418   */\n      swap1\n      pop\n        /* \"#utility.yul\":2112:2425   */\n      swap3\n      swap2\n      pop\n      pop\n      jump\t// out\n        /* \"#utility.yul\":2512:2629   */\n    tag_278:\n        /* \"#utility.yul\":2621:2622   */\n      0x00\n        /* \"#utility.yul\":2618:2619   */\n      dup1\n        /* \"#utility.yul\":2611:2623   */\n      revert\n        /* \"#utility.yul\":2758:2884   */\n    tag_280:\n        /* \"#utility.yul\":2795:2802   */\n      0x00\n        /* \"#utility.yul\":2835:2877   */\n      0xffffffffffffffffffffffffffffffffffffffff\n        /* \"#utility.yul\":2828:2833   */\n      dup3\n        /* \"#utility.yul\":2824:2878   */\n      and\n        /* \"#utility.yul\":2813:2878   */\n      swap1\n      pop\n        /* \"#utility.yul\":2758:2884   */\n      swap2\n      swap1\n      pop\n      jump\t// out\n        /* \"#utility.yul\":2890:2986   */\n    tag_281:\n        /* \"#utility.yul\":2927:2934   */\n      0x00\n        /* \"#utility.yul\":2956:2980   */\n      tag_377\n        /* \"#utility.yul\":2974:2979   */\n      dup3\n        /* \"#utility.yul\":2956:2980   */\n      tag_280\n      jump\t// in\n    tag_377:\n        /* \"#utility.yul\":2945:2980   */\n      swap1\n      pop\n        /* \"#utility.yul\":2890:2986   */\n      swap2\n      swap1\n      pop\n      jump\t// out\n        /* \"#utility.yul\":2992:3114   */\n    tag_282:\n        /* \"#utility.yul\":3065:3089   */\n      tag_379\n        /* \"#utility.yul\":3083:3088   */\n      dup2\n        /* \"#utility.yul\":3065:3089   */\n      tag_281\n      jump\t// in\n    tag_379:\n        /* \"#utility.yul\":3058:3063   */\n      dup2\n        /* \"#utility.yul\":3055:3090   */\n      eq\n        /* \"#utility.yul\":3045:3108   */\n      tag_380\n      jumpi\n        /* \"#utility.yul\":3104:3105   */\n      0x00\n        /* \"#utility.yul\":3101:3102   */\n      dup1\n        /* \"#utility.yul\":3094:3106   */\n      revert\n        /* \"#utility.yul\":3045:3108   */\n    tag_380:\n        /* \"#utility.yul\":2992:3114   */\n      pop\n      jump\t// out\n        /* \"#utility.yul\":3120:3259   */\n    tag_283:\n        /* \"#utility.yul\":3166:3171   */\n      0x00\n        /* \"#utility.yul\":3204:3210   */\n      dup2\n        /* \"#utility.yul\":3191:3211   */\n      calldataload\n        /* \"#utility.yul\":3182:3211   */\n      swap1\n      pop\n        /* \"#utility.yul\":3220:3253   */\n      tag_382\n        /* \"#utility.yul\":3247:3252   */\n      dup2\n        /* \"#utility.yul\":3220:3253   */\n      tag_282\n      jump\t// in\n    tag_382:\n        /* \"#utility.yul\":3120:3259   */\n      swap3\n      swap2\n      pop\n      pop\n      jump\t// out\n        /* \"#utility.yul\":3265:3387   */\n    tag_284:\n        /* \"#utility.yul\":3338:3362   */\n      tag_384\n        /* \"#utility.yul\":3356:3361   */\n      dup2\n        /* \"#utility.yul\":3338:3362   */\n      tag_270\n      jump\t// in\n    tag_384:\n        /* \"#utility.yul\":3331:3336   */\n      dup2\n        /* \"#utility.yul\":3328:3363   */\n      eq\n        /* \"#utility.yul\":3318:3381   */\n      tag_385\n      jumpi\n        /* \"#utility.yul\":3377:3378   */\n      0x00\n        /* \"#utility.yul\":3374:3375   */\n      dup1\n        /* \"#utility.yul\":3367:3379   */\n      revert\n        /* \"#utility.yul\":3318:3381   */\n    tag_385:\n        /* \"#utility.yul\":3265:3387   */\n      pop\n      jump\t// out\n        /* \"#utility.yul\":3393:3532   */\n    tag_285:\n        /* \"#utility.yul\":3439:3444   */\n      0x00\n        /* \"#utility.yul\":3477:3483   */\n      dup2\n        /* \"#utility.yul\":3464:3484   */\n      calldataload\n        /* \"#utility.yul\":3455:3484   */\n      swap1\n      pop\n        /* \"#utility.yul\":3493:3526   */\n      tag_387\n        /* \"#utility.yul\":3520:3525   */\n      dup2\n        /* \"#utility.yul\":3493:3526   */\n      tag_284\n      jump\t// in\n    tag_387:\n        /* \"#utility.yul\":3393:3532   */\n      swap3\n      swap2\n      pop\n      pop\n      jump\t// out\n        /* \"#utility.yul\":3538:4012   */\n    tag_43:\n        /* \"#utility.yul\":3606:3612   */\n      0x00\n        /* \"#utility.yul\":3614:3620   */\n      dup1\n        /* \"#utility.yul\":3663:3665   */\n      0x40\n        /* \"#utility.yul\":3651:3660   */\n      dup4\n        /* \"#utility.yul\":3642:3649   */\n      dup6\n        /* \"#utility.yul\":3638:3661   */\n      sub\n        /* \"#utility.yul\":3634:3666   */\n      slt\n        /* \"#utility.yul\":3631:3750   */\n      iszero\n      tag_389\n      jumpi\n        /* \"#utility.yul\":3669:3748   */\n      tag_390\n      tag_278\n      jump\t// in\n    tag_390:\n        /* \"#utility.yul\":3631:3750   */\n    tag_389:\n        /* \"#utility.yul\":3789:3790   */\n      0x00\n        /* \"#utility.yul\":3814:3867   */\n      tag_391\n        /* \"#utility.yul\":3859:3866   */\n      dup6\n        /* \"#utility.yul\":3850:3856   */\n      dup3\n        /* \"#utility.yul\":3839:3848   */\n      dup7\n        /* \"#utility.yul\":3835:3857   */\n      add\n        /* \"#utility.yul\":3814:3867   */\n      tag_283\n      jump\t// in\n    tag_391:\n        /* \"#utility.yul\":3804:3867   */\n      swap3\n      pop\n        /* \"#utility.yul\":3760:3877   */\n      pop\n        /* \"#utility.yul\":3916:3918   */\n      0x20\n        /* \"#utility.yul\":3942:3995   */\n      tag_392\n        /* \"#utility.yul\":3987:3994   */\n      dup6\n        /* \"#utility.yul\":3978:3984   */\n      dup3\n        /* \"#utility.yul\":3967:3976   */\n      dup7\n        /* \"#utility.yul\":3963:3985   */\n      add\n        /* \"#utility.yul\":3942:3995   */\n      tag_285\n      jump\t// in\n    tag_392:\n        /* \"#utility.yul\":3932:3995   */\n      swap2\n      pop\n        /* \"#utility.yul\":3887:4005   */\n      pop\n        /* \"#utility.yul\":3538:4012   */\n      swap3\n      pop\n      swap3\n      swap1\n      pop\n      jump\t// out\n        /* \"#utility.yul\":4018:4108   */\n    tag_286:\n        /* \"#utility.yul\":4052:4059   */\n      0x00\n        /* \"#utility.yul\":4095:4100   */\n      dup2\n        /* \"#utility.yul\":4088:4101   */\n      iszero\n        /* \"#utility.yul\":4081:4102   */\n      iszero\n        /* \"#utility.yul\":4070:4102   */\n      swap1\n      pop\n        /* \"#utility.yul\":4018:4108   */\n      swap2\n      swap1\n      pop\n      jump\t// out\n        /* \"#utility.yul\":4114:4223   */\n    tag_287:\n        /* \"#utility.yul\":4195:4216   */\n      tag_395\n        /* \"#utility.yul\":4210:4215   */\n      dup2\n        /* \"#utility.yul\":4195:4216   */\n      tag_286\n      jump\t// in\n    tag_395:\n        /* \"#utility.yul\":4190:4193   */\n      dup3\n        /* \"#utility.yul\":4183:4217   */\n      mstore\n        /* \"#utility.yul\":4114:4223   */\n      pop\n      pop\n      jump\t// out\n        /* \"#utility.yul\":4229:4439   */\n    tag_46:\n        /* \"#utility.yul\":4316:4320   */\n      0x00\n        /* \"#utility.yul\":4354:4356   */\n      0x20\n        /* \"#utility.yul\":4343:4352   */\n      dup3\n        /* \"#utility.yul\":4339:4357   */\n      add\n        /* \"#utility.yul\":4331:4357   */\n      swap1\n      pop\n        /* \"#utility.yul\":4367:4432   */\n      tag_397\n        /* \"#utility.yul\":4429:4430   */\n      0x00\n        /* \"#utility.yul\":4418:4427   */\n      dup4\n        /* \"#utility.yul\":4414:4431   */\n      add\n        /* \"#utility.yul\":4405:4411   */\n      dup5\n        /* \"#utility.yul\":4367:4432   */\n      tag_287\n      jump\t// in\n    tag_397:\n        /* \"#utility.yul\":4229:4439   */\n      swap3\n      swap2\n      pop\n      pop\n      jump\t// out\n        /* \"#utility.yul\":4445:4563   */\n    tag_288:\n        /* \"#utility.yul\":4532:4556   */\n      tag_399\n        /* \"#utility.yul\":4550:4555   */\n      dup2\n        /* \"#utility.yul\":4532:4556   */\n      tag_270\n      jump\t// in\n    tag_399:\n        /* \"#utility.yul\":4527:4530   */\n      dup3\n        /* \"#utility.yul\":4520:4557   */\n      mstore\n        /* \"#utility.yul\":4445:4563   */\n      pop\n      pop\n      jump\t// out\n        /* \"#utility.yul\":4569:4791   */\n    tag_51:\n        /* \"#utility.yul\":4662:4666   */\n      0x00\n        /* \"#utility.yul\":4700:4702   */\n      0x20\n        /* \"#utility.yul\":4689:4698   */\n      dup3\n        /* \"#utility.yul\":4685:4703   */\n      add\n        /* \"#utility.yul\":4677:4703   */\n      swap1\n      pop\n        /* \"#utility.yul\":4713:4784   */\n      tag_401\n        /* \"#utility.yul\":4781:4782   */\n      0x00\n        /* \"#utility.yul\":4770:4779   */\n      dup4\n        /* \"#utility.yul\":4766:4783   */\n      add\n        /* \"#utility.yul\":4757:4763   */\n      dup5\n        /* \"#utility.yul\":4713:4784   */\n      tag_288\n      jump\t// in\n    tag_401:\n        /* \"#utility.yul\":4569:4791   */\n      swap3\n      swap2\n      pop\n      pop\n      jump\t// out\n        /* \"#utility.yul\":4797:5416   */\n    tag_55:\n        /* \"#utility.yul\":4874:4880   */\n      0x00\n        /* \"#utility.yul\":4882:4888   */\n      dup1\n        /* \"#utility.yul\":4890:4896   */\n      0x00\n        /* \"#utility.yul\":4939:4941   */\n      0x60\n        /* \"#utility.yul\":4927:4936   */\n      dup5\n        /* \"#utility.yul\":4918:4925   */\n      dup7\n        /* \"#utility.yul\":4914:4937   */\n      sub\n        /* \"#utility.yul\":4910:4942   */\n      slt\n        /* \"#utility.yul\":4907:5026   */\n      iszero\n      tag_403\n      jumpi\n        /* \"#utility.yul\":4945:5024   */\n      tag_404\n      tag_278\n      jump\t// in\n    tag_404:\n        /* \"#utility.yul\":4907:5026   */\n    tag_403:\n        /* \"#utility.yul\":5065:5066   */\n      0x00\n        /* \"#utility.yul\":5090:5143   */\n      tag_405\n        /* \"#utility.yul\":5135:5142   */\n      dup7\n        /* \"#utility.yul\":5126:5132   */\n      dup3\n        /* \"#utility.yul\":5115:5124   */\n      dup8\n        /* \"#utility.yul\":5111:5133   */\n      add\n        /* \"#utility.yul\":5090:5143   */\n      tag_283\n      jump\t// in\n    tag_405:\n        /* \"#utility.yul\":5080:5143   */\n      swap4\n      pop\n        /* \"#utility.yul\":5036:5153   */\n      pop\n        /* \"#utility.yul\":5192:5194   */\n      0x20\n        /* \"#utility.yul\":5218:5271   */\n      tag_406\n        /* \"#utility.yul\":5263:5270   */\n      dup7\n        /* \"#utility.yul\":5254:5260   */\n      dup3\n        /* \"#utility.yul\":5243:5252   */\n      dup8\n        /* \"#utility.yul\":5239:5261   */\n      add\n        /* \"#utility.yul\":5218:5271   */\n      tag_283\n      jump\t// in\n    tag_406:\n        /* \"#utility.yul\":5208:5271   */\n      swap3\n      pop\n        /* \"#utility.yul\":5163:5281   */\n      pop\n        /* \"#utility.yul\":5320:5322   */\n      0x40\n        /* \"#utility.yul\":5346:5399   */\n      tag_407\n        /* \"#utility.yul\":5391:5398   */\n      dup7\n        /* \"#utility.yul\":5382:5388   */\n      dup3\n        /* \"#utility.yul\":5371:5380   */\n      dup8\n        /* \"#utility.yul\":5367:5389   */\n      add\n        /* \"#utility.yul\":5346:5399   */\n      tag_285\n      jump\t// in\n    tag_407:\n        /* \"#utility.yul\":5336:5399   */\n      swap2\n      pop\n        /* \"#utility.yul\":5291:5409   */\n      pop\n        /* \"#utility.yul\":4797:5416   */\n      swap3\n      pop\n      swap3\n      pop\n      swap3\n      jump\t// out\n        /* \"#utility.yul\":5422:5751   */\n    tag_61:\n        /* \"#utility.yul\":5481:5487   */\n      0x00\n        /* \"#utility.yul\":5530:5532   */\n      0x20\n        /* \"#utility.yul\":5518:5527   */\n      dup3\n        /* \"#utility.yul\":5509:5516   */\n      dup5\n        /* \"#utility.yul\":5505:5528   */\n      sub\n        /* \"#utility.yul\":5501:5533   */\n      slt\n        /* \"#utility.yul\":5498:5617   */\n      iszero\n      tag_409\n      jumpi\n        /* \"#utility.yul\":5536:5615   */\n      tag_410\n      tag_278\n      jump\t// in\n    tag_410:\n        /* \"#utility.yul\":5498:5617   */\n    tag_409:\n        /* \"#utility.yul\":5656:5657   */\n      0x00\n        /* \"#utility.yul\":5681:5734   */\n      tag_411\n        /* \"#utility.yul\":5726:5733   */\n      dup5\n        /* \"#utility.yul\":5717:5723   */\n      dup3\n        /* \"#utility.yul\":5706:5715   */\n      dup6\n        /* \"#utility.yul\":5702:5724   */\n      add\n        /* \"#utility.yul\":5681:5734   */\n      tag_283\n      jump\t// in\n    tag_411:\n        /* \"#utility.yul\":5671:5734   */\n      swap2\n      pop\n        /* \"#utility.yul\":5627:5744   */\n      pop\n        /* \"#utility.yul\":5422:5751   */\n      swap3\n      swap2\n      pop\n      pop\n      jump\t// out\n        /* \"#utility.yul\":5757:5893   */\n    tag_289:\n        /* \"#utility.yul\":5846:5852   */\n      0x00\n        /* \"#utility.yul\":5880:5885   */\n      dup2\n        /* \"#utility.yul\":5874:5886   */\n      mload\n        /* \"#utility.yul\":5864:5886   */\n      swap1\n      pop\n        /* \"#utility.yul\":5757:5893   */\n      swap2\n      swap1\n      pop\n      jump\t// out\n        /* \"#utility.yul\":5899:6105   */\n    tag_290:\n        /* \"#utility.yul\":6020:6031   */\n      0x00\n        /* \"#utility.yul\":6054:6060   */\n      dup3\n        /* \"#utility.yul\":6049:6052   */\n      dup3\n        /* \"#utility.yul\":6042:6061   */\n      mstore\n        /* \"#utility.yul\":6094:6098   */\n      0x20\n        /* \"#utility.yul\":6089:6092   */\n      dup3\n        /* \"#utility.yul\":6085:6099   */\n      add\n        /* \"#utility.yul\":6070:6099   */\n      swap1\n      pop\n        /* \"#utility.yul\":5899:6105   */\n      swap3\n      swap2\n      pop\n      pop\n      jump\t// out\n        /* \"#utility.yul\":6111:6265   */\n    tag_291:\n        /* \"#utility.yul\":6200:6204   */\n      0x00\n        /* \"#utility.yul\":6223:6226   */\n      dup2\n        /* \"#utility.yul\":6215:6226   */\n      swap1\n      pop\n        /* \"#utility.yul\":6253:6257   */\n      0x20\n        /* \"#utility.yul\":6248:6251   */\n      dup3\n        /* \"#utility.yul\":6244:6258   */\n      add\n        /* \"#utility.yul\":6236:6258   */\n      swap1\n      pop\n        /* \"#utility.yul\":6111:6265   */\n      swap2\n      swap1\n      pop\n      jump\t// out\n        /* \"#utility.yul\":6271:6379   */\n    tag_292:\n        /* \"#utility.yul\":6348:6372   */\n      tag_416\n        /* \"#utility.yul\":6366:6371   */\n      dup2\n        /* \"#utility.yul\":6348:6372   */\n      tag_281\n      jump\t// in\n    tag_416:\n        /* \"#utility.yul\":6343:6346   */\n      dup3\n        /* \"#utility.yul\":6336:6373   */\n      mstore\n        /* \"#utility.yul\":6271:6379   */\n      pop\n      pop\n      jump\t// out\n        /* \"#utility.yul\":6439:6759   */\n    tag_293:\n        /* \"#utility.yul\":6570:6574   */\n      0x20\n        /* \"#utility.yul\":6565:6568   */\n      dup3\n        /* \"#utility.yul\":6561:6575   */\n      add\n        /* \"#utility.yul\":6660:6664   */\n      0x00\n        /* \"#utility.yul\":6653:6658   */\n      dup3\n        /* \"#utility.yul\":6649:6665   */\n      add\n        /* \"#utility.yul\":6643:6666   */\n      mload\n        /* \"#utility.yul\":6679:6742   */\n      tag_418\n        /* \"#utility.yul\":6736:6740   */\n      0x00\n        /* \"#utility.yul\":6731:6734   */\n      dup6\n        /* \"#utility.yul\":6727:6741   */\n      add\n        /* \"#utility.yul\":6713:6725   */\n      dup3\n        /* \"#utility.yul\":6679:6742   */\n      tag_292\n      jump\t// in\n    tag_418:\n        /* \"#utility.yul\":6585:6752   */\n      pop\n        /* \"#utility.yul\":6539:6759   */\n      pop\n        /* \"#utility.yul\":6439:6759   */\n      pop\n      pop\n      jump\t// out\n        /* \"#utility.yul\":6765:7032   */\n    tag_294:\n        /* \"#utility.yul\":6878:6888   */\n      0x00\n        /* \"#utility.yul\":6899:6989   */\n      tag_420\n        /* \"#utility.yul\":6985:6988   */\n      dup4\n        /* \"#utility.yul\":6977:6983   */\n      dup4\n        /* \"#utility.yul\":6899:6989   */\n      tag_293\n      jump\t// in\n    tag_420:\n        /* \"#utility.yul\":7021:7025   */\n      0x20\n        /* \"#utility.yul\":7016:7019   */\n      dup4\n        /* \"#utility.yul\":7012:7026   */\n      add\n        /* \"#utility.yul\":6998:7026   */\n      swap1\n      pop\n        /* \"#utility.yul\":6765:7032   */\n      swap3\n      swap2\n      pop\n      pop\n      jump\t// out\n        /* \"#utility.yul\":7038:7173   */\n    tag_295:\n        /* \"#utility.yul\":7130:7134   */\n      0x00\n        /* \"#utility.yul\":7162:7166   */\n      0x20\n        /* \"#utility.yul\":7157:7160   */\n      dup3\n        /* \"#utility.yul\":7153:7167   */\n      add\n        /* \"#utility.yul\":7145:7167   */\n      swap1\n      pop\n        /* \"#utility.yul\":7038:7173   */\n      swap2\n      swap1\n      pop\n      jump\t// out\n        /* \"#utility.yul\":7237:8145   */\n    tag_296:\n        /* \"#utility.yul\":7400:7403   */\n      0x00\n        /* \"#utility.yul\":7429:7505   */\n      tag_423\n        /* \"#utility.yul\":7499:7504   */\n      dup3\n        /* \"#utility.yul\":7429:7505   */\n      tag_289\n      jump\t// in\n    tag_423:\n        /* \"#utility.yul\":7521:7629   */\n      tag_424\n        /* \"#utility.yul\":7622:7628   */\n      dup2\n        /* \"#utility.yul\":7617:7620   */\n      dup6\n        /* \"#utility.yul\":7521:7629   */\n      tag_290\n      jump\t// in\n    tag_424:\n        /* \"#utility.yul\":7514:7629   */\n      swap4\n      pop\n        /* \"#utility.yul\":7653:7731   */\n      tag_425\n        /* \"#utility.yul\":7725:7730   */\n      dup4\n        /* \"#utility.yul\":7653:7731   */\n      tag_291\n      jump\t// in\n    tag_425:\n        /* \"#utility.yul\":7754:7761   */\n      dup1\n        /* \"#utility.yul\":7785:7786   */\n      0x00\n        /* \"#utility.yul\":7770:8120   */\n    tag_426:\n        /* \"#utility.yul\":7795:7801   */\n      dup4\n        /* \"#utility.yul\":7792:7793   */\n      dup2\n        /* \"#utility.yul\":7789:7802   */\n      lt\n        /* \"#utility.yul\":7770:8120   */\n      iszero\n      tag_428\n      jumpi\n        /* \"#utility.yul\":7871:7877   */\n      dup2\n        /* \"#utility.yul\":7865:7878   */\n      mload\n        /* \"#utility.yul\":7898:8005   */\n      tag_429\n        /* \"#utility.yul\":8001:8004   */\n      dup9\n        /* \"#utility.yul\":7986:7999   */\n      dup3\n        /* \"#utility.yul\":7898:8005   */\n      tag_294\n      jump\t// in\n    tag_429:\n        /* \"#utility.yul\":7891:8005   */\n      swap8\n      pop\n        /* \"#utility.yul\":8028:8110   */\n      tag_430\n        /* \"#utility.yul\":8103:8109   */\n      dup4\n        /* \"#utility.yul\":8028:8110   */\n      tag_295\n      jump\t// in\n    tag_430:\n        /* \"#utility.yul\":8018:8110   */\n      swap3\n      pop\n        /* \"#utility.yul\":7830:8120   */\n      pop\n        /* \"#utility.yul\":7817:7818   */\n      0x01\n        /* \"#utility.yul\":7814:7815   */\n      dup2\n        /* \"#utility.yul\":7810:7819   */\n      add\n        /* \"#utility.yul\":7805:7819   */\n      swap1\n      pop\n        /* \"#utility.yul\":7770:8120   */\n      jump(tag_426)\n    tag_428:\n        /* \"#utility.yul\":7774:7788   */\n      pop\n        /* \"#utility.yul\":8136:8139   */\n      dup6\n        /* \"#utility.yul\":8129:8139   */\n      swap4\n      pop\n        /* \"#utility.yul\":7405:8145   */\n      pop\n      pop\n      pop\n        /* \"#utility.yul\":7237:8145   */\n      swap3\n      swap2\n      pop\n      pop\n      jump\t// out\n        /* \"#utility.yul\":8151:8612   */\n    tag_68:\n        /* \"#utility.yul\":8338:8342   */\n      0x00\n        /* \"#utility.yul\":8376:8378   */\n      0x20\n        /* \"#utility.yul\":8365:8374   */\n      dup3\n        /* \"#utility.yul\":8361:8379   */\n      add\n        /* \"#utility.yul\":8353:8379   */\n      swap1\n      pop\n        /* \"#utility.yul\":8425:8434   */\n      dup2\n        /* \"#utility.yul\":8419:8423   */\n      dup2\n        /* \"#utility.yul\":8415:8435   */\n      sub\n        /* \"#utility.yul\":8411:8412   */\n      0x00\n        /* \"#utility.yul\":8400:8409   */\n      dup4\n        /* \"#utility.yul\":8396:8413   */\n      add\n        /* \"#utility.yul\":8389:8436   */\n      mstore\n        /* \"#utility.yul\":8453:8605   */\n      tag_432\n        /* \"#utility.yul\":8600:8604   */\n      dup2\n        /* \"#utility.yul\":8591:8597   */\n      dup5\n        /* \"#utility.yul\":8453:8605   */\n      tag_296\n      jump\t// in\n    tag_432:\n        /* \"#utility.yul\":8445:8605   */\n      swap1\n      pop\n        /* \"#utility.yul\":8151:8612   */\n      swap3\n      swap2\n      pop\n      pop\n      jump\t// out\n        /* \"#utility.yul\":8618:8704   */\n    tag_297:\n        /* \"#utility.yul\":8653:8660   */\n      0x00\n        /* \"#utility.yul\":8693:8697   */\n      0xff\n        /* \"#utility.yul\":8686:8691   */\n      dup3\n        /* \"#utility.yul\":8682:8698   */\n      and\n        /* \"#utility.yul\":8671:8698   */\n      swap1\n      pop\n        /* \"#utility.yul\":8618:8704   */\n      swap2\n      swap1\n      pop\n      jump\t// out\n        /* \"#utility.yul\":8710:8822   */\n    tag_298:\n        /* \"#utility.yul\":8793:8815   */\n      tag_435\n        /* \"#utility.yul\":8809:8814   */\n      dup2\n        /* \"#utility.yul\":8793:8815   */\n      tag_297\n      jump\t// in\n    tag_435:\n        /* \"#utility.yul\":8788:8791   */\n      dup3\n        /* \"#utility.yul\":8781:8816   */\n      mstore\n        /* \"#utility.yul\":8710:8822   */\n      pop\n      pop\n      jump\t// out\n        /* \"#utility.yul\":8828:9042   */\n    tag_73:\n        /* \"#utility.yul\":8917:8921   */\n      0x00\n        /* \"#utility.yul\":8955:8957   */\n      0x20\n        /* \"#utility.yul\":8944:8953   */\n      dup3\n        /* \"#utility.yul\":8940:8958   */\n      add\n        /* \"#utility.yul\":8932:8958   */\n      swap1\n      pop\n        /* \"#utility.yul\":8968:9035   */\n      tag_437\n        /* \"#utility.yul\":9032:9033   */\n      0x00\n        /* \"#utility.yul\":9021:9030   */\n      dup4\n        /* \"#utility.yul\":9017:9034   */\n      add\n        /* \"#utility.yul\":9008:9014   */\n      dup5\n        /* \"#utility.yul\":8968:9035   */\n      tag_298\n      jump\t// in\n    tag_437:\n        /* \"#utility.yul\":8828:9042   */\n      swap3\n      swap2\n      pop\n      pop\n      jump\t// out\n        /* \"#utility.yul\":9048:9377   */\n    tag_77:\n        /* \"#utility.yul\":9107:9113   */\n      0x00\n        /* \"#utility.yul\":9156:9158   */\n      0x20\n        /* \"#utility.yul\":9144:9153   */\n      dup3\n        /* \"#utility.yul\":9135:9142   */\n      dup5\n        /* \"#utility.yul\":9131:9154   */\n      sub\n        /* \"#utility.yul\":9127:9159   */\n      slt\n        /* \"#utility.yul\":9124:9243   */\n      iszero\n      tag_439\n      jumpi\n        /* \"#utility.yul\":9162:9241   */\n      tag_440\n      tag_278\n      jump\t// in\n    tag_440:\n        /* \"#utility.yul\":9124:9243   */\n    tag_439:\n        /* \"#utility.yul\":9282:9283   */\n      0x00\n        /* \"#utility.yul\":9307:9360   */\n      tag_441\n        /* \"#utility.yul\":9352:9359   */\n      dup5\n        /* \"#utility.yul\":9343:9349   */\n      dup3\n        /* \"#utility.yul\":9332:9341   */\n      dup6\n        /* \"#utility.yul\":9328:9350   */\n      add\n        /* \"#utility.yul\":9307:9360   */\n      tag_285\n      jump\t// in\n    tag_441:\n        /* \"#utility.yul\":9297:9360   */\n      swap2\n      pop\n        /* \"#utility.yul\":9253:9370   */\n      pop\n        /* \"#utility.yul\":9048:9377   */\n      swap3\n      swap2\n      pop\n      pop\n      jump\t// out\n        /* \"#utility.yul\":9383:9501   */\n    tag_299:\n        /* \"#utility.yul\":9470:9494   */\n      tag_443\n        /* \"#utility.yul\":9488:9493   */\n      dup2\n        /* \"#utility.yul\":9470:9494   */\n      tag_281\n      jump\t// in\n    tag_443:\n        /* \"#utility.yul\":9465:9468   */\n      dup3\n        /* \"#utility.yul\":9458:9495   */\n      mstore\n        /* \"#utility.yul\":9383:9501   */\n      pop\n      pop\n      jump\t// out\n        /* \"#utility.yul\":9507:9729   */\n    tag_80:\n        /* \"#utility.yul\":9600:9604   */\n      0x00\n        /* \"#utility.yul\":9638:9640   */\n      0x20\n        /* \"#utility.yul\":9627:9636   */\n      dup3\n        /* \"#utility.yul\":9623:9641   */\n      add\n        /* \"#utility.yul\":9615:9641   */\n      swap1\n      pop\n        /* \"#utility.yul\":9651:9722   */\n      tag_445\n        /* \"#utility.yul\":9719:9720   */\n      0x00\n        /* \"#utility.yul\":9708:9717   */\n      dup4\n        /* \"#utility.yul\":9704:9721   */\n      add\n        /* \"#utility.yul\":9695:9701   */\n      dup5\n        /* \"#utility.yul\":9651:9722   */\n      tag_299\n      jump\t// in\n    tag_445:\n        /* \"#utility.yul\":9507:9729   */\n      swap3\n      swap2\n      pop\n      pop\n      jump\t// out\n        /* \"#utility.yul\":9735:9872   */\n    tag_300:\n        /* \"#utility.yul\":9825:9831   */\n      0x00\n        /* \"#utility.yul\":9859:9864   */\n      dup2\n        /* \"#utility.yul\":9853:9865   */\n      mload\n        /* \"#utility.yul\":9843:9865   */\n      swap1\n      pop\n        /* \"#utility.yul\":9735:9872   */\n      swap2\n      swap1\n      pop\n      jump\t// out\n        /* \"#utility.yul\":9878:10085   */\n    tag_301:\n        /* \"#utility.yul\":10000:10011   */\n      0x00\n        /* \"#utility.yul\":10034:10040   */\n      dup3\n        /* \"#utility.yul\":10029:10032   */\n      dup3\n        /* \"#utility.yul\":10022:10041   */\n      mstore\n        /* \"#utility.yul\":10074:10078   */\n      0x20\n        /* \"#utility.yul\":10069:10072   */\n      dup3\n        /* \"#utility.yul\":10065:10079   */\n      add\n        /* \"#utility.yul\":10050:10079   */\n      swap1\n      pop\n        /* \"#utility.yul\":9878:10085   */\n      swap3\n      swap2\n      pop\n      pop\n      jump\t// out\n        /* \"#utility.yul\":10091:10246   */\n    tag_302:\n        /* \"#utility.yul\":10181:10185   */\n      0x00\n        /* \"#utility.yul\":10204:10207   */\n      dup2\n        /* \"#utility.yul\":10196:10207   */\n      swap1\n      pop\n        /* \"#utility.yul\":10234:10238   */\n      0x20\n        /* \"#utility.yul\":10229:10232   */\n      dup3\n        /* \"#utility.yul\":10225:10239   */\n      add\n        /* \"#utility.yul\":10217:10239   */\n      swap1\n      pop\n        /* \"#utility.yul\":10091:10246   */\n      swap2\n      swap1\n      pop\n      jump\t// out\n        /* \"#utility.yul\":10252:10411   */\n    tag_303:\n        /* \"#utility.yul\":10326:10337   */\n      0x00\n        /* \"#utility.yul\":10360:10366   */\n      dup3\n        /* \"#utility.yul\":10355:10358   */\n      dup3\n        /* \"#utility.yul\":10348:10367   */\n      mstore\n        /* \"#utility.yul\":10400:10404   */\n      0x20\n        /* \"#utility.yul\":10395:10398   */\n      dup3\n        /* \"#utility.yul\":10391:10405   */\n      add\n        /* \"#utility.yul\":10376:10405   */\n      swap1\n      pop\n        /* \"#utility.yul\":10252:10411   */\n      swap3\n      swap2\n      pop\n      pop\n      jump\t// out\n        /* \"#utility.yul\":10417:10774   */\n    tag_304:\n        /* \"#utility.yul\":10495:10498   */\n      0x00\n        /* \"#utility.yul\":10523:10562   */\n      tag_451\n        /* \"#utility.yul\":10556:10561   */\n      dup3\n        /* \"#utility.yul\":10523:10562   */\n      tag_272\n      jump\t// in\n    tag_451:\n        /* \"#utility.yul\":10578:10639   */\n      tag_452\n        /* \"#utility.yul\":10632:10638   */\n      dup2\n        /* \"#utility.yul\":10627:10630   */\n      dup6\n        /* \"#utility.yul\":10578:10639   */\n      tag_303\n      jump\t// in\n    tag_452:\n        /* \"#utility.yul\":10571:10639   */\n      swap4\n      pop\n        /* \"#utility.yul\":10648:10713   */\n      tag_453\n        /* \"#utility.yul\":10706:10712   */\n      dup2\n        /* \"#utility.yul\":10701:10704   */\n      dup6\n        /* \"#utility.yul\":10694:10698   */\n      0x20\n        /* \"#utility.yul\":10687:10692   */\n      dup7\n        /* \"#utility.yul\":10683:10699   */\n      add\n        /* \"#utility.yul\":10648:10713   */\n      tag_274\n      jump\t// in\n    tag_453:\n        /* \"#utility.yul\":10738:10767   */\n      tag_454\n        /* \"#utility.yul\":10760:10766   */\n      dup2\n        /* \"#utility.yul\":10738:10767   */\n      tag_275\n      jump\t// in\n    tag_454:\n        /* \"#utility.yul\":10733:10736   */\n      dup5\n        /* \"#utility.yul\":10729:10768   */\n      add\n        /* \"#utility.yul\":10722:10768   */\n      swap2\n      pop\n        /* \"#utility.yul\":10499:10774   */\n      pop\n        /* \"#utility.yul\":10417:10774   */\n      swap3\n      swap2\n      pop\n      pop\n      jump\t// out\n        /* \"#utility.yul\":10836:11498   */\n    tag_305:\n        /* \"#utility.yul\":10941:10944   */\n      0x00\n        /* \"#utility.yul\":10977:10981   */\n      0x40\n        /* \"#utility.yul\":10972:10975   */\n      dup4\n        /* \"#utility.yul\":10968:10982   */\n      add\n        /* \"#utility.yul\":11063:11067   */\n      0x00\n        /* \"#utility.yul\":11056:11061   */\n      dup4\n        /* \"#utility.yul\":11052:11068   */\n      add\n        /* \"#utility.yul\":11046:11069   */\n      mload\n        /* \"#utility.yul\":11116:11119   */\n      dup5\n        /* \"#utility.yul\":11110:11114   */\n      dup3\n        /* \"#utility.yul\":11106:11120   */\n      sub\n        /* \"#utility.yul\":11099:11103   */\n      0x00\n        /* \"#utility.yul\":11094:11097   */\n      dup7\n        /* \"#utility.yul\":11090:11104   */\n      add\n        /* \"#utility.yul\":11083:11121   */\n      mstore\n        /* \"#utility.yul\":11142:11215   */\n      tag_456\n        /* \"#utility.yul\":11210:11214   */\n      dup3\n        /* \"#utility.yul\":11196:11208   */\n      dup3\n        /* \"#utility.yul\":11142:11215   */\n      tag_304\n      jump\t// in\n    tag_456:\n        /* \"#utility.yul\":11134:11215   */\n      swap2\n      pop\n        /* \"#utility.yul\":10992:11226   */\n      pop\n        /* \"#utility.yul\":11308:11312   */\n      0x20\n        /* \"#utility.yul\":11301:11306   */\n      dup4\n        /* \"#utility.yul\":11297:11313   */\n      add\n        /* \"#utility.yul\":11291:11314   */\n      mload\n        /* \"#utility.yul\":11361:11364   */\n      dup5\n        /* \"#utility.yul\":11355:11359   */\n      dup3\n        /* \"#utility.yul\":11351:11365   */\n      sub\n        /* \"#utility.yul\":11344:11348   */\n      0x20\n        /* \"#utility.yul\":11339:11342   */\n      dup7\n        /* \"#utility.yul\":11335:11349   */\n      add\n        /* \"#utility.yul\":11328:11366   */\n      mstore\n        /* \"#utility.yul\":11387:11460   */\n      tag_457\n        /* \"#utility.yul\":11455:11459   */\n      dup3\n        /* \"#utility.yul\":11441:11453   */\n      dup3\n        /* \"#utility.yul\":11387:11460   */\n      tag_304\n      jump\t// in\n    tag_457:\n        /* \"#utility.yul\":11379:11460   */\n      swap2\n      pop\n        /* \"#utility.yul\":11236:11471   */\n      pop\n        /* \"#utility.yul\":11488:11492   */\n      dup1\n        /* \"#utility.yul\":11481:11492   */\n      swap2\n      pop\n        /* \"#utility.yul\":10946:11498   */\n      pop\n        /* \"#utility.yul\":10836:11498   */\n      swap3\n      swap2\n      pop\n      pop\n      jump\t// out\n        /* \"#utility.yul\":11504:11752   */\n    tag_306:\n        /* \"#utility.yul\":11619:11629   */\n      0x00\n        /* \"#utility.yul\":11654:11746   */\n      tag_459\n        /* \"#utility.yul\":11742:11745   */\n      dup4\n        /* \"#utility.yul\":11734:11740   */\n      dup4\n        /* \"#utility.yul\":11654:11746   */\n      tag_305\n      jump\t// in\n    tag_459:\n        /* \"#utility.yul\":11640:11746   */\n      swap1\n      pop\n        /* \"#utility.yul\":11504:11752   */\n      swap3\n      swap2\n      pop\n      pop\n      jump\t// out\n        /* \"#utility.yul\":11758:11894   */\n    tag_307:\n        /* \"#utility.yul\":11851:11855   */\n      0x00\n        /* \"#utility.yul\":11883:11887   */\n      0x20\n        /* \"#utility.yul\":11878:11881   */\n      dup3\n        /* \"#utility.yul\":11874:11888   */\n      add\n        /* \"#utility.yul\":11866:11888   */\n      swap1\n      pop\n        /* \"#utility.yul\":11758:11894   */\n      swap2\n      swap1\n      pop\n      jump\t// out\n        /* \"#utility.yul\":11960:13055   */\n    tag_308:\n        /* \"#utility.yul\":12125:12128   */\n      0x00\n        /* \"#utility.yul\":12154:12231   */\n      tag_462\n        /* \"#utility.yul\":12225:12230   */\n      dup3\n        /* \"#utility.yul\":12154:12231   */\n      tag_300\n      jump\t// in\n    tag_462:\n        /* \"#utility.yul\":12247:12356   */\n      tag_463\n        /* \"#utility.yul\":12349:12355   */\n      dup2\n        /* \"#utility.yul\":12344:12347   */\n      dup6\n        /* \"#utility.yul\":12247:12356   */\n      tag_301\n      jump\t// in\n    tag_463:\n        /* \"#utility.yul\":12240:12356   */\n      swap4\n      pop\n        /* \"#utility.yul\":12382:12385   */\n      dup4\n        /* \"#utility.yul\":12427:12431   */\n      0x20\n        /* \"#utility.yul\":12419:12425   */\n      dup3\n        /* \"#utility.yul\":12415:12432   */\n      mul\n        /* \"#utility.yul\":12410:12413   */\n      dup6\n        /* \"#utility.yul\":12406:12433   */\n      add\n        /* \"#utility.yul\":12457:12536   */\n      tag_464\n        /* \"#utility.yul\":12530:12535   */\n      dup6\n        /* \"#utility.yul\":12457:12536   */\n      tag_302\n      jump\t// in\n    tag_464:\n        /* \"#utility.yul\":12559:12566   */\n      dup1\n        /* \"#utility.yul\":12590:12591   */\n      0x00\n        /* \"#utility.yul\":12575:13010   */\n    tag_465:\n        /* \"#utility.yul\":12600:12606   */\n      dup6\n        /* \"#utility.yul\":12597:12598   */\n      dup2\n        /* \"#utility.yul\":12594:12607   */\n      lt\n        /* \"#utility.yul\":12575:13010   */\n      iszero\n      tag_467\n      jumpi\n        /* \"#utility.yul\":12671:12680   */\n      dup5\n        /* \"#utility.yul\":12665:12669   */\n      dup5\n        /* \"#utility.yul\":12661:12681   */\n      sub\n        /* \"#utility.yul\":12656:12659   */\n      dup10\n        /* \"#utility.yul\":12649:12682   */\n      mstore\n        /* \"#utility.yul\":12722:12728   */\n      dup2\n        /* \"#utility.yul\":12716:12729   */\n      mload\n        /* \"#utility.yul\":12750:12860   */\n      tag_468\n        /* \"#utility.yul\":12855:12859   */\n      dup6\n        /* \"#utility.yul\":12840:12853   */\n      dup3\n        /* \"#utility.yul\":12750:12860   */\n      tag_306\n      jump\t// in\n    tag_468:\n        /* \"#utility.yul\":12742:12860   */\n      swap5\n      pop\n        /* \"#utility.yul\":12883:12966   */\n      tag_469\n        /* \"#utility.yul\":12959:12965   */\n      dup4\n        /* \"#utility.yul\":12883:12966   */\n      tag_307\n      jump\t// in\n    tag_469:\n        /* \"#utility.yul\":12873:12966   */\n      swap3\n      pop\n        /* \"#utility.yul\":12995:12999   */\n      0x20\n        /* \"#utility.yul\":12990:12993   */\n      dup11\n        /* \"#utility.yul\":12986:13000   */\n      add\n        /* \"#utility.yul\":12979:13000   */\n      swap10\n      pop\n        /* \"#utility.yul\":12635:13010   */\n      pop\n        /* \"#utility.yul\":12622:12623   */\n      0x01\n        /* \"#utility.yul\":12619:12620   */\n      dup2\n        /* \"#utility.yul\":12615:12624   */\n      add\n        /* \"#utility.yul\":12610:12624   */\n      swap1\n      pop\n        /* \"#utility.yul\":12575:13010   */\n      jump(tag_465)\n    tag_467:\n        /* \"#utility.yul\":12579:12593   */\n      pop\n        /* \"#utility.yul\":13026:13030   */\n      dup3\n        /* \"#utility.yul\":13019:13030   */\n      swap8\n      pop\n        /* \"#utility.yul\":13046:13049   */\n      dup8\n        /* \"#utility.yul\":13039:13049   */\n      swap6\n      pop\n        /* \"#utility.yul\":12130:13055   */\n      pop\n      pop\n      pop\n      pop\n      pop\n        /* \"#utility.yul\":11960:13055   */\n      swap3\n      swap2\n      pop\n      pop\n      jump\t// out\n        /* \"#utility.yul\":13061:13526   */\n    tag_94:\n        /* \"#utility.yul\":13250:13254   */\n      0x00\n        /* \"#utility.yul\":13288:13290   */\n      0x20\n        /* \"#utility.yul\":13277:13286   */\n      dup3\n        /* \"#utility.yul\":13273:13291   */\n      add\n        /* \"#utility.yul\":13265:13291   */\n      swap1\n      pop\n        /* \"#utility.yul\":13337:13346   */\n      dup2\n        /* \"#utility.yul\":13331:13335   */\n      dup2\n        /* \"#utility.yul\":13327:13347   */\n      sub\n        /* \"#utility.yul\":13323:13324   */\n      0x00\n        /* \"#utility.yul\":13312:13321   */\n      dup4\n        /* \"#utility.yul\":13308:13325   */\n      add\n        /* \"#utility.yul\":13301:13348   */\n      mstore\n        /* \"#utility.yul\":13365:13519   */\n      tag_471\n        /* \"#utility.yul\":13514:13518   */\n      dup2\n        /* \"#utility.yul\":13505:13511   */\n      dup5\n        /* \"#utility.yul\":13365:13519   */\n      tag_308\n      jump\t// in\n    tag_471:\n        /* \"#utility.yul\":13357:13519   */\n      swap1\n      pop\n        /* \"#utility.yul\":13061:13526   */\n      swap3\n      swap2\n      pop\n      pop\n      jump\t// out\n        /* \"#utility.yul\":13532:14006   */\n    tag_107:\n        /* \"#utility.yul\":13600:13606   */\n      0x00\n        /* \"#utility.yul\":13608:13614   */\n      dup1\n        /* \"#utility.yul\":13657:13659   */\n      0x40\n        /* \"#utility.yul\":13645:13654   */\n      dup4\n        /* \"#utility.yul\":13636:13643   */\n      dup6\n        /* \"#utility.yul\":13632:13655   */\n      sub\n        /* \"#utility.yul\":13628:13660   */\n      slt\n        /* \"#utility.yul\":13625:13744   */\n      iszero\n      tag_473\n      jumpi\n        /* \"#utility.yul\":13663:13742   */\n      tag_474\n      tag_278\n      jump\t// in\n    tag_474:\n        /* \"#utility.yul\":13625:13744   */\n    tag_473:\n        /* \"#utility.yul\":13783:13784   */\n      0x00\n        /* \"#utility.yul\":13808:13861   */\n      tag_475\n        /* \"#utility.yul\":13853:13860   */\n      dup6\n        /* \"#utility.yul\":13844:13850   */\n      dup3\n        /* \"#utility.yul\":13833:13842   */\n      dup7\n        /* \"#utility.yul\":13829:13851   */\n      add\n        /* \"#utility.yul\":13808:13861   */\n      tag_283\n      jump\t// in\n    tag_475:\n        /* \"#utility.yul\":13798:13861   */\n      swap3\n      pop\n        /* \"#utility.yul\":13754:13871   */\n      pop\n        /* \"#utility.yul\":13910:13912   */\n      0x20\n        /* \"#utility.yul\":13936:13989   */\n      tag_476\n        /* \"#utility.yul\":13981:13988   */\n      dup6\n        /* \"#utility.yul\":13972:13978   */\n      dup3\n        /* \"#utility.yul\":13961:13970   */\n      dup7\n        /* \"#utility.yul\":13957:13979   */\n      add\n        /* \"#utility.yul\":13936:13989   */\n      tag_283\n      jump\t// in\n    tag_476:\n        /* \"#utility.yul\":13926:13989   */\n      swap2\n      pop\n        /* \"#utility.yul\":13881:13999   */\n      pop\n        /* \"#utility.yul\":13532:14006   */\n      swap3\n      pop\n      swap3\n      swap1\n      pop\n      jump\t// out\n        /* \"#utility.yul\":14012:14526   */\n    tag_119:\n        /* \"#utility.yul\":14173:14177   */\n      0x00\n        /* \"#utility.yul\":14211:14213   */\n      0x40\n        /* \"#utility.yul\":14200:14209   */\n      dup3\n        /* \"#utility.yul\":14196:14214   */\n      add\n        /* \"#utility.yul\":14188:14214   */\n      swap1\n      pop\n        /* \"#utility.yul\":14260:14269   */\n      dup2\n        /* \"#utility.yul\":14254:14258   */\n      dup2\n        /* \"#utility.yul\":14250:14270   */\n      sub\n        /* \"#utility.yul\":14246:14247   */\n      0x00\n        /* \"#utility.yul\":14235:14244   */\n      dup4\n        /* \"#utility.yul\":14231:14248   */\n      add\n        /* \"#utility.yul\":14224:14271   */\n      mstore\n        /* \"#utility.yul\":14288:14366   */\n      tag_478\n        /* \"#utility.yul\":14361:14365   */\n      dup2\n        /* \"#utility.yul\":14352:14358   */\n      dup6\n        /* \"#utility.yul\":14288:14366   */\n      tag_276\n      jump\t// in\n    tag_478:\n        /* \"#utility.yul\":14280:14366   */\n      swap1\n      pop\n        /* \"#utility.yul\":14413:14422   */\n      dup2\n        /* \"#utility.yul\":14407:14411   */\n      dup2\n        /* \"#utility.yul\":14403:14423   */\n      sub\n        /* \"#utility.yul\":14398:14400   */\n      0x20\n        /* \"#utility.yul\":14387:14396   */\n      dup4\n        /* \"#utility.yul\":14383:14401   */\n      add\n        /* \"#utility.yul\":14376:14424   */\n      mstore\n        /* \"#utility.yul\":14441:14519   */\n      tag_479\n        /* \"#utility.yul\":14514:14518   */\n      dup2\n        /* \"#utility.yul\":14505:14511   */\n      dup5\n        /* \"#utility.yul\":14441:14519   */\n      tag_276\n      jump\t// in\n    tag_479:\n        /* \"#utility.yul\":14433:14519   */\n      swap1\n      pop\n        /* \"#utility.yul\":14012:14526   */\n      swap4\n      swap3\n      pop\n      pop\n      pop\n      jump\t// out\n        /* \"#utility.yul\":14532:14712   */\n    tag_309:\n        /* \"#utility.yul\":14580:14657   */\n      0x4e487b7100000000000000000000000000000000000000000000000000000000\n        /* \"#utility.yul\":14577:14578   */\n      0x00\n        /* \"#utility.yul\":14570:14658   */\n      mstore\n        /* \"#utility.yul\":14677:14681   */\n      0x22\n        /* \"#utility.yul\":14674:14675   */\n      0x04\n        /* \"#utility.yul\":14667:14682   */\n      mstore\n        /* \"#utility.yul\":14701:14705   */\n      0x24\n        /* \"#utility.yul\":14698:14699   */\n      0x00\n        /* \"#utility.yul\":14691:14706   */\n      revert\n        /* \"#utility.yul\":14718:15038   */\n    tag_127:\n        /* \"#utility.yul\":14762:14768   */\n      0x00\n        /* \"#utility.yul\":14799:14800   */\n      0x02\n        /* \"#utility.yul\":14793:14797   */\n      dup3\n        /* \"#utility.yul\":14789:14801   */\n      div\n        /* \"#utility.yul\":14779:14801   */\n      swap1\n      pop\n        /* \"#utility.yul\":14846:14847   */\n      0x01\n        /* \"#utility.yul\":14840:14844   */\n      dup3\n        /* \"#utility.yul\":14836:14848   */\n      and\n        /* \"#utility.yul\":14867:14885   */\n      dup1\n        /* \"#utility.yul\":14857:14938   */\n      tag_482\n      jumpi\n        /* \"#utility.yul\":14923:14927   */\n      0x7f\n        /* \"#utility.yul\":14915:14921   */\n      dup3\n        /* \"#utility.yul\":14911:14928   */\n      and\n        /* \"#utility.yul\":14901:14928   */\n      swap2\n      pop\n        /* \"#utility.yul\":14857:14938   */\n    tag_482:\n        /* \"#utility.yul\":14985:14987   */\n      0x20\n        /* \"#utility.yul\":14977:14983   */\n      dup3\n        /* \"#utility.yul\":14974:14988   */\n      lt\n        /* \"#utility.yul\":14954:14972   */\n      dup2\n        /* \"#utility.yul\":14951:14989   */\n      sub\n        /* \"#utility.yul\":14948:15032   */\n      tag_483\n      jumpi\n        /* \"#utility.yul\":15004:15022   */\n      tag_484\n      tag_309\n      jump\t// in\n    tag_484:\n        /* \"#utility.yul\":14948:15032   */\n    tag_483:\n        /* \"#utility.yul\":14769:15038   */\n      pop\n        /* \"#utility.yul\":14718:15038   */\n      swap2\n      swap1\n      pop\n      jump\t// out\n        /* \"#utility.yul\":15044:15212   */\n    tag_310:\n        /* \"#utility.yul\":15184:15204   */\n      0x6e6f20706f6b656e6d6f6e7320686572652e0000000000000000000000000000\n        /* \"#utility.yul\":15180:15181   */\n      0x00\n        /* \"#utility.yul\":15172:15178   */\n      dup3\n        /* \"#utility.yul\":15168:15182   */\n      add\n        /* \"#utility.yul\":15161:15205   */\n      mstore\n        /* \"#utility.yul\":15044:15212   */\n      pop\n      jump\t// out\n        /* \"#utility.yul\":15218:15584   */\n    tag_311:\n        /* \"#utility.yul\":15360:15363   */\n      0x00\n        /* \"#utility.yul\":15381:15448   */\n      tag_487\n        /* \"#utility.yul\":15445:15447   */\n      0x12\n        /* \"#utility.yul\":15440:15443   */\n      dup4\n        /* \"#utility.yul\":15381:15448   */\n      tag_273\n      jump\t// in\n    tag_487:\n        /* \"#utility.yul\":15374:15448   */\n      swap2\n      pop\n        /* \"#utility.yul\":15457:15550   */\n      tag_488\n        /* \"#utility.yul\":15546:15549   */\n      dup3\n        /* \"#utility.yul\":15457:15550   */\n      tag_310\n      jump\t// in\n    tag_488:\n        /* \"#utility.yul\":15575:15577   */\n      0x20\n        /* \"#utility.yul\":15570:15573   */\n      dup3\n        /* \"#utility.yul\":15566:15578   */\n      add\n        /* \"#utility.yul\":15559:15578   */\n      swap1\n      pop\n        /* \"#utility.yul\":15218:15584   */\n      swap2\n      swap1\n      pop\n      jump\t// out\n        /* \"#utility.yul\":15590:16009   */\n    tag_172:\n        /* \"#utility.yul\":15756:15760   */\n      0x00\n        /* \"#utility.yul\":15794:15796   */\n      0x20\n        /* \"#utility.yul\":15783:15792   */\n      dup3\n        /* \"#utility.yul\":15779:15797   */\n      add\n        /* \"#utility.yul\":15771:15797   */\n      swap1\n      pop\n        /* \"#utility.yul\":15843:15852   */\n      dup2\n        /* \"#utility.yul\":15837:15841   */\n      dup2\n        /* \"#utility.yul\":15833:15853   */\n      sub\n        /* \"#utility.yul\":15829:15830   */\n      0x00\n        /* \"#utility.yul\":15818:15827   */\n      dup4\n        /* \"#utility.yul\":15814:15831   */\n      add\n        /* \"#utility.yul\":15807:15854   */\n      mstore\n        /* \"#utility.yul\":15871:16002   */\n      tag_490\n        /* \"#utility.yul\":15997:16001   */\n      dup2\n        /* \"#utility.yul\":15871:16002   */\n      tag_311\n      jump\t// in\n    tag_490:\n        /* \"#utility.yul\":15863:16002   */\n      swap1\n      pop\n        /* \"#utility.yul\":15590:16009   */\n      swap2\n      swap1\n      pop\n      jump\t// out\n        /* \"#utility.yul\":16015:16094   */\n    tag_312:\n        /* \"#utility.yul\":16054:16061   */\n      0x00\n        /* \"#utility.yul\":16083:16088   */\n      dup2\n        /* \"#utility.yul\":16072:16088   */\n      swap1\n      pop\n        /* \"#utility.yul\":16015:16094   */\n      swap2\n      swap1\n      pop\n      jump\t// out\n        /* \"#utility.yul\":16100:16257   */\n    tag_313:\n        /* \"#utility.yul\":16205:16250   */\n      tag_493\n        /* \"#utility.yul\":16225:16249   */\n      tag_494\n        /* \"#utility.yul\":16243:16248   */\n      dup3\n        /* \"#utility.yul\":16225:16249   */\n      tag_270\n      jump\t// in\n    tag_494:\n        /* \"#utility.yul\":16205:16250   */\n      tag_312\n      jump\t// in\n    tag_493:\n        /* \"#utility.yul\":16200:16203   */\n      dup3\n        /* \"#utility.yul\":16193:16251   */\n      mstore\n        /* \"#utility.yul\":16100:16257   */\n      pop\n      pop\n      jump\t// out\n        /* \"#utility.yul\":16263:16357   */\n    tag_314:\n        /* \"#utility.yul\":16296:16304   */\n      0x00\n        /* \"#utility.yul\":16344:16349   */\n      dup2\n        /* \"#utility.yul\":16340:16342   */\n      0x60\n        /* \"#utility.yul\":16336:16350   */\n      shl\n        /* \"#utility.yul\":16315:16350   */\n      swap1\n      pop\n        /* \"#utility.yul\":16263:16357   */\n      swap2\n      swap1\n      pop\n      jump\t// out\n        /* \"#utility.yul\":16363:16457   */\n    tag_315:\n        /* \"#utility.yul\":16402:16409   */\n      0x00\n        /* \"#utility.yul\":16431:16451   */\n      tag_497\n        /* \"#utility.yul\":16445:16450   */\n      dup3\n        /* \"#utility.yul\":16431:16451   */\n      tag_314\n      jump\t// in\n    tag_497:\n        /* \"#utility.yul\":16420:16451   */\n      swap1\n      pop\n        /* \"#utility.yul\":16363:16457   */\n      swap2\n      swap1\n      pop\n      jump\t// out\n        /* \"#utility.yul\":16463:16563   */\n    tag_316:\n        /* \"#utility.yul\":16502:16509   */\n      0x00\n        /* \"#utility.yul\":16531:16557   */\n      tag_499\n        /* \"#utility.yul\":16551:16556   */\n      dup3\n        /* \"#utility.yul\":16531:16557   */\n      tag_315\n      jump\t// in\n    tag_499:\n        /* \"#utility.yul\":16520:16557   */\n      swap1\n      pop\n        /* \"#utility.yul\":16463:16563   */\n      swap2\n      swap1\n      pop\n      jump\t// out\n        /* \"#utility.yul\":16569:16726   */\n    tag_317:\n        /* \"#utility.yul\":16674:16719   */\n      tag_501\n        /* \"#utility.yul\":16694:16718   */\n      tag_502\n        /* \"#utility.yul\":16712:16717   */\n      dup3\n        /* \"#utility.yul\":16694:16718   */\n      tag_281\n      jump\t// in\n    tag_502:\n        /* \"#utility.yul\":16674:16719   */\n      tag_316\n      jump\t// in\n    tag_501:\n        /* \"#utility.yul\":16669:16672   */\n      dup3\n        /* \"#utility.yul\":16662:16720   */\n      mstore\n        /* \"#utility.yul\":16569:16726   */\n      pop\n      pop\n      jump\t// out\n        /* \"#utility.yul\":16732:17270   */\n    tag_174:\n        /* \"#utility.yul\":16900:16903   */\n      0x00\n        /* \"#utility.yul\":16915:16990   */\n      tag_504\n        /* \"#utility.yul\":16986:16989   */\n      dup3\n        /* \"#utility.yul\":16977:16983   */\n      dup7\n        /* \"#utility.yul\":16915:16990   */\n      tag_313\n      jump\t// in\n    tag_504:\n        /* \"#utility.yul\":17015:17017   */\n      0x20\n        /* \"#utility.yul\":17010:17013   */\n      dup3\n        /* \"#utility.yul\":17006:17018   */\n      add\n        /* \"#utility.yul\":16999:17018   */\n      swap2\n      pop\n        /* \"#utility.yul\":17028:17103   */\n      tag_505\n        /* \"#utility.yul\":17099:17102   */\n      dup3\n        /* \"#utility.yul\":17090:17096   */\n      dup6\n        /* \"#utility.yul\":17028:17103   */\n      tag_313\n      jump\t// in\n    tag_505:\n        /* \"#utility.yul\":17128:17130   */\n      0x20\n        /* \"#utility.yul\":17123:17126   */\n      dup3\n        /* \"#utility.yul\":17119:17131   */\n      add\n        /* \"#utility.yul\":17112:17131   */\n      swap2\n      pop\n        /* \"#utility.yul\":17141:17216   */\n      tag_506\n        /* \"#utility.yul\":17212:17215   */\n      dup3\n        /* \"#utility.yul\":17203:17209   */\n      dup5\n        /* \"#utility.yul\":17141:17216   */\n      tag_317\n      jump\t// in\n    tag_506:\n        /* \"#utility.yul\":17241:17243   */\n      0x14\n        /* \"#utility.yul\":17236:17239   */\n      dup3\n        /* \"#utility.yul\":17232:17244   */\n      add\n        /* \"#utility.yul\":17225:17244   */\n      swap2\n      pop\n        /* \"#utility.yul\":17261:17264   */\n      dup2\n        /* \"#utility.yul\":17254:17264   */\n      swap1\n      pop\n        /* \"#utility.yul\":16732:17270   */\n      swap5\n      swap4\n      pop\n      pop\n      pop\n      pop\n      jump\t// out\n        /* \"#utility.yul\":17276:17456   */\n    tag_318:\n        /* \"#utility.yul\":17324:17401   */\n      0x4e487b7100000000000000000000000000000000000000000000000000000000\n        /* \"#utility.yul\":17321:17322   */\n      0x00\n        /* \"#utility.yul\":17314:17402   */\n      mstore\n        /* \"#utility.yul\":17421:17425   */\n      0x12\n        /* \"#utility.yul\":17418:17419   */\n      0x04\n        /* \"#utility.yul\":17411:17426   */\n      mstore\n        /* \"#utility.yul\":17445:17449   */\n      0x24\n        /* \"#utility.yul\":17442:17443   */\n      0x00\n        /* \"#utility.yul\":17435:17450   */\n      revert\n        /* \"#utility.yul\":17462:17638   */\n    tag_176:\n        /* \"#utility.yul\":17494:17495   */\n      0x00\n        /* \"#utility.yul\":17511:17531   */\n      tag_509\n        /* \"#utility.yul\":17529:17530   */\n      dup3\n        /* \"#utility.yul\":17511:17531   */\n      tag_270\n      jump\t// in\n    tag_509:\n        /* \"#utility.yul\":17506:17531   */\n      swap2\n      pop\n        /* \"#utility.yul\":17545:17565   */\n      tag_510\n        /* \"#utility.yul\":17563:17564   */\n      dup4\n        /* \"#utility.yul\":17545:17565   */\n      tag_270\n      jump\t// in\n    tag_510:\n        /* \"#utility.yul\":17540:17565   */\n      swap3\n      pop\n        /* \"#utility.yul\":17584:17585   */\n      dup3\n        /* \"#utility.yul\":17574:17609   */\n      tag_511\n      jumpi\n        /* \"#utility.yul\":17589:17607   */\n      tag_512\n      tag_318\n      jump\t// in\n    tag_512:\n        /* \"#utility.yul\":17574:17609   */\n    tag_511:\n        /* \"#utility.yul\":17630:17631   */\n      dup3\n        /* \"#utility.yul\":17627:17628   */\n      dup3\n        /* \"#utility.yul\":17623:17632   */\n      mod\n        /* \"#utility.yul\":17618:17632   */\n      swap1\n      pop\n        /* \"#utility.yul\":17462:17638   */\n      swap3\n      swap2\n      pop\n      pop\n      jump\t// out\n        /* \"#utility.yul\":17644:17824   */\n    tag_179:\n        /* \"#utility.yul\":17692:17769   */\n      0x4e487b7100000000000000000000000000000000000000000000000000000000\n        /* \"#utility.yul\":17689:17690   */\n      0x00\n        /* \"#utility.yul\":17682:17770   */\n      mstore\n        /* \"#utility.yul\":17789:17793   */\n      0x32\n        /* \"#utility.yul\":17786:17787   */\n      0x04\n        /* \"#utility.yul\":17779:17794   */\n      mstore\n        /* \"#utility.yul\":17813:17817   */\n      0x24\n        /* \"#utility.yul\":17810:17811   */\n      0x00\n        /* \"#utility.yul\":17803:17818   */\n      revert\n        /* \"#utility.yul\":17830:17979   */\n    tag_319:\n        /* \"#utility.yul\":17879:17885   */\n      0x00\n        /* \"#utility.yul\":17913:17918   */\n      dup2\n        /* \"#utility.yul\":17907:17919   */\n      sload\n        /* \"#utility.yul\":17897:17919   */\n      swap1\n      pop\n        /* \"#utility.yul\":17939:17972   */\n      tag_515\n        /* \"#utility.yul\":17965:17971   */\n      dup2\n        /* \"#utility.yul\":17939:17972   */\n      tag_127\n      jump\t// in\n    tag_515:\n        /* \"#utility.yul\":17929:17972   */\n      swap1\n      pop\n        /* \"#utility.yul\":17830:17979   */\n      swap2\n      swap1\n      pop\n      jump\t// out\n        /* \"#utility.yul\":17985:18165   */\n    tag_320:\n        /* \"#utility.yul\":18033:18110   */\n      0x4e487b7100000000000000000000000000000000000000000000000000000000\n        /* \"#utility.yul\":18030:18031   */\n      0x00\n        /* \"#utility.yul\":18023:18111   */\n      mstore\n        /* \"#utility.yul\":18130:18134   */\n      0x41\n        /* \"#utility.yul\":18127:18128   */\n      0x04\n        /* \"#utility.yul\":18120:18135   */\n      mstore\n        /* \"#utility.yul\":18154:18158   */\n      0x24\n        /* \"#utility.yul\":18151:18152   */\n      0x00\n        /* \"#utility.yul\":18144:18159   */\n      revert\n        /* \"#utility.yul\":18171:18312   */\n    tag_321:\n        /* \"#utility.yul\":18220:18224   */\n      0x00\n        /* \"#utility.yul\":18243:18246   */\n      dup2\n        /* \"#utility.yul\":18235:18246   */\n      swap1\n      pop\n        /* \"#utility.yul\":18266:18269   */\n      dup2\n        /* \"#utility.yul\":18263:18264   */\n      0x00\n        /* \"#utility.yul\":18256:18270   */\n      mstore\n        /* \"#utility.yul\":18300:18304   */\n      0x20\n        /* \"#utility.yul\":18297:18298   */\n      0x00\n        /* \"#utility.yul\":18287:18305   */\n      keccak256\n        /* \"#utility.yul\":18279:18305   */\n      swap1\n      pop\n        /* \"#utility.yul\":18171:18312   */\n      swap2\n      swap1\n      pop\n      jump\t// out\n        /* \"#utility.yul\":18318:18411   */\n    tag_322:\n        /* \"#utility.yul\":18355:18361   */\n      0x00\n        /* \"#utility.yul\":18402:18404   */\n      0x20\n        /* \"#utility.yul\":18397:18399   */\n      0x1f\n        /* \"#utility.yul\":18390:18395   */\n      dup4\n        /* \"#utility.yul\":18386:18400   */\n      add\n        /* \"#utility.yul\":18382:18405   */\n      div\n        /* \"#utility.yul\":18372:18405   */\n      swap1\n      pop\n        /* \"#utility.yul\":18318:18411   */\n      swap2\n      swap1\n      pop\n      jump\t// out\n        /* \"#utility.yul\":18417:18524   */\n    tag_323:\n        /* \"#utility.yul\":18461:18469   */\n      0x00\n        /* \"#utility.yul\":18511:18516   */\n      dup3\n        /* \"#utility.yul\":18505:18509   */\n      dup3\n        /* \"#utility.yul\":18501:18517   */\n      shl\n        /* \"#utility.yul\":18480:18517   */\n      swap1\n      pop\n        /* \"#utility.yul\":18417:18524   */\n      swap3\n      swap2\n      pop\n      pop\n      jump\t// out\n        /* \"#utility.yul\":18530:18923   */\n    tag_324:\n        /* \"#utility.yul\":18599:18605   */\n      0x00\n        /* \"#utility.yul\":18649:18650   */\n      0x08\n        /* \"#utility.yul\":18637:18647   */\n      dup4\n        /* \"#utility.yul\":18633:18651   */\n      mul\n        /* \"#utility.yul\":18672:18769   */\n      tag_521\n        /* \"#utility.yul\":18702:18768   */\n      0xffffffffffffffffffffffffffffffffffffffffffffffffffffffffffffffff\n        /* \"#utility.yul\":18691:18700   */\n      dup3\n        /* \"#utility.yul\":18672:18769   */\n      tag_323\n      jump\t// in\n    tag_521:\n        /* \"#utility.yul\":18790:18829   */\n      tag_522\n        /* \"#utility.yul\":18820:18828   */\n      dup7\n        /* \"#utility.yul\":18809:18818   */\n      dup4\n        /* \"#utility.yul\":18790:18829   */\n      tag_323\n      jump\t// in\n    tag_522:\n        /* \"#utility.yul\":18778:18829   */\n      swap6\n      pop\n        /* \"#utility.yul\":18862:18866   */\n      dup1\n        /* \"#utility.yul\":18858:18867   */\n      not\n        /* \"#utility.yul\":18851:18856   */\n      dup5\n        /* \"#utility.yul\":18847:18868   */\n      and\n        /* \"#utility.yul\":18838:18868   */\n      swap4\n      pop\n        /* \"#utility.yul\":18911:18915   */\n      dup1\n        /* \"#utility.yul\":18901:18909   */\n      dup7\n        /* \"#utility.yul\":18897:18916   */\n      and\n        /* \"#utility.yul\":18890:18895   */\n      dup5\n        /* \"#utility.yul\":18887:18917   */\n      or\n        /* \"#utility.yul\":18877:18917   */\n      swap3\n      pop\n        /* \"#utility.yul\":18606:18923   */\n      pop\n      pop\n        /* \"#utility.yul\":18530:18923   */\n      swap4\n      swap3\n      pop\n      pop\n      pop\n      jump\t// out\n        /* \"#utility.yul\":18929:18989   */\n    tag_325:\n        /* \"#utility.yul\":18957:18960   */\n      0x00\n        /* \"#utility.yul\":18978:18983   */\n      dup2\n        /* \"#utility.yul\":18971:18983   */\n      swap1\n      pop\n        /* \"#utility.yul\":18929:18989   */\n      swap2\n      swap1\n      pop\n      jump\t// out\n        /* \"#utility.yul\":18995:19137   */\n    tag_326:\n        /* \"#utility.yul\":19045:19054   */\n      0x00\n        /* \"#utility.yul\":19078:19131   */\n      tag_525\n        /* \"#utility.yul\":19096:19130   */\n      tag_526\n        /* \"#utility.yul\":19105:19129   */\n      tag_527\n        /* \"#utility.yul\":19123:19128   */\n      dup5\n        /* \"#utility.yul\":19105:19129   */\n      tag_270\n      jump\t// in\n    tag_527:\n        /* \"#utility.yul\":19096:19130   */\n      tag_325\n      jump\t// in\n    tag_526:\n        /* \"#utility.yul\":19078:19131   */\n      tag_270\n      jump\t// in\n    tag_525:\n        /* \"#utility.yul\":19065:19131   */\n      swap1\n      pop\n        /* \"#utility.yul\":18995:19137   */\n      swap2\n      swap1\n      pop\n      jump\t// out\n        /* \"#utility.yul\":19143:19218   */\n    tag_327:\n        /* \"#utility.yul\":19186:19189   */\n      0x00\n        /* \"#utility.yul\":19207:19212   */\n      dup2\n        /* \"#utility.yul\":19200:19212   */\n      swap1\n      pop\n        /* \"#utility.yul\":19143:19218   */\n      swap2\n      swap1\n      pop\n      jump\t// out\n        /* \"#utility.yul\":19224:19493   */\n    tag_328:\n        /* \"#utility.yul\":19334:19373   */\n      tag_530\n        /* \"#utility.yul\":19365:19372   */\n      dup4\n        /* \"#utility.yul\":19334:19373   */\n      tag_326\n      jump\t// in\n    tag_530:\n        /* \"#utility.yul\":19395:19486   */\n      tag_531\n        /* \"#utility.yul\":19444:19485   */\n      tag_532\n        /* \"#utility.yul\":19468:19484   */\n      dup3\n        /* \"#utility.yul\":19444:19485   */\n      tag_327\n      jump\t// in\n    tag_532:\n        /* \"#utility.yul\":19436:19442   */\n      dup5\n        /* \"#utility.yul\":19429:19433   */\n      dup5\n        /* \"#utility.yul\":19423:19434   */\n      sload\n        /* \"#utility.yul\":19395:19486   */\n      tag_324\n      jump\t// in\n    tag_531:\n        /* \"#utility.yul\":19389:19393   */\n      dup3\n        /* \"#utility.yul\":19382:19487   */\n      sstore\n        /* \"#utility.yul\":19300:19493   */\n      pop\n        /* \"#utility.yul\":19224:19493   */\n      pop\n      pop\n      pop\n      jump\t// out\n        /* \"#utility.yul\":19499:19572   */\n    tag_329:\n        /* \"#utility.yul\":19544:19547   */\n      0x00\n        /* \"#utility.yul\":19499:19572   */\n      swap1\n      jump\t// out\n        /* \"#utility.yul\":19578:19767   */\n    tag_330:\n        /* \"#utility.yul\":19655:19687   */\n      tag_535\n      tag_329\n      jump\t// in\n    tag_535:\n        /* \"#utility.yul\":19696:19761   */\n      tag_536\n        /* \"#utility.yul\":19754:19760   */\n      dup2\n        /* \"#utility.yul\":19746:19752   */\n      dup5\n        /* \"#utility.yul\":19740:19744   */\n      dup5\n        /* \"#utility.yul\":19696:19761   */\n      tag_328\n      jump\t// in\n    tag_536:\n        /* \"#utility.yul\":19631:19767   */\n      pop\n        /* \"#utility.yul\":19578:19767   */\n      pop\n      pop\n      jump\t// out\n        /* \"#utility.yul\":19773:19959   */\n    tag_331:\n        /* \"#utility.yul\":19833:19953   */\n    tag_538:\n        /* \"#utility.yul\":19850:19853   */\n      dup2\n        /* \"#utility.yul\":19843:19848   */\n      dup2\n        /* \"#utility.yul\":19840:19854   */\n      lt\n        /* \"#utility.yul\":19833:19953   */\n      iszero\n      tag_540\n      jumpi\n        /* \"#utility.yul\":19904:19943   */\n      tag_541\n        /* \"#utility.yul\":19941:19942   */\n      0x00\n        /* \"#utility.yul\":19934:19939   */\n      dup3\n        /* \"#utility.yul\":19904:19943   */\n      tag_330\n      jump\t// in\n    tag_541:\n        /* \"#utility.yul\":19877:19878   */\n      0x01\n        /* \"#utility.yul\":19870:19875   */\n      dup2\n        /* \"#utility.yul\":19866:19879   */\n      add\n        /* \"#utility.yul\":19857:19879   */\n      swap1\n      pop\n        /* \"#utility.yul\":19833:19953   */\n      jump(tag_538)\n    tag_540:\n        /* \"#utility.yul\":19773:19959   */\n      pop\n      pop\n      jump\t// out\n        /* \"#utility.yul\":19965:20508   */\n    tag_332:\n        /* \"#utility.yul\":20066:20068   */\n      0x1f\n        /* \"#utility.yul\":20061:20064   */\n      dup3\n        /* \"#utility.yul\":20058:20069   */\n      gt\n        /* \"#utility.yul\":20055:20501   */\n      iszero\n      tag_543\n      jumpi\n        /* \"#utility.yul\":20100:20138   */\n      tag_544\n        /* \"#utility.yul\":20132:20137   */\n      dup2\n        /* \"#utility.yul\":20100:20138   */\n      tag_321\n      jump\t// in\n    tag_544:\n        /* \"#utility.yul\":20184:20213   */\n      tag_545\n        /* \"#utility.yul\":20202:20212   */\n      dup5\n        /* \"#utility.yul\":20184:20213   */\n      tag_322\n      jump\t// in\n    tag_545:\n        /* \"#utility.yul\":20174:20182   */\n      dup2\n        /* \"#utility.yul\":20170:20214   */\n      add\n        /* \"#utility.yul\":20367:20369   */\n      0x20\n        /* \"#utility.yul\":20355:20365   */\n      dup6\n        /* \"#utility.yul\":20352:20370   */\n      lt\n        /* \"#utility.yul\":20349:20398   */\n      iszero\n      tag_546\n      jumpi\n        /* \"#utility.yul\":20388:20396   */\n      dup2\n        /* \"#utility.yul\":20373:20396   */\n      swap1\n      pop\n        /* \"#utility.yul\":20349:20398   */\n    tag_546:\n        /* \"#utility.yul\":20411:20491   */\n      tag_547\n        /* \"#utility.yul\":20467:20489   */\n      tag_548\n        /* \"#utility.yul\":20485:20488   */\n      dup6\n        /* \"#utility.yul\":20467:20489   */\n      tag_322\n      jump\t// in\n    tag_548:\n        /* \"#utility.yul\":20457:20465   */\n      dup4\n        /* \"#utility.yul\":20453:20490   */\n      add\n        /* \"#utility.yul\":20440:20451   */\n      dup3\n        /* \"#utility.yul\":20411:20491   */\n      tag_331\n      jump\t// in\n    tag_547:\n        /* \"#utility.yul\":20070:20501   */\n      pop\n      pop\n        /* \"#utility.yul\":20055:20501   */\n    tag_543:\n        /* \"#utility.yul\":19965:20508   */\n      pop\n      pop\n      pop\n      jump\t// out\n        /* \"#utility.yul\":20514:20631   */\n    tag_333:\n        /* \"#utility.yul\":20568:20576   */\n      0x00\n        /* \"#utility.yul\":20618:20623   */\n      dup3\n        /* \"#utility.yul\":20612:20616   */\n      dup3\n        /* \"#utility.yul\":20608:20624   */\n      shr\n        /* \"#utility.yul\":20587:20624   */\n      swap1\n      pop\n        /* \"#utility.yul\":20514:20631   */\n      swap3\n      swap2\n      pop\n      pop\n      jump\t// out\n        /* \"#utility.yul\":20637:20806   */\n    tag_334:\n        /* \"#utility.yul\":20681:20687   */\n      0x00\n        /* \"#utility.yul\":20714:20765   */\n      tag_551\n        /* \"#utility.yul\":20762:20763   */\n      0x00\n        /* \"#utility.yul\":20758:20764   */\n      not\n        /* \"#utility.yul\":20750:20755   */\n      dup5\n        /* \"#utility.yul\":20747:20748   */\n      0x08\n        /* \"#utility.yul\":20743:20756   */\n      mul\n        /* \"#utility.yul\":20714:20765   */\n      tag_333\n      jump\t// in\n    tag_551:\n        /* \"#utility.yul\":20710:20766   */\n      not\n        /* \"#utility.yul\":20795:20799   */\n      dup1\n        /* \"#utility.yul\":20789:20793   */\n      dup4\n        /* \"#utility.yul\":20785:20800   */\n      and\n        /* \"#utility.yul\":20775:20800   */\n      swap2\n      pop\n        /* \"#utility.yul\":20688:20806   */\n      pop\n        /* \"#utility.yul\":20637:20806   */\n      swap3\n      swap2\n      pop\n      pop\n      jump\t// out\n        /* \"#utility.yul\":20811:21106   */\n    tag_335:\n        /* \"#utility.yul\":20887:20891   */\n      0x00\n        /* \"#utility.yul\":21033:21062   */\n      tag_553\n        /* \"#utility.yul\":21058:21061   */\n      dup4\n        /* \"#utility.yul\":21052:21056   */\n      dup4\n        /* \"#utility.yul\":21033:21062   */\n      tag_334\n      jump\t// in\n    tag_553:\n        /* \"#utility.yul\":21025:21062   */\n      swap2\n      pop\n        /* \"#utility.yul\":21095:21098   */\n      dup3\n        /* \"#utility.yul\":21092:21093   */\n      0x02\n        /* \"#utility.yul\":21088:21099   */\n      mul\n        /* \"#utility.yul\":21082:21086   */\n      dup3\n        /* \"#utility.yul\":21079:21100   */\n      or\n        /* \"#utility.yul\":21071:21100   */\n      swap1\n      pop\n        /* \"#utility.yul\":20811:21106   */\n      swap3\n      swap2\n      pop\n      pop\n      jump\t// out\n        /* \"#utility.yul\":21111:22562   */\n    tag_201:\n        /* \"#utility.yul\":21222:21225   */\n      dup2\n        /* \"#utility.yul\":21216:21220   */\n      dup2\n        /* \"#utility.yul\":21213:21226   */\n      sub\n        /* \"#utility.yul\":21210:21236   */\n      tag_555\n      jumpi\n        /* \"#utility.yul\":21229:21234   */\n      pop\n      pop\n      jump(tag_554)\n        /* \"#utility.yul\":21210:21236   */\n    tag_555:\n        /* \"#utility.yul\":21260:21294   */\n      tag_556\n        /* \"#utility.yul\":21290:21293   */\n      dup3\n        /* \"#utility.yul\":21260:21294   */\n      tag_319\n      jump\t// in\n    tag_556:\n        /* \"#utility.yul\":21359:21377   */\n      0xffffffffffffffff\n        /* \"#utility.yul\":21351:21357   */\n      dup2\n        /* \"#utility.yul\":21348:21378   */\n      gt\n        /* \"#utility.yul\":21345:21401   */\n      iszero\n      tag_557\n      jumpi\n        /* \"#utility.yul\":21381:21399   */\n      tag_558\n      tag_320\n      jump\t// in\n    tag_558:\n        /* \"#utility.yul\":21345:21401   */\n    tag_557:\n        /* \"#utility.yul\":21425:21463   */\n      tag_559\n        /* \"#utility.yul\":21457:21461   */\n      dup3\n        /* \"#utility.yul\":21451:21462   */\n      sload\n        /* \"#utility.yul\":21425:21463   */\n      tag_127\n      jump\t// in\n    tag_559:\n        /* \"#utility.yul\":21510:21577   */\n      tag_560\n        /* \"#utility.yul\":21570:21576   */\n      dup3\n        /* \"#utility.yul\":21562:21568   */\n      dup3\n        /* \"#utility.yul\":21556:21560   */\n      dup6\n        /* \"#utility.yul\":21510:21577   */\n      tag_332\n      jump\t// in\n    tag_560:\n        /* \"#utility.yul\":21604:21605   */\n      0x00\n        /* \"#utility.yul\":21633:21635   */\n      0x1f\n        /* \"#utility.yul\":21625:21631   */\n      dup4\n        /* \"#utility.yul\":21622:21636   */\n      gt\n        /* \"#utility.yul\":21650:21651   */\n      0x01\n        /* \"#utility.yul\":21645:22317   */\n      dup2\n      eq\n      tag_562\n      jumpi\n        /* \"#utility.yul\":22361:22362   */\n      0x00\n        /* \"#utility.yul\":22378:22384   */\n      dup5\n        /* \"#utility.yul\":22375:22452   */\n      iszero\n      tag_563\n      jumpi\n        /* \"#utility.yul\":22427:22436   */\n      dup3\n        /* \"#utility.yul\":22422:22425   */\n      dup8\n        /* \"#utility.yul\":22418:22437   */\n      add\n        /* \"#utility.yul\":22412:22438   */\n      sload\n        /* \"#utility.yul\":22403:22438   */\n      swap1\n      pop\n        /* \"#utility.yul\":22375:22452   */\n    tag_563:\n        /* \"#utility.yul\":22478:22545   */\n      tag_564\n        /* \"#utility.yul\":22538:22544   */\n      dup6\n        /* \"#utility.yul\":22531:22536   */\n      dup3\n        /* \"#utility.yul\":22478:22545   */\n      tag_335\n      jump\t// in\n    tag_564:\n        /* \"#utility.yul\":22472:22476   */\n      dup7\n        /* \"#utility.yul\":22465:22546   */\n      sstore\n        /* \"#utility.yul\":22334:22556   */\n      pop\n        /* \"#utility.yul\":21615:22556   */\n      jump(tag_561)\n        /* \"#utility.yul\":21645:22317   */\n    tag_562:\n        /* \"#utility.yul\":21697:21701   */\n      0x1f\n        /* \"#utility.yul\":21693:21702   */\n      not\n        /* \"#utility.yul\":21685:21691   */\n      dup5\n        /* \"#utility.yul\":21681:21703   */\n      and\n        /* \"#utility.yul\":21723:21759   */\n      tag_565\n        /* \"#utility.yul\":21755:21758   */\n      dup8\n        /* \"#utility.yul\":21723:21759   */\n      tag_321\n      jump\t// in\n    tag_565:\n        /* \"#utility.yul\":21716:21759   */\n      swap7\n      pop\n        /* \"#utility.yul\":21786:21823   */\n      tag_566\n        /* \"#utility.yul\":21818:21822   */\n      dup7\n        /* \"#utility.yul\":21786:21823   */\n      tag_321\n      jump\t// in\n    tag_566:\n        /* \"#utility.yul\":21845:21846   */\n      0x00\n        /* \"#utility.yul\":21859:22066   */\n    tag_567:\n        /* \"#utility.yul\":21873:21880   */\n      dup3\n        /* \"#utility.yul\":21870:21871   */\n      dup2\n        /* \"#utility.yul\":21867:21881   */\n      lt\n        /* \"#utility.yul\":21859:22066   */\n      iszero\n      tag_569\n      jumpi\n        /* \"#utility.yul\":21952:21961   */\n      dup5\n        /* \"#utility.yul\":21947:21950   */\n      dup10\n        /* \"#utility.yul\":21943:21962   */\n      add\n        /* \"#utility.yul\":21937:21963   */\n      sload\n        /* \"#utility.yul\":21929:21935   */\n      dup3\n        /* \"#utility.yul\":21922:21964   */\n      sstore\n        /* \"#utility.yul\":22003:22004   */\n      0x01\n        /* \"#utility.yul\":21995:22001   */\n      dup3\n        /* \"#utility.yul\":21991:22005   */\n      add\n        /* \"#utility.yul\":21981:22005   */\n      swap2\n      pop\n        /* \"#utility.yul\":22050:22051   */\n      0x01\n        /* \"#utility.yul\":22039:22048   */\n      dup6\n        /* \"#utility.yul\":22035:22052   */\n      add\n        /* \"#utility.yul\":22022:22052   */\n      swap5\n      pop\n        /* \"#utility.yul\":21896:21900   */\n      0x20\n        /* \"#utility.yul\":21893:21894   */\n      dup2\n        /* \"#utility.yul\":21889:21901   */\n      add\n        /* \"#utility.yul\":21884:21901   */\n      swap1\n      pop\n        /* \"#utility.yul\":21859:22066   */\n      jump(tag_567)\n    tag_569:\n        /* \"#utility.yul\":22094:22100   */\n      dup7\n        /* \"#utility.yul\":22085:22092   */\n      dup4\n        /* \"#utility.yul\":22082:22101   */\n      lt\n        /* \"#utility.yul\":22079:22258   */\n      iszero\n      tag_570\n      jumpi\n        /* \"#utility.yul\":22152:22161   */\n      dup5\n        /* \"#utility.yul\":22147:22150   */\n      dup10\n        /* \"#utility.yul\":22143:22162   */\n      add\n        /* \"#utility.yul\":22137:22163   */\n      sload\n        /* \"#utility.yul\":22195:22243   */\n      tag_571\n        /* \"#utility.yul\":22237:22241   */\n      0x1f\n        /* \"#utility.yul\":22229:22235   */\n      dup10\n        /* \"#utility.yul\":22225:22242   */\n      and\n        /* \"#utility.yul\":22214:22223   */\n      dup3\n        /* \"#utility.yul\":22195:22243   */\n      tag_334\n      jump\t// in\n    tag_571:\n        /* \"#utility.yul\":22187:22193   */\n      dup4\n        /* \"#utility.yul\":22180:22244   */\n      sstore\n        /* \"#utility.yul\":22102:22258   */\n      pop\n        /* \"#utility.yul\":22079:22258   */\n    tag_570:\n        /* \"#utility.yul\":22304:22305   */\n      0x01\n        /* \"#utility.yul\":22300:22301   */\n      0x02\n        /* \"#utility.yul\":22292:22298   */\n      dup9\n        /* \"#utility.yul\":22288:22302   */\n      mul\n        /* \"#utility.yul\":22284:22306   */\n      add\n        /* \"#utility.yul\":22278:22282   */\n      dup9\n        /* \"#utility.yul\":22271:22307   */\n      sstore\n        /* \"#utility.yul\":21652:22317   */\n      pop\n      pop\n      pop\n        /* \"#utility.yul\":21615:22556   */\n    tag_561:\n      pop\n        /* \"#utility.yul\":21200:22562   */\n      pop\n      pop\n      pop\n        /* \"#utility.yul\":21111:22562   */\n      pop\n      pop\n    tag_554:\n      jump\t// out\n        /* \"#utility.yul\":22568:22748   */\n    tag_205:\n        /* \"#utility.yul\":22616:22693   */\n      0x4e487b7100000000000000000000000000000000000000000000000000000000\n        /* \"#utility.yul\":22613:22614   */\n      0x00\n        /* \"#utility.yul\":22606:22694   */\n      mstore\n        /* \"#utility.yul\":22713:22717   */\n      0x31\n        /* \"#utility.yul\":22710:22711   */\n      0x04\n        /* \"#utility.yul\":22703:22718   */\n      mstore\n        /* \"#utility.yul\":22737:22741   */\n      0x24\n        /* \"#utility.yul\":22734:22735   */\n      0x00\n        /* \"#utility.yul\":22727:22742   */\n      revert\n        /* \"#utility.yul\":22754:24149   */\n    tag_212:\n        /* \"#utility.yul\":22871:22908   */\n      tag_574\n        /* \"#utility.yul\":22904:22907   */\n      dup3\n        /* \"#utility.yul\":22871:22908   */\n      tag_272\n      jump\t// in\n    tag_574:\n        /* \"#utility.yul\":22973:22991   */\n      0xffffffffffffffff\n        /* \"#utility.yul\":22965:22971   */\n      dup2\n        /* \"#utility.yul\":22962:22992   */\n      gt\n        /* \"#utility.yul\":22959:23015   */\n      iszero\n      tag_575\n      jumpi\n        /* \"#utility.yul\":22995:23013   */\n      tag_576\n      tag_320\n      jump\t// in\n    tag_576:\n        /* \"#utility.yul\":22959:23015   */\n    tag_575:\n        /* \"#utility.yul\":23039:23077   */\n      tag_577\n        /* \"#utility.yul\":23071:23075   */\n      dup3\n        /* \"#utility.yul\":23065:23076   */\n      sload\n        /* \"#utility.yul\":23039:23077   */\n      tag_127\n      jump\t// in\n    tag_577:\n        /* \"#utility.yul\":23124:23191   */\n      tag_578\n        /* \"#utility.yul\":23184:23190   */\n      dup3\n        /* \"#utility.yul\":23176:23182   */\n      dup3\n        /* \"#utility.yul\":23170:23174   */\n      dup6\n        /* \"#utility.yul\":23124:23191   */\n      tag_332\n      jump\t// in\n    tag_578:\n        /* \"#utility.yul\":23218:23219   */\n      0x00\n        /* \"#utility.yul\":23242:23246   */\n      0x20\n        /* \"#utility.yul\":23229:23246   */\n      swap1\n      pop\n        /* \"#utility.yul\":23274:23276   */\n      0x1f\n        /* \"#utility.yul\":23266:23272   */\n      dup4\n        /* \"#utility.yul\":23263:23277   */\n      gt\n        /* \"#utility.yul\":23291:23292   */\n      0x01\n        /* \"#utility.yul\":23286:23904   */\n      dup2\n      eq\n      tag_580\n      jumpi\n        /* \"#utility.yul\":23948:23949   */\n      0x00\n        /* \"#utility.yul\":23965:23971   */\n      dup5\n        /* \"#utility.yul\":23962:24039   */\n      iszero\n      tag_581\n      jumpi\n        /* \"#utility.yul\":24014:24023   */\n      dup3\n        /* \"#utility.yul\":24009:24012   */\n      dup8\n        /* \"#utility.yul\":24005:24024   */\n      add\n        /* \"#utility.yul\":23999:24025   */\n      mload\n        /* \"#utility.yul\":23990:24025   */\n      swap1\n      pop\n        /* \"#utility.yul\":23962:24039   */\n    tag_581:\n        /* \"#utility.yul\":24065:24132   */\n      tag_582\n        /* \"#utility.yul\":24125:24131   */\n      dup6\n        /* \"#utility.yul\":24118:24123   */\n      dup3\n        /* \"#utility.yul\":24065:24132   */\n      tag_335\n      jump\t// in\n    tag_582:\n        /* \"#utility.yul\":24059:24063   */\n      dup7\n        /* \"#utility.yul\":24052:24133   */\n      sstore\n        /* \"#utility.yul\":23921:24143   */\n      pop\n        /* \"#utility.yul\":23256:24143   */\n      jump(tag_579)\n        /* \"#utility.yul\":23286:23904   */\n    tag_580:\n        /* \"#utility.yul\":23338:23342   */\n      0x1f\n        /* \"#utility.yul\":23334:23343   */\n      not\n        /* \"#utility.yul\":23326:23332   */\n      dup5\n        /* \"#utility.yul\":23322:23344   */\n      and\n        /* \"#utility.yul\":23372:23409   */\n      tag_583\n        /* \"#utility.yul\":23404:23408   */\n      dup7\n        /* \"#utility.yul\":23372:23409   */\n      tag_321\n      jump\t// in\n    tag_583:\n        /* \"#utility.yul\":23431:23432   */\n      0x00\n        /* \"#utility.yul\":23445:23653   */\n    tag_584:\n        /* \"#utility.yul\":23459:23466   */\n      dup3\n        /* \"#utility.yul\":23456:23457   */\n      dup2\n        /* \"#utility.yul\":23453:23467   */\n      lt\n        /* \"#utility.yul\":23445:23653   */\n      iszero\n      tag_586\n      jumpi\n        /* \"#utility.yul\":23538:23547   */\n      dup5\n        /* \"#utility.yul\":23533:23536   */\n      dup10\n        /* \"#utility.yul\":23529:23548   */\n      add\n        /* \"#utility.yul\":23523:23549   */\n      mload\n        /* \"#utility.yul\":23515:23521   */\n      dup3\n        /* \"#utility.yul\":23508:23550   */\n      sstore\n        /* \"#utility.yul\":23589:23590   */\n      0x01\n        /* \"#utility.yul\":23581:23587   */\n      dup3\n        /* \"#utility.yul\":23577:23591   */\n      add\n        /* \"#utility.yul\":23567:23591   */\n      swap2\n      pop\n        /* \"#utility.yul\":23636:23638   */\n      0x20\n        /* \"#utility.yul\":23625:23634   */\n      dup6\n        /* \"#utility.yul\":23621:23639   */\n      add\n        /* \"#utility.yul\":23608:23639   */\n      swap5\n      pop\n        /* \"#utility.yul\":23482:23486   */\n      0x20\n        /* \"#utility.yul\":23479:23480   */\n      dup2\n        /* \"#utility.yul\":23475:23487   */\n      add\n        /* \"#utility.yul\":23470:23487   */\n      swap1\n      pop\n        /* \"#utility.yul\":23445:23653   */\n      jump(tag_584)\n    tag_586:\n        /* \"#utility.yul\":23681:23687   */\n      dup7\n        /* \"#utility.yul\":23672:23679   */\n      dup4\n        /* \"#utility.yul\":23669:23688   */\n      lt\n        /* \"#utility.yul\":23666:23845   */\n      iszero\n      tag_587\n      jumpi\n        /* \"#utility.yul\":23739:23748   */\n      dup5\n        /* \"#utility.yul\":23734:23737   */\n      dup10\n        /* \"#utility.yul\":23730:23749   */\n      add\n        /* \"#utility.yul\":23724:23750   */\n      mload\n        /* \"#utility.yul\":23782:23830   */\n      tag_588\n        /* \"#utility.yul\":23824:23828   */\n      0x1f\n        /* \"#utility.yul\":23816:23822   */\n      dup10\n        /* \"#utility.yul\":23812:23829   */\n      and\n        /* \"#utility.yul\":23801:23810   */\n      dup3\n        /* \"#utility.yul\":23782:23830   */\n      tag_334\n      jump\t// in\n    tag_588:\n        /* \"#utility.yul\":23774:23780   */\n      dup4\n        /* \"#utility.yul\":23767:23831   */\n      sstore\n        /* \"#utility.yul\":23689:23845   */\n      pop\n        /* \"#utility.yul\":23666:23845   */\n    tag_587:\n        /* \"#utility.yul\":23891:23892   */\n      0x01\n        /* \"#utility.yul\":23887:23888   */\n      0x02\n        /* \"#utility.yul\":23879:23885   */\n      dup9\n        /* \"#utility.yul\":23875:23889   */\n      mul\n        /* \"#utility.yul\":23871:23893   */\n      add\n        /* \"#utility.yul\":23865:23869   */\n      dup9\n        /* \"#utility.yul\":23858:23894   */\n      sstore\n        /* \"#utility.yul\":23293:23904   */\n      pop\n      pop\n      pop\n        /* \"#utility.yul\":23256:24143   */\n    tag_579:\n      pop\n        /* \"#utility.yul\":22846:24149   */\n      pop\n      pop\n      pop\n        /* \"#utility.yul\":22754:24149   */\n      pop\n      pop\n      jump\t// out\n        /* \"#utility.yul\":24155:24259   */\n    tag_336:\n        /* \"#utility.yul\":24200:24207   */\n      0x00\n        /* \"#utility.yul\":24229:24253   */\n      tag_590\n        /* \"#utility.yul\":24247:24252   */\n      dup3\n        /* \"#utility.yul\":24229:24253   */\n      tag_280\n      jump\t// in\n    tag_590:\n        /* \"#utility.yul\":24218:24253   */\n      swap1\n      pop\n        /* \"#utility.yul\":24155:24259   */\n      swap2\n      swap1\n      pop\n      jump\t// out\n        /* \"#utility.yul\":24265:24373   */\n    tag_337:\n        /* \"#utility.yul\":24312:24319   */\n      0x00\n        /* \"#utility.yul\":24341:24367   */\n      tag_592\n        /* \"#utility.yul\":24361:24366   */\n      dup3\n        /* \"#utility.yul\":24341:24367   */\n      tag_315\n      jump\t// in\n    tag_592:\n        /* \"#utility.yul\":24330:24367   */\n      swap1\n      pop\n        /* \"#utility.yul\":24265:24373   */\n      swap2\n      swap1\n      pop\n      jump\t// out\n        /* \"#utility.yul\":24379:24568   */\n    tag_338:\n        /* \"#utility.yul\":24500:24561   */\n      tag_594\n        /* \"#utility.yul\":24528:24560   */\n      tag_595\n        /* \"#utility.yul\":24554:24559   */\n      dup3\n        /* \"#utility.yul\":24528:24560   */\n      tag_336\n      jump\t// in\n    tag_595:\n        /* \"#utility.yul\":24500:24561   */\n      tag_337\n      jump\t// in\n    tag_594:\n        /* \"#utility.yul\":24495:24498   */\n      dup3\n        /* \"#utility.yul\":24488:24562   */\n      mstore\n        /* \"#utility.yul\":24379:24568   */\n      pop\n      pop\n      jump\t// out\n        /* \"#utility.yul\":24574:25144   */\n    tag_231:\n        /* \"#utility.yul\":24758:24761   */\n      0x00\n        /* \"#utility.yul\":24773:24848   */\n      tag_597\n        /* \"#utility.yul\":24844:24847   */\n      dup3\n        /* \"#utility.yul\":24835:24841   */\n      dup7\n        /* \"#utility.yul\":24773:24848   */\n      tag_313\n      jump\t// in\n    tag_597:\n        /* \"#utility.yul\":24873:24875   */\n      0x20\n        /* \"#utility.yul\":24868:24871   */\n      dup3\n        /* \"#utility.yul\":24864:24876   */\n      add\n        /* \"#utility.yul\":24857:24876   */\n      swap2\n      pop\n        /* \"#utility.yul\":24886:24977   */\n      tag_598\n        /* \"#utility.yul\":24973:24976   */\n      dup3\n        /* \"#utility.yul\":24964:24970   */\n      dup6\n        /* \"#utility.yul\":24886:24977   */\n      tag_338\n      jump\t// in\n    tag_598:\n        /* \"#utility.yul\":25002:25004   */\n      0x14\n        /* \"#utility.yul\":24997:25000   */\n      dup3\n        /* \"#utility.yul\":24993:25005   */\n      add\n        /* \"#utility.yul\":24986:25005   */\n      swap2\n      pop\n        /* \"#utility.yul\":25015:25090   */\n      tag_599\n        /* \"#utility.yul\":25086:25089   */\n      dup3\n        /* \"#utility.yul\":25077:25083   */\n      dup5\n        /* \"#utility.yul\":25015:25090   */\n      tag_313\n      jump\t// in\n    tag_599:\n        /* \"#utility.yul\":25115:25117   */\n      0x20\n        /* \"#utility.yul\":25110:25113   */\n      dup3\n        /* \"#utility.yul\":25106:25118   */\n      add\n        /* \"#utility.yul\":25099:25118   */\n      swap2\n      pop\n        /* \"#utility.yul\":25135:25138   */\n      dup2\n        /* \"#utility.yul\":25128:25138   */\n      swap1\n      pop\n        /* \"#utility.yul\":24574:25144   */\n      swap5\n      swap4\n      pop\n      pop\n      pop\n      pop\n      jump\t// out\n        /* \"#utility.yul\":25150:25383   */\n    tag_260:\n        /* \"#utility.yul\":25189:25192   */\n      0x00\n        /* \"#utility.yul\":25212:25236   */\n      tag_601\n        /* \"#utility.yul\":25230:25235   */\n      dup3\n        /* \"#utility.yul\":25212:25236   */\n      tag_270\n      jump\t// in\n    tag_601:\n        /* \"#utility.yul\":25203:25236   */\n      swap2\n      pop\n        /* \"#utility.yul\":25258:25324   */\n      0xffffffffffffffffffffffffffffffffffffffffffffffffffffffffffffffff\n        /* \"#utility.yul\":25251:25256   */\n      dup3\n        /* \"#utility.yul\":25248:25325   */\n      sub\n        /* \"#utility.yul\":25245:25348   */\n      tag_602\n      jumpi\n        /* \"#utility.yul\":25328:25346   */\n      tag_603\n      tag_271\n      jump\t// in\n    tag_603:\n        /* \"#utility.yul\":25245:25348   */\n    tag_602:\n        /* \"#utility.yul\":25375:25376   */\n      0x01\n        /* \"#utility.yul\":25368:25373   */\n      dup3\n        /* \"#utility.yul\":25364:25377   */\n      add\n        /* \"#utility.yul\":25357:25377   */\n      swap1\n      pop\n        /* \"#utility.yul\":25150:25383   */\n      swap2\n      swap1\n      pop\n      jump\t// out\n\n    auxdata: 0xa2646970667358221220254c8a17470224423ae240f86000267e938b832e37e6c8e0dd3d60e3a287f9aa64736f6c63430008130033\n}\n",
				"bytecode": {
					"linkReferences": {},
					"object": "60806040526012600260006101000a81548160ff021916908360ff160217905550683635c9adc5dea0000060075560405180606001604052806040518060400160405280600781526020017f50696b616368750000000000000000000000000000000000000000000000000081525081526020016040518060400160405280600581526020017f4b6f62756b00000000000000000000000000000000000000000000000000000081525081526020016040518060400160405280600a81526020017f436861726d616e646572000000000000000000000000000000000000000000008152508152506008906003620000f992919062000312565b5060405180606001604052806040518060a00160405280607881526020016200315f6078913981526020016040518060a0016040528060708152602001620031d76070913981526020016040518060a0016040528060718152602001620030ee6071913981525060099060036200017292919062000312565b503480156200018057600080fd5b506040518060400160405280600881526020017f506f6b656e6d6f6e0000000000000000000000000000000000000000000000008152506040518060400160405280600381526020017f50544b000000000000000000000000000000000000000000000000000000000081525061271033600460006101000a81548173ffffffffffffffffffffffffffffffffffffffff021916908373ffffffffffffffffffffffffffffffffffffffff160217905550826000908162000242919062000679565b50816001908162000254919062000679565b5062000293600260009054906101000a900460ff1660ff16600a6200027a9190620008e3565b8262000287919062000934565b6200029c60201b60201c565b505050620009ba565b80600560003373ffffffffffffffffffffffffffffffffffffffff1673ffffffffffffffffffffffffffffffffffffffff1681526020019081526020016000206000828254620002ed91906200097f565b9250508190555080600360008282546200030891906200097f565b9250508190555050565b8280548282559060005260206000209081019282156200035f579160200282015b828111156200035e5782518290816200034d919062000679565b509160200191906001019062000333565b5b5090506200036e919062000372565b5090565b5b808211156200039657600081816200038c91906200039a565b5060010162000373565b5090565b508054620003a89062000468565b6000825580601f10620003bc5750620003dd565b601f016020900490600052602060002090810190620003dc9190620003e0565b5b50565b5b80821115620003fb576000816000905550600101620003e1565b5090565b600081519050919050565b7f4e487b7100000000000000000000000000000000000000000000000000000000600052604160045260246000fd5b7f4e487b7100000000000000000000000000000000000000000000000000000000600052602260045260246000fd5b600060028204905060018216806200048157607f821691505b60208210810362000497576200049662000439565b5b50919050565b60008190508160005260206000209050919050565b60006020601f8301049050919050565b600082821b905092915050565b600060088302620005017fffffffffffffffffffffffffffffffffffffffffffffffffffffffffffffffff82620004c2565b6200050d8683620004c2565b95508019841693508086168417925050509392505050565b6000819050919050565b6000819050919050565b60006200055a620005546200054e8462000525565b6200052f565b62000525565b9050919050565b6000819050919050565b620005768362000539565b6200058e620005858262000561565b848454620004cf565b825550505050565b600090565b620005a562000596565b620005b28184846200056b565b505050565b5b81811015620005da57620005ce6000826200059b565b600181019050620005b8565b5050565b601f8211156200062957620005f3816200049d565b620005fe84620004b2565b810160208510156200060e578190505b620006266200061d85620004b2565b830182620005b7565b50505b505050565b600082821c905092915050565b60006200064e600019846008026200062e565b1980831691505092915050565b60006200066983836200063b565b9150826002028217905092915050565b6200068482620003ff565b67ffffffffffffffff811115620006a0576200069f6200040a565b5b620006ac825462000468565b620006b9828285620005de565b600060209050601f831160018114620006f15760008415620006dc578287015190505b620006e885826200065b565b86555062000758565b601f19841662000701866200049d565b60005b828110156200072b5784890151825560018201915060208501945060208101905062000704565b868310156200074b578489015162000747601f8916826200063b565b8355505b6001600288020188555050505b505050505050565b7f4e487b7100000000000000000000000000000000000000000000000000000000600052601160045260246000fd5b60008160011c9050919050565b6000808291508390505b6001851115620007ee57808604811115620007c657620007c562000760565b5b6001851615620007d65780820291505b8081029050620007e6856200078f565b9450620007a6565b94509492505050565b600082620008095760019050620008dc565b81620008195760009050620008dc565b81600181146200083257600281146200083d5762000873565b6001915050620008dc565b60ff84111562000852576200085162000760565b5b8360020a9150848211156200086c576200086b62000760565b5b50620008dc565b5060208310610133831016604e8410600b8410161715620008ad5782820a905083811115620008a757620008a662000760565b5b620008dc565b620008bc84848460016200079c565b92509050818404811115620008d657620008d562000760565b5b81810290505b9392505050565b6000620008f08262000525565b9150620008fd8362000525565b92506200092c7fffffffffffffffffffffffffffffffffffffffffffffffffffffffffffffffff8484620007f7565b905092915050565b6000620009418262000525565b91506200094e8362000525565b92508282026200095e8162000525565b9150828204841483151762000978576200097762000760565b5b5092915050565b60006200098c8262000525565b9150620009998362000525565b9250828201905080821115620009b457620009b362000760565b5b92915050565b61272480620009ca6000396000f3fe6080604052600436106101025760003560e01c806342966c6811610095578063a9059cbb11610064578063a9059cbb14610516578063dd62ed3e14610553578063e3e2940f14610590578063efa9fbc5146105b9578063f5bf26fc146105f7576102b5565b806342966c681461045a57806370a082311461048357806378196cbc146104c057806395d89b41146104eb576102b5565b806327e235e3116100d157806327e235e31461038a5780632e7099a7146103c7578063313ce567146103f2578063365b98b21461041d576102b5565b806306fdde03146102ba578063095ea7b3146102e557806318160ddd1461032257806323b872dd1461034d576102b5565b366102b557600060c83461011691906119d5565b90508060056000600460009054906101000a900473ffffffffffffffffffffffffffffffffffffffff1673ffffffffffffffffffffffffffffffffffffffff1673ffffffffffffffffffffffffffffffffffffffff16815260200190815260200160002054101561018657600080fd5b8060056000600460009054906101000a900473ffffffffffffffffffffffffffffffffffffffff1673ffffffffffffffffffffffffffffffffffffffff1673ffffffffffffffffffffffffffffffffffffffff16815260200190815260200160002060008282546101f79190611a17565b9250508190555080600560003373ffffffffffffffffffffffffffffffffffffffff1673ffffffffffffffffffffffffffffffffffffffff168152602001908152602001600020600082825461024d9190611a4b565b92505081905550600460009054906101000a900473ffffffffffffffffffffffffffffffffffffffff1673ffffffffffffffffffffffffffffffffffffffff163373ffffffffffffffffffffffffffffffffffffffff16036102b3576102b28161060e565b5b005b600080fd5b3480156102c657600080fd5b506102cf610680565b6040516102dc9190611b0f565b60405180910390f35b3480156102f157600080fd5b5061030c60048036038101906103079190611bc0565b61070e565b6040516103199190611c1b565b60405180910390f35b34801561032e57600080fd5b5061033761079b565b6040516103449190611c45565b60405180910390f35b34801561035957600080fd5b50610374600480360381019061036f9190611c60565b6107a1565b6040516103819190611c1b565b60405180910390f35b34801561039657600080fd5b506103b160048036038101906103ac9190611cb3565b610972565b6040516103be9190611c45565b60405180910390f35b3480156103d357600080fd5b506103dc61098a565b6040516103e99190611dba565b60405180910390f35b3480156103fe57600080fd5b50610407610a3b565b6040516104149190611df8565b60405180910390f35b34801561042957600080fd5b50610444600480360381019061043f9190611e13565b610a4e565b6040516104519190611e4f565b60405180910390f35b34801561046657600080fd5b50610481600480360381019061047c9190611e13565b610a98565b005b34801561048f57600080fd5b506104aa60048036038101906104a59190611cb3565b610b0a565b6040516104b79190611c45565b60405180910390f35b3480156104cc57600080fd5b506104d5610b53565b6040516104e29190611fba565b60405180910390f35b3480156104f757600080fd5b50610500610d13565b60405161050d9190611b0f565b60405180910390f35b34801561052257600080fd5b5061053d60048036038101906105389190611bc0565b610da1565b60405161054a9190611c1b565b60405180910390f35b34801561055f57600080fd5b5061057a60048036038101906105759190611fdc565b610e45565b6040516105879190611c45565b60405180910390f35b34801561059c57600080fd5b506105b760048036038101906105b29190611cb3565b610e6a565b005b3480156105c557600080fd5b506105e060048036038101906105db9190611bc0565b6113b4565b6040516105ee92919061201c565b60405180910390f35b34801561060357600080fd5b5061060c611505565b005b80600560003373ffffffffffffffffffffffffffffffffffffffff1673ffffffffffffffffffffffffffffffffffffffff168152602001908152602001600020600082825461065d9190611a4b565b9250508190555080600360008282546106769190611a4b565b9250508190555050565b6000805461068d90612082565b80601f01602080910402602001604051908101604052809291908181526020018280546106b990612082565b80156107065780601f106106db57610100808354040283529160200191610706565b820191906000526020600020905b8154815290600101906020018083116106e957829003601f168201915b505050505081565b600081600660003373ffffffffffffffffffffffffffffffffffffffff1673ffffffffffffffffffffffffffffffffffffffff16815260200190815260200160002060008573ffffffffffffffffffffffffffffffffffffffff1673ffffffffffffffffffffffffffffffffffffffff168152602001908152602001600020819055506001905092915050565b60035481565b600081600660008673ffffffffffffffffffffffffffffffffffffffff1673ffffffffffffffffffffffffffffffffffffffff16815260200190815260200160002060003373ffffffffffffffffffffffffffffffffffffffff1673ffffffffffffffffffffffffffffffffffffffff16815260200190815260200160002054101561082c57600080fd5b81600660008673ffffffffffffffffffffffffffffffffffffffff1673ffffffffffffffffffffffffffffffffffffffff16815260200190815260200160002060003373ffffffffffffffffffffffffffffffffffffffff1673ffffffffffffffffffffffffffffffffffffffff16815260200190815260200160002060008282546108b89190611a17565b9250508190555081600560008673ffffffffffffffffffffffffffffffffffffffff1673ffffffffffffffffffffffffffffffffffffffff168152602001908152602001600020600082825461090e9190611a17565b9250508190555081600560008573ffffffffffffffffffffffffffffffffffffffff1673ffffffffffffffffffffffffffffffffffffffff16815260200190815260200160002060008282546109649190611a4b565b925050819055509392505050565b60056020528060005260406000206000915090505481565b6060600b805480602002602001604051908101604052809291908181526020016000905b82821015610a32578382906000526020600020016040518060200160405290816000820160009054906101000a900473ffffffffffffffffffffffffffffffffffffffff1673ffffffffffffffffffffffffffffffffffffffff1673ffffffffffffffffffffffffffffffffffffffff1681525050815260200190600101906109ae565b50505050905090565b600260009054906101000a900460ff1681565b600b8181548110610a5e57600080fd5b906000526020600020016000915090508060000160009054906101000a900473ffffffffffffffffffffffffffffffffffffffff16905081565b80600560003373ffffffffffffffffffffffffffffffffffffffff1673ffffffffffffffffffffffffffffffffffffffff1681526020019081526020016000206000828254610ae79190611a17565b925050819055508060036000828254610b009190611a17565b9250508190555050565b6000600560008373ffffffffffffffffffffffffffffffffffffffff1673ffffffffffffffffffffffffffffffffffffffff168152602001908152602001600020549050919050565b6060600a60003373ffffffffffffffffffffffffffffffffffffffff1673ffffffffffffffffffffffffffffffffffffffff168152602001908152602001600020805480602002602001604051908101604052809291908181526020016000905b82821015610d0a5783829060005260206000209060020201604051806040016040529081600082018054610be790612082565b80601f0160208091040260200160405190810160405280929190818152602001828054610c1390612082565b8015610c605780601f10610c3557610100808354040283529160200191610c60565b820191906000526020600020905b815481529060010190602001808311610c4357829003601f168201915b50505050508152602001600182018054610c7990612082565b80601f0160208091040260200160405190810160405280929190818152602001828054610ca590612082565b8015610cf25780601f10610cc757610100808354040283529160200191610cf2565b820191906000526020600020905b815481529060010190602001808311610cd557829003601f168201915b50505050508152505081526020019060010190610bb4565b50505050905090565b60018054610d2090612082565b80601f0160208091040260200160405190810160405280929190818152602001828054610d4c90612082565b8015610d995780601f10610d6e57610100808354040283529160200191610d99565b820191906000526020600020905b815481529060010190602001808311610d7c57829003601f168201915b505050505081565b600081600560003373ffffffffffffffffffffffffffffffffffffffff1673ffffffffffffffffffffffffffffffffffffffff168152602001908152602001600020505081600560008573ffffffffffffffffffffffffffffffffffffffff1673ffffffffffffffffffffffffffffffffffffffff1681526020019081526020016000206000828254610e349190611a4b565b925050819055506001905092915050565b6006602052816000526040600020602052806000526040600020600091509150505481565b6000600a60003373ffffffffffffffffffffffffffffffffffffffff1673ffffffffffffffffffffffffffffffffffffffff1681526020019081526020016000208054905011610eef576040517f08c379a0000000000000000000000000000000000000000000000000000000008152600401610ee6906120ff565b60405180910390fd5b6000600a60003373ffffffffffffffffffffffffffffffffffffffff1673ffffffffffffffffffffffffffffffffffffffff16815260200190815260200160002080549050424433604051602001610f4993929190612188565b6040516020818303038152906040528051906020012060001c610f6c91906121f4565b90506000600a60003373ffffffffffffffffffffffffffffffffffffffff1673ffffffffffffffffffffffffffffffffffffffff1681526020019081526020016000208281548110610fc157610fc0612225565b5b9060005260206000209060020201604051806040016040529081600082018054610fea90612082565b80601f016020809104026020016040519081016040528092919081815260200182805461101690612082565b80156110635780601f1061103857610100808354040283529160200191611063565b820191906000526020600020905b81548152906001019060200180831161104657829003601f168201915b5050505050815260200160018201805461107c90612082565b80601f01602080910402602001604051908101604052809291908181526020018280546110a890612082565b80156110f55780601f106110ca576101008083540402835291602001916110f5565b820191906000526020600020905b8154815290600101906020018083116110d857829003601f168201915b50505050508152505090506001600a60003373ffffffffffffffffffffffffffffffffffffffff1673ffffffffffffffffffffffffffffffffffffffff1681526020019081526020016000208054905061114f9190611a17565b82101561129057600a60003373ffffffffffffffffffffffffffffffffffffffff1673ffffffffffffffffffffffffffffffffffffffff1681526020019081526020016000206001600a60003373ffffffffffffffffffffffffffffffffffffffff1673ffffffffffffffffffffffffffffffffffffffff168152602001908152602001600020805490506111e49190611a17565b815481106111f5576111f4612225565b5b9060005260206000209060020201600a60003373ffffffffffffffffffffffffffffffffffffffff1673ffffffffffffffffffffffffffffffffffffffff168152602001908152602001600020838154811061125457611253612225565b5b9060005260206000209060020201600082018160000190816112769190612445565b506001820181600101908161128b9190612445565b509050505b600a60003373ffffffffffffffffffffffffffffffffffffffff1673ffffffffffffffffffffffffffffffffffffffff1681526020019081526020016000208054806112df576112de61252d565b5b600190038181906000526020600020906002020160008082016000611304919061193f565b600182016000611314919061193f565b50509055600a60008473ffffffffffffffffffffffffffffffffffffffff1673ffffffffffffffffffffffffffffffffffffffff1681526020019081526020016000208190806001815401808255809150506001900390600052602060002090600202016000909190919091506000820151816000019081611396919061255c565b5060208201518160010190816113ac919061255c565b505050505050565b600a60205281600052604060002081815481106113d057600080fd5b9060005260206000209060020201600091509150508060000180546113f490612082565b80601f016020809104026020016040519081016040528092919081815260200182805461142090612082565b801561146d5780601f106114425761010080835404028352916020019161146d565b820191906000526020600020905b81548152906001019060200180831161145057829003601f168201915b50505050509080600101805461148290612082565b80601f01602080910402602001604051908101604052809291908181526020018280546114ae90612082565b80156114fb5780601f106114d0576101008083540402835291602001916114fb565b820191906000526020600020905b8154815290600101906020018083116114de57829003601f168201915b5050505050905082565b600754600560003373ffffffffffffffffffffffffffffffffffffffff1673ffffffffffffffffffffffffffffffffffffffff16815260200190815260200160002054101561155357600080fd5b600754600560003373ffffffffffffffffffffffffffffffffffffffff1673ffffffffffffffffffffffffffffffffffffffff16815260200190815260200160002060008282546115a49190611a17565b92505081905550600754600360008282546115bf9190611a17565b9250508190555060004241436040516020016115dd93929190612669565b6040516020818303038152906040528051906020012060001c905060038161160591906121f4565b9050600a60003373ffffffffffffffffffffffffffffffffffffffff1673ffffffffffffffffffffffffffffffffffffffff16815260200190815260200160002060405180604001604052806009848154811061166557611664612225565b5b90600052602060002001805461167a90612082565b80601f01602080910402602001604051908101604052809291908181526020018280546116a690612082565b80156116f35780601f106116c8576101008083540402835291602001916116f3565b820191906000526020600020905b8154815290600101906020018083116116d657829003601f168201915b505050505081526020016008848154811061171157611710612225565b5b90600052602060002001805461172690612082565b80601f016020809104026020016040519081016040528092919081815260200182805461175290612082565b801561179f5780601f106117745761010080835404028352916020019161179f565b820191906000526020600020905b81548152906001019060200180831161178257829003601f168201915b5050505050815250908060018154018082558091505060019003906000526020600020906002020160009091909190915060008201518160000190816117e5919061255c565b5060208201518160010190816117fb919061255c565b5050506000805b600b8054905081101561189f573373ffffffffffffffffffffffffffffffffffffffff16600b828154811061183a57611839612225565b5b9060005260206000200160000160009054906101000a900473ffffffffffffffffffffffffffffffffffffffff1673ffffffffffffffffffffffffffffffffffffffff160361188c576001915061189f565b8080611897906126a6565b915050611802565b508061193b57600b60405180602001604052803373ffffffffffffffffffffffffffffffffffffffff168152509080600181540180825580915050600190039060005260206000200160009091909190915060008201518160000160006101000a81548173ffffffffffffffffffffffffffffffffffffffff021916908373ffffffffffffffffffffffffffffffffffffffff16021790555050505b5050565b50805461194b90612082565b6000825580601f1061195d575061197c565b601f01602090049060005260206000209081019061197b919061197f565b5b50565b5b80821115611998576000816000905550600101611980565b5090565b6000819050919050565b7f4e487b7100000000000000000000000000000000000000000000000000000000600052601160045260246000fd5b60006119e08261199c565b91506119eb8361199c565b92508282026119f98161199c565b91508282048414831517611a1057611a0f6119a6565b5b5092915050565b6000611a228261199c565b9150611a2d8361199c565b9250828203905081811115611a4557611a446119a6565b5b92915050565b6000611a568261199c565b9150611a618361199c565b9250828201905080821115611a7957611a786119a6565b5b92915050565b600081519050919050565b600082825260208201905092915050565b60005b83811015611ab9578082015181840152602081019050611a9e565b60008484015250505050565b6000601f19601f8301169050919050565b6000611ae182611a7f565b611aeb8185611a8a565b9350611afb818560208601611a9b565b611b0481611ac5565b840191505092915050565b60006020820190508181036000830152611b298184611ad6565b905092915050565b600080fd5b600073ffffffffffffffffffffffffffffffffffffffff82169050919050565b6000611b6182611b36565b9050919050565b611b7181611b56565b8114611b7c57600080fd5b50565b600081359050611b8e81611b68565b92915050565b611b9d8161199c565b8114611ba857600080fd5b50565b600081359050611bba81611b94565b92915050565b60008060408385031215611bd757611bd6611b31565b5b6000611be585828601611b7f565b9250506020611bf685828601611bab565b9150509250929050565b60008115159050919050565b611c1581611c00565b82525050565b6000602082019050611c306000830184611c0c565b92915050565b611c3f8161199c565b82525050565b6000602082019050611c5a6000830184611c36565b92915050565b600080600060608486031215611c7957611c78611b31565b5b6000611c8786828701611b7f565b9350506020611c9886828701611b7f565b9250506040611ca986828701611bab565b9150509250925092565b600060208284031215611cc957611cc8611b31565b5b6000611cd784828501611b7f565b91505092915050565b600081519050919050565b600082825260208201905092915050565b6000819050602082019050919050565b611d1581611b56565b82525050565b602082016000820151611d316000850182611d0c565b50505050565b6000611d438383611d1b565b60208301905092915050565b6000602082019050919050565b6000611d6782611ce0565b611d718185611ceb565b9350611d7c83611cfc565b8060005b83811015611dad578151611d948882611d37565b9750611d9f83611d4f565b925050600181019050611d80565b5085935050505092915050565b60006020820190508181036000830152611dd48184611d5c565b905092915050565b600060ff82169050919050565b611df281611ddc565b82525050565b6000602082019050611e0d6000830184611de9565b92915050565b600060208284031215611e2957611e28611b31565b5b6000611e3784828501611bab565b91505092915050565b611e4981611b56565b82525050565b6000602082019050611e646000830184611e40565b92915050565b600081519050919050565b600082825260208201905092915050565b6000819050602082019050919050565b600082825260208201905092915050565b6000611eb282611a7f565b611ebc8185611e96565b9350611ecc818560208601611a9b565b611ed581611ac5565b840191505092915050565b60006040830160008301518482036000860152611efd8282611ea7565b91505060208301518482036020860152611f178282611ea7565b9150508091505092915050565b6000611f308383611ee0565b905092915050565b6000602082019050919050565b6000611f5082611e6a565b611f5a8185611e75565b935083602082028501611f6c85611e86565b8060005b85811015611fa85784840389528151611f898582611f24565b9450611f9483611f38565b925060208a01995050600181019050611f70565b50829750879550505050505092915050565b60006020820190508181036000830152611fd48184611f45565b905092915050565b60008060408385031215611ff357611ff2611b31565b5b600061200185828601611b7f565b925050602061201285828601611b7f565b9150509250929050565b600060408201905081810360008301526120368185611ad6565b9050818103602083015261204a8184611ad6565b90509392505050565b7f4e487b7100000000000000000000000000000000000000000000000000000000600052602260045260246000fd5b6000600282049050600182168061209a57607f821691505b6020821081036120ad576120ac612053565b5b50919050565b7f6e6f20706f6b656e6d6f6e7320686572652e0000000000000000000000000000600082015250565b60006120e9601283611a8a565b91506120f4826120b3565b602082019050919050565b60006020820190508181036000830152612118816120dc565b9050919050565b6000819050919050565b61213a6121358261199c565b61211f565b82525050565b60008160601b9050919050565b600061215882612140565b9050919050565b600061216a8261214d565b9050919050565b61218261217d82611b56565b61215f565b82525050565b60006121948286612129565b6020820191506121a48285612129565b6020820191506121b48284612171565b601482019150819050949350505050565b7f4e487b7100000000000000000000000000000000000000000000000000000000600052601260045260246000fd5b60006121ff8261199c565b915061220a8361199c565b92508261221a576122196121c5565b5b828206905092915050565b7f4e487b7100000000000000000000000000000000000000000000000000000000600052603260045260246000fd5b60008154905061226381612082565b9050919050565b7f4e487b7100000000000000000000000000000000000000000000000000000000600052604160045260246000fd5b60008190508160005260206000209050919050565b60006020601f8301049050919050565b600082821b905092915050565b6000600883026122fb7fffffffffffffffffffffffffffffffffffffffffffffffffffffffffffffffff826122be565b61230586836122be565b95508019841693508086168417925050509392505050565b6000819050919050565b600061234261233d6123388461199c565b61231d565b61199c565b9050919050565b6000819050919050565b61235c83612327565b61237061236882612349565b8484546122cb565b825550505050565b600090565b612385612378565b612390818484612353565b505050565b5b818110156123b4576123a960008261237d565b600181019050612396565b5050565b601f8211156123f9576123ca81612299565b6123d3846122ae565b810160208510156123e2578190505b6123f66123ee856122ae565b830182612395565b50505b505050565b600082821c905092915050565b600061241c600019846008026123fe565b1980831691505092915050565b6000612435838361240b565b9150826002028217905092915050565b81810361245357505061252b565b61245c82612254565b67ffffffffffffffff8111156124755761247461226a565b5b61247f8254612082565b61248a8282856123b8565b6000601f8311600181146124b957600084156124a7578287015490505b6124b18582612429565b865550612524565b601f1984166124c787612299565b96506124d286612299565b60005b828110156124fa578489015482556001820191506001850194506020810190506124d5565b868310156125175784890154612513601f89168261240b565b8355505b6001600288020188555050505b5050505050505b565b7f4e487b7100000000000000000000000000000000000000000000000000000000600052603160045260246000fd5b61256582611a7f565b67ffffffffffffffff81111561257e5761257d61226a565b5b6125888254612082565b6125938282856123b8565b600060209050601f8311600181146125c657600084156125b4578287015190505b6125be8582612429565b865550612626565b601f1984166125d486612299565b60005b828110156125fc578489015182556001820191506020850194506020810190506125d7565b868310156126195784890151612615601f89168261240b565b8355505b6001600288020188555050505b505050505050565b600061263982611b36565b9050919050565b600061264b8261214d565b9050919050565b61266361265e8261262e565b612640565b82525050565b60006126758286612129565b6020820191506126858285612652565b6014820191506126958284612129565b602082019150819050949350505050565b60006126b18261199c565b91507fffffffffffffffffffffffffffffffffffffffffffffffffffffffffffffffff82036126e3576126e26119a6565b5b60018201905091905056fea2646970667358221220254c8a17470224423ae240f86000267e938b832e37e6c8e0dd3d60e3a287f9aa64736f6c6343000813003368747470733a2f2f692e6e616d752e77696b692f692f776b7748626c3331397343466c5452367074395034416e686175576559743961323851744766353044625232684155725a3768636162647749334b765053484a64364a6f4c4a39505a4d4f4e4e5863644530734f71672e7765627068747470733a2f2f6d626c6f677468756d622d7068696e662e707374617469632e6e65742f32303136303831375f3235392f7265747370655f31343731343131383839303132357343326a5f504e472f2543372543372543342541422543332546325f253238312532392e706e673f747970653d7738303068747470733a2f2f692e6e616d752e77696b692f692f717857336e4f7833634475365547536147544b6d37436b4a6762704935434d4a4849716c6c33594d4148374468434e4a49326536304435764d4f726570526163733453735a48455f6678334a304a664b79344e4e4e512e676966",
					"opcodes": "PUSH1 0x80 PUSH1 0x40 MSTORE PUSH1 0x12 PUSH1 0x2 PUSH1 0x0 PUSH2 0x100 EXP DUP2 SLOAD DUP2 PUSH1 0xFF MUL NOT AND SWAP1 DUP4 PUSH1 0xFF AND MUL OR SWAP1 SSTORE POP PUSH9 0x3635C9ADC5DEA00000 PUSH1 0x7 SSTORE PUSH1 0x40 MLOAD DUP1 PUSH1 0x60 ADD PUSH1 0x40 MSTORE DUP1 PUSH1 0x40 MLOAD DUP1 PUSH1 0x40 ADD PUSH1 0x40 MSTORE DUP1 PUSH1 0x7 DUP2 MSTORE PUSH1 0x20 ADD PUSH32 0x50696B6163687500000000000000000000000000000000000000000000000000 DUP2 MSTORE POP DUP2 MSTORE PUSH1 0x20 ADD PUSH1 0x40 MLOAD DUP1 PUSH1 0x40 ADD PUSH1 0x40 MSTORE DUP1 PUSH1 0x5 DUP2 MSTORE PUSH1 0x20 ADD PUSH32 0x4B6F62756B000000000000000000000000000000000000000000000000000000 DUP2 MSTORE POP DUP2 MSTORE PUSH1 0x20 ADD PUSH1 0x40 MLOAD DUP1 PUSH1 0x40 ADD PUSH1 0x40 MSTORE DUP1 PUSH1 0xA DUP2 MSTORE PUSH1 0x20 ADD PUSH32 0x436861726D616E64657200000000000000000000000000000000000000000000 DUP2 MSTORE POP DUP2 MSTORE POP PUSH1 0x8 SWAP1 PUSH1 0x3 PUSH3 0xF9 SWAP3 SWAP2 SWAP1 PUSH3 0x312 JUMP JUMPDEST POP PUSH1 0x40 MLOAD DUP1 PUSH1 0x60 ADD PUSH1 0x40 MSTORE DUP1 PUSH1 0x40 MLOAD DUP1 PUSH1 0xA0 ADD PUSH1 0x40 MSTORE DUP1 PUSH1 0x78 DUP2 MSTORE PUSH1 0x20 ADD PUSH3 0x315F PUSH1 0x78 SWAP2 CODECOPY DUP2 MSTORE PUSH1 0x20 ADD PUSH1 0x40 MLOAD DUP1 PUSH1 0xA0 ADD PUSH1 0x40 MSTORE DUP1 PUSH1 0x70 DUP2 MSTORE PUSH1 0x20 ADD PUSH3 0x31D7 PUSH1 0x70 SWAP2 CODECOPY DUP2 MSTORE PUSH1 0x20 ADD PUSH1 0x40 MLOAD DUP1 PUSH1 0xA0 ADD PUSH1 0x40 MSTORE DUP1 PUSH1 0x71 DUP2 MSTORE PUSH1 0x20 ADD PUSH3 0x30EE PUSH1 0x71 SWAP2 CODECOPY DUP2 MSTORE POP PUSH1 0x9 SWAP1 PUSH1 0x3 PUSH3 0x172 SWAP3 SWAP2 SWAP1 PUSH3 0x312 JUMP JUMPDEST POP CALLVALUE DUP1 ISZERO PUSH3 0x180 JUMPI PUSH1 0x0 DUP1 REVERT JUMPDEST POP PUSH1 0x40 MLOAD DUP1 PUSH1 0x40 ADD PUSH1 0x40 MSTORE DUP1 PUSH1 0x8 DUP2 MSTORE PUSH1 0x20 ADD PUSH32 0x506F6B656E6D6F6E000000000000000000000000000000000000000000000000 DUP2 MSTORE POP PUSH1 0x40 MLOAD DUP1 PUSH1 0x40 ADD PUSH1 0x40 MSTORE DUP1 PUSH1 0x3 DUP2 MSTORE PUSH1 0x20 ADD PUSH32 0x50544B0000000000000000000000000000000000000000000000000000000000 DUP2 MSTORE POP PUSH2 0x2710 CALLER PUSH1 0x4 PUSH1 0x0 PUSH2 0x100 EXP DUP2 SLOAD DUP2 PUSH20 0xFFFFFFFFFFFFFFFFFFFFFFFFFFFFFFFFFFFFFFFF MUL NOT AND SWAP1 DUP4 PUSH20 0xFFFFFFFFFFFFFFFFFFFFFFFFFFFFFFFFFFFFFFFF AND MUL OR SWAP1 SSTORE POP DUP3 PUSH1 0x0 SWAP1 DUP2 PUSH3 0x242 SWAP2 SWAP1 PUSH3 0x679 JUMP JUMPDEST POP DUP2 PUSH1 0x1 SWAP1 DUP2 PUSH3 0x254 SWAP2 SWAP1 PUSH3 0x679 JUMP JUMPDEST POP PUSH3 0x293 PUSH1 0x2 PUSH1 0x0 SWAP1 SLOAD SWAP1 PUSH2 0x100 EXP SWAP1 DIV PUSH1 0xFF AND PUSH1 0xFF AND PUSH1 0xA PUSH3 0x27A SWAP2 SWAP1 PUSH3 0x8E3 JUMP JUMPDEST DUP3 PUSH3 0x287 SWAP2 SWAP1 PUSH3 0x934 JUMP JUMPDEST PUSH3 0x29C PUSH1 0x20 SHL PUSH1 0x20 SHR JUMP JUMPDEST POP POP POP PUSH3 0x9BA JUMP JUMPDEST DUP1 PUSH1 0x5 PUSH1 0x0 CALLER PUSH20 0xFFFFFFFFFFFFFFFFFFFFFFFFFFFFFFFFFFFFFFFF AND PUSH20 0xFFFFFFFFFFFFFFFFFFFFFFFFFFFFFFFFFFFFFFFF AND DUP2 MSTORE PUSH1 0x20 ADD SWAP1 DUP2 MSTORE PUSH1 0x20 ADD PUSH1 0x0 KECCAK256 PUSH1 0x0 DUP3 DUP3 SLOAD PUSH3 0x2ED SWAP2 SWAP1 PUSH3 0x97F JUMP JUMPDEST SWAP3 POP POP DUP2 SWAP1 SSTORE POP DUP1 PUSH1 0x3 PUSH1 0x0 DUP3 DUP3 SLOAD PUSH3 0x308 SWAP2 SWAP1 PUSH3 0x97F JUMP JUMPDEST SWAP3 POP POP DUP2 SWAP1 SSTORE POP POP JUMP JUMPDEST DUP3 DUP1 SLOAD DUP3 DUP3 SSTORE SWAP1 PUSH1 0x0 MSTORE PUSH1 0x20 PUSH1 0x0 KECCAK256 SWAP1 DUP2 ADD SWAP3 DUP3 ISZERO PUSH3 0x35F JUMPI SWAP2 PUSH1 0x20 MUL DUP3 ADD JUMPDEST DUP3 DUP2 GT ISZERO PUSH3 0x35E JUMPI DUP3 MLOAD DUP3 SWAP1 DUP2 PUSH3 0x34D SWAP2 SWAP1 PUSH3 0x679 JUMP JUMPDEST POP SWAP2 PUSH1 0x20 ADD SWAP2 SWAP1 PUSH1 0x1 ADD SWAP1 PUSH3 0x333 JUMP JUMPDEST JUMPDEST POP SWAP1 POP PUSH3 0x36E SWAP2 SWAP1 PUSH3 0x372 JUMP JUMPDEST POP SWAP1 JUMP JUMPDEST JUMPDEST DUP1 DUP3 GT ISZERO PUSH3 0x396 JUMPI PUSH1 0x0 DUP2 DUP2 PUSH3 0x38C SWAP2 SWAP1 PUSH3 0x39A JUMP JUMPDEST POP PUSH1 0x1 ADD PUSH3 0x373 JUMP JUMPDEST POP SWAP1 JUMP JUMPDEST POP DUP1 SLOAD PUSH3 0x3A8 SWAP1 PUSH3 0x468 JUMP JUMPDEST PUSH1 0x0 DUP3 SSTORE DUP1 PUSH1 0x1F LT PUSH3 0x3BC JUMPI POP PUSH3 0x3DD JUMP JUMPDEST PUSH1 0x1F ADD PUSH1 0x20 SWAP1 DIV SWAP1 PUSH1 0x0 MSTORE PUSH1 0x20 PUSH1 0x0 KECCAK256 SWAP1 DUP2 ADD SWAP1 PUSH3 0x3DC SWAP2 SWAP1 PUSH3 0x3E0 JUMP JUMPDEST JUMPDEST POP JUMP JUMPDEST JUMPDEST DUP1 DUP3 GT ISZERO PUSH3 0x3FB JUMPI PUSH1 0x0 DUP2 PUSH1 0x0 SWAP1 SSTORE POP PUSH1 0x1 ADD PUSH3 0x3E1 JUMP JUMPDEST POP SWAP1 JUMP JUMPDEST PUSH1 0x0 DUP2 MLOAD SWAP1 POP SWAP2 SWAP1 POP JUMP JUMPDEST PUSH32 0x4E487B7100000000000000000000000000000000000000000000000000000000 PUSH1 0x0 MSTORE PUSH1 0x41 PUSH1 0x4 MSTORE PUSH1 0x24 PUSH1 0x0 REVERT JUMPDEST PUSH32 0x4E487B7100000000000000000000000000000000000000000000000000000000 PUSH1 0x0 MSTORE PUSH1 0x22 PUSH1 0x4 MSTORE PUSH1 0x24 PUSH1 0x0 REVERT JUMPDEST PUSH1 0x0 PUSH1 0x2 DUP3 DIV SWAP1 POP PUSH1 0x1 DUP3 AND DUP1 PUSH3 0x481 JUMPI PUSH1 0x7F DUP3 AND SWAP2 POP JUMPDEST PUSH1 0x20 DUP3 LT DUP2 SUB PUSH3 0x497 JUMPI PUSH3 0x496 PUSH3 0x439 JUMP JUMPDEST JUMPDEST POP SWAP2 SWAP1 POP JUMP JUMPDEST PUSH1 0x0 DUP2 SWAP1 POP DUP2 PUSH1 0x0 MSTORE PUSH1 0x20 PUSH1 0x0 KECCAK256 SWAP1 POP SWAP2 SWAP1 POP JUMP JUMPDEST PUSH1 0x0 PUSH1 0x20 PUSH1 0x1F DUP4 ADD DIV SWAP1 POP SWAP2 SWAP1 POP JUMP JUMPDEST PUSH1 0x0 DUP3 DUP3 SHL SWAP1 POP SWAP3 SWAP2 POP POP JUMP JUMPDEST PUSH1 0x0 PUSH1 0x8 DUP4 MUL PUSH3 0x501 PUSH32 0xFFFFFFFFFFFFFFFFFFFFFFFFFFFFFFFFFFFFFFFFFFFFFFFFFFFFFFFFFFFFFFFF DUP3 PUSH3 0x4C2 JUMP JUMPDEST PUSH3 0x50D DUP7 DUP4 PUSH3 0x4C2 JUMP JUMPDEST SWAP6 POP DUP1 NOT DUP5 AND SWAP4 POP DUP1 DUP7 AND DUP5 OR SWAP3 POP POP POP SWAP4 SWAP3 POP POP POP JUMP JUMPDEST PUSH1 0x0 DUP2 SWAP1 POP SWAP2 SWAP1 POP JUMP JUMPDEST PUSH1 0x0 DUP2 SWAP1 POP SWAP2 SWAP1 POP JUMP JUMPDEST PUSH1 0x0 PUSH3 0x55A PUSH3 0x554 PUSH3 0x54E DUP5 PUSH3 0x525 JUMP JUMPDEST PUSH3 0x52F JUMP JUMPDEST PUSH3 0x525 JUMP JUMPDEST SWAP1 POP SWAP2 SWAP1 POP JUMP JUMPDEST PUSH1 0x0 DUP2 SWAP1 POP SWAP2 SWAP1 POP JUMP JUMPDEST PUSH3 0x576 DUP4 PUSH3 0x539 JUMP JUMPDEST PUSH3 0x58E PUSH3 0x585 DUP3 PUSH3 0x561 JUMP JUMPDEST DUP5 DUP5 SLOAD PUSH3 0x4CF JUMP JUMPDEST DUP3 SSTORE POP POP POP POP JUMP JUMPDEST PUSH1 0x0 SWAP1 JUMP JUMPDEST PUSH3 0x5A5 PUSH3 0x596 JUMP JUMPDEST PUSH3 0x5B2 DUP2 DUP5 DUP5 PUSH3 0x56B JUMP JUMPDEST POP POP POP JUMP JUMPDEST JUMPDEST DUP2 DUP2 LT ISZERO PUSH3 0x5DA JUMPI PUSH3 0x5CE PUSH1 0x0 DUP3 PUSH3 0x59B JUMP JUMPDEST PUSH1 0x1 DUP2 ADD SWAP1 POP PUSH3 0x5B8 JUMP JUMPDEST POP POP JUMP JUMPDEST PUSH1 0x1F DUP3 GT ISZERO PUSH3 0x629 JUMPI PUSH3 0x5F3 DUP2 PUSH3 0x49D JUMP JUMPDEST PUSH3 0x5FE DUP5 PUSH3 0x4B2 JUMP JUMPDEST DUP2 ADD PUSH1 0x20 DUP6 LT ISZERO PUSH3 0x60E JUMPI DUP2 SWAP1 POP JUMPDEST PUSH3 0x626 PUSH3 0x61D DUP6 PUSH3 0x4B2 JUMP JUMPDEST DUP4 ADD DUP3 PUSH3 0x5B7 JUMP JUMPDEST POP POP JUMPDEST POP POP POP JUMP JUMPDEST PUSH1 0x0 DUP3 DUP3 SHR SWAP1 POP SWAP3 SWAP2 POP POP JUMP JUMPDEST PUSH1 0x0 PUSH3 0x64E PUSH1 0x0 NOT DUP5 PUSH1 0x8 MUL PUSH3 0x62E JUMP JUMPDEST NOT DUP1 DUP4 AND SWAP2 POP POP SWAP3 SWAP2 POP POP JUMP JUMPDEST PUSH1 0x0 PUSH3 0x669 DUP4 DUP4 PUSH3 0x63B JUMP JUMPDEST SWAP2 POP DUP3 PUSH1 0x2 MUL DUP3 OR SWAP1 POP SWAP3 SWAP2 POP POP JUMP JUMPDEST PUSH3 0x684 DUP3 PUSH3 0x3FF JUMP JUMPDEST PUSH8 0xFFFFFFFFFFFFFFFF DUP2 GT ISZERO PUSH3 0x6A0 JUMPI PUSH3 0x69F PUSH3 0x40A JUMP JUMPDEST JUMPDEST PUSH3 0x6AC DUP3 SLOAD PUSH3 0x468 JUMP JUMPDEST PUSH3 0x6B9 DUP3 DUP3 DUP6 PUSH3 0x5DE JUMP JUMPDEST PUSH1 0x0 PUSH1 0x20 SWAP1 POP PUSH1 0x1F DUP4 GT PUSH1 0x1 DUP2 EQ PUSH3 0x6F1 JUMPI PUSH1 0x0 DUP5 ISZERO PUSH3 0x6DC JUMPI DUP3 DUP8 ADD MLOAD SWAP1 POP JUMPDEST PUSH3 0x6E8 DUP6 DUP3 PUSH3 0x65B JUMP JUMPDEST DUP7 SSTORE POP PUSH3 0x758 JUMP JUMPDEST PUSH1 0x1F NOT DUP5 AND PUSH3 0x701 DUP7 PUSH3 0x49D JUMP JUMPDEST PUSH1 0x0 JUMPDEST DUP3 DUP2 LT ISZERO PUSH3 0x72B JUMPI DUP5 DUP10 ADD MLOAD DUP3 SSTORE PUSH1 0x1 DUP3 ADD SWAP2 POP PUSH1 0x20 DUP6 ADD SWAP5 POP PUSH1 0x20 DUP2 ADD SWAP1 POP PUSH3 0x704 JUMP JUMPDEST DUP7 DUP4 LT ISZERO PUSH3 0x74B JUMPI DUP5 DUP10 ADD MLOAD PUSH3 0x747 PUSH1 0x1F DUP10 AND DUP3 PUSH3 0x63B JUMP JUMPDEST DUP4 SSTORE POP JUMPDEST PUSH1 0x1 PUSH1 0x2 DUP9 MUL ADD DUP9 SSTORE POP POP POP JUMPDEST POP POP POP POP POP POP JUMP JUMPDEST PUSH32 0x4E487B7100000000000000000000000000000000000000000000000000000000 PUSH1 0x0 MSTORE PUSH1 0x11 PUSH1 0x4 MSTORE PUSH1 0x24 PUSH1 0x0 REVERT JUMPDEST PUSH1 0x0 DUP2 PUSH1 0x1 SHR SWAP1 POP SWAP2 SWAP1 POP JUMP JUMPDEST PUSH1 0x0 DUP1 DUP3 SWAP2 POP DUP4 SWAP1 POP JUMPDEST PUSH1 0x1 DUP6 GT ISZERO PUSH3 0x7EE JUMPI DUP1 DUP7 DIV DUP2 GT ISZERO PUSH3 0x7C6 JUMPI PUSH3 0x7C5 PUSH3 0x760 JUMP JUMPDEST JUMPDEST PUSH1 0x1 DUP6 AND ISZERO PUSH3 0x7D6 JUMPI DUP1 DUP3 MUL SWAP2 POP JUMPDEST DUP1 DUP2 MUL SWAP1 POP PUSH3 0x7E6 DUP6 PUSH3 0x78F JUMP JUMPDEST SWAP5 POP PUSH3 0x7A6 JUMP JUMPDEST SWAP5 POP SWAP5 SWAP3 POP POP POP JUMP JUMPDEST PUSH1 0x0 DUP3 PUSH3 0x809 JUMPI PUSH1 0x1 SWAP1 POP PUSH3 0x8DC JUMP JUMPDEST DUP2 PUSH3 0x819 JUMPI PUSH1 0x0 SWAP1 POP PUSH3 0x8DC JUMP JUMPDEST DUP2 PUSH1 0x1 DUP2 EQ PUSH3 0x832 JUMPI PUSH1 0x2 DUP2 EQ PUSH3 0x83D JUMPI PUSH3 0x873 JUMP JUMPDEST PUSH1 0x1 SWAP2 POP POP PUSH3 0x8DC JUMP JUMPDEST PUSH1 0xFF DUP5 GT ISZERO PUSH3 0x852 JUMPI PUSH3 0x851 PUSH3 0x760 JUMP JUMPDEST JUMPDEST DUP4 PUSH1 0x2 EXP SWAP2 POP DUP5 DUP3 GT ISZERO PUSH3 0x86C JUMPI PUSH3 0x86B PUSH3 0x760 JUMP JUMPDEST JUMPDEST POP PUSH3 0x8DC JUMP JUMPDEST POP PUSH1 0x20 DUP4 LT PUSH2 0x133 DUP4 LT AND PUSH1 0x4E DUP5 LT PUSH1 0xB DUP5 LT AND OR ISZERO PUSH3 0x8AD JUMPI DUP3 DUP3 EXP SWAP1 POP DUP4 DUP2 GT ISZERO PUSH3 0x8A7 JUMPI PUSH3 0x8A6 PUSH3 0x760 JUMP JUMPDEST JUMPDEST PUSH3 0x8DC JUMP JUMPDEST PUSH3 0x8BC DUP5 DUP5 DUP5 PUSH1 0x1 PUSH3 0x79C JUMP JUMPDEST SWAP3 POP SWAP1 POP DUP2 DUP5 DIV DUP2 GT ISZERO PUSH3 0x8D6 JUMPI PUSH3 0x8D5 PUSH3 0x760 JUMP JUMPDEST JUMPDEST DUP2 DUP2 MUL SWAP1 POP JUMPDEST SWAP4 SWAP3 POP POP POP JUMP JUMPDEST PUSH1 0x0 PUSH3 0x8F0 DUP3 PUSH3 0x525 JUMP JUMPDEST SWAP2 POP PUSH3 0x8FD DUP4 PUSH3 0x525 JUMP JUMPDEST SWAP3 POP PUSH3 0x92C PUSH32 0xFFFFFFFFFFFFFFFFFFFFFFFFFFFFFFFFFFFFFFFFFFFFFFFFFFFFFFFFFFFFFFFF DUP5 DUP5 PUSH3 0x7F7 JUMP JUMPDEST SWAP1 POP SWAP3 SWAP2 POP POP JUMP JUMPDEST PUSH1 0x0 PUSH3 0x941 DUP3 PUSH3 0x525 JUMP JUMPDEST SWAP2 POP PUSH3 0x94E DUP4 PUSH3 0x525 JUMP JUMPDEST SWAP3 POP DUP3 DUP3 MUL PUSH3 0x95E DUP2 PUSH3 0x525 JUMP JUMPDEST SWAP2 POP DUP3 DUP3 DIV DUP5 EQ DUP4 ISZERO OR PUSH3 0x978 JUMPI PUSH3 0x977 PUSH3 0x760 JUMP JUMPDEST JUMPDEST POP SWAP3 SWAP2 POP POP JUMP JUMPDEST PUSH1 0x0 PUSH3 0x98C DUP3 PUSH3 0x525 JUMP JUMPDEST SWAP2 POP PUSH3 0x999 DUP4 PUSH3 0x525 JUMP JUMPDEST SWAP3 POP DUP3 DUP3 ADD SWAP1 POP DUP1 DUP3 GT ISZERO PUSH3 0x9B4 JUMPI PUSH3 0x9B3 PUSH3 0x760 JUMP JUMPDEST JUMPDEST SWAP3 SWAP2 POP POP JUMP JUMPDEST PUSH2 0x2724 DUP1 PUSH3 0x9CA PUSH1 0x0 CODECOPY PUSH1 0x0 RETURN INVALID PUSH1 0x80 PUSH1 0x40 MSTORE PUSH1 0x4 CALLDATASIZE LT PUSH2 0x102 JUMPI PUSH1 0x0 CALLDATALOAD PUSH1 0xE0 SHR DUP1 PUSH4 0x42966C68 GT PUSH2 0x95 JUMPI DUP1 PUSH4 0xA9059CBB GT PUSH2 0x64 JUMPI DUP1 PUSH4 0xA9059CBB EQ PUSH2 0x516 JUMPI DUP1 PUSH4 0xDD62ED3E EQ PUSH2 0x553 JUMPI DUP1 PUSH4 0xE3E2940F EQ PUSH2 0x590 JUMPI DUP1 PUSH4 0xEFA9FBC5 EQ PUSH2 0x5B9 JUMPI DUP1 PUSH4 0xF5BF26FC EQ PUSH2 0x5F7 JUMPI PUSH2 0x2B5 JUMP JUMPDEST DUP1 PUSH4 0x42966C68 EQ PUSH2 0x45A JUMPI DUP1 PUSH4 0x70A08231 EQ PUSH2 0x483 JUMPI DUP1 PUSH4 0x78196CBC EQ PUSH2 0x4C0 JUMPI DUP1 PUSH4 0x95D89B41 EQ PUSH2 0x4EB JUMPI PUSH2 0x2B5 JUMP JUMPDEST DUP1 PUSH4 0x27E235E3 GT PUSH2 0xD1 JUMPI DUP1 PUSH4 0x27E235E3 EQ PUSH2 0x38A JUMPI DUP1 PUSH4 0x2E7099A7 EQ PUSH2 0x3C7 JUMPI DUP1 PUSH4 0x313CE567 EQ PUSH2 0x3F2 JUMPI DUP1 PUSH4 0x365B98B2 EQ PUSH2 0x41D JUMPI PUSH2 0x2B5 JUMP JUMPDEST DUP1 PUSH4 0x6FDDE03 EQ PUSH2 0x2BA JUMPI DUP1 PUSH4 0x95EA7B3 EQ PUSH2 0x2E5 JUMPI DUP1 PUSH4 0x18160DDD EQ PUSH2 0x322 JUMPI DUP1 PUSH4 0x23B872DD EQ PUSH2 0x34D JUMPI PUSH2 0x2B5 JUMP JUMPDEST CALLDATASIZE PUSH2 0x2B5 JUMPI PUSH1 0x0 PUSH1 0xC8 CALLVALUE PUSH2 0x116 SWAP2 SWAP1 PUSH2 0x19D5 JUMP JUMPDEST SWAP1 POP DUP1 PUSH1 0x5 PUSH1 0x0 PUSH1 0x4 PUSH1 0x0 SWAP1 SLOAD SWAP1 PUSH2 0x100 EXP SWAP1 DIV PUSH20 0xFFFFFFFFFFFFFFFFFFFFFFFFFFFFFFFFFFFFFFFF AND PUSH20 0xFFFFFFFFFFFFFFFFFFFFFFFFFFFFFFFFFFFFFFFF AND PUSH20 0xFFFFFFFFFFFFFFFFFFFFFFFFFFFFFFFFFFFFFFFF AND DUP2 MSTORE PUSH1 0x20 ADD SWAP1 DUP2 MSTORE PUSH1 0x20 ADD PUSH1 0x0 KECCAK256 SLOAD LT ISZERO PUSH2 0x186 JUMPI PUSH1 0x0 DUP1 REVERT JUMPDEST DUP1 PUSH1 0x5 PUSH1 0x0 PUSH1 0x4 PUSH1 0x0 SWAP1 SLOAD SWAP1 PUSH2 0x100 EXP SWAP1 DIV PUSH20 0xFFFFFFFFFFFFFFFFFFFFFFFFFFFFFFFFFFFFFFFF AND PUSH20 0xFFFFFFFFFFFFFFFFFFFFFFFFFFFFFFFFFFFFFFFF AND PUSH20 0xFFFFFFFFFFFFFFFFFFFFFFFFFFFFFFFFFFFFFFFF AND DUP2 MSTORE PUSH1 0x20 ADD SWAP1 DUP2 MSTORE PUSH1 0x20 ADD PUSH1 0x0 KECCAK256 PUSH1 0x0 DUP3 DUP3 SLOAD PUSH2 0x1F7 SWAP2 SWAP1 PUSH2 0x1A17 JUMP JUMPDEST SWAP3 POP POP DUP2 SWAP1 SSTORE POP DUP1 PUSH1 0x5 PUSH1 0x0 CALLER PUSH20 0xFFFFFFFFFFFFFFFFFFFFFFFFFFFFFFFFFFFFFFFF AND PUSH20 0xFFFFFFFFFFFFFFFFFFFFFFFFFFFFFFFFFFFFFFFF AND DUP2 MSTORE PUSH1 0x20 ADD SWAP1 DUP2 MSTORE PUSH1 0x20 ADD PUSH1 0x0 KECCAK256 PUSH1 0x0 DUP3 DUP3 SLOAD PUSH2 0x24D SWAP2 SWAP1 PUSH2 0x1A4B JUMP JUMPDEST SWAP3 POP POP DUP2 SWAP1 SSTORE POP PUSH1 0x4 PUSH1 0x0 SWAP1 SLOAD SWAP1 PUSH2 0x100 EXP SWAP1 DIV PUSH20 0xFFFFFFFFFFFFFFFFFFFFFFFFFFFFFFFFFFFFFFFF AND PUSH20 0xFFFFFFFFFFFFFFFFFFFFFFFFFFFFFFFFFFFFFFFF AND CALLER PUSH20 0xFFFFFFFFFFFFFFFFFFFFFFFFFFFFFFFFFFFFFFFF AND SUB PUSH2 0x2B3 JUMPI PUSH2 0x2B2 DUP2 PUSH2 0x60E JUMP JUMPDEST JUMPDEST STOP JUMPDEST PUSH1 0x0 DUP1 REVERT JUMPDEST CALLVALUE DUP1 ISZERO PUSH2 0x2C6 JUMPI PUSH1 0x0 DUP1 REVERT JUMPDEST POP PUSH2 0x2CF PUSH2 0x680 JUMP JUMPDEST PUSH1 0x40 MLOAD PUSH2 0x2DC SWAP2 SWAP1 PUSH2 0x1B0F JUMP JUMPDEST PUSH1 0x40 MLOAD DUP1 SWAP2 SUB SWAP1 RETURN JUMPDEST CALLVALUE DUP1 ISZERO PUSH2 0x2F1 JUMPI PUSH1 0x0 DUP1 REVERT JUMPDEST POP PUSH2 0x30C PUSH1 0x4 DUP1 CALLDATASIZE SUB DUP2 ADD SWAP1 PUSH2 0x307 SWAP2 SWAP1 PUSH2 0x1BC0 JUMP JUMPDEST PUSH2 0x70E JUMP JUMPDEST PUSH1 0x40 MLOAD PUSH2 0x319 SWAP2 SWAP1 PUSH2 0x1C1B JUMP JUMPDEST PUSH1 0x40 MLOAD DUP1 SWAP2 SUB SWAP1 RETURN JUMPDEST CALLVALUE DUP1 ISZERO PUSH2 0x32E JUMPI PUSH1 0x0 DUP1 REVERT JUMPDEST POP PUSH2 0x337 PUSH2 0x79B JUMP JUMPDEST PUSH1 0x40 MLOAD PUSH2 0x344 SWAP2 SWAP1 PUSH2 0x1C45 JUMP JUMPDEST PUSH1 0x40 MLOAD DUP1 SWAP2 SUB SWAP1 RETURN JUMPDEST CALLVALUE DUP1 ISZERO PUSH2 0x359 JUMPI PUSH1 0x0 DUP1 REVERT JUMPDEST POP PUSH2 0x374 PUSH1 0x4 DUP1 CALLDATASIZE SUB DUP2 ADD SWAP1 PUSH2 0x36F SWAP2 SWAP1 PUSH2 0x1C60 JUMP JUMPDEST PUSH2 0x7A1 JUMP JUMPDEST PUSH1 0x40 MLOAD PUSH2 0x381 SWAP2 SWAP1 PUSH2 0x1C1B JUMP JUMPDEST PUSH1 0x40 MLOAD DUP1 SWAP2 SUB SWAP1 RETURN JUMPDEST CALLVALUE DUP1 ISZERO PUSH2 0x396 JUMPI PUSH1 0x0 DUP1 REVERT JUMPDEST POP PUSH2 0x3B1 PUSH1 0x4 DUP1 CALLDATASIZE SUB DUP2 ADD SWAP1 PUSH2 0x3AC SWAP2 SWAP1 PUSH2 0x1CB3 JUMP JUMPDEST PUSH2 0x972 JUMP JUMPDEST PUSH1 0x40 MLOAD PUSH2 0x3BE SWAP2 SWAP1 PUSH2 0x1C45 JUMP JUMPDEST PUSH1 0x40 MLOAD DUP1 SWAP2 SUB SWAP1 RETURN JUMPDEST CALLVALUE DUP1 ISZERO PUSH2 0x3D3 JUMPI PUSH1 0x0 DUP1 REVERT JUMPDEST POP PUSH2 0x3DC PUSH2 0x98A JUMP JUMPDEST PUSH1 0x40 MLOAD PUSH2 0x3E9 SWAP2 SWAP1 PUSH2 0x1DBA JUMP JUMPDEST PUSH1 0x40 MLOAD DUP1 SWAP2 SUB SWAP1 RETURN JUMPDEST CALLVALUE DUP1 ISZERO PUSH2 0x3FE JUMPI PUSH1 0x0 DUP1 REVERT JUMPDEST POP PUSH2 0x407 PUSH2 0xA3B JUMP JUMPDEST PUSH1 0x40 MLOAD PUSH2 0x414 SWAP2 SWAP1 PUSH2 0x1DF8 JUMP JUMPDEST PUSH1 0x40 MLOAD DUP1 SWAP2 SUB SWAP1 RETURN JUMPDEST CALLVALUE DUP1 ISZERO PUSH2 0x429 JUMPI PUSH1 0x0 DUP1 REVERT JUMPDEST POP PUSH2 0x444 PUSH1 0x4 DUP1 CALLDATASIZE SUB DUP2 ADD SWAP1 PUSH2 0x43F SWAP2 SWAP1 PUSH2 0x1E13 JUMP JUMPDEST PUSH2 0xA4E JUMP JUMPDEST PUSH1 0x40 MLOAD PUSH2 0x451 SWAP2 SWAP1 PUSH2 0x1E4F JUMP JUMPDEST PUSH1 0x40 MLOAD DUP1 SWAP2 SUB SWAP1 RETURN JUMPDEST CALLVALUE DUP1 ISZERO PUSH2 0x466 JUMPI PUSH1 0x0 DUP1 REVERT JUMPDEST POP PUSH2 0x481 PUSH1 0x4 DUP1 CALLDATASIZE SUB DUP2 ADD SWAP1 PUSH2 0x47C SWAP2 SWAP1 PUSH2 0x1E13 JUMP JUMPDEST PUSH2 0xA98 JUMP JUMPDEST STOP JUMPDEST CALLVALUE DUP1 ISZERO PUSH2 0x48F JUMPI PUSH1 0x0 DUP1 REVERT JUMPDEST POP PUSH2 0x4AA PUSH1 0x4 DUP1 CALLDATASIZE SUB DUP2 ADD SWAP1 PUSH2 0x4A5 SWAP2 SWAP1 PUSH2 0x1CB3 JUMP JUMPDEST PUSH2 0xB0A JUMP JUMPDEST PUSH1 0x40 MLOAD PUSH2 0x4B7 SWAP2 SWAP1 PUSH2 0x1C45 JUMP JUMPDEST PUSH1 0x40 MLOAD DUP1 SWAP2 SUB SWAP1 RETURN JUMPDEST CALLVALUE DUP1 ISZERO PUSH2 0x4CC JUMPI PUSH1 0x0 DUP1 REVERT JUMPDEST POP PUSH2 0x4D5 PUSH2 0xB53 JUMP JUMPDEST PUSH1 0x40 MLOAD PUSH2 0x4E2 SWAP2 SWAP1 PUSH2 0x1FBA JUMP JUMPDEST PUSH1 0x40 MLOAD DUP1 SWAP2 SUB SWAP1 RETURN JUMPDEST CALLVALUE DUP1 ISZERO PUSH2 0x4F7 JUMPI PUSH1 0x0 DUP1 REVERT JUMPDEST POP PUSH2 0x500 PUSH2 0xD13 JUMP JUMPDEST PUSH1 0x40 MLOAD PUSH2 0x50D SWAP2 SWAP1 PUSH2 0x1B0F JUMP JUMPDEST PUSH1 0x40 MLOAD DUP1 SWAP2 SUB SWAP1 RETURN JUMPDEST CALLVALUE DUP1 ISZERO PUSH2 0x522 JUMPI PUSH1 0x0 DUP1 REVERT JUMPDEST POP PUSH2 0x53D PUSH1 0x4 DUP1 CALLDATASIZE SUB DUP2 ADD SWAP1 PUSH2 0x538 SWAP2 SWAP1 PUSH2 0x1BC0 JUMP JUMPDEST PUSH2 0xDA1 JUMP JUMPDEST PUSH1 0x40 MLOAD PUSH2 0x54A SWAP2 SWAP1 PUSH2 0x1C1B JUMP JUMPDEST PUSH1 0x40 MLOAD DUP1 SWAP2 SUB SWAP1 RETURN JUMPDEST CALLVALUE DUP1 ISZERO PUSH2 0x55F JUMPI PUSH1 0x0 DUP1 REVERT JUMPDEST POP PUSH2 0x57A PUSH1 0x4 DUP1 CALLDATASIZE SUB DUP2 ADD SWAP1 PUSH2 0x575 SWAP2 SWAP1 PUSH2 0x1FDC JUMP JUMPDEST PUSH2 0xE45 JUMP JUMPDEST PUSH1 0x40 MLOAD PUSH2 0x587 SWAP2 SWAP1 PUSH2 0x1C45 JUMP JUMPDEST PUSH1 0x40 MLOAD DUP1 SWAP2 SUB SWAP1 RETURN JUMPDEST CALLVALUE DUP1 ISZERO PUSH2 0x59C JUMPI PUSH1 0x0 DUP1 REVERT JUMPDEST POP PUSH2 0x5B7 PUSH1 0x4 DUP1 CALLDATASIZE SUB DUP2 ADD SWAP1 PUSH2 0x5B2 SWAP2 SWAP1 PUSH2 0x1CB3 JUMP JUMPDEST PUSH2 0xE6A JUMP JUMPDEST STOP JUMPDEST CALLVALUE DUP1 ISZERO PUSH2 0x5C5 JUMPI PUSH1 0x0 DUP1 REVERT JUMPDEST POP PUSH2 0x5E0 PUSH1 0x4 DUP1 CALLDATASIZE SUB DUP2 ADD SWAP1 PUSH2 0x5DB SWAP2 SWAP1 PUSH2 0x1BC0 JUMP JUMPDEST PUSH2 0x13B4 JUMP JUMPDEST PUSH1 0x40 MLOAD PUSH2 0x5EE SWAP3 SWAP2 SWAP1 PUSH2 0x201C JUMP JUMPDEST PUSH1 0x40 MLOAD DUP1 SWAP2 SUB SWAP1 RETURN JUMPDEST CALLVALUE DUP1 ISZERO PUSH2 0x603 JUMPI PUSH1 0x0 DUP1 REVERT JUMPDEST POP PUSH2 0x60C PUSH2 0x1505 JUMP JUMPDEST STOP JUMPDEST DUP1 PUSH1 0x5 PUSH1 0x0 CALLER PUSH20 0xFFFFFFFFFFFFFFFFFFFFFFFFFFFFFFFFFFFFFFFF AND PUSH20 0xFFFFFFFFFFFFFFFFFFFFFFFFFFFFFFFFFFFFFFFF AND DUP2 MSTORE PUSH1 0x20 ADD SWAP1 DUP2 MSTORE PUSH1 0x20 ADD PUSH1 0x0 KECCAK256 PUSH1 0x0 DUP3 DUP3 SLOAD PUSH2 0x65D SWAP2 SWAP1 PUSH2 0x1A4B JUMP JUMPDEST SWAP3 POP POP DUP2 SWAP1 SSTORE POP DUP1 PUSH1 0x3 PUSH1 0x0 DUP3 DUP3 SLOAD PUSH2 0x676 SWAP2 SWAP1 PUSH2 0x1A4B JUMP JUMPDEST SWAP3 POP POP DUP2 SWAP1 SSTORE POP POP JUMP JUMPDEST PUSH1 0x0 DUP1 SLOAD PUSH2 0x68D SWAP1 PUSH2 0x2082 JUMP JUMPDEST DUP1 PUSH1 0x1F ADD PUSH1 0x20 DUP1 SWAP2 DIV MUL PUSH1 0x20 ADD PUSH1 0x40 MLOAD SWAP1 DUP2 ADD PUSH1 0x40 MSTORE DUP1 SWAP3 SWAP2 SWAP1 DUP2 DUP2 MSTORE PUSH1 0x20 ADD DUP3 DUP1 SLOAD PUSH2 0x6B9 SWAP1 PUSH2 0x2082 JUMP JUMPDEST DUP1 ISZERO PUSH2 0x706 JUMPI DUP1 PUSH1 0x1F LT PUSH2 0x6DB JUMPI PUSH2 0x100 DUP1 DUP4 SLOAD DIV MUL DUP4 MSTORE SWAP2 PUSH1 0x20 ADD SWAP2 PUSH2 0x706 JUMP JUMPDEST DUP3 ADD SWAP2 SWAP1 PUSH1 0x0 MSTORE PUSH1 0x20 PUSH1 0x0 KECCAK256 SWAP1 JUMPDEST DUP2 SLOAD DUP2 MSTORE SWAP1 PUSH1 0x1 ADD SWAP1 PUSH1 0x20 ADD DUP1 DUP4 GT PUSH2 0x6E9 JUMPI DUP3 SWAP1 SUB PUSH1 0x1F AND DUP3 ADD SWAP2 JUMPDEST POP POP POP POP POP DUP2 JUMP JUMPDEST PUSH1 0x0 DUP2 PUSH1 0x6 PUSH1 0x0 CALLER PUSH20 0xFFFFFFFFFFFFFFFFFFFFFFFFFFFFFFFFFFFFFFFF AND PUSH20 0xFFFFFFFFFFFFFFFFFFFFFFFFFFFFFFFFFFFFFFFF AND DUP2 MSTORE PUSH1 0x20 ADD SWAP1 DUP2 MSTORE PUSH1 0x20 ADD PUSH1 0x0 KECCAK256 PUSH1 0x0 DUP6 PUSH20 0xFFFFFFFFFFFFFFFFFFFFFFFFFFFFFFFFFFFFFFFF AND PUSH20 0xFFFFFFFFFFFFFFFFFFFFFFFFFFFFFFFFFFFFFFFF AND DUP2 MSTORE PUSH1 0x20 ADD SWAP1 DUP2 MSTORE PUSH1 0x20 ADD PUSH1 0x0 KECCAK256 DUP2 SWAP1 SSTORE POP PUSH1 0x1 SWAP1 POP SWAP3 SWAP2 POP POP JUMP JUMPDEST PUSH1 0x3 SLOAD DUP2 JUMP JUMPDEST PUSH1 0x0 DUP2 PUSH1 0x6 PUSH1 0x0 DUP7 PUSH20 0xFFFFFFFFFFFFFFFFFFFFFFFFFFFFFFFFFFFFFFFF AND PUSH20 0xFFFFFFFFFFFFFFFFFFFFFFFFFFFFFFFFFFFFFFFF AND DUP2 MSTORE PUSH1 0x20 ADD SWAP1 DUP2 MSTORE PUSH1 0x20 ADD PUSH1 0x0 KECCAK256 PUSH1 0x0 CALLER PUSH20 0xFFFFFFFFFFFFFFFFFFFFFFFFFFFFFFFFFFFFFFFF AND PUSH20 0xFFFFFFFFFFFFFFFFFFFFFFFFFFFFFFFFFFFFFFFF AND DUP2 MSTORE PUSH1 0x20 ADD SWAP1 DUP2 MSTORE PUSH1 0x20 ADD PUSH1 0x0 KECCAK256 SLOAD LT ISZERO PUSH2 0x82C JUMPI PUSH1 0x0 DUP1 REVERT JUMPDEST DUP2 PUSH1 0x6 PUSH1 0x0 DUP7 PUSH20 0xFFFFFFFFFFFFFFFFFFFFFFFFFFFFFFFFFFFFFFFF AND PUSH20 0xFFFFFFFFFFFFFFFFFFFFFFFFFFFFFFFFFFFFFFFF AND DUP2 MSTORE PUSH1 0x20 ADD SWAP1 DUP2 MSTORE PUSH1 0x20 ADD PUSH1 0x0 KECCAK256 PUSH1 0x0 CALLER PUSH20 0xFFFFFFFFFFFFFFFFFFFFFFFFFFFFFFFFFFFFFFFF AND PUSH20 0xFFFFFFFFFFFFFFFFFFFFFFFFFFFFFFFFFFFFFFFF AND DUP2 MSTORE PUSH1 0x20 ADD SWAP1 DUP2 MSTORE PUSH1 0x20 ADD PUSH1 0x0 KECCAK256 PUSH1 0x0 DUP3 DUP3 SLOAD PUSH2 0x8B8 SWAP2 SWAP1 PUSH2 0x1A17 JUMP JUMPDEST SWAP3 POP POP DUP2 SWAP1 SSTORE POP DUP2 PUSH1 0x5 PUSH1 0x0 DUP7 PUSH20 0xFFFFFFFFFFFFFFFFFFFFFFFFFFFFFFFFFFFFFFFF AND PUSH20 0xFFFFFFFFFFFFFFFFFFFFFFFFFFFFFFFFFFFFFFFF AND DUP2 MSTORE PUSH1 0x20 ADD SWAP1 DUP2 MSTORE PUSH1 0x20 ADD PUSH1 0x0 KECCAK256 PUSH1 0x0 DUP3 DUP3 SLOAD PUSH2 0x90E SWAP2 SWAP1 PUSH2 0x1A17 JUMP JUMPDEST SWAP3 POP POP DUP2 SWAP1 SSTORE POP DUP2 PUSH1 0x5 PUSH1 0x0 DUP6 PUSH20 0xFFFFFFFFFFFFFFFFFFFFFFFFFFFFFFFFFFFFFFFF AND PUSH20 0xFFFFFFFFFFFFFFFFFFFFFFFFFFFFFFFFFFFFFFFF AND DUP2 MSTORE PUSH1 0x20 ADD SWAP1 DUP2 MSTORE PUSH1 0x20 ADD PUSH1 0x0 KECCAK256 PUSH1 0x0 DUP3 DUP3 SLOAD PUSH2 0x964 SWAP2 SWAP1 PUSH2 0x1A4B JUMP JUMPDEST SWAP3 POP POP DUP2 SWAP1 SSTORE POP SWAP4 SWAP3 POP POP POP JUMP JUMPDEST PUSH1 0x5 PUSH1 0x20 MSTORE DUP1 PUSH1 0x0 MSTORE PUSH1 0x40 PUSH1 0x0 KECCAK256 PUSH1 0x0 SWAP2 POP SWAP1 POP SLOAD DUP2 JUMP JUMPDEST PUSH1 0x60 PUSH1 0xB DUP1 SLOAD DUP1 PUSH1 0x20 MUL PUSH1 0x20 ADD PUSH1 0x40 MLOAD SWAP1 DUP2 ADD PUSH1 0x40 MSTORE DUP1 SWAP3 SWAP2 SWAP1 DUP2 DUP2 MSTORE PUSH1 0x20 ADD PUSH1 0x0 SWAP1 JUMPDEST DUP3 DUP3 LT ISZERO PUSH2 0xA32 JUMPI DUP4 DUP3 SWAP1 PUSH1 0x0 MSTORE PUSH1 0x20 PUSH1 0x0 KECCAK256 ADD PUSH1 0x40 MLOAD DUP1 PUSH1 0x20 ADD PUSH1 0x40 MSTORE SWAP1 DUP2 PUSH1 0x0 DUP3 ADD PUSH1 0x0 SWAP1 SLOAD SWAP1 PUSH2 0x100 EXP SWAP1 DIV PUSH20 0xFFFFFFFFFFFFFFFFFFFFFFFFFFFFFFFFFFFFFFFF AND PUSH20 0xFFFFFFFFFFFFFFFFFFFFFFFFFFFFFFFFFFFFFFFF AND PUSH20 0xFFFFFFFFFFFFFFFFFFFFFFFFFFFFFFFFFFFFFFFF AND DUP2 MSTORE POP POP DUP2 MSTORE PUSH1 0x20 ADD SWAP1 PUSH1 0x1 ADD SWAP1 PUSH2 0x9AE JUMP JUMPDEST POP POP POP POP SWAP1 POP SWAP1 JUMP JUMPDEST PUSH1 0x2 PUSH1 0x0 SWAP1 SLOAD SWAP1 PUSH2 0x100 EXP SWAP1 DIV PUSH1 0xFF AND DUP2 JUMP JUMPDEST PUSH1 0xB DUP2 DUP2 SLOAD DUP2 LT PUSH2 0xA5E JUMPI PUSH1 0x0 DUP1 REVERT JUMPDEST SWAP1 PUSH1 0x0 MSTORE PUSH1 0x20 PUSH1 0x0 KECCAK256 ADD PUSH1 0x0 SWAP2 POP SWAP1 POP DUP1 PUSH1 0x0 ADD PUSH1 0x0 SWAP1 SLOAD SWAP1 PUSH2 0x100 EXP SWAP1 DIV PUSH20 0xFFFFFFFFFFFFFFFFFFFFFFFFFFFFFFFFFFFFFFFF AND SWAP1 POP DUP2 JUMP JUMPDEST DUP1 PUSH1 0x5 PUSH1 0x0 CALLER PUSH20 0xFFFFFFFFFFFFFFFFFFFFFFFFFFFFFFFFFFFFFFFF AND PUSH20 0xFFFFFFFFFFFFFFFFFFFFFFFFFFFFFFFFFFFFFFFF AND DUP2 MSTORE PUSH1 0x20 ADD SWAP1 DUP2 MSTORE PUSH1 0x20 ADD PUSH1 0x0 KECCAK256 PUSH1 0x0 DUP3 DUP3 SLOAD PUSH2 0xAE7 SWAP2 SWAP1 PUSH2 0x1A17 JUMP JUMPDEST SWAP3 POP POP DUP2 SWAP1 SSTORE POP DUP1 PUSH1 0x3 PUSH1 0x0 DUP3 DUP3 SLOAD PUSH2 0xB00 SWAP2 SWAP1 PUSH2 0x1A17 JUMP JUMPDEST SWAP3 POP POP DUP2 SWAP1 SSTORE POP POP JUMP JUMPDEST PUSH1 0x0 PUSH1 0x5 PUSH1 0x0 DUP4 PUSH20 0xFFFFFFFFFFFFFFFFFFFFFFFFFFFFFFFFFFFFFFFF AND PUSH20 0xFFFFFFFFFFFFFFFFFFFFFFFFFFFFFFFFFFFFFFFF AND DUP2 MSTORE PUSH1 0x20 ADD SWAP1 DUP2 MSTORE PUSH1 0x20 ADD PUSH1 0x0 KECCAK256 SLOAD SWAP1 POP SWAP2 SWAP1 POP JUMP JUMPDEST PUSH1 0x60 PUSH1 0xA PUSH1 0x0 CALLER PUSH20 0xFFFFFFFFFFFFFFFFFFFFFFFFFFFFFFFFFFFFFFFF AND PUSH20 0xFFFFFFFFFFFFFFFFFFFFFFFFFFFFFFFFFFFFFFFF AND DUP2 MSTORE PUSH1 0x20 ADD SWAP1 DUP2 MSTORE PUSH1 0x20 ADD PUSH1 0x0 KECCAK256 DUP1 SLOAD DUP1 PUSH1 0x20 MUL PUSH1 0x20 ADD PUSH1 0x40 MLOAD SWAP1 DUP2 ADD PUSH1 0x40 MSTORE DUP1 SWAP3 SWAP2 SWAP1 DUP2 DUP2 MSTORE PUSH1 0x20 ADD PUSH1 0x0 SWAP1 JUMPDEST DUP3 DUP3 LT ISZERO PUSH2 0xD0A JUMPI DUP4 DUP3 SWAP1 PUSH1 0x0 MSTORE PUSH1 0x20 PUSH1 0x0 KECCAK256 SWAP1 PUSH1 0x2 MUL ADD PUSH1 0x40 MLOAD DUP1 PUSH1 0x40 ADD PUSH1 0x40 MSTORE SWAP1 DUP2 PUSH1 0x0 DUP3 ADD DUP1 SLOAD PUSH2 0xBE7 SWAP1 PUSH2 0x2082 JUMP JUMPDEST DUP1 PUSH1 0x1F ADD PUSH1 0x20 DUP1 SWAP2 DIV MUL PUSH1 0x20 ADD PUSH1 0x40 MLOAD SWAP1 DUP2 ADD PUSH1 0x40 MSTORE DUP1 SWAP3 SWAP2 SWAP1 DUP2 DUP2 MSTORE PUSH1 0x20 ADD DUP3 DUP1 SLOAD PUSH2 0xC13 SWAP1 PUSH2 0x2082 JUMP JUMPDEST DUP1 ISZERO PUSH2 0xC60 JUMPI DUP1 PUSH1 0x1F LT PUSH2 0xC35 JUMPI PUSH2 0x100 DUP1 DUP4 SLOAD DIV MUL DUP4 MSTORE SWAP2 PUSH1 0x20 ADD SWAP2 PUSH2 0xC60 JUMP JUMPDEST DUP3 ADD SWAP2 SWAP1 PUSH1 0x0 MSTORE PUSH1 0x20 PUSH1 0x0 KECCAK256 SWAP1 JUMPDEST DUP2 SLOAD DUP2 MSTORE SWAP1 PUSH1 0x1 ADD SWAP1 PUSH1 0x20 ADD DUP1 DUP4 GT PUSH2 0xC43 JUMPI DUP3 SWAP1 SUB PUSH1 0x1F AND DUP3 ADD SWAP2 JUMPDEST POP POP POP POP POP DUP2 MSTORE PUSH1 0x20 ADD PUSH1 0x1 DUP3 ADD DUP1 SLOAD PUSH2 0xC79 SWAP1 PUSH2 0x2082 JUMP JUMPDEST DUP1 PUSH1 0x1F ADD PUSH1 0x20 DUP1 SWAP2 DIV MUL PUSH1 0x20 ADD PUSH1 0x40 MLOAD SWAP1 DUP2 ADD PUSH1 0x40 MSTORE DUP1 SWAP3 SWAP2 SWAP1 DUP2 DUP2 MSTORE PUSH1 0x20 ADD DUP3 DUP1 SLOAD PUSH2 0xCA5 SWAP1 PUSH2 0x2082 JUMP JUMPDEST DUP1 ISZERO PUSH2 0xCF2 JUMPI DUP1 PUSH1 0x1F LT PUSH2 0xCC7 JUMPI PUSH2 0x100 DUP1 DUP4 SLOAD DIV MUL DUP4 MSTORE SWAP2 PUSH1 0x20 ADD SWAP2 PUSH2 0xCF2 JUMP JUMPDEST DUP3 ADD SWAP2 SWAP1 PUSH1 0x0 MSTORE PUSH1 0x20 PUSH1 0x0 KECCAK256 SWAP1 JUMPDEST DUP2 SLOAD DUP2 MSTORE SWAP1 PUSH1 0x1 ADD SWAP1 PUSH1 0x20 ADD DUP1 DUP4 GT PUSH2 0xCD5 JUMPI DUP3 SWAP1 SUB PUSH1 0x1F AND DUP3 ADD SWAP2 JUMPDEST POP POP POP POP POP DUP2 MSTORE POP POP DUP2 MSTORE PUSH1 0x20 ADD SWAP1 PUSH1 0x1 ADD SWAP1 PUSH2 0xBB4 JUMP JUMPDEST POP POP POP POP SWAP1 POP SWAP1 JUMP JUMPDEST PUSH1 0x1 DUP1 SLOAD PUSH2 0xD20 SWAP1 PUSH2 0x2082 JUMP JUMPDEST DUP1 PUSH1 0x1F ADD PUSH1 0x20 DUP1 SWAP2 DIV MUL PUSH1 0x20 ADD PUSH1 0x40 MLOAD SWAP1 DUP2 ADD PUSH1 0x40 MSTORE DUP1 SWAP3 SWAP2 SWAP1 DUP2 DUP2 MSTORE PUSH1 0x20 ADD DUP3 DUP1 SLOAD PUSH2 0xD4C SWAP1 PUSH2 0x2082 JUMP JUMPDEST DUP1 ISZERO PUSH2 0xD99 JUMPI DUP1 PUSH1 0x1F LT PUSH2 0xD6E JUMPI PUSH2 0x100 DUP1 DUP4 SLOAD DIV MUL DUP4 MSTORE SWAP2 PUSH1 0x20 ADD SWAP2 PUSH2 0xD99 JUMP JUMPDEST DUP3 ADD SWAP2 SWAP1 PUSH1 0x0 MSTORE PUSH1 0x20 PUSH1 0x0 KECCAK256 SWAP1 JUMPDEST DUP2 SLOAD DUP2 MSTORE SWAP1 PUSH1 0x1 ADD SWAP1 PUSH1 0x20 ADD DUP1 DUP4 GT PUSH2 0xD7C JUMPI DUP3 SWAP1 SUB PUSH1 0x1F AND DUP3 ADD SWAP2 JUMPDEST POP POP POP POP POP DUP2 JUMP JUMPDEST PUSH1 0x0 DUP2 PUSH1 0x5 PUSH1 0x0 CALLER PUSH20 0xFFFFFFFFFFFFFFFFFFFFFFFFFFFFFFFFFFFFFFFF AND PUSH20 0xFFFFFFFFFFFFFFFFFFFFFFFFFFFFFFFFFFFFFFFF AND DUP2 MSTORE PUSH1 0x20 ADD SWAP1 DUP2 MSTORE PUSH1 0x20 ADD PUSH1 0x0 KECCAK256 POP POP DUP2 PUSH1 0x5 PUSH1 0x0 DUP6 PUSH20 0xFFFFFFFFFFFFFFFFFFFFFFFFFFFFFFFFFFFFFFFF AND PUSH20 0xFFFFFFFFFFFFFFFFFFFFFFFFFFFFFFFFFFFFFFFF AND DUP2 MSTORE PUSH1 0x20 ADD SWAP1 DUP2 MSTORE PUSH1 0x20 ADD PUSH1 0x0 KECCAK256 PUSH1 0x0 DUP3 DUP3 SLOAD PUSH2 0xE34 SWAP2 SWAP1 PUSH2 0x1A4B JUMP JUMPDEST SWAP3 POP POP DUP2 SWAP1 SSTORE POP PUSH1 0x1 SWAP1 POP SWAP3 SWAP2 POP POP JUMP JUMPDEST PUSH1 0x6 PUSH1 0x20 MSTORE DUP2 PUSH1 0x0 MSTORE PUSH1 0x40 PUSH1 0x0 KECCAK256 PUSH1 0x20 MSTORE DUP1 PUSH1 0x0 MSTORE PUSH1 0x40 PUSH1 0x0 KECCAK256 PUSH1 0x0 SWAP2 POP SWAP2 POP POP SLOAD DUP2 JUMP JUMPDEST PUSH1 0x0 PUSH1 0xA PUSH1 0x0 CALLER PUSH20 0xFFFFFFFFFFFFFFFFFFFFFFFFFFFFFFFFFFFFFFFF AND PUSH20 0xFFFFFFFFFFFFFFFFFFFFFFFFFFFFFFFFFFFFFFFF AND DUP2 MSTORE PUSH1 0x20 ADD SWAP1 DUP2 MSTORE PUSH1 0x20 ADD PUSH1 0x0 KECCAK256 DUP1 SLOAD SWAP1 POP GT PUSH2 0xEEF JUMPI PUSH1 0x40 MLOAD PUSH32 0x8C379A000000000000000000000000000000000000000000000000000000000 DUP2 MSTORE PUSH1 0x4 ADD PUSH2 0xEE6 SWAP1 PUSH2 0x20FF JUMP JUMPDEST PUSH1 0x40 MLOAD DUP1 SWAP2 SUB SWAP1 REVERT JUMPDEST PUSH1 0x0 PUSH1 0xA PUSH1 0x0 CALLER PUSH20 0xFFFFFFFFFFFFFFFFFFFFFFFFFFFFFFFFFFFFFFFF AND PUSH20 0xFFFFFFFFFFFFFFFFFFFFFFFFFFFFFFFFFFFFFFFF AND DUP2 MSTORE PUSH1 0x20 ADD SWAP1 DUP2 MSTORE PUSH1 0x20 ADD PUSH1 0x0 KECCAK256 DUP1 SLOAD SWAP1 POP TIMESTAMP PREVRANDAO CALLER PUSH1 0x40 MLOAD PUSH1 0x20 ADD PUSH2 0xF49 SWAP4 SWAP3 SWAP2 SWAP1 PUSH2 0x2188 JUMP JUMPDEST PUSH1 0x40 MLOAD PUSH1 0x20 DUP2 DUP4 SUB SUB DUP2 MSTORE SWAP1 PUSH1 0x40 MSTORE DUP1 MLOAD SWAP1 PUSH1 0x20 ADD KECCAK256 PUSH1 0x0 SHR PUSH2 0xF6C SWAP2 SWAP1 PUSH2 0x21F4 JUMP JUMPDEST SWAP1 POP PUSH1 0x0 PUSH1 0xA PUSH1 0x0 CALLER PUSH20 0xFFFFFFFFFFFFFFFFFFFFFFFFFFFFFFFFFFFFFFFF AND PUSH20 0xFFFFFFFFFFFFFFFFFFFFFFFFFFFFFFFFFFFFFFFF AND DUP2 MSTORE PUSH1 0x20 ADD SWAP1 DUP2 MSTORE PUSH1 0x20 ADD PUSH1 0x0 KECCAK256 DUP3 DUP2 SLOAD DUP2 LT PUSH2 0xFC1 JUMPI PUSH2 0xFC0 PUSH2 0x2225 JUMP JUMPDEST JUMPDEST SWAP1 PUSH1 0x0 MSTORE PUSH1 0x20 PUSH1 0x0 KECCAK256 SWAP1 PUSH1 0x2 MUL ADD PUSH1 0x40 MLOAD DUP1 PUSH1 0x40 ADD PUSH1 0x40 MSTORE SWAP1 DUP2 PUSH1 0x0 DUP3 ADD DUP1 SLOAD PUSH2 0xFEA SWAP1 PUSH2 0x2082 JUMP JUMPDEST DUP1 PUSH1 0x1F ADD PUSH1 0x20 DUP1 SWAP2 DIV MUL PUSH1 0x20 ADD PUSH1 0x40 MLOAD SWAP1 DUP2 ADD PUSH1 0x40 MSTORE DUP1 SWAP3 SWAP2 SWAP1 DUP2 DUP2 MSTORE PUSH1 0x20 ADD DUP3 DUP1 SLOAD PUSH2 0x1016 SWAP1 PUSH2 0x2082 JUMP JUMPDEST DUP1 ISZERO PUSH2 0x1063 JUMPI DUP1 PUSH1 0x1F LT PUSH2 0x1038 JUMPI PUSH2 0x100 DUP1 DUP4 SLOAD DIV MUL DUP4 MSTORE SWAP2 PUSH1 0x20 ADD SWAP2 PUSH2 0x1063 JUMP JUMPDEST DUP3 ADD SWAP2 SWAP1 PUSH1 0x0 MSTORE PUSH1 0x20 PUSH1 0x0 KECCAK256 SWAP1 JUMPDEST DUP2 SLOAD DUP2 MSTORE SWAP1 PUSH1 0x1 ADD SWAP1 PUSH1 0x20 ADD DUP1 DUP4 GT PUSH2 0x1046 JUMPI DUP3 SWAP1 SUB PUSH1 0x1F AND DUP3 ADD SWAP2 JUMPDEST POP POP POP POP POP DUP2 MSTORE PUSH1 0x20 ADD PUSH1 0x1 DUP3 ADD DUP1 SLOAD PUSH2 0x107C SWAP1 PUSH2 0x2082 JUMP JUMPDEST DUP1 PUSH1 0x1F ADD PUSH1 0x20 DUP1 SWAP2 DIV MUL PUSH1 0x20 ADD PUSH1 0x40 MLOAD SWAP1 DUP2 ADD PUSH1 0x40 MSTORE DUP1 SWAP3 SWAP2 SWAP1 DUP2 DUP2 MSTORE PUSH1 0x20 ADD DUP3 DUP1 SLOAD PUSH2 0x10A8 SWAP1 PUSH2 0x2082 JUMP JUMPDEST DUP1 ISZERO PUSH2 0x10F5 JUMPI DUP1 PUSH1 0x1F LT PUSH2 0x10CA JUMPI PUSH2 0x100 DUP1 DUP4 SLOAD DIV MUL DUP4 MSTORE SWAP2 PUSH1 0x20 ADD SWAP2 PUSH2 0x10F5 JUMP JUMPDEST DUP3 ADD SWAP2 SWAP1 PUSH1 0x0 MSTORE PUSH1 0x20 PUSH1 0x0 KECCAK256 SWAP1 JUMPDEST DUP2 SLOAD DUP2 MSTORE SWAP1 PUSH1 0x1 ADD SWAP1 PUSH1 0x20 ADD DUP1 DUP4 GT PUSH2 0x10D8 JUMPI DUP3 SWAP1 SUB PUSH1 0x1F AND DUP3 ADD SWAP2 JUMPDEST POP POP POP POP POP DUP2 MSTORE POP POP SWAP1 POP PUSH1 0x1 PUSH1 0xA PUSH1 0x0 CALLER PUSH20 0xFFFFFFFFFFFFFFFFFFFFFFFFFFFFFFFFFFFFFFFF AND PUSH20 0xFFFFFFFFFFFFFFFFFFFFFFFFFFFFFFFFFFFFFFFF AND DUP2 MSTORE PUSH1 0x20 ADD SWAP1 DUP2 MSTORE PUSH1 0x20 ADD PUSH1 0x0 KECCAK256 DUP1 SLOAD SWAP1 POP PUSH2 0x114F SWAP2 SWAP1 PUSH2 0x1A17 JUMP JUMPDEST DUP3 LT ISZERO PUSH2 0x1290 JUMPI PUSH1 0xA PUSH1 0x0 CALLER PUSH20 0xFFFFFFFFFFFFFFFFFFFFFFFFFFFFFFFFFFFFFFFF AND PUSH20 0xFFFFFFFFFFFFFFFFFFFFFFFFFFFFFFFFFFFFFFFF AND DUP2 MSTORE PUSH1 0x20 ADD SWAP1 DUP2 MSTORE PUSH1 0x20 ADD PUSH1 0x0 KECCAK256 PUSH1 0x1 PUSH1 0xA PUSH1 0x0 CALLER PUSH20 0xFFFFFFFFFFFFFFFFFFFFFFFFFFFFFFFFFFFFFFFF AND PUSH20 0xFFFFFFFFFFFFFFFFFFFFFFFFFFFFFFFFFFFFFFFF AND DUP2 MSTORE PUSH1 0x20 ADD SWAP1 DUP2 MSTORE PUSH1 0x20 ADD PUSH1 0x0 KECCAK256 DUP1 SLOAD SWAP1 POP PUSH2 0x11E4 SWAP2 SWAP1 PUSH2 0x1A17 JUMP JUMPDEST DUP2 SLOAD DUP2 LT PUSH2 0x11F5 JUMPI PUSH2 0x11F4 PUSH2 0x2225 JUMP JUMPDEST JUMPDEST SWAP1 PUSH1 0x0 MSTORE PUSH1 0x20 PUSH1 0x0 KECCAK256 SWAP1 PUSH1 0x2 MUL ADD PUSH1 0xA PUSH1 0x0 CALLER PUSH20 0xFFFFFFFFFFFFFFFFFFFFFFFFFFFFFFFFFFFFFFFF AND PUSH20 0xFFFFFFFFFFFFFFFFFFFFFFFFFFFFFFFFFFFFFFFF AND DUP2 MSTORE PUSH1 0x20 ADD SWAP1 DUP2 MSTORE PUSH1 0x20 ADD PUSH1 0x0 KECCAK256 DUP4 DUP2 SLOAD DUP2 LT PUSH2 0x1254 JUMPI PUSH2 0x1253 PUSH2 0x2225 JUMP JUMPDEST JUMPDEST SWAP1 PUSH1 0x0 MSTORE PUSH1 0x20 PUSH1 0x0 KECCAK256 SWAP1 PUSH1 0x2 MUL ADD PUSH1 0x0 DUP3 ADD DUP2 PUSH1 0x0 ADD SWAP1 DUP2 PUSH2 0x1276 SWAP2 SWAP1 PUSH2 0x2445 JUMP JUMPDEST POP PUSH1 0x1 DUP3 ADD DUP2 PUSH1 0x1 ADD SWAP1 DUP2 PUSH2 0x128B SWAP2 SWAP1 PUSH2 0x2445 JUMP JUMPDEST POP SWAP1 POP POP JUMPDEST PUSH1 0xA PUSH1 0x0 CALLER PUSH20 0xFFFFFFFFFFFFFFFFFFFFFFFFFFFFFFFFFFFFFFFF AND PUSH20 0xFFFFFFFFFFFFFFFFFFFFFFFFFFFFFFFFFFFFFFFF AND DUP2 MSTORE PUSH1 0x20 ADD SWAP1 DUP2 MSTORE PUSH1 0x20 ADD PUSH1 0x0 KECCAK256 DUP1 SLOAD DUP1 PUSH2 0x12DF JUMPI PUSH2 0x12DE PUSH2 0x252D JUMP JUMPDEST JUMPDEST PUSH1 0x1 SWAP1 SUB DUP2 DUP2 SWAP1 PUSH1 0x0 MSTORE PUSH1 0x20 PUSH1 0x0 KECCAK256 SWAP1 PUSH1 0x2 MUL ADD PUSH1 0x0 DUP1 DUP3 ADD PUSH1 0x0 PUSH2 0x1304 SWAP2 SWAP1 PUSH2 0x193F JUMP JUMPDEST PUSH1 0x1 DUP3 ADD PUSH1 0x0 PUSH2 0x1314 SWAP2 SWAP1 PUSH2 0x193F JUMP JUMPDEST POP POP SWAP1 SSTORE PUSH1 0xA PUSH1 0x0 DUP5 PUSH20 0xFFFFFFFFFFFFFFFFFFFFFFFFFFFFFFFFFFFFFFFF AND PUSH20 0xFFFFFFFFFFFFFFFFFFFFFFFFFFFFFFFFFFFFFFFF AND DUP2 MSTORE PUSH1 0x20 ADD SWAP1 DUP2 MSTORE PUSH1 0x20 ADD PUSH1 0x0 KECCAK256 DUP2 SWAP1 DUP1 PUSH1 0x1 DUP2 SLOAD ADD DUP1 DUP3 SSTORE DUP1 SWAP2 POP POP PUSH1 0x1 SWAP1 SUB SWAP1 PUSH1 0x0 MSTORE PUSH1 0x20 PUSH1 0x0 KECCAK256 SWAP1 PUSH1 0x2 MUL ADD PUSH1 0x0 SWAP1 SWAP2 SWAP1 SWAP2 SWAP1 SWAP2 POP PUSH1 0x0 DUP3 ADD MLOAD DUP2 PUSH1 0x0 ADD SWAP1 DUP2 PUSH2 0x1396 SWAP2 SWAP1 PUSH2 0x255C JUMP JUMPDEST POP PUSH1 0x20 DUP3 ADD MLOAD DUP2 PUSH1 0x1 ADD SWAP1 DUP2 PUSH2 0x13AC SWAP2 SWAP1 PUSH2 0x255C JUMP JUMPDEST POP POP POP POP POP POP JUMP JUMPDEST PUSH1 0xA PUSH1 0x20 MSTORE DUP2 PUSH1 0x0 MSTORE PUSH1 0x40 PUSH1 0x0 KECCAK256 DUP2 DUP2 SLOAD DUP2 LT PUSH2 0x13D0 JUMPI PUSH1 0x0 DUP1 REVERT JUMPDEST SWAP1 PUSH1 0x0 MSTORE PUSH1 0x20 PUSH1 0x0 KECCAK256 SWAP1 PUSH1 0x2 MUL ADD PUSH1 0x0 SWAP2 POP SWAP2 POP POP DUP1 PUSH1 0x0 ADD DUP1 SLOAD PUSH2 0x13F4 SWAP1 PUSH2 0x2082 JUMP JUMPDEST DUP1 PUSH1 0x1F ADD PUSH1 0x20 DUP1 SWAP2 DIV MUL PUSH1 0x20 ADD PUSH1 0x40 MLOAD SWAP1 DUP2 ADD PUSH1 0x40 MSTORE DUP1 SWAP3 SWAP2 SWAP1 DUP2 DUP2 MSTORE PUSH1 0x20 ADD DUP3 DUP1 SLOAD PUSH2 0x1420 SWAP1 PUSH2 0x2082 JUMP JUMPDEST DUP1 ISZERO PUSH2 0x146D JUMPI DUP1 PUSH1 0x1F LT PUSH2 0x1442 JUMPI PUSH2 0x100 DUP1 DUP4 SLOAD DIV MUL DUP4 MSTORE SWAP2 PUSH1 0x20 ADD SWAP2 PUSH2 0x146D JUMP JUMPDEST DUP3 ADD SWAP2 SWAP1 PUSH1 0x0 MSTORE PUSH1 0x20 PUSH1 0x0 KECCAK256 SWAP1 JUMPDEST DUP2 SLOAD DUP2 MSTORE SWAP1 PUSH1 0x1 ADD SWAP1 PUSH1 0x20 ADD DUP1 DUP4 GT PUSH2 0x1450 JUMPI DUP3 SWAP1 SUB PUSH1 0x1F AND DUP3 ADD SWAP2 JUMPDEST POP POP POP POP POP SWAP1 DUP1 PUSH1 0x1 ADD DUP1 SLOAD PUSH2 0x1482 SWAP1 PUSH2 0x2082 JUMP JUMPDEST DUP1 PUSH1 0x1F ADD PUSH1 0x20 DUP1 SWAP2 DIV MUL PUSH1 0x20 ADD PUSH1 0x40 MLOAD SWAP1 DUP2 ADD PUSH1 0x40 MSTORE DUP1 SWAP3 SWAP2 SWAP1 DUP2 DUP2 MSTORE PUSH1 0x20 ADD DUP3 DUP1 SLOAD PUSH2 0x14AE SWAP1 PUSH2 0x2082 JUMP JUMPDEST DUP1 ISZERO PUSH2 0x14FB JUMPI DUP1 PUSH1 0x1F LT PUSH2 0x14D0 JUMPI PUSH2 0x100 DUP1 DUP4 SLOAD DIV MUL DUP4 MSTORE SWAP2 PUSH1 0x20 ADD SWAP2 PUSH2 0x14FB JUMP JUMPDEST DUP3 ADD SWAP2 SWAP1 PUSH1 0x0 MSTORE PUSH1 0x20 PUSH1 0x0 KECCAK256 SWAP1 JUMPDEST DUP2 SLOAD DUP2 MSTORE SWAP1 PUSH1 0x1 ADD SWAP1 PUSH1 0x20 ADD DUP1 DUP4 GT PUSH2 0x14DE JUMPI DUP3 SWAP1 SUB PUSH1 0x1F AND DUP3 ADD SWAP2 JUMPDEST POP POP POP POP POP SWAP1 POP DUP3 JUMP JUMPDEST PUSH1 0x7 SLOAD PUSH1 0x5 PUSH1 0x0 CALLER PUSH20 0xFFFFFFFFFFFFFFFFFFFFFFFFFFFFFFFFFFFFFFFF AND PUSH20 0xFFFFFFFFFFFFFFFFFFFFFFFFFFFFFFFFFFFFFFFF AND DUP2 MSTORE PUSH1 0x20 ADD SWAP1 DUP2 MSTORE PUSH1 0x20 ADD PUSH1 0x0 KECCAK256 SLOAD LT ISZERO PUSH2 0x1553 JUMPI PUSH1 0x0 DUP1 REVERT JUMPDEST PUSH1 0x7 SLOAD PUSH1 0x5 PUSH1 0x0 CALLER PUSH20 0xFFFFFFFFFFFFFFFFFFFFFFFFFFFFFFFFFFFFFFFF AND PUSH20 0xFFFFFFFFFFFFFFFFFFFFFFFFFFFFFFFFFFFFFFFF AND DUP2 MSTORE PUSH1 0x20 ADD SWAP1 DUP2 MSTORE PUSH1 0x20 ADD PUSH1 0x0 KECCAK256 PUSH1 0x0 DUP3 DUP3 SLOAD PUSH2 0x15A4 SWAP2 SWAP1 PUSH2 0x1A17 JUMP JUMPDEST SWAP3 POP POP DUP2 SWAP1 SSTORE POP PUSH1 0x7 SLOAD PUSH1 0x3 PUSH1 0x0 DUP3 DUP3 SLOAD PUSH2 0x15BF SWAP2 SWAP1 PUSH2 0x1A17 JUMP JUMPDEST SWAP3 POP POP DUP2 SWAP1 SSTORE POP PUSH1 0x0 TIMESTAMP COINBASE NUMBER PUSH1 0x40 MLOAD PUSH1 0x20 ADD PUSH2 0x15DD SWAP4 SWAP3 SWAP2 SWAP1 PUSH2 0x2669 JUMP JUMPDEST PUSH1 0x40 MLOAD PUSH1 0x20 DUP2 DUP4 SUB SUB DUP2 MSTORE SWAP1 PUSH1 0x40 MSTORE DUP1 MLOAD SWAP1 PUSH1 0x20 ADD KECCAK256 PUSH1 0x0 SHR SWAP1 POP PUSH1 0x3 DUP2 PUSH2 0x1605 SWAP2 SWAP1 PUSH2 0x21F4 JUMP JUMPDEST SWAP1 POP PUSH1 0xA PUSH1 0x0 CALLER PUSH20 0xFFFFFFFFFFFFFFFFFFFFFFFFFFFFFFFFFFFFFFFF AND PUSH20 0xFFFFFFFFFFFFFFFFFFFFFFFFFFFFFFFFFFFFFFFF AND DUP2 MSTORE PUSH1 0x20 ADD SWAP1 DUP2 MSTORE PUSH1 0x20 ADD PUSH1 0x0 KECCAK256 PUSH1 0x40 MLOAD DUP1 PUSH1 0x40 ADD PUSH1 0x40 MSTORE DUP1 PUSH1 0x9 DUP5 DUP2 SLOAD DUP2 LT PUSH2 0x1665 JUMPI PUSH2 0x1664 PUSH2 0x2225 JUMP JUMPDEST JUMPDEST SWAP1 PUSH1 0x0 MSTORE PUSH1 0x20 PUSH1 0x0 KECCAK256 ADD DUP1 SLOAD PUSH2 0x167A SWAP1 PUSH2 0x2082 JUMP JUMPDEST DUP1 PUSH1 0x1F ADD PUSH1 0x20 DUP1 SWAP2 DIV MUL PUSH1 0x20 ADD PUSH1 0x40 MLOAD SWAP1 DUP2 ADD PUSH1 0x40 MSTORE DUP1 SWAP3 SWAP2 SWAP1 DUP2 DUP2 MSTORE PUSH1 0x20 ADD DUP3 DUP1 SLOAD PUSH2 0x16A6 SWAP1 PUSH2 0x2082 JUMP JUMPDEST DUP1 ISZERO PUSH2 0x16F3 JUMPI DUP1 PUSH1 0x1F LT PUSH2 0x16C8 JUMPI PUSH2 0x100 DUP1 DUP4 SLOAD DIV MUL DUP4 MSTORE SWAP2 PUSH1 0x20 ADD SWAP2 PUSH2 0x16F3 JUMP JUMPDEST DUP3 ADD SWAP2 SWAP1 PUSH1 0x0 MSTORE PUSH1 0x20 PUSH1 0x0 KECCAK256 SWAP1 JUMPDEST DUP2 SLOAD DUP2 MSTORE SWAP1 PUSH1 0x1 ADD SWAP1 PUSH1 0x20 ADD DUP1 DUP4 GT PUSH2 0x16D6 JUMPI DUP3 SWAP1 SUB PUSH1 0x1F AND DUP3 ADD SWAP2 JUMPDEST POP POP POP POP POP DUP2 MSTORE PUSH1 0x20 ADD PUSH1 0x8 DUP5 DUP2 SLOAD DUP2 LT PUSH2 0x1711 JUMPI PUSH2 0x1710 PUSH2 0x2225 JUMP JUMPDEST JUMPDEST SWAP1 PUSH1 0x0 MSTORE PUSH1 0x20 PUSH1 0x0 KECCAK256 ADD DUP1 SLOAD PUSH2 0x1726 SWAP1 PUSH2 0x2082 JUMP JUMPDEST DUP1 PUSH1 0x1F ADD PUSH1 0x20 DUP1 SWAP2 DIV MUL PUSH1 0x20 ADD PUSH1 0x40 MLOAD SWAP1 DUP2 ADD PUSH1 0x40 MSTORE DUP1 SWAP3 SWAP2 SWAP1 DUP2 DUP2 MSTORE PUSH1 0x20 ADD DUP3 DUP1 SLOAD PUSH2 0x1752 SWAP1 PUSH2 0x2082 JUMP JUMPDEST DUP1 ISZERO PUSH2 0x179F JUMPI DUP1 PUSH1 0x1F LT PUSH2 0x1774 JUMPI PUSH2 0x100 DUP1 DUP4 SLOAD DIV MUL DUP4 MSTORE SWAP2 PUSH1 0x20 ADD SWAP2 PUSH2 0x179F JUMP JUMPDEST DUP3 ADD SWAP2 SWAP1 PUSH1 0x0 MSTORE PUSH1 0x20 PUSH1 0x0 KECCAK256 SWAP1 JUMPDEST DUP2 SLOAD DUP2 MSTORE SWAP1 PUSH1 0x1 ADD SWAP1 PUSH1 0x20 ADD DUP1 DUP4 GT PUSH2 0x1782 JUMPI DUP3 SWAP1 SUB PUSH1 0x1F AND DUP3 ADD SWAP2 JUMPDEST POP POP POP POP POP DUP2 MSTORE POP SWAP1 DUP1 PUSH1 0x1 DUP2 SLOAD ADD DUP1 DUP3 SSTORE DUP1 SWAP2 POP POP PUSH1 0x1 SWAP1 SUB SWAP1 PUSH1 0x0 MSTORE PUSH1 0x20 PUSH1 0x0 KECCAK256 SWAP1 PUSH1 0x2 MUL ADD PUSH1 0x0 SWAP1 SWAP2 SWAP1 SWAP2 SWAP1 SWAP2 POP PUSH1 0x0 DUP3 ADD MLOAD DUP2 PUSH1 0x0 ADD SWAP1 DUP2 PUSH2 0x17E5 SWAP2 SWAP1 PUSH2 0x255C JUMP JUMPDEST POP PUSH1 0x20 DUP3 ADD MLOAD DUP2 PUSH1 0x1 ADD SWAP1 DUP2 PUSH2 0x17FB SWAP2 SWAP1 PUSH2 0x255C JUMP JUMPDEST POP POP POP PUSH1 0x0 DUP1 JUMPDEST PUSH1 0xB DUP1 SLOAD SWAP1 POP DUP2 LT ISZERO PUSH2 0x189F JUMPI CALLER PUSH20 0xFFFFFFFFFFFFFFFFFFFFFFFFFFFFFFFFFFFFFFFF AND PUSH1 0xB DUP3 DUP2 SLOAD DUP2 LT PUSH2 0x183A JUMPI PUSH2 0x1839 PUSH2 0x2225 JUMP JUMPDEST JUMPDEST SWAP1 PUSH1 0x0 MSTORE PUSH1 0x20 PUSH1 0x0 KECCAK256 ADD PUSH1 0x0 ADD PUSH1 0x0 SWAP1 SLOAD SWAP1 PUSH2 0x100 EXP SWAP1 DIV PUSH20 0xFFFFFFFFFFFFFFFFFFFFFFFFFFFFFFFFFFFFFFFF AND PUSH20 0xFFFFFFFFFFFFFFFFFFFFFFFFFFFFFFFFFFFFFFFF AND SUB PUSH2 0x188C JUMPI PUSH1 0x1 SWAP2 POP PUSH2 0x189F JUMP JUMPDEST DUP1 DUP1 PUSH2 0x1897 SWAP1 PUSH2 0x26A6 JUMP JUMPDEST SWAP2 POP POP PUSH2 0x1802 JUMP JUMPDEST POP DUP1 PUSH2 0x193B JUMPI PUSH1 0xB PUSH1 0x40 MLOAD DUP1 PUSH1 0x20 ADD PUSH1 0x40 MSTORE DUP1 CALLER PUSH20 0xFFFFFFFFFFFFFFFFFFFFFFFFFFFFFFFFFFFFFFFF AND DUP2 MSTORE POP SWAP1 DUP1 PUSH1 0x1 DUP2 SLOAD ADD DUP1 DUP3 SSTORE DUP1 SWAP2 POP POP PUSH1 0x1 SWAP1 SUB SWAP1 PUSH1 0x0 MSTORE PUSH1 0x20 PUSH1 0x0 KECCAK256 ADD PUSH1 0x0 SWAP1 SWAP2 SWAP1 SWAP2 SWAP1 SWAP2 POP PUSH1 0x0 DUP3 ADD MLOAD DUP2 PUSH1 0x0 ADD PUSH1 0x0 PUSH2 0x100 EXP DUP2 SLOAD DUP2 PUSH20 0xFFFFFFFFFFFFFFFFFFFFFFFFFFFFFFFFFFFFFFFF MUL NOT AND SWAP1 DUP4 PUSH20 0xFFFFFFFFFFFFFFFFFFFFFFFFFFFFFFFFFFFFFFFF AND MUL OR SWAP1 SSTORE POP POP POP JUMPDEST POP POP JUMP JUMPDEST POP DUP1 SLOAD PUSH2 0x194B SWAP1 PUSH2 0x2082 JUMP JUMPDEST PUSH1 0x0 DUP3 SSTORE DUP1 PUSH1 0x1F LT PUSH2 0x195D JUMPI POP PUSH2 0x197C JUMP JUMPDEST PUSH1 0x1F ADD PUSH1 0x20 SWAP1 DIV SWAP1 PUSH1 0x0 MSTORE PUSH1 0x20 PUSH1 0x0 KECCAK256 SWAP1 DUP2 ADD SWAP1 PUSH2 0x197B SWAP2 SWAP1 PUSH2 0x197F JUMP JUMPDEST JUMPDEST POP JUMP JUMPDEST JUMPDEST DUP1 DUP3 GT ISZERO PUSH2 0x1998 JUMPI PUSH1 0x0 DUP2 PUSH1 0x0 SWAP1 SSTORE POP PUSH1 0x1 ADD PUSH2 0x1980 JUMP JUMPDEST POP SWAP1 JUMP JUMPDEST PUSH1 0x0 DUP2 SWAP1 POP SWAP2 SWAP1 POP JUMP JUMPDEST PUSH32 0x4E487B7100000000000000000000000000000000000000000000000000000000 PUSH1 0x0 MSTORE PUSH1 0x11 PUSH1 0x4 MSTORE PUSH1 0x24 PUSH1 0x0 REVERT JUMPDEST PUSH1 0x0 PUSH2 0x19E0 DUP3 PUSH2 0x199C JUMP JUMPDEST SWAP2 POP PUSH2 0x19EB DUP4 PUSH2 0x199C JUMP JUMPDEST SWAP3 POP DUP3 DUP3 MUL PUSH2 0x19F9 DUP2 PUSH2 0x199C JUMP JUMPDEST SWAP2 POP DUP3 DUP3 DIV DUP5 EQ DUP4 ISZERO OR PUSH2 0x1A10 JUMPI PUSH2 0x1A0F PUSH2 0x19A6 JUMP JUMPDEST JUMPDEST POP SWAP3 SWAP2 POP POP JUMP JUMPDEST PUSH1 0x0 PUSH2 0x1A22 DUP3 PUSH2 0x199C JUMP JUMPDEST SWAP2 POP PUSH2 0x1A2D DUP4 PUSH2 0x199C JUMP JUMPDEST SWAP3 POP DUP3 DUP3 SUB SWAP1 POP DUP2 DUP2 GT ISZERO PUSH2 0x1A45 JUMPI PUSH2 0x1A44 PUSH2 0x19A6 JUMP JUMPDEST JUMPDEST SWAP3 SWAP2 POP POP JUMP JUMPDEST PUSH1 0x0 PUSH2 0x1A56 DUP3 PUSH2 0x199C JUMP JUMPDEST SWAP2 POP PUSH2 0x1A61 DUP4 PUSH2 0x199C JUMP JUMPDEST SWAP3 POP DUP3 DUP3 ADD SWAP1 POP DUP1 DUP3 GT ISZERO PUSH2 0x1A79 JUMPI PUSH2 0x1A78 PUSH2 0x19A6 JUMP JUMPDEST JUMPDEST SWAP3 SWAP2 POP POP JUMP JUMPDEST PUSH1 0x0 DUP2 MLOAD SWAP1 POP SWAP2 SWAP1 POP JUMP JUMPDEST PUSH1 0x0 DUP3 DUP3 MSTORE PUSH1 0x20 DUP3 ADD SWAP1 POP SWAP3 SWAP2 POP POP JUMP JUMPDEST PUSH1 0x0 JUMPDEST DUP4 DUP2 LT ISZERO PUSH2 0x1AB9 JUMPI DUP1 DUP3 ADD MLOAD DUP2 DUP5 ADD MSTORE PUSH1 0x20 DUP2 ADD SWAP1 POP PUSH2 0x1A9E JUMP JUMPDEST PUSH1 0x0 DUP5 DUP5 ADD MSTORE POP POP POP POP JUMP JUMPDEST PUSH1 0x0 PUSH1 0x1F NOT PUSH1 0x1F DUP4 ADD AND SWAP1 POP SWAP2 SWAP1 POP JUMP JUMPDEST PUSH1 0x0 PUSH2 0x1AE1 DUP3 PUSH2 0x1A7F JUMP JUMPDEST PUSH2 0x1AEB DUP2 DUP6 PUSH2 0x1A8A JUMP JUMPDEST SWAP4 POP PUSH2 0x1AFB DUP2 DUP6 PUSH1 0x20 DUP7 ADD PUSH2 0x1A9B JUMP JUMPDEST PUSH2 0x1B04 DUP2 PUSH2 0x1AC5 JUMP JUMPDEST DUP5 ADD SWAP2 POP POP SWAP3 SWAP2 POP POP JUMP JUMPDEST PUSH1 0x0 PUSH1 0x20 DUP3 ADD SWAP1 POP DUP2 DUP2 SUB PUSH1 0x0 DUP4 ADD MSTORE PUSH2 0x1B29 DUP2 DUP5 PUSH2 0x1AD6 JUMP JUMPDEST SWAP1 POP SWAP3 SWAP2 POP POP JUMP JUMPDEST PUSH1 0x0 DUP1 REVERT JUMPDEST PUSH1 0x0 PUSH20 0xFFFFFFFFFFFFFFFFFFFFFFFFFFFFFFFFFFFFFFFF DUP3 AND SWAP1 POP SWAP2 SWAP1 POP JUMP JUMPDEST PUSH1 0x0 PUSH2 0x1B61 DUP3 PUSH2 0x1B36 JUMP JUMPDEST SWAP1 POP SWAP2 SWAP1 POP JUMP JUMPDEST PUSH2 0x1B71 DUP2 PUSH2 0x1B56 JUMP JUMPDEST DUP2 EQ PUSH2 0x1B7C JUMPI PUSH1 0x0 DUP1 REVERT JUMPDEST POP JUMP JUMPDEST PUSH1 0x0 DUP2 CALLDATALOAD SWAP1 POP PUSH2 0x1B8E DUP2 PUSH2 0x1B68 JUMP JUMPDEST SWAP3 SWAP2 POP POP JUMP JUMPDEST PUSH2 0x1B9D DUP2 PUSH2 0x199C JUMP JUMPDEST DUP2 EQ PUSH2 0x1BA8 JUMPI PUSH1 0x0 DUP1 REVERT JUMPDEST POP JUMP JUMPDEST PUSH1 0x0 DUP2 CALLDATALOAD SWAP1 POP PUSH2 0x1BBA DUP2 PUSH2 0x1B94 JUMP JUMPDEST SWAP3 SWAP2 POP POP JUMP JUMPDEST PUSH1 0x0 DUP1 PUSH1 0x40 DUP4 DUP6 SUB SLT ISZERO PUSH2 0x1BD7 JUMPI PUSH2 0x1BD6 PUSH2 0x1B31 JUMP JUMPDEST JUMPDEST PUSH1 0x0 PUSH2 0x1BE5 DUP6 DUP3 DUP7 ADD PUSH2 0x1B7F JUMP JUMPDEST SWAP3 POP POP PUSH1 0x20 PUSH2 0x1BF6 DUP6 DUP3 DUP7 ADD PUSH2 0x1BAB JUMP JUMPDEST SWAP2 POP POP SWAP3 POP SWAP3 SWAP1 POP JUMP JUMPDEST PUSH1 0x0 DUP2 ISZERO ISZERO SWAP1 POP SWAP2 SWAP1 POP JUMP JUMPDEST PUSH2 0x1C15 DUP2 PUSH2 0x1C00 JUMP JUMPDEST DUP3 MSTORE POP POP JUMP JUMPDEST PUSH1 0x0 PUSH1 0x20 DUP3 ADD SWAP1 POP PUSH2 0x1C30 PUSH1 0x0 DUP4 ADD DUP5 PUSH2 0x1C0C JUMP JUMPDEST SWAP3 SWAP2 POP POP JUMP JUMPDEST PUSH2 0x1C3F DUP2 PUSH2 0x199C JUMP JUMPDEST DUP3 MSTORE POP POP JUMP JUMPDEST PUSH1 0x0 PUSH1 0x20 DUP3 ADD SWAP1 POP PUSH2 0x1C5A PUSH1 0x0 DUP4 ADD DUP5 PUSH2 0x1C36 JUMP JUMPDEST SWAP3 SWAP2 POP POP JUMP JUMPDEST PUSH1 0x0 DUP1 PUSH1 0x0 PUSH1 0x60 DUP5 DUP7 SUB SLT ISZERO PUSH2 0x1C79 JUMPI PUSH2 0x1C78 PUSH2 0x1B31 JUMP JUMPDEST JUMPDEST PUSH1 0x0 PUSH2 0x1C87 DUP7 DUP3 DUP8 ADD PUSH2 0x1B7F JUMP JUMPDEST SWAP4 POP POP PUSH1 0x20 PUSH2 0x1C98 DUP7 DUP3 DUP8 ADD PUSH2 0x1B7F JUMP JUMPDEST SWAP3 POP POP PUSH1 0x40 PUSH2 0x1CA9 DUP7 DUP3 DUP8 ADD PUSH2 0x1BAB JUMP JUMPDEST SWAP2 POP POP SWAP3 POP SWAP3 POP SWAP3 JUMP JUMPDEST PUSH1 0x0 PUSH1 0x20 DUP3 DUP5 SUB SLT ISZERO PUSH2 0x1CC9 JUMPI PUSH2 0x1CC8 PUSH2 0x1B31 JUMP JUMPDEST JUMPDEST PUSH1 0x0 PUSH2 0x1CD7 DUP5 DUP3 DUP6 ADD PUSH2 0x1B7F JUMP JUMPDEST SWAP2 POP POP SWAP3 SWAP2 POP POP JUMP JUMPDEST PUSH1 0x0 DUP2 MLOAD SWAP1 POP SWAP2 SWAP1 POP JUMP JUMPDEST PUSH1 0x0 DUP3 DUP3 MSTORE PUSH1 0x20 DUP3 ADD SWAP1 POP SWAP3 SWAP2 POP POP JUMP JUMPDEST PUSH1 0x0 DUP2 SWAP1 POP PUSH1 0x20 DUP3 ADD SWAP1 POP SWAP2 SWAP1 POP JUMP JUMPDEST PUSH2 0x1D15 DUP2 PUSH2 0x1B56 JUMP JUMPDEST DUP3 MSTORE POP POP JUMP JUMPDEST PUSH1 0x20 DUP3 ADD PUSH1 0x0 DUP3 ADD MLOAD PUSH2 0x1D31 PUSH1 0x0 DUP6 ADD DUP3 PUSH2 0x1D0C JUMP JUMPDEST POP POP POP POP JUMP JUMPDEST PUSH1 0x0 PUSH2 0x1D43 DUP4 DUP4 PUSH2 0x1D1B JUMP JUMPDEST PUSH1 0x20 DUP4 ADD SWAP1 POP SWAP3 SWAP2 POP POP JUMP JUMPDEST PUSH1 0x0 PUSH1 0x20 DUP3 ADD SWAP1 POP SWAP2 SWAP1 POP JUMP JUMPDEST PUSH1 0x0 PUSH2 0x1D67 DUP3 PUSH2 0x1CE0 JUMP JUMPDEST PUSH2 0x1D71 DUP2 DUP6 PUSH2 0x1CEB JUMP JUMPDEST SWAP4 POP PUSH2 0x1D7C DUP4 PUSH2 0x1CFC JUMP JUMPDEST DUP1 PUSH1 0x0 JUMPDEST DUP4 DUP2 LT ISZERO PUSH2 0x1DAD JUMPI DUP2 MLOAD PUSH2 0x1D94 DUP9 DUP3 PUSH2 0x1D37 JUMP JUMPDEST SWAP8 POP PUSH2 0x1D9F DUP4 PUSH2 0x1D4F JUMP JUMPDEST SWAP3 POP POP PUSH1 0x1 DUP2 ADD SWAP1 POP PUSH2 0x1D80 JUMP JUMPDEST POP DUP6 SWAP4 POP POP POP POP SWAP3 SWAP2 POP POP JUMP JUMPDEST PUSH1 0x0 PUSH1 0x20 DUP3 ADD SWAP1 POP DUP2 DUP2 SUB PUSH1 0x0 DUP4 ADD MSTORE PUSH2 0x1DD4 DUP2 DUP5 PUSH2 0x1D5C JUMP JUMPDEST SWAP1 POP SWAP3 SWAP2 POP POP JUMP JUMPDEST PUSH1 0x0 PUSH1 0xFF DUP3 AND SWAP1 POP SWAP2 SWAP1 POP JUMP JUMPDEST PUSH2 0x1DF2 DUP2 PUSH2 0x1DDC JUMP JUMPDEST DUP3 MSTORE POP POP JUMP JUMPDEST PUSH1 0x0 PUSH1 0x20 DUP3 ADD SWAP1 POP PUSH2 0x1E0D PUSH1 0x0 DUP4 ADD DUP5 PUSH2 0x1DE9 JUMP JUMPDEST SWAP3 SWAP2 POP POP JUMP JUMPDEST PUSH1 0x0 PUSH1 0x20 DUP3 DUP5 SUB SLT ISZERO PUSH2 0x1E29 JUMPI PUSH2 0x1E28 PUSH2 0x1B31 JUMP JUMPDEST JUMPDEST PUSH1 0x0 PUSH2 0x1E37 DUP5 DUP3 DUP6 ADD PUSH2 0x1BAB JUMP JUMPDEST SWAP2 POP POP SWAP3 SWAP2 POP POP JUMP JUMPDEST PUSH2 0x1E49 DUP2 PUSH2 0x1B56 JUMP JUMPDEST DUP3 MSTORE POP POP JUMP JUMPDEST PUSH1 0x0 PUSH1 0x20 DUP3 ADD SWAP1 POP PUSH2 0x1E64 PUSH1 0x0 DUP4 ADD DUP5 PUSH2 0x1E40 JUMP JUMPDEST SWAP3 SWAP2 POP POP JUMP JUMPDEST PUSH1 0x0 DUP2 MLOAD SWAP1 POP SWAP2 SWAP1 POP JUMP JUMPDEST PUSH1 0x0 DUP3 DUP3 MSTORE PUSH1 0x20 DUP3 ADD SWAP1 POP SWAP3 SWAP2 POP POP JUMP JUMPDEST PUSH1 0x0 DUP2 SWAP1 POP PUSH1 0x20 DUP3 ADD SWAP1 POP SWAP2 SWAP1 POP JUMP JUMPDEST PUSH1 0x0 DUP3 DUP3 MSTORE PUSH1 0x20 DUP3 ADD SWAP1 POP SWAP3 SWAP2 POP POP JUMP JUMPDEST PUSH1 0x0 PUSH2 0x1EB2 DUP3 PUSH2 0x1A7F JUMP JUMPDEST PUSH2 0x1EBC DUP2 DUP6 PUSH2 0x1E96 JUMP JUMPDEST SWAP4 POP PUSH2 0x1ECC DUP2 DUP6 PUSH1 0x20 DUP7 ADD PUSH2 0x1A9B JUMP JUMPDEST PUSH2 0x1ED5 DUP2 PUSH2 0x1AC5 JUMP JUMPDEST DUP5 ADD SWAP2 POP POP SWAP3 SWAP2 POP POP JUMP JUMPDEST PUSH1 0x0 PUSH1 0x40 DUP4 ADD PUSH1 0x0 DUP4 ADD MLOAD DUP5 DUP3 SUB PUSH1 0x0 DUP7 ADD MSTORE PUSH2 0x1EFD DUP3 DUP3 PUSH2 0x1EA7 JUMP JUMPDEST SWAP2 POP POP PUSH1 0x20 DUP4 ADD MLOAD DUP5 DUP3 SUB PUSH1 0x20 DUP7 ADD MSTORE PUSH2 0x1F17 DUP3 DUP3 PUSH2 0x1EA7 JUMP JUMPDEST SWAP2 POP POP DUP1 SWAP2 POP POP SWAP3 SWAP2 POP POP JUMP JUMPDEST PUSH1 0x0 PUSH2 0x1F30 DUP4 DUP4 PUSH2 0x1EE0 JUMP JUMPDEST SWAP1 POP SWAP3 SWAP2 POP POP JUMP JUMPDEST PUSH1 0x0 PUSH1 0x20 DUP3 ADD SWAP1 POP SWAP2 SWAP1 POP JUMP JUMPDEST PUSH1 0x0 PUSH2 0x1F50 DUP3 PUSH2 0x1E6A JUMP JUMPDEST PUSH2 0x1F5A DUP2 DUP6 PUSH2 0x1E75 JUMP JUMPDEST SWAP4 POP DUP4 PUSH1 0x20 DUP3 MUL DUP6 ADD PUSH2 0x1F6C DUP6 PUSH2 0x1E86 JUMP JUMPDEST DUP1 PUSH1 0x0 JUMPDEST DUP6 DUP2 LT ISZERO PUSH2 0x1FA8 JUMPI DUP5 DUP5 SUB DUP10 MSTORE DUP2 MLOAD PUSH2 0x1F89 DUP6 DUP3 PUSH2 0x1F24 JUMP JUMPDEST SWAP5 POP PUSH2 0x1F94 DUP4 PUSH2 0x1F38 JUMP JUMPDEST SWAP3 POP PUSH1 0x20 DUP11 ADD SWAP10 POP POP PUSH1 0x1 DUP2 ADD SWAP1 POP PUSH2 0x1F70 JUMP JUMPDEST POP DUP3 SWAP8 POP DUP8 SWAP6 POP POP POP POP POP POP SWAP3 SWAP2 POP POP JUMP JUMPDEST PUSH1 0x0 PUSH1 0x20 DUP3 ADD SWAP1 POP DUP2 DUP2 SUB PUSH1 0x0 DUP4 ADD MSTORE PUSH2 0x1FD4 DUP2 DUP5 PUSH2 0x1F45 JUMP JUMPDEST SWAP1 POP SWAP3 SWAP2 POP POP JUMP JUMPDEST PUSH1 0x0 DUP1 PUSH1 0x40 DUP4 DUP6 SUB SLT ISZERO PUSH2 0x1FF3 JUMPI PUSH2 0x1FF2 PUSH2 0x1B31 JUMP JUMPDEST JUMPDEST PUSH1 0x0 PUSH2 0x2001 DUP6 DUP3 DUP7 ADD PUSH2 0x1B7F JUMP JUMPDEST SWAP3 POP POP PUSH1 0x20 PUSH2 0x2012 DUP6 DUP3 DUP7 ADD PUSH2 0x1B7F JUMP JUMPDEST SWAP2 POP POP SWAP3 POP SWAP3 SWAP1 POP JUMP JUMPDEST PUSH1 0x0 PUSH1 0x40 DUP3 ADD SWAP1 POP DUP2 DUP2 SUB PUSH1 0x0 DUP4 ADD MSTORE PUSH2 0x2036 DUP2 DUP6 PUSH2 0x1AD6 JUMP JUMPDEST SWAP1 POP DUP2 DUP2 SUB PUSH1 0x20 DUP4 ADD MSTORE PUSH2 0x204A DUP2 DUP5 PUSH2 0x1AD6 JUMP JUMPDEST SWAP1 POP SWAP4 SWAP3 POP POP POP JUMP JUMPDEST PUSH32 0x4E487B7100000000000000000000000000000000000000000000000000000000 PUSH1 0x0 MSTORE PUSH1 0x22 PUSH1 0x4 MSTORE PUSH1 0x24 PUSH1 0x0 REVERT JUMPDEST PUSH1 0x0 PUSH1 0x2 DUP3 DIV SWAP1 POP PUSH1 0x1 DUP3 AND DUP1 PUSH2 0x209A JUMPI PUSH1 0x7F DUP3 AND SWAP2 POP JUMPDEST PUSH1 0x20 DUP3 LT DUP2 SUB PUSH2 0x20AD JUMPI PUSH2 0x20AC PUSH2 0x2053 JUMP JUMPDEST JUMPDEST POP SWAP2 SWAP1 POP JUMP JUMPDEST PUSH32 0x6E6F20706F6B656E6D6F6E7320686572652E0000000000000000000000000000 PUSH1 0x0 DUP3 ADD MSTORE POP JUMP JUMPDEST PUSH1 0x0 PUSH2 0x20E9 PUSH1 0x12 DUP4 PUSH2 0x1A8A JUMP JUMPDEST SWAP2 POP PUSH2 0x20F4 DUP3 PUSH2 0x20B3 JUMP JUMPDEST PUSH1 0x20 DUP3 ADD SWAP1 POP SWAP2 SWAP1 POP JUMP JUMPDEST PUSH1 0x0 PUSH1 0x20 DUP3 ADD SWAP1 POP DUP2 DUP2 SUB PUSH1 0x0 DUP4 ADD MSTORE PUSH2 0x2118 DUP2 PUSH2 0x20DC JUMP JUMPDEST SWAP1 POP SWAP2 SWAP1 POP JUMP JUMPDEST PUSH1 0x0 DUP2 SWAP1 POP SWAP2 SWAP1 POP JUMP JUMPDEST PUSH2 0x213A PUSH2 0x2135 DUP3 PUSH2 0x199C JUMP JUMPDEST PUSH2 0x211F JUMP JUMPDEST DUP3 MSTORE POP POP JUMP JUMPDEST PUSH1 0x0 DUP2 PUSH1 0x60 SHL SWAP1 POP SWAP2 SWAP1 POP JUMP JUMPDEST PUSH1 0x0 PUSH2 0x2158 DUP3 PUSH2 0x2140 JUMP JUMPDEST SWAP1 POP SWAP2 SWAP1 POP JUMP JUMPDEST PUSH1 0x0 PUSH2 0x216A DUP3 PUSH2 0x214D JUMP JUMPDEST SWAP1 POP SWAP2 SWAP1 POP JUMP JUMPDEST PUSH2 0x2182 PUSH2 0x217D DUP3 PUSH2 0x1B56 JUMP JUMPDEST PUSH2 0x215F JUMP JUMPDEST DUP3 MSTORE POP POP JUMP JUMPDEST PUSH1 0x0 PUSH2 0x2194 DUP3 DUP7 PUSH2 0x2129 JUMP JUMPDEST PUSH1 0x20 DUP3 ADD SWAP2 POP PUSH2 0x21A4 DUP3 DUP6 PUSH2 0x2129 JUMP JUMPDEST PUSH1 0x20 DUP3 ADD SWAP2 POP PUSH2 0x21B4 DUP3 DUP5 PUSH2 0x2171 JUMP JUMPDEST PUSH1 0x14 DUP3 ADD SWAP2 POP DUP2 SWAP1 POP SWAP5 SWAP4 POP POP POP POP JUMP JUMPDEST PUSH32 0x4E487B7100000000000000000000000000000000000000000000000000000000 PUSH1 0x0 MSTORE PUSH1 0x12 PUSH1 0x4 MSTORE PUSH1 0x24 PUSH1 0x0 REVERT JUMPDEST PUSH1 0x0 PUSH2 0x21FF DUP3 PUSH2 0x199C JUMP JUMPDEST SWAP2 POP PUSH2 0x220A DUP4 PUSH2 0x199C JUMP JUMPDEST SWAP3 POP DUP3 PUSH2 0x221A JUMPI PUSH2 0x2219 PUSH2 0x21C5 JUMP JUMPDEST JUMPDEST DUP3 DUP3 MOD SWAP1 POP SWAP3 SWAP2 POP POP JUMP JUMPDEST PUSH32 0x4E487B7100000000000000000000000000000000000000000000000000000000 PUSH1 0x0 MSTORE PUSH1 0x32 PUSH1 0x4 MSTORE PUSH1 0x24 PUSH1 0x0 REVERT JUMPDEST PUSH1 0x0 DUP2 SLOAD SWAP1 POP PUSH2 0x2263 DUP2 PUSH2 0x2082 JUMP JUMPDEST SWAP1 POP SWAP2 SWAP1 POP JUMP JUMPDEST PUSH32 0x4E487B7100000000000000000000000000000000000000000000000000000000 PUSH1 0x0 MSTORE PUSH1 0x41 PUSH1 0x4 MSTORE PUSH1 0x24 PUSH1 0x0 REVERT JUMPDEST PUSH1 0x0 DUP2 SWAP1 POP DUP2 PUSH1 0x0 MSTORE PUSH1 0x20 PUSH1 0x0 KECCAK256 SWAP1 POP SWAP2 SWAP1 POP JUMP JUMPDEST PUSH1 0x0 PUSH1 0x20 PUSH1 0x1F DUP4 ADD DIV SWAP1 POP SWAP2 SWAP1 POP JUMP JUMPDEST PUSH1 0x0 DUP3 DUP3 SHL SWAP1 POP SWAP3 SWAP2 POP POP JUMP JUMPDEST PUSH1 0x0 PUSH1 0x8 DUP4 MUL PUSH2 0x22FB PUSH32 0xFFFFFFFFFFFFFFFFFFFFFFFFFFFFFFFFFFFFFFFFFFFFFFFFFFFFFFFFFFFFFFFF DUP3 PUSH2 0x22BE JUMP JUMPDEST PUSH2 0x2305 DUP7 DUP4 PUSH2 0x22BE JUMP JUMPDEST SWAP6 POP DUP1 NOT DUP5 AND SWAP4 POP DUP1 DUP7 AND DUP5 OR SWAP3 POP POP POP SWAP4 SWAP3 POP POP POP JUMP JUMPDEST PUSH1 0x0 DUP2 SWAP1 POP SWAP2 SWAP1 POP JUMP JUMPDEST PUSH1 0x0 PUSH2 0x2342 PUSH2 0x233D PUSH2 0x2338 DUP5 PUSH2 0x199C JUMP JUMPDEST PUSH2 0x231D JUMP JUMPDEST PUSH2 0x199C JUMP JUMPDEST SWAP1 POP SWAP2 SWAP1 POP JUMP JUMPDEST PUSH1 0x0 DUP2 SWAP1 POP SWAP2 SWAP1 POP JUMP JUMPDEST PUSH2 0x235C DUP4 PUSH2 0x2327 JUMP JUMPDEST PUSH2 0x2370 PUSH2 0x2368 DUP3 PUSH2 0x2349 JUMP JUMPDEST DUP5 DUP5 SLOAD PUSH2 0x22CB JUMP JUMPDEST DUP3 SSTORE POP POP POP POP JUMP JUMPDEST PUSH1 0x0 SWAP1 JUMP JUMPDEST PUSH2 0x2385 PUSH2 0x2378 JUMP JUMPDEST PUSH2 0x2390 DUP2 DUP5 DUP5 PUSH2 0x2353 JUMP JUMPDEST POP POP POP JUMP JUMPDEST JUMPDEST DUP2 DUP2 LT ISZERO PUSH2 0x23B4 JUMPI PUSH2 0x23A9 PUSH1 0x0 DUP3 PUSH2 0x237D JUMP JUMPDEST PUSH1 0x1 DUP2 ADD SWAP1 POP PUSH2 0x2396 JUMP JUMPDEST POP POP JUMP JUMPDEST PUSH1 0x1F DUP3 GT ISZERO PUSH2 0x23F9 JUMPI PUSH2 0x23CA DUP2 PUSH2 0x2299 JUMP JUMPDEST PUSH2 0x23D3 DUP5 PUSH2 0x22AE JUMP JUMPDEST DUP2 ADD PUSH1 0x20 DUP6 LT ISZERO PUSH2 0x23E2 JUMPI DUP2 SWAP1 POP JUMPDEST PUSH2 0x23F6 PUSH2 0x23EE DUP6 PUSH2 0x22AE JUMP JUMPDEST DUP4 ADD DUP3 PUSH2 0x2395 JUMP JUMPDEST POP POP JUMPDEST POP POP POP JUMP JUMPDEST PUSH1 0x0 DUP3 DUP3 SHR SWAP1 POP SWAP3 SWAP2 POP POP JUMP JUMPDEST PUSH1 0x0 PUSH2 0x241C PUSH1 0x0 NOT DUP5 PUSH1 0x8 MUL PUSH2 0x23FE JUMP JUMPDEST NOT DUP1 DUP4 AND SWAP2 POP POP SWAP3 SWAP2 POP POP JUMP JUMPDEST PUSH1 0x0 PUSH2 0x2435 DUP4 DUP4 PUSH2 0x240B JUMP JUMPDEST SWAP2 POP DUP3 PUSH1 0x2 MUL DUP3 OR SWAP1 POP SWAP3 SWAP2 POP POP JUMP JUMPDEST DUP2 DUP2 SUB PUSH2 0x2453 JUMPI POP POP PUSH2 0x252B JUMP JUMPDEST PUSH2 0x245C DUP3 PUSH2 0x2254 JUMP JUMPDEST PUSH8 0xFFFFFFFFFFFFFFFF DUP2 GT ISZERO PUSH2 0x2475 JUMPI PUSH2 0x2474 PUSH2 0x226A JUMP JUMPDEST JUMPDEST PUSH2 0x247F DUP3 SLOAD PUSH2 0x2082 JUMP JUMPDEST PUSH2 0x248A DUP3 DUP3 DUP6 PUSH2 0x23B8 JUMP JUMPDEST PUSH1 0x0 PUSH1 0x1F DUP4 GT PUSH1 0x1 DUP2 EQ PUSH2 0x24B9 JUMPI PUSH1 0x0 DUP5 ISZERO PUSH2 0x24A7 JUMPI DUP3 DUP8 ADD SLOAD SWAP1 POP JUMPDEST PUSH2 0x24B1 DUP6 DUP3 PUSH2 0x2429 JUMP JUMPDEST DUP7 SSTORE POP PUSH2 0x2524 JUMP JUMPDEST PUSH1 0x1F NOT DUP5 AND PUSH2 0x24C7 DUP8 PUSH2 0x2299 JUMP JUMPDEST SWAP7 POP PUSH2 0x24D2 DUP7 PUSH2 0x2299 JUMP JUMPDEST PUSH1 0x0 JUMPDEST DUP3 DUP2 LT ISZERO PUSH2 0x24FA JUMPI DUP5 DUP10 ADD SLOAD DUP3 SSTORE PUSH1 0x1 DUP3 ADD SWAP2 POP PUSH1 0x1 DUP6 ADD SWAP5 POP PUSH1 0x20 DUP2 ADD SWAP1 POP PUSH2 0x24D5 JUMP JUMPDEST DUP7 DUP4 LT ISZERO PUSH2 0x2517 JUMPI DUP5 DUP10 ADD SLOAD PUSH2 0x2513 PUSH1 0x1F DUP10 AND DUP3 PUSH2 0x240B JUMP JUMPDEST DUP4 SSTORE POP JUMPDEST PUSH1 0x1 PUSH1 0x2 DUP9 MUL ADD DUP9 SSTORE POP POP POP JUMPDEST POP POP POP POP POP POP JUMPDEST JUMP JUMPDEST PUSH32 0x4E487B7100000000000000000000000000000000000000000000000000000000 PUSH1 0x0 MSTORE PUSH1 0x31 PUSH1 0x4 MSTORE PUSH1 0x24 PUSH1 0x0 REVERT JUMPDEST PUSH2 0x2565 DUP3 PUSH2 0x1A7F JUMP JUMPDEST PUSH8 0xFFFFFFFFFFFFFFFF DUP2 GT ISZERO PUSH2 0x257E JUMPI PUSH2 0x257D PUSH2 0x226A JUMP JUMPDEST JUMPDEST PUSH2 0x2588 DUP3 SLOAD PUSH2 0x2082 JUMP JUMPDEST PUSH2 0x2593 DUP3 DUP3 DUP6 PUSH2 0x23B8 JUMP JUMPDEST PUSH1 0x0 PUSH1 0x20 SWAP1 POP PUSH1 0x1F DUP4 GT PUSH1 0x1 DUP2 EQ PUSH2 0x25C6 JUMPI PUSH1 0x0 DUP5 ISZERO PUSH2 0x25B4 JUMPI DUP3 DUP8 ADD MLOAD SWAP1 POP JUMPDEST PUSH2 0x25BE DUP6 DUP3 PUSH2 0x2429 JUMP JUMPDEST DUP7 SSTORE POP PUSH2 0x2626 JUMP JUMPDEST PUSH1 0x1F NOT DUP5 AND PUSH2 0x25D4 DUP7 PUSH2 0x2299 JUMP JUMPDEST PUSH1 0x0 JUMPDEST DUP3 DUP2 LT ISZERO PUSH2 0x25FC JUMPI DUP5 DUP10 ADD MLOAD DUP3 SSTORE PUSH1 0x1 DUP3 ADD SWAP2 POP PUSH1 0x20 DUP6 ADD SWAP5 POP PUSH1 0x20 DUP2 ADD SWAP1 POP PUSH2 0x25D7 JUMP JUMPDEST DUP7 DUP4 LT ISZERO PUSH2 0x2619 JUMPI DUP5 DUP10 ADD MLOAD PUSH2 0x2615 PUSH1 0x1F DUP10 AND DUP3 PUSH2 0x240B JUMP JUMPDEST DUP4 SSTORE POP JUMPDEST PUSH1 0x1 PUSH1 0x2 DUP9 MUL ADD DUP9 SSTORE POP POP POP JUMPDEST POP POP POP POP POP POP JUMP JUMPDEST PUSH1 0x0 PUSH2 0x2639 DUP3 PUSH2 0x1B36 JUMP JUMPDEST SWAP1 POP SWAP2 SWAP1 POP JUMP JUMPDEST PUSH1 0x0 PUSH2 0x264B DUP3 PUSH2 0x214D JUMP JUMPDEST SWAP1 POP SWAP2 SWAP1 POP JUMP JUMPDEST PUSH2 0x2663 PUSH2 0x265E DUP3 PUSH2 0x262E JUMP JUMPDEST PUSH2 0x2640 JUMP JUMPDEST DUP3 MSTORE POP POP JUMP JUMPDEST PUSH1 0x0 PUSH2 0x2675 DUP3 DUP7 PUSH2 0x2129 JUMP JUMPDEST PUSH1 0x20 DUP3 ADD SWAP2 POP PUSH2 0x2685 DUP3 DUP6 PUSH2 0x2652 JUMP JUMPDEST PUSH1 0x14 DUP3 ADD SWAP2 POP PUSH2 0x2695 DUP3 DUP5 PUSH2 0x2129 JUMP JUMPDEST PUSH1 0x20 DUP3 ADD SWAP2 POP DUP2 SWAP1 POP SWAP5 SWAP4 POP POP POP POP JUMP JUMPDEST PUSH1 0x0 PUSH2 0x26B1 DUP3 PUSH2 0x199C JUMP JUMPDEST SWAP2 POP PUSH32 0xFFFFFFFFFFFFFFFFFFFFFFFFFFFFFFFFFFFFFFFFFFFFFFFFFFFFFFFFFFFFFFFF DUP3 SUB PUSH2 0x26E3 JUMPI PUSH2 0x26E2 PUSH2 0x19A6 JUMP JUMPDEST JUMPDEST PUSH1 0x1 DUP3 ADD SWAP1 POP SWAP2 SWAP1 POP JUMP INVALID LOG2 PUSH5 0x6970667358 0x22 SLT KECCAK256 0x25 0x4C DUP11 OR SELFBALANCE MUL 0x24 TIMESTAMP GASPRICE 0xE2 BLOCKHASH 0xF8 PUSH1 0x0 0x26 PUSH31 0x938B832E37E6C8E0DD3D60E3A287F9AA64736F6C6343000813003368747470 PUSH20 0x3A2F2F692E6E616D752E77696B692F692F776B77 BASEFEE PUSH3 0x6C3331 CODECOPY PUSH20 0x43466C5452367074395034416E68617557655974 CODECOPY PUSH2 0x3238 MLOAD PUSH21 0x4766353044625232684155725A3768636162647749 CALLER 0x4B PUSH23 0x5053484A64364A6F4C4A39505A4D4F4E4E586364453073 0x4F PUSH18 0x672E7765627068747470733A2F2F6D626C6F PUSH8 0x7468756D622D7068 PUSH10 0x6E662E70737461746963 0x2E PUSH15 0x65742F32303136303831375F323539 0x2F PUSH19 0x65747370655F31343731343131383839303132 CALLDATALOAD PUSH20 0x43326A5F504E472F254337254337254334254142 0x25 NUMBER CALLER 0x25 CHAINID ORIGIN 0x5F 0x25 ORIGIN CODESIZE BALANCE 0x25 ORIGIN CODECOPY 0x2E PUSH17 0x6E673F747970653D773830306874747073 GASPRICE 0x2F 0x2F PUSH10 0x2E6E616D752E77696B69 0x2F PUSH10 0x2F717857336E4F783363 PREVRANDAO PUSH22 0x365547536147544B6D37436B4A6762704935434D4A48 0x49 PUSH18 0x6C6C33594D4148374468434E4A4932653630 PREVRANDAO CALLDATALOAD PUSH23 0x4D4F726570526163733453735A48455F6678334A304A66 0x4B PUSH26 0x344E4E4E512E6769660000000000000000000000000000000000 "
				},
				"gasEstimates": {
					"creation": {
						"codeDepositCost": "2004000",
						"executionCost": "infinite",
						"totalCost": "infinite"
					},
					"external": {
						"allowance(address,address)": "infinite",
						"approve(address,uint256)": "23169",
						"balanceOf(address)": "2886",
						"balances(address)": "2837",
						"burn(uint256)": "infinite",
						"buyPokenmon()": "infinite",
						"decimals()": "2538",
						"getPokenmon()": "infinite",
						"getPokenmonUsers()": "infinite",
						"name()": "infinite",
						"pokenmons(address,uint256)": "infinite",
						"symbol()": "infinite",
						"totalSupply()": "2497",
						"transfer(address,uint256)": "infinite",
						"transferFrom(address,address,uint256)": "infinite",
						"transferPoke(address)": "infinite",
						"users(uint256)": "5070"
					}
				},
				"methodIdentifiers": {
					"allowance(address,address)": "dd62ed3e",
					"approve(address,uint256)": "095ea7b3",
					"balanceOf(address)": "70a08231",
					"balances(address)": "27e235e3",
					"burn(uint256)": "42966c68",
					"buyPokenmon()": "f5bf26fc",
					"decimals()": "313ce567",
					"getPokenmon()": "78196cbc",
					"getPokenmonUsers()": "2e7099a7",
					"name()": "06fdde03",
					"pokenmons(address,uint256)": "efa9fbc5",
					"symbol()": "95d89b41",
					"totalSupply()": "18160ddd",
					"transfer(address,uint256)": "a9059cbb",
					"transferFrom(address,address,uint256)": "23b872dd",
					"transferPoke(address)": "e3e2940f",
					"users(uint256)": "365b98b2"
				}
			},
			"storageLayout": {
				"storage": [
					{
						"astId": 6,
						"contract": "contracts/Poketmon.sol:Pokenmon",
						"label": "name",
						"offset": 0,
						"slot": "0",
						"type": "t_string_storage"
					},
					{
						"astId": 8,
						"contract": "contracts/Poketmon.sol:Pokenmon",
						"label": "symbol",
						"offset": 0,
						"slot": "1",
						"type": "t_string_storage"
					},
					{
						"astId": 11,
						"contract": "contracts/Poketmon.sol:Pokenmon",
						"label": "decimals",
						"offset": 0,
						"slot": "2",
						"type": "t_uint8"
					},
					{
						"astId": 14,
						"contract": "contracts/Poketmon.sol:Pokenmon",
						"label": "totalSupply",
						"offset": 0,
						"slot": "3",
						"type": "t_uint256"
					},
					{
						"astId": 16,
						"contract": "contracts/Poketmon.sol:Pokenmon",
						"label": "owner",
						"offset": 0,
						"slot": "4",
						"type": "t_address"
					},
					{
						"astId": 20,
						"contract": "contracts/Poketmon.sol:Pokenmon",
						"label": "balances",
						"offset": 0,
						"slot": "5",
						"type": "t_mapping(t_address,t_uint256)"
					},
					{
						"astId": 27,
						"contract": "contracts/Poketmon.sol:Pokenmon",
						"label": "allowance",
						"offset": 0,
						"slot": "6",
						"type": "t_mapping(t_address,t_mapping(t_address,t_uint256))"
					},
					{
						"astId": 323,
						"contract": "contracts/Poketmon.sol:Pokenmon",
						"label": "tokenPrice",
						"offset": 0,
						"slot": "7",
						"type": "t_uint256"
					},
					{
						"astId": 330,
						"contract": "contracts/Poketmon.sol:Pokenmon",
						"label": "pokenmonName",
						"offset": 0,
						"slot": "8",
						"type": "t_array(t_string_storage)dyn_storage"
					},
					{
						"astId": 337,
						"contract": "contracts/Poketmon.sol:Pokenmon",
						"label": "pokenmonUrl",
						"offset": 0,
						"slot": "9",
						"type": "t_array(t_string_storage)dyn_storage"
					},
					{
						"astId": 343,
						"contract": "contracts/Poketmon.sol:Pokenmon",
						"label": "pokenmons",
						"offset": 0,
						"slot": "10",
						"type": "t_mapping(t_address,t_array(t_struct(Pokens)317_storage)dyn_storage)"
					},
					{
						"astId": 347,
						"contract": "contracts/Poketmon.sol:Pokenmon",
						"label": "users",
						"offset": 0,
						"slot": "11",
						"type": "t_array(t_struct(Users)320_storage)dyn_storage"
					}
				],
				"types": {
					"t_address": {
						"encoding": "inplace",
						"label": "address",
						"numberOfBytes": "20"
					},
					"t_array(t_string_storage)dyn_storage": {
						"base": "t_string_storage",
						"encoding": "dynamic_array",
						"label": "string[]",
						"numberOfBytes": "32"
					},
					"t_array(t_struct(Pokens)317_storage)dyn_storage": {
						"base": "t_struct(Pokens)317_storage",
						"encoding": "dynamic_array",
						"label": "struct Pokenmon.Pokens[]",
						"numberOfBytes": "32"
					},
					"t_array(t_struct(Users)320_storage)dyn_storage": {
						"base": "t_struct(Users)320_storage",
						"encoding": "dynamic_array",
						"label": "struct Pokenmon.Users[]",
						"numberOfBytes": "32"
					},
					"t_mapping(t_address,t_array(t_struct(Pokens)317_storage)dyn_storage)": {
						"encoding": "mapping",
						"key": "t_address",
						"label": "mapping(address => struct Pokenmon.Pokens[])",
						"numberOfBytes": "32",
						"value": "t_array(t_struct(Pokens)317_storage)dyn_storage"
					},
					"t_mapping(t_address,t_mapping(t_address,t_uint256))": {
						"encoding": "mapping",
						"key": "t_address",
						"label": "mapping(address => mapping(address => uint256))",
						"numberOfBytes": "32",
						"value": "t_mapping(t_address,t_uint256)"
					},
					"t_mapping(t_address,t_uint256)": {
						"encoding": "mapping",
						"key": "t_address",
						"label": "mapping(address => uint256)",
						"numberOfBytes": "32",
						"value": "t_uint256"
					},
					"t_string_storage": {
						"encoding": "bytes",
						"label": "string",
						"numberOfBytes": "32"
					},
					"t_struct(Pokens)317_storage": {
						"encoding": "inplace",
						"label": "struct Pokenmon.Pokens",
						"members": [
							{
								"astId": 314,
								"contract": "contracts/Poketmon.sol:Pokenmon",
								"label": "url",
								"offset": 0,
								"slot": "0",
								"type": "t_string_storage"
							},
							{
								"astId": 316,
								"contract": "contracts/Poketmon.sol:Pokenmon",
								"label": "name",
								"offset": 0,
								"slot": "1",
								"type": "t_string_storage"
							}
						],
						"numberOfBytes": "64"
					},
					"t_struct(Users)320_storage": {
						"encoding": "inplace",
						"label": "struct Pokenmon.Users",
						"members": [
							{
								"astId": 319,
								"contract": "contracts/Poketmon.sol:Pokenmon",
								"label": "account",
								"offset": 0,
								"slot": "0",
								"type": "t_address"
							}
						],
						"numberOfBytes": "32"
					},
					"t_uint256": {
						"encoding": "inplace",
						"label": "uint256",
						"numberOfBytes": "32"
					},
					"t_uint8": {
						"encoding": "inplace",
						"label": "uint8",
						"numberOfBytes": "1"
					}
				}
			},
			"userdoc": {
				"kind": "user",
				"methods": {},
				"version": 1
			}
		}
	}
}